:10000000e8ff0020090400005d0400005d0400001a
:100010005d0400005d0400005d0400005d0400005c
:100020005d0400005d0400005d0400005d0400004c
:100030005d0400005d0400005d0400005d0400003c
:100040005d0400005d0400005d0400005d0400002c
:1004000006000000000000000e4a106810f0ff0017
:1004100015d00d4b98470b4a106810f0ff000ed016
:100420000a4b012018600a4c20680028fcd00020ec
:100430001060186020680028fcd006480047064875
:1004400000470000081200106305000004e50140a9
:1004500000e401405d04000075040000bff34f8f0d
:10046000024903480860bff34f8ffee70ced00e040
:100470000400fa0500b52e4a2e48801a91b020f0eb
:1004800003000023144683422b4a03d0d158e15085
:100490000433f8e729492a48401a134420f003009e
:1004a0000022824203d000248c500432f9e7254c0c
:1004b0002548001b20f0030000222546824203d07d
:1004c0009958a9500432f9e7204a2149891a21f0a4
:1004d000030100238b4203d00020d0500433f9e7fe
:1004e00000f04ef800f03cf800f030fc00f000ffa7
:1004f00000f02cfa08b100f019fb164d0121ac6098
:10050000684600f0f7fc009801a900f0a1fc20b9b2
:10051000039b114843f001039847bff34f8fea68ec
:100520000e4b02f4e0621343eb60bff34f8ffee724
:1005300000000020000000206023000000000020d8
:100540000801002000040020080400200804002006
:100550005027002000ed00e0042200000400fa050e
:100560007047704700207047032070470320704792
:100570000320704700207047032070477047000039
:100580004f4b1b78062b0ed14e4b1b6818070ad118
:100590004d4b1b6803f0f003302b04d14b4b1b6811
:1005a00013f0f00f73d0464b1b78062b0ed1454b42
:1005b0001b6819070ad1444b1b6803f0f003302b6a
:1005c00004d1424b1b6813f0f00f66d03c4b1b78f4
:1005d000062b0ed13b4b1b681a070ad13a4b1b68fe
:1005e00003f0f003302b04d1384b1a6812f0f002fc
:1005f00057d0334b1b78062b0dd1324b1b681b0792
:1006000009d1314b1b6803f0f002302a50d003f0bf
:10061000e003402b4cd04ff01023d3f80022002ae7
:1006200003dbd3f80032002b2dda294b0122c3f86b
:100630000425d3f80024002afbd04ff01022152106
:10064000c2f80012d3f80024002afbd04ff0102388
:100650001522c3f804221e4bd3f80024002afad036
:100660000022c3f80425d3f80024002afbd0bff3ee
:100670004f8f184a184bd16801f4e0610b43d360e7
:10068000bff34f8ffee7154b154a1a607047154ba5
:10069000da6822f08072da6085e7134b03221a6071
:1006a00094e74ff08043c3f80c21c3f81021a0e772
:1006b0000e4b1a680e4b02f04f021a60abe700bff8
:1006c000e00f00f0e40f00f0e80f00f0ec0f00f096
:1006d00000e0014000ed00e00400fa050004002005
:1006e0000090d003f0ed00e0a0050040580200109b
:1006f000e40e004010b500231a464ff0ff31c45cf1
:100700008c4218bf00220132042a04d00133102b7e
:1007100003d02146f3e7002010bd012010bd0000ea
:1007200008b501f071f8bff34f8f054a054bd1684a
:1007300001f4e0610b43d360bff34f8ffee700bfce
:1007400000ed00e00400fa051fb5436a994202d3a8
:100750004ff0ff301ee0c269531c1ad0036b994260
:1007600004d2013b591a8369585c13e0cb1a0b4938
:1007700000208de803000a49013a0868d21a0df1f9
:100780000f01012300f0e1fb0028e1d19df80f00eb
:1007900000e0002005b05df804fb00bfa08601006a
:1007a0006014002038b5026a836a9a42044602d374
:1007b0004ff0ff3038bdc36a0f2b11d90c48616967
:1007c000102200f0e3fd05460028f1d11023206936
:1007d0000749224601f0e0fb6369e562103363617b
:1007e000236a01332362e36a5a1ce262e05c38bd8b
:1007f00050170020f7b5134b134e05461446002240
:100800008de80c0030682a4623460f4600f00cfca9
:1008100008b1002013e00d4b0090019330680c49a3
:100820003a46234600f091fb0028f2d128460849b9
:10083000224601f099fcd0f1010038bf002003b03e
:10084000f0bd00bf20a1070060140020a0860100b9
:1008500050170020c369013310b5044616d0036b4e
:100860008269581c2063d154626b236b93420dd371
:10087000a069e169fff7beff10b9a36b0133a36361
:10088000e269636b1344e36100232363636a01330a
:100890006362002010bd0000f0b51e46244b9fb0df
:1008a00007460c4618686946154600f0d1fa20b193
:1008b0006b1c36d14ff480530493049b1d4914974d
:1008c000b3f5805f84bf4ff4805304931a4b1393a6
:1008d0001a4b1593236819934ff0ff3300221a9394
:1008e000049b179218921b921c931d92144b154a4d
:1008f00016950fa801f0f4f9134a1d9b11681944cd
:10090000116080b91b9820b10fa8ff21fff7a2ff4b
:10091000f8e7189ab24208d8169b013306d0226035
:1009200004e0082002e0052000e006201fb0f0bd32
:100930006014002055080000201400201804002036
:1009400049070000a5070000181400202de9f04f0a
:10095000544b554a554e1360803391b03360544b1d
:1009600000220df113001a6000f02afc002840f06c
:1009700095809df813305a1e012a40f28f80052b76
:1009800000f08c8009a800f0d9fe002840f0868095
:100990000d9b002b40f082800e9c621c7ed1fff7e5
:1009a000edfd9df81330032b08bf022002d0042b6d
:1009b00002d10320fff7b4fe3e4b3f4f3f4d2021b5
:1009c00019600b9ba3f1300038603d483022026073
:1009d0002a603c4a402010603b4a3c48403b136040
:1009e000102200f0d3fc002858d12d68d7f800a0c1
:1009f000d6f800900395054609eb451000f054ff2a
:100a0000baf5805fddf80cb094bf00270127564689
:100a10005eb1b6f5805f34bfb0464ff480582c48c5
:100a20005946424600f0b2fc58b105a827491022a9
:100a300001f09afb002808bf2c4601351c2ddbd1a4
:100a400011e0b6eb0806c34402d1022f08bf03270a
:100a50000197cdf80080002005a910221c4b01f061
:100a600015fa0227d4e7631c10d009eb4419484655
:100a7000fff740fe40b109f11000fff73bfe0028f0
:100a800008bf4ff0ff3401e04ff0ff34114b1c6002
:100a9000013408bf04208dd0012000e0002011b0f7
:100aa000bde8f08f003c0000080400206c1400201a
:100ab0001814002064140020701400206814002012
:100ac0000c04002010040020140400205014002006
:100ad000501700201c14002070b5124e94b005462b
:100ae00001243068039405a900f0b2f9a8b9b5b1a2
:100af0000a9b0490013d5b421d40049bab424ff0ba
:100b000001000dd8084b03900093306804a903aa94
:100b1000002300f0e0fa0028efd0002000e020469b
:100b200014b070bd6014002040420f002de9f04f5a
:100b3000734b74481968c3b0102200f027fc0028da
:100b400040f0db80704b71481968714b6d4a1b682f
:100b500003eb4111103100f092fe6e4bd3f8008090
:100b60006d4b1e68002e44d003a84146102208f1a8
:100b7000100900f00bfc002837d10f2e37d9049b49
:100b800003f11002964232d3069a002a2fd15f4d0c
:100b900002930fcd18ac0fc40fcd0fc495e80f0012
:100ba00084e80f005d4c0398206024a900f050f900
:100bb000002835d133a8259f00f0c0fd60bb9df80b
:100bc000e430f3b1484602a94ff0ff323b46fff74d
:100bd00063fe834670b92368dff840a1013300f05b
:100be00087803846fff778fff0b9082002e0072039
:100bf00000e030464a4b1b68002b18bf0120fff76e
:100c00008ffd9df8ca30022bdcd1359b203fff1aa7
:100c1000299b5a421740d5e74ff0ff332360d1e7b5
:100c20004ff0ff372760cde718ad0fcd374c0fc41d
:100c30000fcd0fc495e80f0084e80f00484602a9c5
:100c40005a463b46fff728fe0028d3d19df8c9300d
:100c5000002b4dd011a800f071fd139bdaf80000b5
:100c60000990203b0793bdf85030adf820309df837
:100c700052308df822309df853308df823309df896
:100c800014308df828309df815308df829309df8f6
:100c900016308df82a309df817308df82b3033a997
:100ca000029b0b9300f0d4f810bb349b232b1fd96d
:100cb0001c4bdaf8000001228de80c000ca9102270
:100cc000142300f042f998b90cab11aa934204d254
:100cd00013f8012bff2af8d00ae009d107a8102148
:100ce0001422fff787fd18b90d4b1a6801321a60fc
:100cf000049b10339844f61a34e743b0bde8f08ff4
:100d00000c040020741400201c1400202014002067
:100d10006c14002010040020140400206014002033
:100d200018140020a0860100074b014603f1800241
:100d300018469b688b4205d000f110039342f7d10f
:100d40004ff0ff30704700bf003c000010b501f0cd
:100d500065f90446fff706fc002c18bf204610bdbd
:100d6000e0b51d460f461646fff7deff431c0fd0c9
:100d7000436872199a420dd8c368016813f0020fd4
:100d80000ad1384631442a46bde8e04001f048b96e
:100d90000520e0bd0420e0bd384631442a46fff777
:100da000e3fbe0bd70b51d460c461646fff7bcffe1
:100db000431c0fd0436862199a420dd8c36800687b
:100dc00013f0020f0ad1204431462a46bde8704094
:100dd00001f030b9052070bd042070bd20443146bb
:100de0002a46fff7c3fb70bd73b50e461546fff7e5
:100df0009bff326803681344421c0446019308d0e9
:100e00004db1c3689b070dd401a8294601f066f9ce
:100e100002e0052000e004202268019b9b1a336059
:100e200002b070bd01a82946fff7a2fbf4e708b5a0
:100e3000fff77aff421c05d0c3689b0704d5fff774
:100e400099fb08bd002008bdbde8084001f024b9a9
:100e5000f0b58db00c46fff767ff421c054606d083
:100e6000c3689b0705d501a8fff786fb04e00520b2
:100e700026e001a801f012f9ab6823606b6863609b
:100e80002b68a360074601ae04f10c030df12c0c96
:100e9000324603ca624518605960164603f10803da
:100ea000f6d110681860eb68c3f3400284f838206c
:100eb00003f001029b0884f8392084f83a30384660
:100ec0000db0f0bd30b50023094c04eb0314dab2c9
:100ed000a468651c09d00d78954288bf40f823406e
:100ee00001330132082bd2b2eed10a7030bd00bfff
:100ef000003c0000f0b599b008238df803304ff0a6
:100f0000ff33036005460f4601a80df10301fff70b
:100f1000d9ff00249df80330e6b2b34212d918abd2
:100f200003eb860609a956f85c0cfff791ff38b968
:100f30009df85e30bb4203d156f85c3c2b6002e06a
:100f40000134e7e7012019b0f0bd2de9f04f91b071
:100f5000894601a9804692469b46fff779ffe8b98a
:100f60009df868600e9f1b9c0136bc4238bf3c4612
:100f7000f6b24046494652465b46fff7f1fe05464b
:100f800038b94046fff753ffe41b10b1002cf8d1ed
:100f90000625013e16f0ff06ebd1284611b0bde84c
:100fa000f08f000030b589b005460c46fff7bcfe57
:100fb000431c33d0c368d90701d401202fe0194b5b
:100fc00001228de80c00284603a910221423fff704
:100fd000bcff20bb039b002befd013f00f00ecd124
:100fe000059a0132e9d09df81850ff2de5d09df803
:100ff0001910ff29e1d09df81a20ff2addd02033f7
:101000002360bdf81030a3809df81230a3719df8c5
:101010001b30e57121726272a37200e0052009b0f5
:1010200030bd00bfa08601002de9f04f95b00c4601
:101030001d4605a99df87830019092460393fff76d
:1010400007ff0746002842d1ddf848901f9b4b451b
:1010500038bf4b460293002d39d0099bddf80c8038
:10106000029ec3f1000c04ea0c0c9c442b1963454e
:101070008cbfc4eb0c0bab465b4601982146524635
:10108000fff790fe034660b901980093fff7cffe8b
:101090004e45009b14d3c9eb060610b1002ef3d1c8
:1010a000062308f1ff32b8f1000f01d09046e3e7c4
:1010b00023b95c44da44cbeb0505cce71f4606e0d8
:1010c00000284ff000060cbf33460623e9e73846f8
:1010d00015b0bde8f08f2de9f04790b0894601a921
:1010e000804692461e46fff7b3fed0b90e9f189c6d
:1010f0000136bc4238bf3c46f6b2404649465246ed
:10110000fff772fe054638b94046fff790fee41b34
:1011100010b1002cf8d10625013e16f0ff06ecd1e7
:10112000284610b0bde8f087044a00231370044a33
:101130001360044a1360044a137070478000002053
:10114000a0000020000000209c00002030b5174bbc
:1011500091b0186801a9fff77bfe28bb144a059bd4
:101160001360144b144c1b78144a02991bb10020d5
:101170002060116018e0039800f110030069002856
:10118000f5d010f00f00f2d19d680135efd01d7b36
:10119000ff2decd05d7bff2de9d09d7bff2de6d0b0
:1011a0001b692360cb1a136011b030bda80000206a
:1011b000980000209400002074000020b00000205f
:1011c0002de9f04f3f4e89b033780390002b6ed15c
:1011d000052333703c4b1b78002b6ad13b4bdff867
:1011e00004a13b4c0194012700971a68daf800002b
:1011f00004a91023fff7a9fe054600285ad1354857
:1012000004a9102200f0b0ff08b102234de0dff87e
:10121000d890dff8d88000970194daf80000d8f869
:10122000002049461023fff790fe0546002841d1d3
:10123000d9f80040284ba4f140029a4201d8210776
:1012400001d0032331e0d8f800304ff6ff78c4eb2b
:10125000030b1f4bdaf8000020490022702c34bf2a
:10126000274670278de80c005a463b46fff76dfe77
:1012700088b9bb44e41b0346184a4046d15c02933c
:1012800000f036fb029b0133bb428046f4d3002cb6
:10129000dfd1034601e04ff6ff73114ab9f804802d
:1012a0001360434514bf04230623337002e0002576
:1012b00000e007253378039a2846137009b0bde88b
:1012c000f08f00bf9500002080000020a4000020c7
:1012d000a0860100b5210000c0ff0f00040000201f
:1012e00078000020a8000020840000207c0000205e
:1012f00038b51d4c1d4d20460421fff7fbfd30b9cc
:101300002368013303d01a4b01221a700ae0164ced
:1013100002212046fff7eefd40b92368013305d0d6
:10132000134b1870fff712ff044618b105232b70fa
:10133000012416e00f4b104a1b6812680f491a442b
:10134000a2f1100008600e49203a0a600d49d31a34
:101350000b60fff7e9fe0c4b04481c602c70fff794
:101360002fff204638bd00bfa800002095000020b8
:101370009400002074000020b0000020a400002091
:101380007c000020ac000020780000202de9f3470d
:10139000324b0c461b783249154606460a68894688
:1013a000002b52d12f49097806294ed12032944280
:1013b0004dd2121baa424ad3002848d01f2c31d844
:1013c0000093dff8b480284b284fdff8a8a0cdf8b1
:1013d00004a01a68d8f8000039461023fff7b5fdbd
:1013e000002837d18de80104214bd8f800001a6895
:1013f00007f110011023fff7a8fd58bb4ff0004381
:10140000c4f12008a84528bfa846bb614ff0ff33b0
:1014100030463919fb61424600f0b5fe4444c8eb42
:1014200005054644adb1124b1a68d9f80030203a90
:10143000d21a104b00218de80a000f4b3146186874
:1014400022442b46fff781fd04e0072002e0042040
:1014500000e0284602b0bde8f08700bf8000002011
:101460008400002095000020a4000020040000203b
:101470007c000020a0860100a8000020f0b51a4dd5
:1014800095b0044605a92868fff7e2fc174b1a78c7
:10149000012a1e4624d0164b0a9a1f68154b1b685a
:1014a000524213400f3703931740039bbb420ed8a1
:1014b0000123049304b1a0470f4b0093286803a9ac
:1014c00004aa0023fff707fe0028eed009e00b4b2b
:1014d00000241c6001233370fff726fe204600e045
:1014e000002015b0f0bd00bfa8000020950000202e
:1014f000a40000207400002040420f00780000206b
:101500006f2838b504460d4601d8012038bd0307c1
:10151000fbd1094b1b689842f7d81046fff7aeff86
:101520000028f2d1054b01221a70054b1860054bbb
:101530001c60054b1d7038bdb000002080000020ed
:10154000a0000020000000209c0000202de9f04faa
:1015500015466d4a1c46137885b0064688461bb969
:10156000fff7e2fd03230ee0684f3a689042ba4667
:1015700003d0fff7d9fd0426c1e015f0030c05d018
:10158000fff7d2fd052323700426b9e0702df7d8ac
:101590005f4ad2f800b05845ebd8c0eb0b02aa4224
:1015a000eed319b9fff7c0fd0723ece7012b6bd190
:1015b000584b0293c0f12009a94528bfa946181825
:1015c0004e444a46cdf80cc000f0ddfd1f2e3e60b3
:1015d000029bddf80cc003d884f800c066468fe09b
:1015e00018464d490293102200f0befd029b18b12f
:1015f000fff79afd06237ce01b69484a454fa3f19b
:1016000040019142f4d81907f2d1ba6932f0004290
:10161000eed1f9690131ebd120339b45e8d14ff090
:101620000043bb613e4bdff80cc11b78bb753d4be3
:10163000dff804b11a703c4b0092cdf804c0196871
:10164000dbf80000cdf80cc03a461023fff7ecfca5
:10165000ddf80cc0002833d18de80110334bdbf8e6
:101660000000196810373a461023fff7ddfc38bb3d
:1016700097e80f00dff8b8c08ce80f00224a022379
:101680001370c9eb0505c84415b925702e4637e01f
:1016900041462a461f4800f076fd244b1968244b2a
:1016a0001b682039c91a234b00228de80c00224bfd
:1016b000184a186831442b46fff7b6fc064608b1b5
:1016c000082316e0daf80030114a164f1d4413685b
:1016d00038709d42caf8005011d1fff725fd3846f9
:1016e0003e70fff76dfd064610b93b78062b03d020
:1016f00002232370012603e00123237000e02670fb
:10170000304605b0bde8f08f80000020a00000202a
:101710000000002004000020b5210000c0ff0f00e1
:101720009c00002095000020a40000207c000020e8
:101730008400002020a10700a800002030b5164d2d
:10174000044691b0fff702fd2b682360134b1a6823
:101750002032a2609a88a2819a79a2739a68226143
:10176000da68db79e3730e4b62611b7823760d4bed
:1017700001a91868fff76cfb10b14ff0ff3307e0c9
:101780000a9b0d9a29681a44069bb1fbf3f3534355
:10179000636011b030bd00bfb000002084000020a5
:1017a00094000020a800002070b5134b88b00df104
:1017b0000f001d68fff704fd0446c8b99df80f30ff
:1017c000062b15d10d4b9a689ab10fcb08ae06e9de
:1017d0000f0032460a4b42f8084d0193094b009422
:1017e000186805f108010423fff71efc044600e019
:1017f0000724204608b070bd7c0000208400002033
:1018000020a10700a800002070b50f4b1c680f4beb
:10181000da680132054686b018bf072011d10fcb18
:1018200006ae06e90f000a4b3246002142f8045d7d
:101830008de80a00074b04f10c0118680423fff738
:10184000f3fb06b070bd00bf7c00002084000020c8
:1018500020a10700a800002010b50f230022cc5cb7
:1018600042ea4402c254ca5c13f1ff334fead21277
:10187000f5d21ab1c37b83f08703c37310bd30b5b3
:10188000034601f1100451f8045b43f8045ba142e4
:10189000f9d1103002f1100352f8041b40f8041b78
:1018a0009a42f9d130bd000030b50d4c0d4d85b0d8
:1018b00001462a462046fff7e2ff29460a4d6a46be
:1018c0001023204600f068fb284604f12001fff7b2
:1018d000c3ff06482946fff7bfff05b030bd00bf74
:1018e000d400002010220000b4000020c40000201a
:1018f00040ba83b25940c1f303134b4083ea033328
:101900009bb2d8b283ea40107047f0b5036889b043
:10191000002500245c530235202dfad1944208dac8
:1019200031f9145033f81560013623f8156001348d
:10193000f4e7b3f9004094422ed0002501245e194b
:10194000b6f90260d6eb440428d402351e2df6d138
:101950000025adf8025000ae2e445f190235b7f8ed
:1019600002c077881c2d6744b780f4d100239342ce
:1019700014da31f813606eb108ad36b205eb4606e5
:10198000476836f8205c05f1010c2db226f820cc12
:1019900027f815300133eae7002000e0204609b0bf
:1019a000f0bd70b5056904460e466369b34210daae
:1019b000a36820689847002804da04f11800012180
:1019c00000f0f0fb6369c2b29a40083315436361cb
:1019d000ebe7012025fa06f29b1b00fa06f6701ec3
:1019e00022616361284070bd2de9f84f04460a6802
:1019f0000069636900268a4602f102083746b1464b
:101a0000012523b300f00102b8f900c042ea09023f
:101a100008f10201cceb0208b8454fea50000dda9c
:101a2000636920615b1b03f00703d71b63613e44be
:101a3000daf8043033f91600bde8f88f6744013b4b
:101a400066447f004fea420901358846d9e7d5f15f
:101a5000100b10d0a26820689047002804da04f127
:101a60001800012100f09efbc0b2bbf1080fb4bf0b
:101a70005b460823c5e76ff00900bde8f88f00005a
:101a80002de9f84304460f46904639462046fff7b5
:101a9000abff011e49dbff290adc6568002df4d08d
:101aa0002068c9b2a8470028efda0120bde8f88312
:101ab000b1f5807f02d10020bde8f8836ff4807318
:101ac000cb181c2b34dc204a32f913601f4a204605
:101ad00032f91310fff765ff414606442046fff731
:101ae00083ff051e28db1a4b33f91590194b20464e
:101af00033f91510fff755ff6368814493b9b5f5c5
:101b0000807fc2d1d7e709f1ff31e36820689847a9
:101b1000011e14db94e80900c9b29847002806f1b9
:101b2000ff36c2db002eeed1e9e70846bde8f883b8
:101b30006ff00900bde8f8832846bde8f8836ff030
:101b40000a00bde8f88300bff8220000be220000b2
:101b5000202200005c2200002de9f047adf5a86dc1
:101b600004ab009323ab01930cab0293052114aba0
:101b700005460393fff715ff052100f201172846dc
:101b8000fff70fff042100f101082846fff709ffc6
:101b9000b7f58f7f00f1040900f38880b8f11e0fbc
:101ba00000f3848000264e45b2ac0ada4b4b28463f
:101bb000032133f916a0fff7f4fe013624f81a00ca
:101bc000f1e7122e07dc454b33f91630002224f8da
:101bd00013200136f5e7684621461322fff795feec
:101be000002866d1064607eb08094e4534da284638
:101bf0006946fff7f9fe00286cdb0f2803dc721c36
:101c000024f8160026e010280ad1002e54d0731ea6
:101c10002846022134f913a0fff7c3fe03300de07c
:101c20001128284604d10321fff7bbfe033003e04f
:101c30000721fff7b6fe0b304ff0000a32184a4575
:101c40003ddc04eb46060023834203d026f813a0b4
:101c50000133f9e71646c6e7b4f9003293b3684694
:101c600021463a46fff751fe002808d02ddb009ba5
:101c7000b3f90020b3f9023013449f4225d102a8e2
:101c800004eb47014246fff740fe002808d01fdb67
:101c9000029bb3f90020b3f902301344984517d1e1
:101ca0002846694602aafff7ebfe13e06ff0020038
:101cb00010e06ff003000de06ff004000ae06ff039
:101cc000050007e06ff0080004e06ff0060001e097
:101cd0006ff007000df5a86dbde8f08798220000b1
:101ce000f0b5adf52f7d0190049307a80023029174
:101cf00003920593069300f04ffa002840f0a1806c
:101d0000012101a8fff74dfe0221044601a8fff7bb
:101d100048fe00283cd105900690039b0198984707
:101d2000061e01da022087e0039b01989847051ef2
:101d3000f8db039b01989847071ef3db039b019890
:101d400098470028eedb80b2ffb2adb2f6b247eaa8
:101d5000002746ea0525ff43adb2bfb2bd4214d10c
:101d6000029b0bb9002067e0002dfbd0039b01987c
:101d70009847011ed6db029b0198c9b29847013de6
:101d80000028adb2f0da012056e06ff0010053e018
:101d900001284cd12e4b1b68002b42d02d4b2e4ad4
:101da0001a602e4a5a602e4b2e4a1a602e4a5a60ea
:101db00000231eaa082199520233b3f5907ff8d16f
:101dc00000231eaa1a4402330921e02ba2f8201195
:101dd000f7d100230233322b05d0aeaa1a440721d3
:101de00022f8421cf6e700230233122b05d0aeaadc
:101df0001a44082122f8121cf6e716481ea94ff4cf
:101e00009072fff782fd00231ea905225a52023369
:101e10003c2bf9d11e221248fff777fd0c4b002214
:101e20001a6001a80b490e4afff72afe04e00228b7
:101e300009d101a8fff790fe38b9002c3ff460af3c
:101e400003e0022001e04ff0ff300df52f7df0bde3
:101e5000040400208414002094140020f0140020b6
:101e60008c14002030170020b4140020bff34f8fd3
:101e7000044a054bd16801f4e0610b43d360bff322
:101e80004f8ffee700ed00e00400fa052de9f8436e
:101e90009df82470089c012f914632d8384d08b91e
:101ea000286202e006682e62406868620020a8622c
:101eb000e86226e0654610f801cb05f801ccc3ebdb
:101ec0000008b04505f1010cf4d324b32d4ba3f168
:101ed000100505f1200c53f8048bde68634586ea93
:101ee000080843f8048cf6d1274bc3f804550125a4
:101ef0001d60d3f80061244d8eb30023c5f8003176
:101f0000034694b3102c34bf26461026a41bdff8da
:101f10007cc01846cee70fb1032fd7d1d6f11006fb
:101f20000dd080232b7000230133b34204d04ff037
:101f3000000c05f803c0f7e7dff8548001e0dff894
:101f4000548000230e4d5e1958f803503269043353
:101f500082ea050c102bc6f810c0f3d1b6e7d5f80d
:101f60000451002dc5d0fff781ff4c4506d0044b2e
:101f7000234493f820300b550134f6e7bde8f8838d
:101f8000d4000020e400002000e00040e500002034
:101f9000c4000020b4000020f8b5002b33d01a4c48
:101fa0000125c4f804052560d4f80061164d2eb94a
:101fb000d5f80451002df7d0fff758ff0024c5f8dd
:101fc000004104690134046154b944690134446135
:101fd00034b984690134846114b9c4690134c461b9
:101fe000102b34bf1d46102500f1200c5b1b002474
:101ff0001cf804700e5d7e4016550134ac42f7d1da
:1020000021442244c9e7f8bd00e00040024bd3f868
:102010000034002bfad0704700e0014000207047e8
:1020200010b5eff3108472b600f0adf804b962b6e3
:10203000002010bd2de9f34140ea020414f003042e
:102040000746884616461fd1eff3108572b6114b2e
:102050000122c3f80425fff7d9ff0194a64208eb3b
:10206000040307d018680190019b3b51fff7ceff96
:102070000434f3e7074b0024c3f80445fff7c6ff19
:1020800025b962b6284602e0042000e0204602b0ee
:10209000bde8f08100e00140002070470e4a70b5b5
:1020a0000346054602f12806144603ccb4421860e4
:1020b0005960224603f10803f6d1206818604ff0fa
:1020c0008053002019695a694a432a601a691b69ba
:1020d0006a60ab6070bd00bf34230000f0b58db006
:1020e000044601a80d46fff7d9ff039922684b1e4d
:1020f00013402fd1286800fb01260198864229d879
:1021000099421ed00433981850f8040c0130f7d0cf
:10211000eff3108772b6114e0223c6f80435fff7ad
:1021200075ff2368c6f80835fff770ff0c4b1a6877
:102130000c4b1a600023c6f80435fff767ff07b998
:1021400062b62268039b134423602b68013b2b601b
:10215000002000e004200db0f0bd00bf00e0014011
:10216000fc0f00100401002030b50023934208d07a
:10217000c55c0133cc1814f8014ca542f6d0281bdd
:1021800030bd002030bd10b50023934203d0cc5c9d
:10219000c4540133f9e710bdec46a0e8f05f4ff0fe
:1021a00000007047b0e8f05fe546080008bf012076
:1021b000704700bf00534352319a933082d9eb0ae3
:1021c000fc3121e337000000c11100008d13000035
:1021d0007d140000011500004d1500003d170000a2
:1021e000a9170000610d0000a50d0000e90d000019
:1021f0002f0e0000510e0000c50e0000f50e00006d
:10220000a50f000006000000e4210000c821000026
:1022100000000000000000000000000000000000be
:1022200001000200030004000500070009000d0082
:102230001100190021003100410061008100c1003e
:102240000101810101020103010401060108010ce1
:102250000110011801200130014001600000000060
:102260000000000001000100020002000300030062
:102270000400040005000500060006000700070032
:1022800008000800090009000a000a000b000b0002
:102290000c000c000d000d001000110012000000d9
:1022a00008000700090006000a0005000b000400f2
:1022b0000c0003000d0002000e0001000f000000e2
:1022c000000000000000000000000000000001000d
:1022d00001000100010002000200020002000300f0
:1022e00003000300030004000400040004000500d0
:1022f00005000500050000000300040005000600bd
:102300000700080009000a000b000d000f00110073
:10231000130017001b001f0023002b0033003b009d
:1023200043005300630073008300a300c300e30075
:102330000201000000000800001000000010000072
:102340000400000000000000000000000000000089
:102350005401000002480500665e01000200000012
:082360000090d0030100000011
:103c00000000040000e00300034c7483090000007e
:103c10000000000000400000030100100000000050
:103c20000040000000c00300030100000500000088
:103c300000e0070000200000030000200c0000004e
:103c800021bbd37575030c0a64664b2496d661324a
:103c9000634d84afe8e5b025a27b0fb1834c4da7ff
:103ca000396503c6b24ac4333c646d941c7603354f
:103cb0009587f5f9e82bb22b3e3749e850e321f51b
:00000001ff
