Archive member included because of file (symbol)

/home/janet/nRF52/gcc-arm-none-eabi-4_8-2014q3/bin/../lib/gcc/arm-none-eabi/4.8.4/armv7e-m/libgcc.a(_arm_addsubdf3.o)
                              build/nrf52/migas-tr1-node/source/migas-tr1-node/app.o (__aeabi_f2d)
/home/janet/nRF52/gcc-arm-none-eabi-4_8-2014q3/bin/../lib/gcc/arm-none-eabi/4.8.4/armv7e-m/libgcc.a(_arm_muldivdf3.o)
                              build/nrf52/migas-tr1-node/source/migas-tr1-node/app.o (__aeabi_dmul)
/home/janet/nRF52/gcc-arm-none-eabi-4_8-2014q3/bin/../lib/gcc/arm-none-eabi/4.8.4/armv7e-m/libgcc.a(_arm_fixdfsi.o)
                              build/nrf52/migas-tr1-node/source/migas-tr1-node/app.o (__aeabi_d2iz)
/home/janet/nRF52/gcc-arm-none-eabi-4_8-2014q3/bin/../lib/gcc/arm-none-eabi/4.8.4/armv7e-m/libgcc.a(_arm_addsubsf3.o)
                              build/nrf52/migas-tr1-node/source/migas-tr1-node/drivers/nrf52/sht3x.o (__aeabi_fsub)
/home/janet/nRF52/gcc-arm-none-eabi-4_8-2014q3/bin/../lib/gcc/arm-none-eabi/4.8.4/armv7e-m/libgcc.a(_arm_muldivsf3.o)
                              build/nrf52/migas-tr1-node/source/migas-tr1-node/drivers/nrf52/sht3x.o (__aeabi_fmul)
/home/janet/nRF52/gcc-arm-none-eabi-4_8-2014q3/bin/../lib/gcc/arm-none-eabi/4.8.4/armv7e-m/libgcc.a(_arm_cmpsf2.o)
                              build/nrf52/migas-tr1-node/source/migas-tr1-node/app.o (__aeabi_fcmpeq)
/home/janet/nRF52/gcc-arm-none-eabi-4_8-2014q3/bin/../lib/gcc/arm-none-eabi/4.8.4/armv7e-m/libgcc.a(_arm_fixunssfsi.o)
                              build/nrf52/migas-tr1-node/source/migas-tr1-node/drivers/nrf52/sht3x.o (__aeabi_f2uiz)
/home/janet/nRF52/gcc-arm-none-eabi-4_8-2014q3/bin/../lib/gcc/arm-none-eabi/4.8.4/../../../../arm-none-eabi/lib/armv7e-m/libg_s.a(lib_a-memset.o)
                              build/nrf52/migas-tr1-node/source/migas-tr1-node/app.o (memset)
/home/janet/nRF52/gcc-arm-none-eabi-4_8-2014q3/bin/../lib/gcc/arm-none-eabi/4.8.4/../../../../arm-none-eabi/lib/armv7e-m/libg_s.a(lib_a-strlen.o)
                              build/nrf52/migas-tr1-node/source/migas-tr1-node/app.o (strlen)

Discarded input sections

 .text          0x00000000        0x0 build/nrf52/migas-tr1-node/source/migas-tr1-node/drivers/nrf52/exti.o
 .data          0x00000000        0x0 build/nrf52/migas-tr1-node/source/migas-tr1-node/drivers/nrf52/exti.o
 .bss           0x00000000        0x0 build/nrf52/migas-tr1-node/source/migas-tr1-node/drivers/nrf52/exti.o
 .text.GPIOTE_IRQHandler
                0x00000000       0x3c build/nrf52/migas-tr1-node/source/migas-tr1-node/drivers/nrf52/exti.o
 .text.Wakeup_pinInit
                0x00000000       0x64 build/nrf52/migas-tr1-node/source/migas-tr1-node/drivers/nrf52/exti.o
 .text.Wakeup_enableIrq
                0x00000000       0x10 build/nrf52/migas-tr1-node/source/migas-tr1-node/drivers/nrf52/exti.o
 .text.Wakeup_disableIrq
                0x00000000       0x10 build/nrf52/migas-tr1-node/source/migas-tr1-node/drivers/nrf52/exti.o
 .text.Wakeup_clearIrq
                0x00000000       0x10 build/nrf52/migas-tr1-node/source/migas-tr1-node/drivers/nrf52/exti.o
 .text.Wakeup_setEdge
                0x00000000       0x30 build/nrf52/migas-tr1-node/source/migas-tr1-node/drivers/nrf52/exti.o
 .bss.m_callback
                0x00000000        0x4 build/nrf52/migas-tr1-node/source/migas-tr1-node/drivers/nrf52/exti.o
 .data.SystemCoreClock
Memory Configuration

Name             Origin             Length             Attributes
FLASH            0x00040000         0x0000a000         xr
RAM              0x2000d000         0x00001ff8         xrw
INVALID          0xffffffff         0x00000000         xrw
*default*        0x00000000         0xffffffff

Linker script and memory map

LOAD /home/janet/nRF52/gcc-arm-none-eabi-4_8-2014q3/bin/../lib/gcc/arm-none-eabi/4.8.4/armv7e-m/libgcc.a
LOAD /home/janet/nRF52/gcc-arm-none-eabi-4_8-2014q3/bin/../lib/gcc/arm-none-eabi/4.8.4/../../../../arm-none-eabi/lib/armv7e-m/libnosys.a
LOAD build/nrf52/migas-tr1-node/source/migas-tr1-node/drivers/nrf52/exti.o
LOAD build/nrf52/migas-tr1-node/source/migas-tr1-node/drivers/nrf52/io.o
LOAD build/nrf52/migas-tr1-node/source/migas-tr1-node/drivers/nrf52/i2c.o
LOAD build/nrf52/migas-tr1-node/source/migas-tr1-node/drivers/nrf52/sht3x.o
LOAD build/nrf52/migas-tr1-node/util/crc.o
LOAD build/nrf52/migas-tr1-node/util/sl_list.o
LOAD build/nrf52/migas-tr1-node/util/util.o
LOAD build/nrf52/migas-tr1-node/util/api.o
LOAD build/nrf52/migas-tr1-node/mcu/nrf52/hal/usart.o
LOAD build/nrf52/migas-tr1-node/mcu/nrf52/hal/power.o
LOAD build/nrf52/migas-tr1-node/mcu/nrf52/hal/ds.o
LOAD build/nrf52/migas-tr1-node/mcu/nrf52/hal/hal.o
LOAD build/nrf52/migas-tr1-node/source/migas-tr1-node/app.o
LOAD build/nrf52/migas-tr1-node/mcu/common/start.o
LOAD build/nrf52/migas-tr1-node/mcu/common/entrypoint.o

.text           0x00040000     0x2280
                0x00040000                __text_start__ = .
 *(.entrypoint)
 .entrypoint    0x00040000       0x30 build/nrf52/migas-tr1-node/mcu/common/entrypoint.o
 *(.app_header)
 .app_header    0x00040030       0x20 build/nrf52/migas-tr1-node/mcu/common/start.o
                0x00040030                app_header
 *(.text.*)
 .text.Io_init  0x00040050       0xa8 build/nrf52/migas-tr1-node/source/migas-tr1-node/drivers/nrf52/io.o
                0x00040050                Io_init
 .text.nrf_delay_us.part.0
                0x000400f8       0x88 build/nrf52/migas-tr1-node/source/migas-tr1-node/drivers/nrf52/i2c.o
 .text.I2c_init
                0x00040180       0x24 build/nrf52/migas-tr1-node/source/migas-tr1-node/drivers/nrf52/i2c.o
                0x00040180                I2c_init
 .text.I2c_startCondition
                0x000401a4       0x3e build/nrf52/migas-tr1-node/source/migas-tr1-node/drivers/nrf52/i2c.o
                0x000401a4                I2c_startCondition
 .text.I2c_stopCondition
                0x000401e2       0x3a build/nrf52/migas-tr1-node/source/migas-tr1-node/drivers/nrf52/i2c.o
                0x000401e2                I2c_stopCondition
 .text.I2c_writeByte
                0x0004021c       0x70 build/nrf52/migas-tr1-node/source/migas-tr1-node/drivers/nrf52/i2c.o
                0x0004021c                I2c_writeByte
 .text.I2c_readByte
                0x0004028c       0xe6 build/nrf52/migas-tr1-node/source/migas-tr1-node/drivers/nrf52/i2c.o
                0x0004028c                I2c_readByte
 *fill*         0x00040372        0x2 
 .text.SHT3X_StartWriteAccess
                0x00040374       0x1c build/nrf52/migas-tr1-node/source/migas-tr1-node/drivers/nrf52/sht3x.o
 .text.SHT3X_WriteCommand
                0x00040390       0x18 build/nrf52/migas-tr1-node/source/migas-tr1-node/drivers/nrf52/sht3x.o
 .text.nrf_delay_us.part.0
                0x000403a8       0x88 build/nrf52/migas-tr1-node/source/migas-tr1-node/drivers/nrf52/sht3x.o
 .text.SHT3X_CalcCrc.constprop.3
                0x00040430       0x34 build/nrf52/migas-tr1-node/source/migas-tr1-node/drivers/nrf52/sht3x.o
 .text.SHT3X_Read2BytesAndCrc
                0x00040464       0x56 build/nrf52/migas-tr1-node/source/migas-tr1-node/drivers/nrf52/sht3x.o
 *fill*         0x000404ba        0x2 
 .text.SHT3X_StartReadAccess
                0x000404bc       0x28 build/nrf52/migas-tr1-node/source/migas-tr1-node/drivers/nrf52/sht3x.o
 .text.SHT3X_Init
                0x000404e4       0x14 build/nrf52/migas-tr1-node/source/migas-tr1-node/drivers/nrf52/sht3x.o
                0x000404e4                SHT3X_Init
 .text.SHT3X_GetTempAndHumiClkStretch
                0x000404f8       0xb0 build/nrf52/migas-tr1-node/source/migas-tr1-node/drivers/nrf52/sht3x.o
                0x000404f8                SHT3X_GetTempAndHumiClkStretch
 .text.SHT3X_GetTempAndHumiPolling
                0x000405a8       0xd4 build/nrf52/migas-tr1-node/source/migas-tr1-node/drivers/nrf52/sht3x.o
                0x000405a8                SHT3X_GetTempAndHumiPolling
 .text.SHT3X_GetTempAndHumi
                0x0004067c       0x24 build/nrf52/migas-tr1-node/source/migas-tr1-node/drivers/nrf52/sht3x.o
                0x0004067c                SHT3X_GetTempAndHumi
 .text.API_Open
                0x000406a0      0x190 build/nrf52/migas-tr1-node/util/api.o
                0x000406a0                API_Open
 .text.Usart_init
                0x00040830      0x140 build/nrf52/migas-tr1-node/mcu/nrf52/hal/usart.o
                0x00040830                Usart_init
 .text.Usart_setEnabled
                0x00040970       0x70 build/nrf52/migas-tr1-node/mcu/nrf52/hal/usart.o
                0x00040970                Usart_setEnabled
 .text.UARTE0_UART0_IRQHandler
                0x000409e0       0xb8 build/nrf52/migas-tr1-node/mcu/nrf52/hal/usart.o
                0x000409e0                UARTE0_UART0_IRQHandler
 .text.Usart_sendBuffer
                0x00040a98       0x90 build/nrf52/migas-tr1-node/mcu/nrf52/hal/usart.o
                0x00040a98                Usart_sendBuffer
 .text.DS_Init  0x00040b28        0xc build/nrf52/migas-tr1-node/mcu/nrf52/hal/ds.o
                0x00040b28                DS_Init
 .text.DS_Enable
                0x00040b34       0x38 build/nrf52/migas-tr1-node/mcu/nrf52/hal/ds.o
                0x00040b34                DS_Enable
 .text.DS_Disable
                0x00040b6c       0x38 build/nrf52/migas-tr1-node/mcu/nrf52/hal/ds.o
                0x00040b6c                DS_Disable
 .text.HAL_Open
                0x00040ba4       0x18 build/nrf52/migas-tr1-node/mcu/nrf52/hal/hal.o
                0x00040ba4                HAL_Open
 .text.int32_to_string
                0x00040bbc       0xdc build/nrf52/migas-tr1-node/source/migas-tr1-node/app.o
 .text.LOG      0x00040c98       0x18 build/nrf52/migas-tr1-node/source/migas-tr1-node/app.o
 .text.nrf_delay_us.part.0.constprop.5
                0x00040cb0       0x90 build/nrf52/migas-tr1-node/source/migas-tr1-node/app.o
 .text.testReadPrintSensor
                0x00040d40      0x1ac build/nrf52/migas-tr1-node/source/migas-tr1-node/app.o
 .text.App_init
                0x00040eec      0x210 build/nrf52/migas-tr1-node/source/migas-tr1-node/app.o
                0x00040eec                App_init
 .text._start   0x000410fc       0x6c build/nrf52/migas-tr1-node/mcu/common/start.o
                0x000410fc                _start
 .text.memset   0x00041168       0x10 /home/janet/nRF52/gcc-arm-none-eabi-4_8-2014q3/bin/../lib/gcc/arm-none-eabi/4.8.4/../../../../arm-none-eabi/lib/armv7e-m/libg_s.a(lib_a-memset.o)
                0x00041168                memset
 .text.strlen   0x00041178       0x10 /home/janet/nRF52/gcc-arm-none-eabi-4_8-2014q3/bin/../lib/gcc/arm-none-eabi/4.8.4/../../../../arm-none-eabi/lib/armv7e-m/libg_s.a(lib_a-strlen.o)
                0x00041178                strlen
 *(.text)
 .text          0x00041188      0x370 /home/janet/nRF52/gcc-arm-none-eabi-4_8-2014q3/bin/../lib/gcc/arm-none-eabi/4.8.4/armv7e-m/libgcc.a(_arm_addsubdf3.o)
                0x00041188                __aeabi_drsub
                0x00041190                __aeabi_dsub
                0x00041190                __subdf3
                0x00041194                __adddf3
                0x00041194                __aeabi_dadd
                0x0004140c                __aeabi_ui2d
                0x0004140c                __floatunsidf
                0x0004142c                __floatsidf
                0x0004142c                __aeabi_i2d
                0x00041450                __extendsfdf2
                0x00041450                __aeabi_f2d
                0x0004148c                __aeabi_ul2d
                0x0004148c                __floatundidf
                0x0004149c                __floatdidf
                0x0004149c                __aeabi_l2d
 .text          0x000414f8      0x424 /home/janet/nRF52/gcc-arm-none-eabi-4_8-2014q3/bin/../lib/gcc/arm-none-eabi/4.8.4/armv7e-m/libgcc.a(_arm_muldivdf3.o)
                0x000414f8                __aeabi_dmul
                0x000414f8                __muldf3
                0x0004174c                __aeabi_ddiv
                0x0004174c                __divdf3
 .text          0x0004191c       0x50 /home/janet/nRF52/gcc-arm-none-eabi-4_8-2014q3/bin/../lib/gcc/arm-none-eabi/4.8.4/armv7e-m/libgcc.a(_arm_fixdfsi.o)
                0x0004191c                __fixdfsi
                0x0004191c                __aeabi_d2iz
 .text          0x0004196c      0x21c /home/janet/nRF52/gcc-arm-none-eabi-4_8-2014q3/bin/../lib/gcc/arm-none-eabi/4.8.4/armv7e-m/libgcc.a(_arm_addsubsf3.o)
                0x0004196c                __aeabi_frsub
                0x00041974                __subsf3
                0x00041974                __aeabi_fsub
                0x00041978                __aeabi_fadd
                0x00041978                __addsf3
                0x00041ad8                __aeabi_ui2f
                0x00041ad8                __floatunsisf
                0x00041ae0                __aeabi_i2f
                0x00041ae0                __floatsisf
                0x00041afc                __floatundisf
                0x00041afc                __aeabi_ul2f
                0x00041b0c                __floatdisf
                0x00041b0c                __aeabi_l2f
 .text          0x00041b88      0x2a0 /home/janet/nRF52/gcc-arm-none-eabi-4_8-2014q3/bin/../lib/gcc/arm-none-eabi/4.8.4/armv7e-m/libgcc.a(_arm_muldivsf3.o)
                0x00041b88                __mulsf3
                0x00041b88                __aeabi_fmul
                0x00041cf0                __divsf3
                0x00041cf0                __aeabi_fdiv
 .text          0x00041e28       0xec /home/janet/nRF52/gcc-arm-none-eabi-4_8-2014q3/bin/../lib/gcc/arm-none-eabi/4.8.4/armv7e-m/libgcc.a(_arm_cmpsf2.o)
                0x00041e28                __gtsf2
                0x00041e28                __gesf2
                0x00041e30                __lesf2
                0x00041e30                __ltsf2
                0x00041e38                __nesf2
                0x00041e38                __eqsf2
                0x00041e38                __cmpsf2
                0x00041e98                __aeabi_cfrcmple
                0x00041ea0                __aeabi_cfcmple
                0x00041ea0                __aeabi_cfcmpeq
                0x00041eb0                __aeabi_fcmpeq
                0x00041ec4                __aeabi_fcmplt
                0x00041ed8                __aeabi_fcmple
                0x00041eec                __aeabi_fcmpge
                0x00041f00                __aeabi_fcmpgt
 *(.glue_7)
 .glue_7        0x00000000        0x0 linker stubs
 *(.glue_7t)
 .glue_7t       0x00000000        0x0 linker stubs
 *(.vfp11_veneer)
 .vfp11_veneer  0x00000000        0x0 linker stubs
 *(.v4_bx)
 .v4_bx         0x00000000        0x0 linker stubs
 *(.rodata.*)
 .rodata.str1.1
                0x00041f14      0x367 build/nrf52/migas-tr1-node/source/migas-tr1-node/app.o
                                0x36a (size before relaxing)
 *(.rodata)
 *(.rodata1)
                0x00042280                . = ALIGN (0x8)
 *fill*         0x0004227b        0x5 
                0x00042280                __text_end__ = .
                0x00042280                __data_src_start__ = .

.data           0x2000d000       0x20 load address 0x00042280
                0x2000d000                __data_start__ = .
 *(.ramtext)
 *(.data.*)
 .data.SystemCoreClock
                0x2000d000        0x4 build/nrf52/migas-tr1-node/source/migas-tr1-node/drivers/nrf52/io.o
 .data.SystemCoreClock
                0x2000d004        0x4 build/nrf52/migas-tr1-node/source/migas-tr1-node/drivers/nrf52/i2c.o
 .data.SystemCoreClock
                0x2000d008        0x4 build/nrf52/migas-tr1-node/source/migas-tr1-node/drivers/nrf52/sht3x.o
 .data.humidity_onoff
                0x2000d00c        0x1 build/nrf52/migas-tr1-node/source/migas-tr1-node/app.o
 *fill*         0x2000d00d        0x3 
 .data.SystemCoreClock
                0x2000d010        0x4 build/nrf52/migas-tr1-node/source/migas-tr1-node/app.o
 .data.temperature_onoff
                0x2000d014        0x1 build/nrf52/migas-tr1-node/source/migas-tr1-node/app.o
 *fill*         0x2000d015        0x3 
 .data.m_used_app_ram_end
                0x2000d018        0x4 build/nrf52/migas-tr1-node/mcu/common/start.o
                0x2000d018                m_used_app_ram_end
 *(.data)
 *(.data1)
                0x2000d020                . = ALIGN (0x8)
 *fill*         0x2000d01c        0x4 
                0x2000d020                __data_end__ = .
                0x000422a0                __rom_end__ = (__data_src_start__ + SIZEOF (.data))
                0x000022a0                __total_size_bytes__ = (__rom_end__ - __text_start__)

.bss            0x2000d020      0x260 load address 0x000422a0
                0x2000d020                __bss_start__ = .
 *(.bss.*)
 .bss._i2cAddress
                0x2000d020        0x1 build/nrf52/migas-tr1-node/source/migas-tr1-node/drivers/nrf52/sht3x.o
 *fill*         0x2000d021        0x3 
 .bss.lib_otap  0x2000d024        0x4 build/nrf52/migas-tr1-node/util/api.o
                0x2000d024                lib_otap
 .bss.lib_hw    0x2000d028        0x4 build/nrf52/migas-tr1-node/util/api.o
                0x2000d028                lib_hw
 .bss.lib_beacon_rx
                0x2000d02c        0x4 build/nrf52/migas-tr1-node/util/api.o
                0x2000d02c                lib_beacon_rx
 .bss.lib_memory_area
                0x2000d030        0x4 build/nrf52/migas-tr1-node/util/api.o
                0x2000d030                lib_memory_area
 .bss.global_func
                0x2000d034        0x4 build/nrf52/migas-tr1-node/util/api.o
                0x2000d034                global_func
 .bss.lib_sleep
                0x2000d038        0x4 build/nrf52/migas-tr1-node/util/api.o
                0x2000d038                lib_sleep
 .bss.lib_settings
                0x2000d03c        0x4 build/nrf52/migas-tr1-node/util/api.o
                0x2000d03c                lib_settings
 .bss.lib_system
                0x2000d040        0x4 build/nrf52/migas-tr1-node/util/api.o
                0x2000d040                lib_system
 .bss.lib_state
                0x2000d044        0x4 build/nrf52/migas-tr1-node/util/api.o
                0x2000d044                lib_state
 .bss.lib_beacon_tx
                0x2000d048        0x4 build/nrf52/migas-tr1-node/util/api.o
                0x2000d048                lib_beacon_tx
 .bss.lib_time  0x2000d04c        0x4 build/nrf52/migas-tr1-node/util/api.o
                0x2000d04c                lib_time
 .bss.lib_data  0x2000d050        0x4 build/nrf52/migas-tr1-node/util/api.o
                0x2000d050                lib_data
 .bss.lib_storage
                0x2000d054        0x4 build/nrf52/migas-tr1-node/util/api.o
                0x2000d054                lib_storage
 .bss.m_enabled
                0x2000d058        0x4 build/nrf52/migas-tr1-node/mcu/nrf52/hal/usart.o
 .bss.m_rx_callback
                0x2000d05c        0x4 build/nrf52/migas-tr1-node/mcu/nrf52/hal/usart.o
 .bss.m_tx_active
                0x2000d060        0x1 build/nrf52/migas-tr1-node/mcu/nrf52/hal/usart.o
 *fill*         0x2000d061        0x1 
 .bss.m_usart_tx_buffer
                0x2000d062      0x204 build/nrf52/migas-tr1-node/mcu/nrf52/hal/usart.o
 *fill*         0x2000d266        0x2 
 .bss.m_sleep_mask
                0x2000d268        0x4 build/nrf52/migas-tr1-node/mcu/nrf52/hal/ds.o
 .bss.m_opened  0x2000d26c        0x1 build/nrf52/migas-tr1-node/mcu/nrf52/hal/hal.o
 *fill*         0x2000d26d        0x3 
 .bss.EVENT_READBACK
                0x2000d270        0x4 build/nrf52/migas-tr1-node/mcu/nrf52/hal/hal.o
                0x2000d270                EVENT_READBACK
 .bss.config    0x2000d274        0xa build/nrf52/migas-tr1-node/source/migas-tr1-node/app.o
 *(.bss)
 *(COMMON)
                0x2000d280                . = ALIGN (0x8)
 *fill*         0x2000d27e        0x2 
                0x2000d280                __bss_end__ = .
                0x2000eff8                __ram_end__ = (ORIGIN (RAM) + 0x1ff8)

.invalid        0x00000000        0x0
 *(.init)
 *(.fini)
 *(.preinit_array)
 *(.init_array)
 *(.fini_array)
 *(.ctors)
 *(.dtors)
 *(.jcr)
 *(.eh_frame)
 *(.eh_frame_hdr)
 *(.heap*)
 *(.tbss)
 *(.tdata)
 *(.tdata1)
 *(.got)
 *(.got.plt)
 *(.igot.plt)
 .igot.plt      0x00000000        0x0 build/nrf52/migas-tr1-node/source/migas-tr1-node/drivers/nrf52/exti.o
 *(.iplt)
 .iplt          0x00000000        0x0 build/nrf52/migas-tr1-node/source/migas-tr1-node/drivers/nrf52/exti.o
 *(.rel.dyn)
 *(.rel.iplt)
 .rel.iplt      0x00000000        0x0 build/nrf52/migas-tr1-node/source/migas-tr1-node/drivers/nrf52/exti.o

/DISCARD/
 *(.ARM.extab)
 *(.ARM.exidx)
START GROUP
LOAD /home/janet/nRF52/gcc-arm-none-eabi-4_8-2014q3/bin/../lib/gcc/arm-none-eabi/4.8.4/armv7e-m/libgcc.a
LOAD /home/janet/nRF52/gcc-arm-none-eabi-4_8-2014q3/bin/../lib/gcc/arm-none-eabi/4.8.4/../../../../arm-none-eabi/lib/armv7e-m/libg_s.a
LOAD /home/janet/nRF52/gcc-arm-none-eabi-4_8-2014q3/bin/../lib/gcc/arm-none-eabi/4.8.4/../../../../arm-none-eabi/lib/armv7e-m/libc_s.a
END GROUP
START GROUP
LOAD /home/janet/nRF52/gcc-arm-none-eabi-4_8-2014q3/bin/../lib/gcc/arm-none-eabi/4.8.4/armv7e-m/libgcc.a
LOAD /home/janet/nRF52/gcc-arm-none-eabi-4_8-2014q3/bin/../lib/gcc/arm-none-eabi/4.8.4/../../../../arm-none-eabi/lib/armv7e-m/libc_s.a
END GROUP
OUTPUT(build/nrf52/migas-tr1-node/migas-tr1-node.elf elf32-littlearm)

.debug_info     0x00000000     0x92d0
 .debug_info    0x00000000      0x500 build/nrf52/migas-tr1-node/source/migas-tr1-node/drivers/nrf52/io.o
 .debug_info    0x00000500     0x11f6 build/nrf52/migas-tr1-node/source/migas-tr1-node/drivers/nrf52/i2c.o
 .debug_info    0x000016f6     0x18c9 build/nrf52/migas-tr1-node/source/migas-tr1-node/drivers/nrf52/sht3x.o
 .debug_info    0x00002fbf     0x22e0 build/nrf52/migas-tr1-node/util/api.o
 .debug_info    0x0000529f     0x14cc build/nrf52/migas-tr1-node/mcu/nrf52/hal/usart.o
 .debug_info    0x0000676b      0x3e6 build/nrf52/migas-tr1-node/mcu/nrf52/hal/ds.o
 .debug_info    0x00006b51      0x120 build/nrf52/migas-tr1-node/mcu/nrf52/hal/hal.o
 .debug_info    0x00006c71     0x223d build/nrf52/migas-tr1-node/source/migas-tr1-node/app.o
 .debug_info    0x00008eae      0x3c1 build/nrf52/migas-tr1-node/mcu/common/start.o
 .debug_info    0x0000926f       0x61 build/nrf52/migas-tr1-node/mcu/common/entrypoint.o

.debug_abbrev   0x00000000     0x15f7
 .debug_abbrev  0x00000000      0x1cf build/nrf52/migas-tr1-node/source/migas-tr1-node/drivers/nrf52/io.o
 .debug_abbrev  0x000001cf      0x2b6 build/nrf52/migas-tr1-node/source/migas-tr1-node/drivers/nrf52/i2c.o
 .debug_abbrev  0x00000485      0x414 build/nrf52/migas-tr1-node/source/migas-tr1-node/drivers/nrf52/sht3x.o
 .debug_abbrev  0x00000899      0x17a build/nrf52/migas-tr1-node/util/api.o
 .debug_abbrev  0x00000a13      0x379 build/nrf52/migas-tr1-node/mcu/nrf52/hal/usart.o
 .debug_abbrev  0x00000d8c      0x14e build/nrf52/migas-tr1-node/mcu/nrf52/hal/ds.o
 .debug_abbrev  0x00000eda       0xa7 build/nrf52/migas-tr1-node/mcu/nrf52/hal/hal.o
 .debug_abbrev  0x00000f81      0x4bb build/nrf52/migas-tr1-node/source/migas-tr1-node/app.o
 .debug_abbrev  0x0000143c      0x1a7 build/nrf52/migas-tr1-node/mcu/common/start.o
 .debug_abbrev  0x000015e3       0x14 build/nrf52/migas-tr1-node/mcu/common/entrypoint.o

.debug_loc      0x00000000     0x1b9d
 .debug_loc     0x00000000       0x16 build/nrf52/migas-tr1-node/source/migas-tr1-node/drivers/nrf52/io.o
 .debug_loc     0x00000016      0x237 build/nrf52/migas-tr1-node/source/migas-tr1-node/drivers/nrf52/i2c.o
 .debug_loc     0x0000024d      0xe50 build/nrf52/migas-tr1-node/source/migas-tr1-node/drivers/nrf52/sht3x.o
 .debug_loc     0x0000109d       0x2c build/nrf52/migas-tr1-node/util/api.o
 .debug_loc     0x000010c9      0x4df build/nrf52/migas-tr1-node/mcu/nrf52/hal/usart.o
 .debug_loc     0x000015a8       0x58 build/nrf52/migas-tr1-node/mcu/nrf52/hal/ds.o
 .debug_loc     0x00001600      0x46b build/nrf52/migas-tr1-node/source/migas-tr1-node/app.o
 .debug_loc     0x00001a6b      0x132 build/nrf52/migas-tr1-node/mcu/common/start.o

.debug_aranges  0x00000000      0x2c8
 .debug_aranges
                0x00000000       0x38 build/nrf52/migas-tr1-node/source/migas-tr1-node/drivers/nrf52/io.o
 .debug_aranges
                0x00000038       0x50 build/nrf52/migas-tr1-node/source/migas-tr1-node/drivers/nrf52/i2c.o
 .debug_aranges
                0x00000088       0xe0 build/nrf52/migas-tr1-node/source/migas-tr1-node/drivers/nrf52/sht3x.o
 .debug_aranges
                0x00000168       0x20 build/nrf52/migas-tr1-node/util/api.o
 .debug_aranges
                0x00000188       0x68 build/nrf52/migas-tr1-node/mcu/nrf52/hal/usart.o
 .debug_aranges
                0x000001f0       0x30 build/nrf52/migas-tr1-node/mcu/nrf52/hal/ds.o
 .debug_aranges
                0x00000220       0x20 build/nrf52/migas-tr1-node/mcu/nrf52/hal/hal.o
 .debug_aranges
                0x00000240       0x48 build/nrf52/migas-tr1-node/source/migas-tr1-node/app.o
 .debug_aranges
                0x00000288       0x20 build/nrf52/migas-tr1-node/mcu/common/start.o
 .debug_aranges
                0x000002a8       0x20 build/nrf52/migas-tr1-node/mcu/common/entrypoint.o

.debug_ranges   0x00000000      0x578
 .debug_ranges  0x00000000       0x28 build/nrf52/migas-tr1-node/source/migas-tr1-node/drivers/nrf52/io.o
 .debug_ranges  0x00000028      0x1b8 build/nrf52/migas-tr1-node/source/migas-tr1-node/drivers/nrf52/i2c.o
 .debug_ranges  0x000001e0      0x118 build/nrf52/migas-tr1-node/source/migas-tr1-node/drivers/nrf52/sht3x.o
 .debug_ranges  0x000002f8       0x10 build/nrf52/migas-tr1-node/util/api.o
 .debug_ranges  0x00000308      0x118 build/nrf52/migas-tr1-node/mcu/nrf52/hal/usart.o
 .debug_ranges  0x00000420       0x20 build/nrf52/migas-tr1-node/mcu/nrf52/hal/ds.o
 .debug_ranges  0x00000440       0x10 build/nrf52/migas-tr1-node/mcu/nrf52/hal/hal.o
 .debug_ranges  0x00000450      0x100 build/nrf52/migas-tr1-node/source/migas-tr1-node/app.o
 .debug_ranges  0x00000550       0x28 build/nrf52/migas-tr1-node/mcu/common/start.o

.debug_line     0x00000000     0x198e
 .debug_line    0x00000000      0x1df build/nrf52/migas-tr1-node/source/migas-tr1-node/drivers/nrf52/io.o
 .debug_line    0x000001df      0x2ed build/nrf52/migas-tr1-node/source/migas-tr1-node/drivers/nrf52/i2c.o
 .debug_line    0x000004cc      0x5b5 build/nrf52/migas-tr1-node/source/migas-tr1-node/drivers/nrf52/sht3x.o
 .debug_line    0x00000a81      0x231 build/nrf52/migas-tr1-node/util/api.o
 .debug_line    0x00000cb2      0x41a build/nrf52/migas-tr1-node/mcu/nrf52/hal/usart.o
 .debug_line    0x000010cc      0x1cf build/nrf52/migas-tr1-node/mcu/nrf52/hal/ds.o
 .debug_line    0x0000129b      0x14b build/nrf52/migas-tr1-node/mcu/nrf52/hal/hal.o
 .debug_line    0x000013e6      0x3d5 build/nrf52/migas-tr1-node/source/migas-tr1-node/app.o
 .debug_line    0x000017bb      0x189 build/nrf52/migas-tr1-node/mcu/common/start.o
 .debug_line    0x00001944       0x4a build/nrf52/migas-tr1-node/mcu/common/entrypoint.o

.debug_str      0x00000000     0x46db
 .debug_str     0x00000000      0x47f build/nrf52/migas-tr1-node/source/migas-tr1-node/drivers/nrf52/io.o
                                0x4d7 (size before relaxing)
 .debug_str     0x0000047f      0x123 build/nrf52/migas-tr1-node/source/migas-tr1-node/drivers/nrf52/i2c.o
                                0x587 (size before relaxing)
 .debug_str     0x000005a2      0x7d3 build/nrf52/migas-tr1-node/source/migas-tr1-node/drivers/nrf52/sht3x.o
                                0xab8 (size before relaxing)
 .debug_str     0x00000d75     0x2cd7 build/nrf52/migas-tr1-node/util/api.o
                               0x2f06 (size before relaxing)
 .debug_str     0x00003a4c      0x5d4 build/nrf52/migas-tr1-node/mcu/nrf52/hal/usart.o
                                0xe85 (size before relaxing)
 .debug_str     0x00004020       0x37 build/nrf52/migas-tr1-node/mcu/nrf52/hal/ds.o
                                0x5d1 (size before relaxing)
 .debug_str     0x00004057       0x26 build/nrf52/migas-tr1-node/mcu/nrf52/hal/hal.o
                                0x1d3 (size before relaxing)
 .debug_str     0x0000407d      0x51b build/nrf52/migas-tr1-node/source/migas-tr1-node/app.o
                               0x1d6d (size before relaxing)
 .debug_str     0x00004598      0x143 build/nrf52/migas-tr1-node/mcu/common/start.o
                                0x3b1 (size before relaxing)

.comment        0x00000000       0x70
 .comment       0x00000000       0x70 build/nrf52/migas-tr1-node/source/migas-tr1-node/drivers/nrf52/io.o
                                 0x71 (size before relaxing)
 .comment       0x00000000       0x71 build/nrf52/migas-tr1-node/source/migas-tr1-node/drivers/nrf52/i2c.o
 .comment       0x00000000       0x71 build/nrf52/migas-tr1-node/source/migas-tr1-node/drivers/nrf52/sht3x.o
 .comment       0x00000000       0x71 build/nrf52/migas-tr1-node/util/api.o
 .comment       0x00000000       0x71 build/nrf52/migas-tr1-node/mcu/nrf52/hal/usart.o
 .comment       0x00000000       0x71 build/nrf52/migas-tr1-node/mcu/nrf52/hal/ds.o
 .comment       0x00000000       0x71 build/nrf52/migas-tr1-node/mcu/nrf52/hal/hal.o
 .comment       0x00000000       0x71 build/nrf52/migas-tr1-node/source/migas-tr1-node/app.o
 .comment       0x00000000       0x71 build/nrf52/migas-tr1-node/mcu/common/start.o

.ARM.attributes
                0x00000000       0x2c
 .ARM.attributes
                0x00000000       0x2e build/nrf52/migas-tr1-node/source/migas-tr1-node/drivers/nrf52/io.o
 .ARM.attributes
                0x0000002e       0x2e build/nrf52/migas-tr1-node/source/migas-tr1-node/drivers/nrf52/i2c.o
 .ARM.attributes
                0x0000005c       0x2e build/nrf52/migas-tr1-node/source/migas-tr1-node/drivers/nrf52/sht3x.o
 .ARM.attributes
                0x0000008a       0x2e build/nrf52/migas-tr1-node/util/api.o
 .ARM.attributes
                0x000000b8       0x2e build/nrf52/migas-tr1-node/mcu/nrf52/hal/usart.o
 .ARM.attributes
                0x000000e6       0x2e build/nrf52/migas-tr1-node/mcu/nrf52/hal/ds.o
 .ARM.attributes
                0x00000114       0x2e build/nrf52/migas-tr1-node/mcu/nrf52/hal/hal.o
 .ARM.attributes
                0x00000142       0x2e build/nrf52/migas-tr1-node/source/migas-tr1-node/app.o
 .ARM.attributes
                0x00000170       0x2e build/nrf52/migas-tr1-node/mcu/common/start.o
 .ARM.attributes
                0x0000019e       0x1b build/nrf52/migas-tr1-node/mcu/common/entrypoint.o
 .ARM.attributes
                0x000001b9       0x1e /home/janet/nRF52/gcc-arm-none-eabi-4_8-2014q3/bin/../lib/gcc/arm-none-eabi/4.8.4/armv7e-m/libgcc.a(_arm_addsubdf3.o)
 .ARM.attributes
                0x000001d7       0x1e /home/janet/nRF52/gcc-arm-none-eabi-4_8-2014q3/bin/../lib/gcc/arm-none-eabi/4.8.4/armv7e-m/libgcc.a(_arm_muldivdf3.o)
 .ARM.attributes
                0x000001f5       0x1e /home/janet/nRF52/gcc-arm-none-eabi-4_8-2014q3/bin/../lib/gcc/arm-none-eabi/4.8.4/armv7e-m/libgcc.a(_arm_fixdfsi.o)
 .ARM.attributes
                0x00000213       0x1e /home/janet/nRF52/gcc-arm-none-eabi-4_8-2014q3/bin/../lib/gcc/arm-none-eabi/4.8.4/armv7e-m/libgcc.a(_arm_addsubsf3.o)
 .ARM.attributes
                0x00000231       0x1e /home/janet/nRF52/gcc-arm-none-eabi-4_8-2014q3/bin/../lib/gcc/arm-none-eabi/4.8.4/armv7e-m/libgcc.a(_arm_muldivsf3.o)
 .ARM.attributes
                0x0000024f       0x1e /home/janet/nRF52/gcc-arm-none-eabi-4_8-2014q3/bin/../lib/gcc/arm-none-eabi/4.8.4/armv7e-m/libgcc.a(_arm_cmpsf2.o)
 .ARM.attributes
                0x0000026d       0x2e /home/janet/nRF52/gcc-arm-none-eabi-4_8-2014q3/bin/../lib/gcc/arm-none-eabi/4.8.4/../../../../arm-none-eabi/lib/armv7e-m/libg_s.a(lib_a-memset.o)
 .ARM.attributes
                0x0000029b       0x2e /home/janet/nRF52/gcc-arm-none-eabi-4_8-2014q3/bin/../lib/gcc/arm-none-eabi/4.8.4/../../../../arm-none-eabi/lib/armv7e-m/libg_s.a(lib_a-strlen.o)

.debug_frame    0x00000000      0x69c
 .debug_frame   0x00000000       0x58 build/nrf52/migas-tr1-node/source/migas-tr1-node/drivers/nrf52/io.o
 .debug_frame   0x00000058       0xc4 build/nrf52/migas-tr1-node/source/migas-tr1-node/drivers/nrf52/i2c.o
 .debug_frame   0x0000011c      0x2b4 build/nrf52/migas-tr1-node/source/migas-tr1-node/drivers/nrf52/sht3x.o
 .debug_frame   0x000003d0       0x38 build/nrf52/migas-tr1-node/util/api.o
 .debug_frame   0x00000408      0x108 build/nrf52/migas-tr1-node/mcu/nrf52/hal/usart.o
 .debug_frame   0x00000510       0x58 build/nrf52/migas-tr1-node/mcu/nrf52/hal/ds.o
 .debug_frame   0x00000568       0x28 build/nrf52/migas-tr1-node/mcu/nrf52/hal/hal.o
 .debug_frame   0x00000590       0xa0 build/nrf52/migas-tr1-node/source/migas-tr1-node/app.o
 .debug_frame   0x00000630       0x2c build/nrf52/migas-tr1-node/mcu/common/start.o
 .debug_frame   0x0000065c       0x20 /home/janet/nRF52/gcc-arm-none-eabi-4_8-2014q3/bin/../lib/gcc/arm-none-eabi/4.8.4/../../../../arm-none-eabi/lib/armv7e-m/libg_s.a(lib_a-memset.o)
 .debug_frame   0x0000067c       0x20 /home/janet/nRF52/gcc-arm-none-eabi-4_8-2014q3/bin/../lib/gcc/arm-none-eabi/4.8.4/../../../../arm-none-eabi/lib/armv7e-m/libg_s.a(lib_a-strlen.o)
