:020000024000BC
:1000000003B40148019001BD49280400000000002C
:10001000FFFFFFFFFFFFFFFFFFFFFFFFFFFFFFFFF0
:10002000FFFFFFFFFFFFFFFFFFFFFFFFFFFFFFFFE0
:100030004150503279C63B75B3C3DCD21DB6064D74
:100040000002000000000400902B000000000000EF
:10005000054A1368F92B10B504D8044909685C1CDB
:10006000C854146010BD00BF08D000200CD0002080
:10007000084A13687D2B10B5014609D806485C1C58
:1000800000681460054CC154208801F0B9FF20803D
:1000900010BD00BF18D0002010D0002014D00020C8
:1000A000C02808B505D0DB2807D1FFF7D1FFDD2038
:1000B00003E0DB20FFF7CCFFDC20BDE80840FFF7C2
:1000C000C7BF00002DE9F74F8846044600F08AF9C3
:1000D00008F1FF33FA2B58D8A044444555D02C4D95
:1000E00014F8010B2A7892B1DC2803D0DD2805D161
:1000F000DB2000E0C020FFF7BBFF06E0254B00221D
:100100001A60254B4FF6FF721A80002338E0C02892
:1001100033D1DFF88090D9F80030002BDDD05A1FA2
:10012000772A1D4F22D81D4D3A882868A3F1020A6C
:1001300003F1FF3B10F80A1010F80B30019261F345
:10014000070663F30F26B0B201F05AFF2B6813F8CD
:100150000B1001F055FF019A824207D100F048F9D7
:100160000F4B1B6813B12868514698470023C9F804
:1001700000304FF6FF733B80AFE7DB2802D101234D
:100180002B70AAE7FFF774FFA7E703B0BDE8F08F75
:100190001CD0002018D0002014D0002010D0002047
:1001A00020D00020144B07B51A68144B9A4214D87B
:1001B000134B1B680DF10700DB6A984728B99DF8BF
:1001C00007301A0709D0DB0607D402F023FA002013
:1001D00002F060F900F0CAF806E000F0E9F801204A
:1001E00002F058F902F0DEF901F0F6FE01F001FF2D
:1001F00003B05DF804FB00BF24D0002048E80100F4
:1002000078E3002038B50F4D00242C700E4D286087
:100210000E4803600E48049B03600E4B1C600E4B9F
:1002200019600E4B1C600E4B4FF6FF70188008468D
:10023000114602F03BF80B4802F034FABDE83840B2
:10024000FFF7B0BF1CD0002020D000200CD0002031
:1002500010D0002008D0002024D0002018D000208A
:1002600014D00020C50004002DE9F0410D460446DD
:1002700001F0D2FE154F00230646C0203B60FFF779
:10028000E7FE04EB0508444504D014F8010BFFF722
:1002900007FFF8E7F0B2FFF703FFC6F30720FFF709
:1002A000FFFEC020FFF7D4FE3968A9420AD3084BED
:1002B000186802F0CDF9054B1B68C31A5842584123
:1002C000BDE8F0810020BDE8F08100BF08D000202B
:1002D0000CD0002002F004BA08B101F083BE01F096
:1002E00088BE000038B51E4C2378BBB91D4A136880
:1002F00015460BB1DB689847012001F04BFE1A4A06
:100300000123237013702B680BB11B6998470220DF
:1003100002F018FABDE8384000F026BB2378012B24
:100320001CD1104A136815460BB1DB6898470120B1
:1003300002F0B0F802F036F9022323702B680BB1FB
:100340001B699847022002F0E1F901F013FE01F069
:1003500019FE1020BDE8384001F01CBE38BD00BFBA
:100360002CD000207CE30020B4E600200D4A136866
:1003700010B514460BB1DB6898470B4B0B480022B5
:100380001A7001F0ADFD01F0F5FD01F0FBFD10204C
:1003900001F000FE01F0E6FD23680BB11B699847F0
:1003A00010BD00BF7CE300202CD00020E50204003B
:1003B0000A4A136810B514460BB1DB689847084B1E
:1003C00000221A7001F0D6FD01F0DCFD01F0BAFD4B
:1003D00023680BB11B69984710BD00BF7CE3002068
:1003E0002CD00020014B01221A707047B4E6002087
:1003F000014B00221A707047B4E600202DE9F84343
:10040000224F3B680BB1DB689847214D2B78002BBE
:1004100032D0204C204E23681B68984723683168EF
:100420005B69804698471D4B1A78044602F0FF0925
:100430002AB10022C6F800801A70194C1EE0194B30
:1004400098421BD92B78BBB12B78022B05D102F037
:10045000E1F8484602F01EF805E02B78012B02D1A6
:10046000022002F053F9002310202B7001F092FDBE
:1004700001F088FD01F076FD4FF0FF343B680BB1D1
:100480001B6998472046BDE8F88300BF7CE3002045
:100490002CD0002088E3002028D00020B4E60020E3
:1004A000A08601009F86010070B58278CB1E9A421B
:1004B00006460D464FF0000018D100F0C7FA04467A
:1004C00098B10B4B1B685B68984700236060A36082
:1004D000E36031462A4604F1100002F0EBF9054BC7
:1004E00020461B689847012070BD70BD70BD00BFDD
:1004F00088E30020BCE600200F4B07B518600F4BC7
:100500001A79B2B90E495A7900910E4819680E4B02
:10051000FFF778FE0D4B0E4A1A600E4A5A600E4ADB
:100520001A610E4A5A610E4A9A600E4ADA600E4A01
:100530009A6103B05DF804FBBCE600207C2B04004C
:1005400027D10020A90404002DD00020C4E60020FB
:100550009106040069020400D9020400D5020400D7
:10056000C90604003D060400FD030400024B1868A0
:10057000003018BF01207047B8E6002008B5054BD1
:100580009A68054B1B6912B9044A106800B1012032
:10059000984708BDF0E60020C4E60020B8E6002039
:1005A00038B5044608B9012511E0836800F110054B
:1005B00003B19847A17C074B28465B6803319847F5
:1005C000054620B1E368002BEDD020469847284629
:1005D00038BD00BFC4E6002038B504460078842842
:1005E00007D1134D2B685BB9124801F049FD286013
:1005F00006E000F0BBFAB0B1E378012B13D1F0E7CD
:100600002D680B4C7DB10C4B1B786B7400F0A4F97A
:10061000E8742068FFF7C4FF054620B90548216843
:1006200001F024FD2560BDE83840FFF7A7BF00BFFB
:10063000B8E60020F0E60020C0E600202DE9F041F9
:100640000446007C00F092FA0646C8B10E4F3868A6
:1006500004F11008A0B10D4D617C2A7891420CD1B3
:10066000027C217C42F08002914206D100F00AFA1D
:1006700000233B602B7801332B704046FFF7ACFF23
:100680003046BDE8F08100BFB8E60020C0E600209B
:1006900038B50B4D2B681BB90A4801F0F1FC2860F6
:1006A0002868074C58B1FFF77BFF40B12068103035
:1006B000FFF792FF206800F0E5F90023236038BDC2
:1006C000E0E60020FCE600207047000008B5014687
:1006D00030B1044801F0BDFCBDE80840FFF74EBF53
:1006E00008BD00BFF0E6002010B50446034801F045
:1006F000AEFC10B1037CA342F9D110BDF0E600209E
:1007000038B5254D254B00221A602B68DB689847C9
:10071000234801F0B5FC2B68224D1B69044698471D
:1007200004B3EB6820469847B8B9207C00F006FA7D
:1007300018B1204600F0AAFC26E0207C00F006FA62
:1007400018B1204600F068FD1EE0207C00F006FA9B
:1007500018B1204600F012FA16E0AB689847204620
:1007600000F090F92B689847AB6998470C4B9B6851
:100770002BB90D4B9B68003318BF012300E0012308
:10078000002B18BF002038BD0028E6D006482146BF
:1007900001F05FFCE6E700BF7CE30020A8D1002069
:1007A000E4E60020C4E60020FCE6002037B515484A
:1007B000154C01F047FC154801F044FC144801F0C9
:1007C00041FC00F003F91348FFF796FE23689B688D
:1007D0009847114B1B6805465B6801A804219847A0
:1007E000012D05D1019BDB0702D523681B689847C3
:1007F00001F0EAF9FFF76AFF084B00221A6003B024
:1008000030BD00BFE4E6002080E30020F0E60020D9
:10081000FCE60020A109040090E30020A8D10020FC
:100820002DE9F04180463F200F461646FFF75CFF5A
:100830000025044620B9012000F008F901250446EE
:10084000404639463246234601F0DAF925B12046C2
:10085000BDE8F041FFF73ABFBDE8F08138B522208E
:10086000FFF742FF0025044620B9012000F0EEF812
:1008700001250446204601F018FA25B12046BDE8BE
:100880003840FFF723BF38BD37B50546012000F0DB
:10089000DDF8044688B10A4B1B6801A85B699847DC
:1008A000019800F01DF922460146284600F030FC70
:1008B0002046FFF70BFF002000E0022003B030BD10
:1008C00078E3002038B50546012000F0BFF8044663
:1008D00050B128464FF0FF31224600F019FC204667
:1008E000FFF7F4FE002038BD022038BD2DE9FF4798
:1008F000804601200F4616461D46DDF830A09DF8C3
:10090000349000F0A3F8044688B1504600F0E8F8AF
:1009100002948DE801023946404632462B4600F0EB
:10092000DBFB204604B0BDE8F047FFF7CFBE04B0C4
:10093000BDE8F08738B5054668B1012000F086F8BB
:10094000044640B12846214601F077F92046BDE82B
:100950003840FFF7BBBE38BD024B9868003018BF67
:1009600001207047F0E6002038B50A4C2368DB68A8
:100970009847094B01221D681A6023681B69984734
:1009800035B9236805489B6829464FF4FA529847C1
:1009900038BD00BF7CE30020A8D10020010704007F
:1009A00038B5084C23680546DB6898472946064851
:1009B00001F04FFB23681B699847BDE83840FFF7FB
:1009C000D3BF00BF7CE30020E4E6002070B5184EE2
:1009D000184C194B1948A41B8C25B4FBF5F5203590
:1009E0006A081A6001F02EFB00214FF48C52144863
:1009F00001F084FF22463046002101F07FFF0024F1
:100A00000F490E4821448C3401F030FBB4F58C5F63
:100A1000F6D120240B4B8C21AC4201FB043104D2D3
:100A2000064801F023FB0134F4E7074B196070BD61
:100A300008E70020F8EF0020ACD10020B0D1002062
:100A4000BCD1002088D5002000D0002070B50B4C10
:100A500023680646DB68984725461EB1084B9B680D
:100A6000022B04D9064801F00BFB044600E00024E9
:100A70002B681B699847204670BD00BF7CE30020AF
:100A8000B0D1002070B50C4D0C4C2B680646DB68CD
:100A900098472046314601F0E9FA2B681B699847D0
:100AA000074BA2681B689A4204D3064B1B680120BF
:100AB0001B6A984770BD00BF7CE30020B0D10020C6
:100AC000ACD100208CE30020431C04D0034B002851
:100AD00008BF184670476FF07F407047FEFFFF0069
:100AE0006FF07F43984204D0013B984208BF00203A
:100AF00070474FF0FF30704700F17F430233B3F18E
:100B00007F4F08D8054B00F10040013898428CBF58
:100B10000020012070470120704700BFFCFFFF004C
:100B200010B500238B4204D2C45C944203D001333D
:100B3000F8E7002010BD012010BD0000024603218F
:100B40000148FFF7EDBF00BF32290400024618211B
:100B50000148FFF7E5BF00BF0C290400024603214E
:100B60000148FFF7DDBF00BF2F29040002460B211B
:100B70000148FFF7D5BF00BF24290400F0B5037C6E
:100B80000E2B89B0044606D0162B00F0BA810D2B2F
:100B900040F0D8810BE1827CB0F81370022ABBB21E
:100BA00040F0D0815E1E162E00F2EE80072B26D17B
:100BB0004FF4004001F096F8F0B1894B9D5D0023A1
:100BC000162E00F2C181DFE816F01D002900330067
:100BD0003F0059007D005D00610063006900700006
:100BE000770081008B008F00A100A700AF00BF013C
:100BF000B800CC00C300C70000250623C6E04FF4B0
:100C00000070D7E7774B1B6804A85B6998470028FA
:100C100040F0B5800498FFF763FF7BE0714B1B68E1
:100C200005A8DB699847002840F0A980059B82E071
:100C30006C4B1B680DF10B005B6A9847002840F075
:100C40009E809DF80B3076E0664B1B6806A8DB6A39
:100C50009847002840F093809DF8183003F00F0269
:100C6000022A9CBF6049885CDA0644BF40F010004D
:100C7000C0B25E064ED560F07F0021E05B4B1B6882
:100C80001B6946E05A4B1B68DB6842E00C2352E0CC
:100C9000584B1B685B689847000E3BE0554B1B6840
:100CA0005B689847C0F3074034E0524B1B685B68B1
:100CB0009847C0F307202DE04E4B1B685B689847B0
:100CC000C0B227E0494B1B685B6922E0454B1B68BB
:100CD000DB6B0020984708B9062052E0052050E061
:100CE000404B1B685B6BF4E7ADF81430ADF818307F
:100CF0003C4B1B6805A8DB6D06A99847BDF818306A
:100D00009DF814201B029BB2134314E0374B1B6861
:100D1000DB6A984703902AE0374B1B6806A89B6A5A
:100D200008219847069B06E0334B1B6806A89B6A80
:100D300008219847079B039319E008A820F8083D6D
:100D4000284B1B68DB6C9847BDF8183003930DE007
:100D5000244B1B685B6807E0224B1B680020DB68A4
:100D600003E0204B1B685B6D03A8984738B904F17A
:100D7000170003A92A4601F09DFD002001E0082884
:100D800003D81E4B1B5C01E0002501238E210022AD
:100D900021740421A260E260A1741BB96A18A274D4
:100DA000A57500E0A275E374A7820120D0E0427D22
:100DB000817CB0F813300332914240F0C3805D1E55
:100DC000162D00F29680162B1AD100F07DFF20B967
:100DD0004FF4807000F086FFA0B906238CE000BFBE
:100DE0003829040078E30020352904008CE3002032
:100DF00060E3002070E300207CE300204F29040022
:100E0000172BE5D1534B627D5B5D9A4273D1002372
:100E1000042A04F11606069303D806A8314601F009
:100E200049FD162D00F29280DFE805F00C13171E25
:100E300090909090909090903F4390909090904799
:100E40004E5257000698FFF73FFE434B1B689B69C5
:100E500047E0414B1B681B6A3DE03F4B9DF8180083
:100E60001B689B6A98473DE0069AD1B201F00F03D8
:100E7000022B07D0032B03D0012B38D1002002E036
:100E8000022000E00120C90648BF40F01000130610
:100E9000314B1B6848BF40F040001B6B984708BBB4
:100EA0000190FFF77FF901981EE02B4B1B681B6C2C
:100EB00016E0294B1B689B6B12E0274BBDF818000E
:100EC0001B681B6D98470DE0234B1B689B6D02E070
:100ED000214B1B689B68069803E01F4B1B681B692E
:100EE00030469847082804D81C4B1B5C04E00423B8
:100EF00002E0012300E003230022A260E2608D22D1
:100F00001BE0837C042B1DD14FF4805000F0EAFEDF
:100F100060B1D4F81320124B9A4209D10E4B1B68D2
:100F20001B689847031C18BF012302E0032300E05D
:100F300002230022A260E260962201202274A074A3
:100F4000E37405E0002003E002201AE70220CBE76B
:100F500009B0F0BD3829040078E300204F290400CF
:100F6000446F497410B5044670B1084B1B685B6848
:100F70009847227C63686060032A05D1D4F81F205B
:100F8000D31A1844C4F81F0010BD00BF88E3002026
:100F9000F0B5044689B094F82130A27C0F330020CC
:100FA0009A4201906BD1237C0120012B0CBF812739
:100FB0009F2700F097FE002852D0D4F81600FFF7C4
:100FC0009BFD00284ED0237F13F0010218BF0122A1
:100FD0008DF81B209A0705D59DF81B2042F00802CA
:100FE0008DF81B2013F03C0308D09DF81B209B10AC
:100FF00042F004028DF81B208DF81E30E37E0BB109
:10100000012B31D18DF81A301E4B1F4E1B685B68C7
:101010009847D4F81D206368D31A184404F12203BA
:1010200005900293D4F8160094F821300393FFF74B
:101030004BFDE37C227D049043EA0223ADF8183097
:10104000637D8DF81C30A37E8DF81D30336802A8B7
:10105000DB699847336805469B6901A8984704E017
:101060000A2502E0052500E002250023A360E360D5
:101070000423A374019B2774A3756575012009B02F
:10108000F0BD00BF88E300208CE3002038B5037C6E
:10109000012B044602D01F2B18D01BE0457F827C19
:1010A00005F10B039A4215D1223004F11E012A46A4
:1010B00001F009FC00236377A377E37784F82030FD
:1010C000A37C84F821500433A3742046BDE8384043
:1010D000FFF75EBF002038BD30B5059C34B1002558
:1010E000A560E560022525740E25A574E3619DF8D1
:1010F0001030A082002583F001030398E276E574A6
:10110000A17584F820306560C4F8170030BD000078
:1011100038B54368113305461446D8B22AB10023C6
:101120009360D3600323137490746B7C2376AB6855
:101130006361C4F81910AB7C63772B7C03F0030365
:10114000A377EA7C920002F03C021343A37795E870
:10115000060004F1240001F0ADFB084B1B685B683E
:101160009847074BA360EB68C4F81F300023E37473
:101170006B6884F82330606038BD00BF88E30020CE
:10118000650F040003469A0700F0010044BF40F0D9
:101190000400C0B2590748BF40F002001A0748BF18
:1011A00040F00800D90648BF40F010009A0648BF3A
:1011B00040F020001B0648BF40F080007047000050
:1011C00008B5044B5B699847034B1B685B689847FD
:1011D00008BD00BFC4E6002080E30020064B13B525
:1011E0001B685B680446984702AB43F8040D186817
:1011F000C4F8170002B010BD88E3002038B50546DA
:1012000040B1FFF7A9FB0446FFF7B0F9002818BF6B
:101210000124EC7438BD00002DE9F047037C1E2B3F
:10122000A6B0044600F044832CD8172B00F0198296
:1012300012D8062B00F0848006D8042B00F005821B
:10124000052B5BD000F0AEBC0B2B00F0A6810C2B65
:1012500000F0E18000F0A6BC1A2B00F0AE8207D8A7
:10126000182B00F02082192B00F0538200F09ABC5A
:101270001B2B4FF0000500F0CF821C2B00F0E88202
:1012800000F090BC3B2B00F09A8012D8382B00F075
:10129000CE8307D8202B00F04D83212B00F0B083A4
:1012A00000F080BC392B00F0E0833A2B66D000F0D0
:1012B00079BC422B00F02F8407D8402B00F0FE832E
:1012C000412B00F0148400F06DBC4F2B00F03A84E9
:1012D000502B4FF0000200F04B844C2B40F0628406
:1012E000CC23037404238374974B82601B68C26011
:1012F0005B699847C4F8130000F022BC837C012B83
:1013000040F05084042000F0EDFC98B1E07C003007
:1013100018BF012000F022FD002840F043848B4DCF
:101320002B681B68984730B12B689B689847FFF77C
:1013300029FF00E080200023A360E360852372E39F
:10134000857C002D40F02E84082000F0CBFC28B1D5
:10135000284600F003FD10B100F024BC80200023DB
:10136000A360E360012586232374A574E07400283C
:1013700040F02084764BE36000F01CBC837C532B50
:1013800040F01084102000F0ADFC40B1714BE17CC6
:101390001B68A28A9B6A04F11600984700E00520AA
:1013A0000023A360E360BA23042823744FF00103F1
:1013B000A37496BF684B04231B5CE374C0E3837C77
:1013C000002B40F0EF832020ADF814308DF804306E
:1013D00000F088FC40B15F4B1B6804F117005B6AAA
:1013E00001A905AA984700E005200023A360E36057
:1013F000BB2323745423A374BDF81430A4F8153010
:101400009DF804302375002800F02D8302280CBFBE
:101410000120022027E3837CB0F81380022B1FFAFF
:1014200088F740F0BF837D1E0C2D00F29F800C2FAB
:1014300017D14FF4004000F055FC78B1474B04F150
:1014400017095E5D00230C2D7AD8DFE805F0131B29
:101450002D7931353F66434B5F65680000260623D2
:1014600086E0042F01D0072F02D14FF40010E2E7ED
:101470008020E0E7354B1B689B689847FFF782FEAA
:10148000019051E026A8DFF8CCA040F8843DDAF8BE
:1014900000309B699847DAF800305B690546984749
:1014A000059BC01A01903EE02A4B1B689B6930E007
:1014B000264B1B689B6A2CE0294B1B6801A85B68C4
:1014C00004219847019B03F0010326E01F4B1B6892
:1014D000DB681EE0ADF80230ADF81430214B1B681C
:1014E0005B6C06E0ADF80230ADF814301D4B1B68A4
:1014F0001B6E0DF1020005A99847BDF81420BDF838
:10150000023003EB0243054601930CE00F4B1B68CE
:101510005B6901A8984705E07023019304E0484601
:1015200000F09CFC054645B9042E00F23D83484678
:1015300001A9324601F0BEF936E3082D17D800E0C4
:101540000225094B5B5D13E074E3002080E300207B
:10155000C11104008CE3002065290400582904000F
:1015600090E3002078E300206A290400002601238C
:101570008C21002221740421A260E260A1743BB995
:101580007218082FA274A67503D19B4AA26000E0CE
:10159000A275E374A4F81480D2E2437D827CB0F893
:1015A000135003339A4240F0FD826E1E0C2E42D837
:1015B000402000F097FB00283FD0904B627D9B5D60
:1015C0009A423CD10023042A04F11606059303D85D
:1015D00005A8314601F06EF9053D082D00F2E682BE
:1015E000DFE815F009001000E402E4021900E4024B
:1015F000E402E4022100824B9DF814001B68DB6AC0
:10160000984713E00598012800F2D28200F001000B
:1016100000F0A4FB0AE07B4B05991B6888B29B6C29
:10162000090C984702E0304600F0F8FB082802D881
:10163000754B1B5C04E0012302E0062300E003235A
:101640000022A260E2608B224CE2837C002B40F0FF
:10165000A982C3608423037401256C4B8574836065
:10166000A8E2837C052B40F09D824FF4005000F0EF
:1016700039FB80B1624B1B689B68984768B1644B2B
:10168000D4F813001B68E17D1B6C9847002814BF39
:101690000223002302E0042300E001230022A260D1
:1016A000E26097221EE2C37D827C05339A4240F0BD
:1016B0007982534B467C1B689B689847E8B1544B32
:1016C000D4F813001B68E17D5B6C04F118029847A5
:1016D0000138062805D8DFE800F01206080A0C0ECB
:1016E0000E0000230CE002230AE0042308E0052397
:1016F00006E0062304E0072302E0032300E00123C1
:101700000022A260E260012598222274A57466740A
:10171000EBE1837C002B40F045828360C36099231A
:101720000374182383744FF4004000F0DBFA05467D
:1017300000283BD0364E33685B6898473368C4F85E
:1017400013001B6998473368A4F81700DB689847B3
:10175000336860765B6998473368A0769B699847E1
:101760003368E076DB6998473368E0615B6A9847E5
:10177000336820841B6A9847336884F822009B6A88
:101780009847244BC4F823001B685B689847C0F354
:10179000076384F82730C0F3074384F82830C0F388
:1017A000072384F8293084F82A0003E204F11300A7
:1017B0000021182201F0A2F8C2E1837C002B40F046
:1017C000F1814FF4005000F08DFA68B10C4B1B68AA
:1017D0009B68984750B10E4B1B689B6C984700283C
:1017E00014BF0223002302E0032300E001230022B0
:1017F000A260E2609A2275E1DD110400582904001C
:1018000080E3002078E300206A290400FD11040031
:1018100060E3002070E30020837C002B40F0CA814D
:101820004FF4005000F05EFA50B1984B1B689B6873
:10183000984738B1964B1B68DB6B9847002302E052
:10184000022300E001230022A260E2609B2249E122
:10185000837C8DF81450042B40F0AC818D4B1B68B9
:1018600005A8DB6A984705464FF4802000F03AFA55
:10187000A0B1864B1B689B68984788B99DF81430C7
:101880001A070FD175B9824BD4F813001B681B6D72
:101890009847002814BF0323002304E0042302E038
:1018A000012300E002230022A260E2609C2219E1F1
:1018B000837C0025072B8DF8145040F07B81754BFD
:1018C0001B6805A8DB6A984705464FF4002000F026
:1018D00009FA08B36D4B1B689B689847F0B99DF8EF
:1018E00014301B071CD1DDB9E17D4B1EDBB2FD2B93
:1018F00018D8674BD4F813001B68228B5B6D984790
:10190000072809D8DFE800F0040808100808060ACC
:1019100000230AE0032308E0062306E0012304E095
:10192000022302E0042300E005230022A260E2601B
:101930009E22D7E0867C002E40F03481A0230374E1
:10194000692383748660C66031466822143000F0D3
:10195000D5FF4FF4001000F0C5F90546002800F04F
:10196000EF804A4B1B6805A81B6A9847002845D1A1
:1019700006AE0027059B9F423BD200210D2201A805
:1019800000F0BCFF3068FFF7ABF80190737A8DF878
:101990000B30337A8DF80A30B388ADF80F30B37955
:1019A0008DF80830F3798DF80930337B8DF80E30DF
:1019B000F37A8DF80D30B37A23B1012B18BF0223CF
:1019C0008DF80C300D2303FB074301AA14330DF1EE
:1019D0000C089446BCE80300C44518605960624690
:1019E00003F10803F5D11068186012791A71082FF5
:1019F00001D1059B79E010360137BBE7E674D1E0F1
:101A0000837C002B40F0CE804FF4800000F06AF918
:101A100020B11E4B1B68DB69984700E002200023C1
:101A2000A360E360A12301252374A5749EE0837C59
:101A3000012B40F0B7804FF0007000F053F928B14F
:101A4000124BE07C1B685B6B984700E0082000238A
:101A5000A360E360B82323740123A37418B105289D
:101A60000CBF18460220E0746AE0837C002B40F033
:101A700099804FF080608DF8143000F033F958B140
:101A8000024B1B6805A81B6B984706E080E300200B
:101A900060E3002078E3002008200023A360E360D7
:101AA000B92323740223A37418B105280CBF0120A5
:101AB00018469DF81430E074237541E03F4BD0F890
:101AC00013001B68D4F817101B689847072898BFA5
:101AD0003B4B4FF0000298BF1B5CA260E26088BFE6
:101AE0000623C02201252274A574E37462E0334BFF
:101AF0001B685B689847002320B107280CBF0122B0
:101B0000062200E01A46A360E3600125C123237486
:101B1000A574E2744EE000238360C360274DC223A6
:101B20000374052383742B689B68984701281CBFA6
:101B30000223E3742B6808BFE074DB689847606198
:101B4000012537E0837C032B07D11E4BC07C1B682B
:101B5000A18A5B6B9847012501E003200025002343
:101B6000A360E360CF2323740123A374E07421E016
:101B7000857CADF81420012D06D1124BC07C1B686A
:101B800005A99B6B984701E0032015460023A3603D
:101B9000E360D0232374BDF81430A3820323E074E0
:101BA000A37407E0002505E00025CAE402203FE514
:101BB00003203DE5284626B0BDE8F08774E3002009
:101BC000732904008CE3002038B50120FEF73EFFA6
:101BD000044680B10723037402238374074B002556
:101BE0001B6845749B688560C56045609847FFF732
:101BF000C9FAE5742075204638BD00BF80E3002097
:101C000070B50E461C46BBB100259D60DD603F23CC
:101C100023745423A37404F11703A4F8152020752A
:101C2000FF21184650226560657400F067FE31465A
:101C3000502200F03FFEE57470BD38B505460C46F5
:101C400031B100238B60CB601D230B741F238B7479
:101C500000236374E374A868FEF742FF2B68A36156
:101C6000AB8A6061A383AB7EA3772B7FE377EB68BE
:101C700084F820306B68C4F82130EB8AA4F8253052
:101C8000EB7E84F827302B69A3626B7F84F82C30BD
:101C9000AB7F84F82D30EB7F84F82E3095F8203020
:101CA00084F82F302B8B238638BD58B12222027442
:101CB00002220023827401228360C3604360437464
:101CC0000275C3747047000008B5054B1B680020FF
:101CD000DB689847D0F1010038BF002008BD00BF85
:101CE00078E3002013B50446FFF7EEFF70B102A8B9
:101CF0004FF0FF3240F8042D064A126852689047B0
:101D000001982040031B5842584100E0012002B0D6
:101D100010BD00BF78E3002008B5034B03481B68E3
:101D20001F211B68984708BD90E300203DE3002079
:101D300008B5074B1A7842B901221A70054B0648BC
:101D40001B681F215B68984708BD002008BD00BFC5
:101D50003CE3002090E300203DE3002010B5044662
:101D6000FFF7E6FF034B1C7018B9BDE81040FFF702
:101D7000D3BF10BD3DE3002010B50446FFF7D8FFE8
:101D8000064B224603F11C0153F8044B42F8044B66
:101D90008B42F9D11B88138010BD00BF3EE30020A9
:101DA00010B50446FFF7C4FF084A234604F11C019E
:101DB00053F8044B42F8044B8B42F9D11B88138033
:101DC00018B9BDE81040FFF7A7BF10BD3EE30020E3
:101DD00010B58AB0044602A8FFF7CEFF08B1002074
:101DE00017E003460AAA002142F8241D02A919445B
:101DF00008888978ADF804009170019A0649501E50
:101E0000884201D8A24203D003331E2BEAD1E6E771
:101E100001200AB010BD00BFFCFFFF0070B50546F1
:101E20008AB0002405EB84030B4918680190019ADD
:101E30008A420ED804EB440102AA88181E889B78B7
:101E40008E52013483701046FFF7AAFF0A2CE9D1A5
:101E500000E003200AB070BDFDFFFF0070B58AB03E
:101E6000044602A8FFF788FF0146B0B903460AAA54
:101E700002AD00201D4442F8240D2E88AD78ADF847
:101E800004609570019D064EB54288BF01900333F2
:101E9000106844F8040B1E2BE9D108460AB070BD47
:101EA000FDFFFF000B4B684620F00701D3F87C21B3
:101EB0008D4601B552B10022C3F87C21D3F87C21B4
:101EC000054B1A60054B1B6803B19847BDE80140FC
:101ED0008546704700600040B0E600205CE30020CB
:101EE000144B4FF0FF3210B5C3F808230022C3F89B
:101EF0007C214FF0A043D3F8102722F44032C3F8DE
:101F00001027D3F8102742F44032C3F810270A4BA9
:101F10000A4A18601368144613B11B6A06209847D2
:101F200023682BB19C69064B012006210022A047A3
:101F300010BD00BF006000405CE300207CE3002097
:101F4000A51E0400064A136810B5144613B1DB69D8
:101F500006209847236813B11B6A0620984710BDD6
:101F60007CE30020024B4FF00042C3F8042370478B
:101F700000600040024B4FF00042C3F80823704756
:101F800000600040024B0022C3F87C21704700BF74
:101F900000600040C30705D410F0100F0CBF0022F2
:101FA000032200E002224FF0A043D3F8101721F4DF
:101FB0004031C3F81017D3F8101741EA0242C3F8B2
:101FC000102770474FF0A0430222C3F830274FF488
:101FD0008052C3F8082570474FF0A0430122C3F890
:101FE000302770474FF0A0434FF48052C3F80C25C0
:101FF00070474FF0A0434FF48052C3F80825704754
:1020000081EA1021034B33F8113083EA002080B2BB
:10201000704700BF7C29040030B500224FF6FF73E3
:102020008A420AD0855C064C85EA1325013234F8D1
:10203000154084EA03239BB2F2E7184630BD00BF87
:102040007C290400002303604360836070470068BC
:10205000704703680BB9016001E043681960002311
:1020600041600B60836801338360704703680B60D5
:102070004368016003B9416083680133836070473E
:102080000346006840B19A68013A9A6002681A6093
:1020900002B95A6000230360704700002DE9F04F39
:1020A000494BDFF87481186085B00446836847485F
:1020B000474F484E484DDFF86491DFF864A1DFF8E0
:1020C00064B14FF401719847A368C8F8000040F26A
:1020D000032142489847A368386040F201214048F4
:1020E0009847A368306040F201213E489847A368B2
:1020F00028604FF400713C489847A368C9F8000075
:1021000040F2012139489847A368CAF800004FF40B
:10211000007137489847A368CBF800004FF400716E
:1021200034489847344B4FF400711860A368334823
:102130009847334AA36810604FF400710192314808
:102140009847DFF8E4C0A368CCF8000040F2012112
:10215000CDF808C02C4898472C4BA46818604FF461
:10216000007103932A48A04701462A48039B016057
:10217000D8F80000019ADDF808C0F8B13868E8B175
:102180003068D8B12868C8B1D9F80000B0B1DAF821
:10219000000098B1DBF8000080B1106870B1DCF885
:1021A000000058B1144802682AB11B682BB1081C02
:1021B00018BF012002E0002000E0184600F00100F6
:1021C00005B0BDE8F08F00BF70E3002061F10300AF
:1021D00078E3002080E300207CE3002076D6CE74F4
:1021E00065C1F902D51BDB774DC2130015FF4E0107
:1021F000AFD6137738230F0060E30020B830B90C56
:1022000084E300206830B90C1808F20274E300205F
:10221000493BFD016CE300208CE3002088E30020B3
:1022200064E3002090E3002068E30020684620F08B
:1022300007018D462DE9F941174BD3F840210AB328
:102240004FF00008C3F8408103F5805301221A645F
:10225000124DD3F840452978E4B2A14212D0104F74
:102260003B687BB18C420F4E06D270183B68C1F1BF
:10227000FF01984785F8008029783B687018611A3B
:1022800098472C70044BD3F84021074B1A60BDE8E7
:10229000F9418546704700BF00900040A4E6002049
:1022A000A0E6002094E30020B0E60020F8B54FF04F
:1022B000A04302242022C3F81447C3F808251022A3
:1022C000C3F81047C3F808254FF40072C3F8244739
:1022D000C3F808254FF48062C3F82847C3F80825DF
:1022E0005C4A002515605C4A15705C4A15605C4AC2
:1022F0000526C2F80C6501260427B142C2F8147500
:10230000D6605660C2F800554FF0FF360BD1C3F8C7
:102310002477C3F828770923C2F80865C2F8103576
:10232000C2F86C1509E0C2F80865C2F81065C2F879
:102330006C55C3F82447C3F828474A4B9842484B8A
:1023400015D008D8B0F5E13F0ED0474A904214D1DD
:102350004FF000720FE0B0F5E12F0BD0434A9042EE
:102360000BD14FF0805206E04FF0EB7203E04FF0DC
:10237000806200E03E4AC3F824254FF0FF32C3F8E4
:1023800008234FF44072C3F804232022C3F800222C
:10239000384A012300210225C2F80455C2F8081565
:1023A000D3605360A2F580520324C2F80415C2F82A
:1023B00008450424C2F810454FF48034C2F80443A1
:1023C0002D4CB4FBF0F000EB8000C2F840055360E8
:1023D000D3602A4B2A4C3820C3F800082948C3F898
:1023E0002805C3F82C25A2F5DD42783AC3F830253C
:1023F00002F5DE420432C3F8342502F6FC72C3F85B
:102400002029A2F5FD42783AC3F8382502F5FD42AD
:102410007C32C3F83C251C4B5A1D1A601971236885
:1024200013B11B6A2846984723682BB19D69174B47
:10243000012002210022A847236813B11B6A09204A
:10244000984723682BB19C69114B01200921002278
:10245000A047F8BD94E40020A5E60020A0E60020F7
:102460000020004090D0030048E8010040420F00E7
:1024700000705F0700A000408096980000F00140C7
:102480007CE300204C21004098E400205525040006
:102490002D220400184A136870B5064615460BB184
:1024A000DB689847154C236886B15BB9012000F0C2
:1024B00049F94FF0A0430122C3F81427104B08221A
:1024C000C3F800252368013323600FE013B12368AC
:1024D000013B236023684BB9094AC2F800354FF02D
:1024E000A0420120C2F8143700F010F92B680BB19C
:1024F0001B69984770BD00BF7CE3002094E4002076
:1025000000200040104B1A7870B502F0FF06CAB9DF
:102510000E4C2279B2B1012528461D70FFF7BAFF93
:102520000B4B2268C3F844252179C3F84815C3F83A
:1025300020619D60631D9A4208BF04F20513236069
:102540000023237170BD00BFA6E6002098E40020A0
:1025500000200040684620F007018D4619B50E4C5A
:10256000D4F8203143B10D4A00231370C4F8203150
:102570000123E360FFF7C6FFD4F824311BB1064BFB
:102580000022C3F82421044BD3F80821044B1A601D
:10259000BDE819408546704700200040A6E60020AF
:1025A000B0E6002010B5144C23680BB1DB689847E7
:1025B000124B1A78D2B9012119701148114BC3F886
:1025C0000821C3F81021C3F84C21C0F840210E485F
:1025D000C3F83405FF20C3F838050C4802700C4AD4
:1025E000D160116002F5A8321160196023680BB147
:1025F0001B69984710BD00BF7CE30020A5E60020C2
:10260000009000400020004094E30020A4E6002059
:1026100000A000400B4A136810B514460BB1DB68EC
:102620009847094A01235360A2F5E832536002F546
:1026300000425360054B00221A7023680BB11B69DE
:10264000984710BD7CE3002000F00140A5E6002083
:10265000F8B5124E336807460C460BB1DB68984755
:102660000F4D2879C0F58072A24205D2346894B12A
:10267000236998470020F8BD2A683946104422464D
:1026800000F018F92B7923442B71FFF73BFF3368D7
:102690000BB11B6998472046F8BD00BF7CE30020C2
:1026A00098E400200C4A38B51368054614460BB16F
:1026B000DB689847094B1D601A684FF0A04312B1C0
:1026C0004FF4403200E00222C3F8102723680BB118
:1026D0001B69984738BD00BF7CE30020A0E60020BE
:1026E00082B044F620630193044B1B7823B1019B15
:1026F00013B1019B013BF6E702B07047A6E600204C
:10270000014B00221A607047A8E6002038B50B4C38
:10271000236805460BB1DB689847094B1A6822EA23
:1027200005001860186818B923680BB15B699847F1
:1027300023680BB11B69984738BD00BF7CE30020BC
:10274000A8E6002038B50B4C236805460BB1DB68C2
:102750009847022D08D0084B1A6815431D6023685E
:1027600013B15B690120984723680BB11B69984737
:1027700038BD00BF7CE30020A8E6002010B5044C63
:1027800023781BB9FFF7BCFF01232370012010BD84
:10279000ACE60020034608461946FEF741B8FEF7AE
:1027A0005DB8FEF7C7B813B5034600891C68997A6F
:1027B000DA7A00941C7B01945B68FEF797F802B00C
:1027C00010BD000010B5154CFFF768FCFFF7D6FFF1
:1027D000FFF7F8FBFDF7EAFF236811481B689847ED
:1027E000236810485B68984723680F489B689847A0
:1027F00023680E48DB6898470D4B0E481B685B6EDC
:1028000098470D4B0D481B68DB6C98470C4B0D48E7
:102810001B6801219B69984710BD00BF8CE3002015
:1028200089080400C5080400A727040095270400B0
:1028300078E30020D11D040060E30020A3270400FA
:1028400080E300209F27040038B51D460368044636
:102850009847B0F5007F1ED310491148401A20F068
:1028600003000022824204D00E4BD3588B50043216
:10287000F8E70D490D4B5B1A23F0030300229A423F
:1028800003D0002088500432F9E72046FFF79AFF72
:10289000074B1B682B60002038BD00BF00D0002014
:1028A00008D00020882B040008D0002008E7002072
:1028B00000D0002010B50023934203D0CC5CC45458
:1028C0000133F9E710BD814270B501D300230EE05A
:1028D0008C18A042FAD28518134613F1FF3305D3A2
:1028E000514266182944F65CCE54F6E770BD934217
:1028F00003D0CC5CC4540133F9E770BD02440346F5
:10290000934202D003F8011BFAE770470405060B57
:102910000C1718191A1B1C1E202138393A3B40414C
:10292000424C4F50828387BF9DA2BDBEC2C9CC0D11
:102930000E16011F3C010203040301010101010203
:10294000020202021010020102020102040410003D
:102950000101040404050206010101010101010451
:10296000040402012800010403020001010401041F
:1029700001020600060605060206010000002110FD
:10298000422063308440A550C660E77008812991D9
:102990004AA16BB18CC1ADD1CEE1EFF13112100281
:1029A00073325222B5529442F772D6623993188329
:1029B0007BB35AA3BDD39CC3FFF3DEE3622443344D
:1029C00020040114E664C774A44485546AA54BB579
:1029D00028850995EEE5CFF5ACC58DD55336722621
:1029E00011163006D776F6669556B4465BB77AA7C9
:1029F00019973887DFF7FEE79DD7BCC7C448E5586D
:102A00008668A7784008611802282338CCC9EDD918
:102A10008EE9AFF9488969990AA92BB9F55AD44AC0
:102A2000B77A966A711A500A333A122AFDDBDCCB68
:102A3000BFFB9EEB799B588B3BBB1AABA66C877C8C
:102A4000E44CC55C222C033C600C411CAEED8FFDB8
:102A5000ECCDCDDD2AAD0BBD688D499D977EB66E60
:102A6000D55EF44E133E322E511E700E9FFFBEEF08
:102A7000DDDFFCCF1BBF3AAF599F788F8891A981CA
:102A8000CAB1EBA10CD12DC14EF16FE18010A100B4
:102A9000C230E3200450254046706760B9839893A4
:102AA000FBA3DAB33DC31CD37FE35EF3B102901204
:102AB000F322D2323542145277625672EAB5CBA570
:102AC000A89589856EF54FE52CD50DC5E234C32454
:102AD000A01481046674476424540544DBA7FAB744
:102AE0009987B8975FE77EF71DC73CD7D326F236A4
:102AF0009106B01657667676154634564CD96DC990
:102B00000EF92FE9C899E9898AB9ABA944586548F3
:102B100006782768C018E1088238A3287DCB5CDBE3
:102B20003FEB1EFBF98BD89BBBAB9ABB754A545A43
:102B3000376A167AF10AD01AB32A923A2EFD0FEDAF
:102B40006CDD4DCDAABD8BADE89DC98D267C076C93
:102B5000645C454CA23C832CE01CC10C1FEF3EFF83
:102B60005DCF7CDF9BAFBABFD98FF89F176E367EE3
:102B7000554E745E932EB23ED10EF01E48E8010011
:082B800000000000000000004D
:082B880008E700200000000036
:0400000340000000B9
:00000001FF
