:020000040000fa
:10000000e8ff0020090400005d0400005d0400001a
:100010005d0400005d0400005d0400005d0400005c
:100020005d0400005d0400005d0400005d0400004c
:100030005d0400005d0400005d0400005d0400003c
:100040005d0400005d0400005d0400005d0400002c
:1004000006000000000000000e4a106810f0ff0017
:1004100015d00d4b98470b4a106810f0ff000ed016
:100420000a4b012018600a4c20680028fcd00020ec
:100430001060186020680028fcd006480047064875
:1004400000470000081200106305000004e50140a9
:1004500000e401405d04000075040000bff34f8f0d
:10046000024903480860bff34f8ffee70ced00e040
:100470000400fa0500b52e4a2e48801a91b020f0eb
:1004800003000023144683422b4a03d0d158e15085
:100490000433f8e729492a48401a134420f003009e
:1004a0000022824203d000248c500432f9e7254c0c
:1004b0002548001b20f0030000222546824203d07d
:1004c0009958a9500432f9e7204a2149891a21f0a4
:1004d000030100238b4203d00020d0500433f9e7fe
:1004e00000f04ef800f03cf800f030fc00f000ffa7
:1004f00000f02cfa08b100f019fb164d0121ac6098
:10050000684600f0f7fc009801a900f0a1fc20b9b2
:10051000039b114843f001039847bff34f8fea68ec
:100520000e4b02f4e0621343eb60bff34f8ffee724
:1005300000000020000000206023000000000020d8
:100540000801002000040020080400200804002006
:100550005027002000ed00e0042200000400fa050e
:100560007047704700207047032070470320704792
:100570000320704700207047032070477047000039
:100580004f4b1b78062b0ed14e4b1b6818070ad118
:100590004d4b1b6803f0f003302b04d14b4b1b6811
:1005a00013f0f00f73d0464b1b78062b0ed1454b42
:1005b0001b6819070ad1444b1b6803f0f003302b6a
:1005c00004d1424b1b6813f0f00f66d03c4b1b78f4
:1005d000062b0ed13b4b1b681a070ad13a4b1b68fe
:1005e00003f0f003302b04d1384b1a6812f0f002fc
:1005f00057d0334b1b78062b0dd1324b1b681b0792
:1006000009d1314b1b6803f0f002302a50d003f0bf
:10061000e003402b4cd04ff01023d3f80022002ae7
:1006200003dbd3f80032002b2dda294b0122c3f86b
:100630000425d3f80024002afbd04ff01022152106
:10064000c2f80012d3f80024002afbd04ff0102388
:100650001522c3f804221e4bd3f80024002afad036
:100660000022c3f80425d3f80024002afbd0bff3ee
:100670004f8f184a184bd16801f4e0610b43d360e7
:10068000bff34f8ffee7154b154a1a607047154ba5
:10069000da6822f08072da6085e7134b03221a6071
:1006a00094e74ff08043c3f80c21c3f81021a0e772
:1006b0000e4b1a680e4b02f04f021a60abe700bff8
:1006c000e00f00f0e40f00f0e80f00f0ec0f00f096
:1006d00000e0014000ed00e00400fa050004002005
:1006e0000090d003f0ed00e0a0050040580200109b
:1006f000e40e004010b500231a464ff0ff31c45cf1
:100700008c4218bf00220132042a04d00133102b7e
:1007100003d02146f3e7002010bd012010bd0000ea
:1007200008b501f071f8bff34f8f054a054bd1684a
:1007300001f4e0610b43d360bff34f8ffee700bfce
:1007400000ed00e00400fa051fb5436a994202d3a8
:100750004ff0ff301ee0c269531c1ad0036b994260
:1007600004d2013b591a8369585c13e0cb1a0b4938
:1007700000208de803000a49013a0868d21a0df1f9
:100780000f01012300f0e1fb0028e1d19df80f00eb
:1007900000e0002005b05df804fb00bfa08601006a
:1007a0006014002038b5026a836a9a42044602d374
:1007b0004ff0ff3038bdc36a0f2b11d90c48616967
:1007c000102200f0e3fd05460028f1d11023206936
:1007d0000749224601f0e0fb6369e562103363617b
:1007e000236a01332362e36a5a1ce262e05c38bd8b
:1007f00050170020f7b5134b134e05461446002240
:100800008de80c0030682a4623460f4600f00cfca9
:1008100008b1002013e00d4b0090019330680c49a3
:100820003a46234600f091fb0028f2d128460849b9
:10083000224601f099fcd0f1010038bf002003b03e
:10084000f0bd00bf20a1070060140020a0860100b9
:1008500050170020c369013310b5044616d0036b4e
:100860008269581c2063d154626b236b93420dd371
:10087000a069e169fff7beff10b9a36b0133a36361
:10088000e269636b1344e36100232363636a01330a
:100890006362002010bd0000f0b51e46244b9fb0df
:1008a00007460c4618686946154600f0d1fa20b193
:1008b0006b1c36d14ff480530493049b1d4914974d
:1008c000b3f5805f84bf4ff4805304931a4b1393a6
:1008d0001a4b1593236819934ff0ff3300221a9394
:1008e000049b179218921b921c931d92144b154a4d
:1008f00016950fa801f0f4f9134a1d9b11681944cd
:10090000116080b91b9820b10fa8ff21fff7a2ff4b
:10091000f8e7189ab24208d8169b013306d0226035
:1009200004e0082002e0052000e006201fb0f0bd32
:100930006014002055080000201400201804002036
:1009400049070000a5070000181400202de9f04f0a
:10095000544b554a554e1360803391b03360544b1d
:1009600000220df113001a6000f02afc002840f06c
:1009700095809df813305a1e012a40f28f80052b76
:1009800000f08c8009a800f0d9fe002840f0868095
:100990000d9b002b40f082800e9c621c7ed1fff7e5
:1009a000edfd9df81330032b08bf022002d0042b6d
:1009b00002d10320fff7b4fe3e4b3f4f3f4d2021b5
:1009c00019600b9ba3f1300038603d483022026073
:1009d0002a603c4a402010603b4a3c48403b136040
:1009e000102200f0d3fc002858d12d68d7f800a0c1
:1009f000d6f800900395054609eb451000f054ff2a
:100a0000baf5805fddf80cb094bf00270127564689
:100a10005eb1b6f5805f34bfb0464ff480582c48c5
:100a20005946424600f0b2fc58b105a827491022a9
:100a300001f09afb002808bf2c4601351c2ddbd1a4
:100a400011e0b6eb0806c34402d1022f08bf03270a
:100a50000197cdf80080002005a910221c4b01f061
:100a600015fa0227d4e7631c10d009eb4419484655
:100a7000fff740fe40b109f11000fff73bfe0028f0
:100a800008bf4ff0ff3401e04ff0ff34114b1c6002
:100a9000013408bf04208dd0012000e0002011b0f7
:100aa000bde8f08f003c0000080400206c1400201a
:100ab0001814002064140020701400206814002012
:100ac0000c04002010040020140400205014002006
:100ad000501700201c14002070b5124e94b005462b
:100ae00001243068039405a900f0b2f9a8b9b5b1a2
:100af0000a9b0490013d5b421d40049bab424ff0ba
:100b000001000dd8084b03900093306804a903aa94
:100b1000002300f0e0fa0028efd0002000e020469b
:100b200014b070bd6014002040420f002de9f04f5a
:100b3000734b74481968c3b0102200f027fc0028da
:100b400040f0db80704b71481968714b6d4a1b682f
:100b500003eb4111103100f092fe6e4bd3f8008090
:100b60006d4b1e68002e44d003a84146102208f1a8
:100b7000100900f00bfc002837d10f2e37d9049b49
:100b800003f11002964232d3069a002a2fd15f4d0c
:100b900002930fcd18ac0fc40fcd0fc495e80f0012
:100ba00084e80f005d4c0398206024a900f050f900
:100bb000002835d133a8259f00f0c0fd60bb9df80b
:100bc000e430f3b1484602a94ff0ff323b46fff74d
:100bd00063fe834670b92368dff840a1013300f05b
:100be00087803846fff778fff0b9082002e0072039
:100bf00000e030464a4b1b68002b18bf0120fff76e
:100c00008ffd9df8ca30022bdcd1359b203fff1aa7
:100c1000299b5a421740d5e74ff0ff332360d1e7b5
:100c20004ff0ff372760cde718ad0fcd374c0fc41d
:100c30000fcd0fc495e80f0084e80f00484602a9c5
:100c40005a463b46fff728fe0028d3d19df8c9300d
:100c5000002b4dd011a800f071fd139bdaf80000b5
:100c60000990203b0793bdf85030adf820309df837
:100c700052308df822309df853308df823309df896
:100c800014308df828309df815308df829309df8f6
:100c900016308df82a309df817308df82b3033a997
:100ca000029b0b9300f0d4f810bb349b232b1fd96d
:100cb0001c4bdaf8000001228de80c000ca9102270
:100cc000142300f042f998b90cab11aa934204d254
:100cd00013f8012bff2af8d00ae009d107a8102148
:100ce0001422fff787fd18b90d4b1a6801321a60fc
:100cf000049b10339844f61a34e743b0bde8f08ff4
:100d00000c040020741400201c1400202014002067
:100d10006c14002010040020140400206014002033
:100d200018140020a0860100074b014603f1800241
:100d300018469b688b4205d000f110039342f7d10f
:100d40004ff0ff30704700bf003c000010b501f0cd
:100d500065f90446fff706fc002c18bf204610bdbd
:100d6000e0b51d460f461646fff7deff431c0fd0c9
:100d7000436872199a420dd8c368016813f0020fd4
:100d80000ad1384631442a46bde8e04001f048b96e
:100d90000520e0bd0420e0bd384631442a46fff777
:100da000e3fbe0bd70b51d460c461646fff7bcffe1
:100db000431c0fd0436862199a420dd8c36800687b
:100dc00013f0020f0ad1204431462a46bde8704094
:100dd00001f030b9052070bd042070bd20443146bb
:100de0002a46fff7c3fb70bd73b50e461546fff7e5
:100df0009bff326803681344421c0446019308d0e9
:100e00004db1c3689b070dd401a8294601f066f9ce
:100e100002e0052000e004202268019b9b1a336059
:100e200002b070bd01a82946fff7a2fbf4e708b5a0
:100e3000fff77aff421c05d0c3689b0704d5fff774
:100e400099fb08bd002008bdbde8084001f024b9a9
:100e5000f0b58db00c46fff767ff421c054606d083
:100e6000c3689b0705d501a8fff786fb04e00520b2
:100e700026e001a801f012f9ab6823606b6863609b
:100e80002b68a360074601ae04f10c030df12c0c96
:100e9000324603ca624518605960164603f10803da
:100ea000f6d110681860eb68c3f3400284f838206c
:100eb00003f001029b0884f8392084f83a30384660
:100ec0000db0f0bd30b50023094c04eb0314dab2c9
:100ed000a468651c09d00d78954288bf40f823406e
:100ee00001330132082bd2b2eed10a7030bd00bfff
:100ef000003c0000f0b599b008238df803304ff0a6
:100f0000ff33036005460f4601a80df10301fff70b
:100f1000d9ff00249df80330e6b2b34212d918abd2
:100f200003eb860609a956f85c0cfff791ff38b968
:100f30009df85e30bb4203d156f85c3c2b6002e06a
:100f40000134e7e7012019b0f0bd2de9f04f91b071
:100f5000894601a9804692469b46fff779ffe8b98a
:100f60009df868600e9f1b9c0136bc4238bf3c4612
:100f7000f6b24046494652465b46fff7f1fe05464b
:100f800038b94046fff753ffe41b10b1002cf8d1ed
:100f90000625013e16f0ff06ebd1284611b0bde84c
:100fa000f08f000030b589b005460c46fff7bcfe57
:100fb000431c33d0c368d90701d401202fe0194b5b
:100fc00001228de80c00284603a910221423fff704
:100fd000bcff20bb039b002befd013f00f00ecd124
:100fe000059a0132e9d09df81850ff2de5d09df803
:100ff0001910ff29e1d09df81a20ff2addd02033f7
:101000002360bdf81030a3809df81230a3719df8c5
:101010001b30e57121726272a37200e0052009b0f5
:1010200030bd00bfa08601002de9f04f95b00c4601
:101030001d4605a99df87830019092460393fff76d
:1010400007ff0746002842d1ddf848901f9b4b451b
:1010500038bf4b460293002d39d0099bddf80c8038
:10106000029ec3f1000c04ea0c0c9c442b1963454e
:101070008cbfc4eb0c0bab465b4601982146524635
:10108000fff790fe034660b901980093fff7cffe8b
:101090004e45009b14d3c9eb060610b1002ef3d1c8
:1010a000062308f1ff32b8f1000f01d09046e3e7c4
:1010b00023b95c44da44cbeb0505cce71f4606e0d8
:1010c00000284ff000060cbf33460623e9e73846f8
:1010d00015b0bde8f08f2de9f04790b0894601a921
:1010e000804692461e46fff7b3fed0b90e9f189c6d
:1010f0000136bc4238bf3c46f6b2404649465246ed
:10110000fff772fe054638b94046fff790fee41b34
:1011100010b1002cf8d10625013e16f0ff06ecd1e7
:10112000284610b0bde8f087044a00231370044a33
:101130001360044a1360044a137070478000002053
:10114000a0000020000000209c00002030b5174bbc
:1011500091b0186801a9fff77bfe28bb144a059bd4
:101160001360144b144c1b78144a02991bb10020d5
:101170002060116018e0039800f110030069002856
:10118000f5d010f00f00f2d19d680135efd01d7b36
:10119000ff2decd05d7bff2de9d09d7bff2de6d0b0
:1011a0001b692360cb1a136011b030bda80000206a
:1011b000980000209400002074000020b00000205f
:1011c0002de9f04f3f4e89b033780390002b6ed15c
:1011d000052333703c4b1b78002b6ad13b4bdff867
:1011e00004a13b4c0194012700971a68daf800002b
:1011f00004a91023fff7a9fe054600285ad1354857
:1012000004a9102200f0b0ff08b102234de0dff87e
:10121000d890dff8d88000970194daf80000d8f869
:10122000002049461023fff790fe0546002841d1d3
:10123000d9f80040284ba4f140029a4201d8210776
:1012400001d0032331e0d8f800304ff6ff78c4eb2b
:10125000030b1f4bdaf8000020490022702c34bf2a
:10126000274670278de80c005a463b46fff76dfe77
:1012700088b9bb44e41b0346184a4046d15c02933c
:1012800000f036fb029b0133bb428046f4d3002cb6
:10129000dfd1034601e04ff6ff73114ab9f804802d
:1012a0001360434514bf04230623337002e0002576
:1012b00000e007253378039a2846137009b0bde88b
:1012c000f08f00bf9500002080000020a4000020c7
:1012d000a0860100b5210000c0ff0f00040000201f
:1012e00078000020a8000020840000207c0000205e
:1012f00038b51d4c1d4d20460421fff7fbfd30b9cc
:101300002368013303d01a4b01221a700ae0164ced
:1013100002212046fff7eefd40b92368013305d0d6
:10132000134b1870fff712ff044618b105232b70fa
:10133000012416e00f4b104a1b6812680f491a442b
:10134000a2f1100008600e49203a0a600d49d31a34
:101350000b60fff7e9fe0c4b04481c602c70fff794
:101360002fff204638bd00bfa800002095000020b8
:101370009400002074000020b0000020a400002091
:101380007c000020ac000020780000202de9f3470d
:10139000324b0c461b783249154606460a68894688
:1013a000002b52d12f49097806294ed12032944280
:1013b0004dd2121baa424ad3002848d01f2c31d844
:1013c0000093dff8b480284b284fdff8a8a0cdf8b1
:1013d00004a01a68d8f8000039461023fff7b5fdbd
:1013e000002837d18de80104214bd8f800001a6895
:1013f00007f110011023fff7a8fd58bb4ff0004381
:10140000c4f12008a84528bfa846bb614ff0ff33b0
:1014100030463919fb61424600f0b5fe4444c8eb42
:1014200005054644adb1124b1a68d9f80030203a90
:10143000d21a104b00218de80a000f4b3146186874
:1014400022442b46fff781fd04e0072002e0042040
:1014500000e0284602b0bde8f08700bf8000002011
:101460008400002095000020a4000020040000203b
:101470007c000020a0860100a8000020f0b51a4dd5
:1014800095b0044605a92868fff7e2fc174b1a78c7
:10149000012a1e4624d0164b0a9a1f68154b1b685a
:1014a000524213400f3703931740039bbb420ed8a1
:1014b0000123049304b1a0470f4b0093286803a9ac
:1014c00004aa0023fff707fe0028eed009e00b4b2b
:1014d00000241c6001233370fff726fe204600e045
:1014e000002015b0f0bd00bfa8000020950000202e
:1014f000a40000207400002040420f00780000206b
:101500006f2838b504460d4601d8012038bd0307c1
:10151000fbd1094b1b689842f7d81046fff7aeff86
:101520000028f2d1054b01221a70054b1860054bbb
:101530001c60054b1d7038bdb000002080000020ed
:10154000a0000020000000209c0000202de9f04faa
:1015500015466d4a1c46137885b0064688461bb969
:10156000fff7e2fd03230ee0684f3a689042ba4667
:1015700003d0fff7d9fd0426c1e015f0030c05d018
:10158000fff7d2fd052323700426b9e0702df7d8ac
:101590005f4ad2f800b05845ebd8c0eb0b02aa4224
:1015a000eed319b9fff7c0fd0723ece7012b6bd190
:1015b000584b0293c0f12009a94528bfa946181825
:1015c0004e444a46cdf80cc000f0ddfd1f2e3e60b3
:1015d000029bddf80cc003d884f800c066468fe09b
:1015e00018464d490293102200f0befd029b18b12f
:1015f000fff79afd06237ce01b69484a454fa3f19b
:1016000040019142f4d81907f2d1ba6932f0004290
:10161000eed1f9690131ebd120339b45e8d14ff090
:101620000043bb613e4bdff80cc11b78bb753d4be3
:10163000dff804b11a703c4b0092cdf804c0196871
:10164000dbf80000cdf80cc03a461023fff7ecfca5
:10165000ddf80cc0002833d18de80110334bdbf8e6
:101660000000196810373a461023fff7ddfc38bb3d
:1016700097e80f00dff8b8c08ce80f00224a022379
:101680001370c9eb0505c84415b925702e4637e01f
:1016900041462a461f4800f076fd244b1968244b2a
:1016a0001b682039c91a234b00228de80c00224bfd
:1016b000184a186831442b46fff7b6fc064608b1b5
:1016c000082316e0daf80030114a164f1d4413685b
:1016d00038709d42caf8005011d1fff725fd3846f9
:1016e0003e70fff76dfd064610b93b78062b03d020
:1016f00002232370012603e00123237000e02670fb
:10170000304605b0bde8f08f80000020a00000202a
:101710000000002004000020b5210000c0ff0f00e1
:101720009c00002095000020a40000207c000020e8
:101730008400002020a10700a800002030b5164d2d
:10174000044691b0fff702fd2b682360134b1a6823
:101750002032a2609a88a2819a79a2739a68226143
:10176000da68db79e3730e4b62611b7823760d4bed
:1017700001a91868fff76cfb10b14ff0ff3307e0c9
:101780000a9b0d9a29681a44069bb1fbf3f3534355
:10179000636011b030bd00bfb000002084000020a5
:1017a00094000020a800002070b5134b88b00df104
:1017b0000f001d68fff704fd0446c8b99df80f30ff
:1017c000062b15d10d4b9a689ab10fcb08ae06e9de
:1017d0000f0032460a4b42f8084d0193094b009422
:1017e000186805f108010423fff71efc044600e019
:1017f0000724204608b070bd7c0000208400002033
:1018000020a10700a800002070b50f4b1c680f4beb
:10181000da680132054686b018bf072011d10fcb18
:1018200006ae06e90f000a4b3246002142f8045d7d
:101830008de80a00074b04f10c0118680423fff738
:10184000f3fb06b070bd00bf7c00002084000020c8
:1018500020a10700a800002010b50f230022cc5cb7
:1018600042ea4402c254ca5c13f1ff334fead21277
:10187000f5d21ab1c37b83f08703c37310bd30b5b3
:10188000034601f1100451f8045b43f8045ba142e4
:10189000f9d1103002f1100352f8041b40f8041b78
:1018a0009a42f9d130bd000030b50d4c0d4d85b0d8
:1018b00001462a462046fff7e2ff29460a4d6a46be
:1018c0001023204600f068fb284604f12001fff7b2
:1018d000c3ff06482946fff7bfff05b030bd00bf74
:1018e000d400002010220000b4000020c40000201a
:1018f00040ba83b25940c1f303134b4083ea033328
:101900009bb2d8b283ea40107047f0b5036889b043
:10191000002500245c530235202dfad1944208dac8
:1019200031f9145033f81560013623f8156001348d
:10193000f4e7b3f9004094422ed0002501245e194b
:10194000b6f90260d6eb440428d402351e2df6d138
:101950000025adf8025000ae2e445f190235b7f8ed
:1019600002c077881c2d6744b780f4d100239342ce
:1019700014da31f813606eb108ad36b205eb4606e5
:10198000476836f8205c05f1010c2db226f820cc12
:1019900027f815300133eae7002000e0204609b0bf
:1019a000f0bd70b5056904460e466369b34210daae
:1019b000a36820689847002804da04f11800012180
:1019c00000f0f0fb6369c2b29a40083315436361cb
:1019d000ebe7012025fa06f29b1b00fa06f6701ec3
:1019e00022616361284070bd2de9f84f04460a6802
:1019f0000069636900268a4602f102083746b1464b
:101a0000012523b300f00102b8f900c042ea09023f
:101a100008f10201cceb0208b8454fea50000dda9c
:101a2000636920615b1b03f00703d71b63613e44be
:101a3000daf8043033f91600bde8f88f6744013b4b
:101a400066447f004fea420901358846d9e7d5f15f
:101a5000100b10d0a26820689047002804da04f127
:101a60001800012100f09efbc0b2bbf1080fb4bf0b
:101a70005b460823c5e76ff00900bde8f88f00005a
:101a80002de9f84304460f46904639462046fff7b5
:101a9000abff011e49dbff290adc6568002df4d08d
:101aa0002068c9b2a8470028efda0120bde8f88312
:101ab000b1f5807f02d10020bde8f8836ff4807318
:101ac000cb181c2b34dc204a32f913601f4a204605
:101ad00032f91310fff765ff414606442046fff731
:101ae00083ff051e28db1a4b33f91590194b20464e
:101af00033f91510fff755ff6368814493b9b5f5c5
:101b0000807fc2d1d7e709f1ff31e36820689847a9
:101b1000011e14db94e80900c9b29847002806f1b9
:101b2000ff36c2db002eeed1e9e70846bde8f883b8
:101b30006ff00900bde8f8832846bde8f8836ff030
:101b40000a00bde8f88300bff8220000be220000b2
:101b5000202200005c2200002de9f047adf5a86dc1
:101b600004ab009323ab01930cab0293052114aba0
:101b700005460393fff715ff052100f201172846dc
:101b8000fff70fff042100f101082846fff709ffc6
:101b9000b7f58f7f00f1040900f38880b8f11e0fbc
:101ba00000f3848000264e45b2ac0ada4b4b28463f
:101bb000032133f916a0fff7f4fe013624f81a00ca
:101bc000f1e7122e07dc454b33f91630002224f8da
:101bd00013200136f5e7684621461322fff795feec
:101be000002866d1064607eb08094e4534da284638
:101bf0006946fff7f9fe00286cdb0f2803dc721c36
:101c000024f8160026e010280ad1002e54d0731ea6
:101c10002846022134f913a0fff7c3fe03300de07c
:101c20001128284604d10321fff7bbfe033003e04f
:101c30000721fff7b6fe0b304ff0000a32184a4575
:101c40003ddc04eb46060023834203d026f813a0b4
:101c50000133f9e71646c6e7b4f9003293b3684694
:101c600021463a46fff751fe002808d02ddb009ba5
:101c7000b3f90020b3f9023013449f4225d102a8e2
:101c800004eb47014246fff740fe002808d01fdb67
:101c9000029bb3f90020b3f902301344984517d1e1
:101ca0002846694602aafff7ebfe13e06ff0020038
:101cb00010e06ff003000de06ff004000ae06ff039
:101cc000050007e06ff0080004e06ff0060001e097
:101cd0006ff007000df5a86dbde8f08798220000b1
:101ce000f0b5adf52f7d0190049307a80023029174
:101cf00003920593069300f04ffa002840f0a1806c
:101d0000012101a8fff74dfe0221044601a8fff7bb
:101d100048fe00283cd105900690039b0198984707
:101d2000061e01da022087e0039b01989847051ef2
:101d3000f8db039b01989847071ef3db039b019890
:101d400098470028eedb80b2ffb2adb2f6b247eaa8
:101d5000002746ea0525ff43adb2bfb2bd4214d10c
:101d6000029b0bb9002067e0002dfbd0039b01987c
:101d70009847011ed6db029b0198c9b29847013de6
:101d80000028adb2f0da012056e06ff0010053e018
:101d900001284cd12e4b1b68002b42d02d4b2e4ad4
:101da0001a602e4a5a602e4b2e4a1a602e4a5a60ea
:101db00000231eaa082199520233b3f5907ff8d16f
:101dc00000231eaa1a4402330921e02ba2f8201195
:101dd000f7d100230233322b05d0aeaa1a440721d3
:101de00022f8421cf6e700230233122b05d0aeaadc
:101df0001a44082122f8121cf6e716481ea94ff4cf
:101e00009072fff782fd00231ea905225a52023369
:101e10003c2bf9d11e221248fff777fd0c4b002214
:101e20001a6001a80b490e4afff72afe04e00228b7
:101e300009d101a8fff790fe38b9002c3ff460af3c
:101e400003e0022001e04ff0ff300df52f7df0bde3
:101e5000040400208414002094140020f0140020b6
:101e60008c14002030170020b4140020bff34f8fd3
:101e7000044a054bd16801f4e0610b43d360bff322
:101e80004f8ffee700ed00e00400fa052de9f8436e
:101e90009df82470089c012f914632d8384d08b91e
:101ea000286202e006682e62406868620020a8622c
:101eb000e86226e0654610f801cb05f801ccc3ebdb
:101ec0000008b04505f1010cf4d324b32d4ba3f168
:101ed000100505f1200c53f8048bde68634586ea93
:101ee000080843f8048cf6d1274bc3f804550125a4
:101ef0001d60d3f80061244d8eb30023c5f8003176
:101f0000034694b3102c34bf26461026a41bdff8da
:101f10007cc01846cee70fb1032fd7d1d6f11006fb
:101f20000dd080232b7000230133b34204d04ff037
:101f3000000c05f803c0f7e7dff8548001e0dff894
:101f4000548000230e4d5e1958f803503269043353
:101f500082ea050c102bc6f810c0f3d1b6e7d5f80d
:101f60000451002dc5d0fff781ff4c4506d0044b2e
:101f7000234493f820300b550134f6e7bde8f8838d
:101f8000d4000020e400002000e00040e500002034
:101f9000c4000020b4000020f8b5002b33d01a4c48
:101fa0000125c4f804052560d4f80061164d2eb94a
:101fb000d5f80451002df7d0fff758ff0024c5f8dd
:101fc000004104690134046154b944690134446135
:101fd00034b984690134846114b9c4690134c461b9
:101fe000102b34bf1d46102500f1200c5b1b002474
:101ff0001cf804700e5d7e4016550134ac42f7d1da
:1020000021442244c9e7f8bd00e00040024bd3f868
:102010000034002bfad0704700e0014000207047e8
:1020200010b5eff3108472b600f0adf804b962b6e3
:10203000002010bd2de9f34140ea020414f003042e
:102040000746884616461fd1eff3108572b6114b2e
:102050000122c3f80425fff7d9ff0194a64208eb3b
:10206000040307d018680190019b3b51fff7ceff96
:102070000434f3e7074b0024c3f80445fff7c6ff19
:1020800025b962b6284602e0042000e0204602b0ee
:10209000bde8f08100e00140002070470e4a70b5b5
:1020a0000346054602f12806144603ccb4421860e4
:1020b0005960224603f10803f6d1206818604ff0fa
:1020c0008053002019695a694a432a601a691b69ba
:1020d0006a60ab6070bd00bf34230000f0b58db006
:1020e000044601a80d46fff7d9ff039922684b1e4d
:1020f00013402fd1286800fb01260198864229d879
:1021000099421ed00433981850f8040c0130f7d0cf
:10211000eff3108772b6114e0223c6f80435fff7ad
:1021200075ff2368c6f80835fff770ff0c4b1a6877
:102130000c4b1a600023c6f80435fff767ff07b998
:1021400062b62268039b134423602b68013b2b601b
:10215000002000e004200db0f0bd00bf00e0014011
:10216000fc0f00100401002030b50023934208d07a
:10217000c55c0133cc1814f8014ca542f6d0281bdd
:1021800030bd002030bd10b50023934203d0cc5c9d
:10219000c4540133f9e710bdec46a0e8f05f4ff0fe
:1021a00000007047b0e8f05fe546080008bf012076
:1021b000704700bf00534352319a933082d9eb0ae3
:1021c000fc3121e337000000c11100008d13000035
:1021d0007d140000011500004d1500003d170000a2
:1021e000a9170000610d0000a50d0000e90d000019
:1021f0002f0e0000510e0000c50e0000f50e00006d
:10220000a50f000006000000e4210000c821000026
:1022100000000000000000000000000000000000be
:1022200001000200030004000500070009000d0082
:102230001100190021003100410061008100c1003e
:102240000101810101020103010401060108010ce1
:102250000110011801200130014001600000000060
:102260000000000001000100020002000300030062
:102270000400040005000500060006000700070032
:1022800008000800090009000a000a000b000b0002
:102290000c000c000d000d001000110012000000d9
:1022a00008000700090006000a0005000b000400f2
:1022b0000c0003000d0002000e0001000f000000e2
:1022c000000000000000000000000000000001000d
:1022d00001000100010002000200020002000300f0
:1022e00003000300030004000400040004000500d0
:1022f00005000500050000000300040005000600bd
:102300000700080009000a000b000d000f00110073
:10231000130017001b001f0023002b0033003b009d
:1023200043005300630073008300a300c300e30075
:102330000201000000000800001000000010000072
:102340000400000000000000000000000000000089
:102350005401000002480500665e01000200000012
:082360000090d0030100000011
:020000040000fa
:103c00000000040000e0030003746b84090000005e
:103c10000000000000400000030100100000000050
:103c20000040000000c00300030100000500000088
:103c300000e0070000200000030000200c0000004e
:020000040000fa
:103c800021bbd37575030c0a64664b2496d661324a
:103c9000634d84afe8e5b025a27b0fb1834c4da7ff
:103ca000396503c6b24ac4333c646d941c7603354f
:103cb0009587f5f9e82bb22b3e3749e850e321f51b
:020000040006f4
:104260004e51b23cc4b6ed15cb4984d0b31ce460ca
:104270009aac3d2c8eb6f3e5ff155d214d313e80a5
:104280000301000030800100040044000000000031
:10429000cd188e9365dbc2a3a7167cfce535ead367
:1042a0005f23ea824ce0f0185570b11a434b79b3a2
:1042b0002e44aba5d9eb32ee03f7b1510843c460ed
:1042c0005e253f434a65c7a3d8ab4c74a87b7aca26
:1042d000d2e7c8594174a476400b9a873614e8fe99
:1042e000b004f87b531bc0a5b95a5ba3f6109cbb66
:1042f000f4a159ba14d2366b774aaac685407fa07a
:10430000514cd5227bac392876ba382d09a5997342
:1043100059a45630515289e3cd4a627cae8e7eeb71
:1043200052c107294055f044f15f0dcd9f297ce132
:104330004265d1bf13ba0f005858871ba406b6a216
:1043400018769f9df701f7b3f8cb5b745e8b800006
:10435000dd426f7de0c006d0d6ed70c92039887e81
:10436000d9db67570d5f05f22e951d7165340d1c65
:104370000b563f01aabb8d8ea0559562f6f9eef75c
:1043800047b3d04ce83fde6924971861304955188f
:1043900088d113712e6c2c35a933b2d61b5dfbe18d
:1043a000531b96db16193cbca7d6713c52a751d2c1
:1043b0006c7181ff2829e69f6911cb3b97f343522b
:1043c000a6b554e82e84fd2b0460bd8f5a05b6cee9
:1043d000f6edd536d40003b17c51fc59b4afc44fcf
:1043e0003591f8f82305c209ce5c4329d14e7f0ae6
:1043f000d74811254ae7c6916b2ed322fa72813233
:104400006acb74faf9bd960adc57ea8d42d17ddd9c
:1044100080edc1934a2f6f893d24e35e92fc28de34
:1044200037031d4f5a6350217da04ce2165f353d86
:10443000a0b091e05aa98624b4862eb071a85fcdb1
:104440003c7b99d27f268ed72dcd21870d65e9b192
:10445000f764404d6463e4af41febd59c2fef5c24e
:10446000ebd856dd0826e14de5f2470999b53056ff
:10447000f0e1f101ea374cbeaf9de79cbe99e6a59d
:10448000d0656de8a001634223ed3517910c26320b
:10449000cfc5055e5ba64df6df41dfad968a0b9872
:1044a000217855b373b65330825e0fb42e24670f54
:1044b000bd486d88156674fb04d3ad14c41ef89115
:1044c0000962f76d451ba29444a0db56076914f7f7
:1044d000c03cf56b2198c96297b48eedf540bad710
:1044e000bcc906e30f51b8fb0fef20484a0363ce67
:1044f0007083bbcfe623dc6ba1ea51ed3d085f7f03
:10450000594d1d995bb770d384e75a6a39bad8867a
:1045100076b134cfc5ac6bde7094419be70c4bebae
:104520002e0ce0b94d50f230c9863a312d4eb3fc15
:10453000cf87d980fcafc48cb45ed5fc1db77f8813
:1045400075be5622826aef5afc5a0df679e2f2a540
:10455000b5e606dc4635d930c84fbed63e9931a601
:10456000dbb738df4837cd0ce6701160b4be1af8ff
:10457000ade0abb05d79555968b17d1c1dd8984d43
:10458000f91af4647e252647f3104a11b19ccc3bfe
:10459000a295a56c38088018c2f138b90d85730151
:1045a00045414f1d3eae83e190d9f75d481e47bda2
:1045b00066d790b0d1662fa34bf4314e89660ef7c3
:1045c00094ea2a2b05b1f71e5cf27632045fc357da
:1045d0000323397dc3273d01369750335b9e47ea5d
:1045e000ab4086b049c8f6e4b1537816a85c4902de
:1045f000cf2c03315962810bcfe7f43aab71bcfc8d
:104600009f4a0ae50ddae0a409ec85b03d727c060c
:104610008f9adbe86d8da80ec7ef5f0b88d2a42ab6
:10462000b6f3e4a75edd9590be4848418893c93f44
:10463000edcd7ac918e18d778631b8ef3ba4d73735
:1046400050e47fe32412a97945321171cf652187a7
:10465000e101fb97d8b868e0b3fece9de522820465
:10466000f3e24389e9a0139b628d1d89e9b92dc24c
:10467000fb5859d83574694ee9c419c5518fdad43d
:1046800076c610f61e59f0eed00e350b004471ba06
:104690004fa65f386137353565ecffcdd2f48051d8
:1046a000ed6c82dab4ee8f472668855e04b7977c9e
:1046b000df6e918856c31f7bd5bb5d7fff194333e7
:1046c000a4136d050a3c1ecc876b6383a482ae489d
:1046d0005dfb8317315016cbe9af361dfd781b32d9
:1046e000feee4fdfebd4d3a0569d3f44ee79769f8c
:1046f000344aacc6fb532298837b504574d1f74fa4
:10470000fe3d1ecfcba9d792af028f9356ad7267f5
:104710003dd5bc0ebc3e28d179ab03ee9f87a645a4
:1047200092246ea96df933ed6675bb2460a8d4d7c9
:1047300096a7e54b95ce5109df5c9d2c1fcba5a616
:10474000fd20f3f55f4fa88b8d06f7b2e5ae892704
:10475000ecfe8ff92bb81b06a05c16971ff45cffcc
:1047600066b6b83fce60d63715c24c3c328ff8b033
:104770000a7d3710d8678ff5681bb12834c51a1029
:10478000281fffd7ab5f30fa00edf70512940e75c6
:1047900051d9a34755b9a3aaef32dcdfdc473bc8a8
:1047a0006cfd91be34a193680612aa0c2dea73b079
:1047b00000b30833ca62e7d7414a93fb56f97775cd
:1047c000e436c36c3d4b257e7713f55406f5f02e89
:1047d0003bb96d4d7fe48a35a2825bfc6b6d69d37a
:1047e00032756479c7f6cabb1194fea9aeac71717b
:1047f000d8a19f91770839e0482cf3fb3beb22c509
:10480000ec7a7bbbbaba2b300f9effd11df28a7aad
:104810007c6a683e2d6dfc994880fbf01f8a51dd53
:10482000bfc8e6e4121b12517051874394af8399bd
:1048300041311b0a4ba4e25abf1f205c427a488ace
:10484000313f16ad5555a93da5304618da5e28947e
:10485000c0aa842071f5c2efade854669f9f3381f2
:10486000975c383612753fc3b83c17add7301b5d27
:104870009145f56fb35ade64e9d08fee982a95fd25
:1048800092679b91c75c24a6d95924a4cca38fe33b
:104890007398a3d98f1c6f5262555e60df7cca0e7d
:1048a0004391a1d2e31522bb668d4a612f3d20d9e9
:1048b000108be7e11048219c9371589d03a4beda48
:1048c000879a9ff39d831cffc64a43fb20e9f6f1bc
:1048d000402b5880fb740040e5878482c60e04b5e7
:1048e0005fa00ab5f7258c7edb06b329ac272f4cd9
:1048f000cb83a29dab6a64a942f9f2768ab8e2be84
:104900004e560f162bcb53a86ddd355195f07641e1
:1049100081324b4f9a5291498026b1f785e6960530
:1049200032f68d3c1b0e7b58d9da52ccb7c025c568
:10493000192d188631f11b246f29fbecf5b257ae07
:104940006e2be58c6fc95d314df2d33fe4a9f14088
:10495000f73a76a676754d1f82aa5f4356187ebd3c
:1049600086dd0764e9a90f640db578fa64df52b4f7
:10497000a7605ee4a70f9cc7f7ec1790f1d2300355
:10498000f21714999d194cac3b8704d3e6667ab0b4
:10499000bbd0e42fbc7e84186f5c60042d313022c4
:1049a00078fc73c7123331591cf167c7ece8403704
:1049b000f8c73fa9f48d87f4ab7ee5dfa46f2ebe68
:1049c00000fdbfa799f2eb58b214558350ce77374c
:1049d0003499fc859db82c8a5d3c64794069838953
:1049e000bd76ee8deb3a8d342d0a2165d16bf3b196
:1049f0009dcb9e4fbcf352b835f065a8d5a3730a82
:104a0000be7d78003bd590a157acb7f51fbc2751b0
:104a1000bd4d187349480c48365053039219d1bf05
:104a2000a9f3e23644289245d44de2ddcdd30e679a
:104a3000ed122acd4123901498eca06209d6be3223
:104a4000d44de29d198a6233913e39d93adbc26c6a
:104a50007336fa4a745d396b38e0e1d5bab5688ac5
:104a600078115eb900d8046ab4ae64af9e24623592
:104a7000186295fd35a96e162da10eaf194e93192a
:104a80007f984997a1ba69100c46c515a66cd9fd47
:104a9000ca06b1f74ea8229c22993335ca428f8ba1
:104aa0000e8b90ac7f3488f2ecb5edfde7e8718bae
:104ab000985cde261ab88bb2ff5e76ae7692f2eb89
:104ac000a382ee31719a9b78bbdea9662c90f60a20
:104ad0001f70e9ad6b99f2fa5574256cf0c725cac1
:104ae0005c9fb2b9ae0f964d8a8b8165c6a4444ec9
:104af000d449f5e42cfafe94e84ca584dab62c8966
:104b0000360be3148006599f5af8cc506334dc7797
:104b1000d4037361ff7dbe7576ebc3a7884be56355
:104b2000f08358e266d5e75517df61e81637ac7dac
:104b300002f1b5c02380c07ed23ec11553654773d4
:104b40002413613249bcedd6057d823da54312cace
:104b50007f8973d9816da0e6192fc2b10e10eda621
:104b60004f99a89e2cc8a9341b0a216ed2cbc76fbf
:104b7000c13136d06b16e758a956e931697b92e905
:104b8000d99e4be93c7a0b4b74ec8f2ae57b32b60d
:104b900097307d21869dd068ec759c0cd175e86eb0
:104ba0009605803cac4be59590130314c979bc4045
:104bb000cd0e073f65428711b48058f1e5f52bb65d
:104bc000fc3c692552c43fec6330a75741d71dee2a
:104bd000d66292e547141d15aff1c7448f525c753c
:104be0006b38d03f67432e4c5d113a0781046f1735
:104bf000996aefa2d37dc31c654883785d235bf877
:104c0000011318f6f58ff9d90d51957291380d47aa
:104c1000bd3208adc86d99d3ca25c8c9cc1c704433
:104c2000cdc7046c2da75bac2a249bef6dab1a9cff
:104c3000811f5f7a9dbe9f43114c32973db76559e6
:104c4000be0153aab1c383442d072cd6006a8f76c8
:104c5000145e4e4c73a0eddc3ace285a99dd54db3d
:104c6000b5604c116e9b36e2009a4504d9a78f8738
:104c70006103aed17ce377c6bb791b2bdf9d862217
:104c80000d47a4f7d9d95ff88032191e3d9c5a719f
:104c90005fdad8c0038f31925b930a86049c40a0f0
:104ca000526b3406d8cd1a0b39506e561244b6edfd
:104cb000a24124e4a566836eb68b4f7bf7767ed740
:104cc0005b5041742290d8e37ddb66a280cd3f60cb
:104cd00031275b9f5e46f477f33d8013bb5ca4e80d
:104ce00081815dc55b3200e8f54e4f224be2aaacf4
:104cf000a5eaf39fa2867ae19c8de06378322e03c9
:104d000012e0760bdd51b425e41aa61f4630f37687
:104d100043fe86b0c8e2c246df48999e6bd88bff3f
:104d200014450aab6c9b28fa18bec6c0edf5a2d498
:104d3000dd067460cc511de6dbed3459aaa2d11713
:104d40007027b9bc508aafb8162767cf4f152c4dc6
:104d500024a57dfaa7b2b5faaeb0e7bf270ac4fe14
:104d6000e6215d6d0933ad98ad6e0d01b73f41d9b8
:104d70004684d46daedd487c1e1e2f962cc47489eb
:104d800064968e9d8b373a641fce62c729aaebaf1b
:104d90007b043db16b41aa4cc4b2f180042551594a
:104da00098d4a980dd201111b80b65f8c057a9b5ba
:104db0009d269ac73a6489daa77d1aa361278322c0
:104dc000922a582fd269a89b5ddb9a432309e0b34e
:104dd000621814220e5db177fa99354c8a8d6beb0f
:104de00082b3411fef951c7d18e81c34a4be662bce
:104df000ad95e2e6736e9a08d2ebc4bbe6ca211702
:104e000071c2313f4f2cea3c772017c36e1e896b6d
:104e1000e565faefdc1ad3bc5a7169e4bc7b175f15
:104e200015d3d3b0f0474b14d5f6eb2f0f3210cd7e
:104e3000e1c11ac269f706f24da5f92b1333228c92
:104e40004a962f6d701a820c1332a64755fd270c17
:104e5000671fcfa6def8f6e87261574db306286cdf
:104e6000d1ab64d1fa27431b297eac8e7a5ab25a51
:104e7000fdff3617af5ce5b4e56ae8f57d6907ce5e
:104e800087edb8140bb938cefae9d21dfed328fe4f
:104e9000fc3f5aaa5c968e14d144d97725e8e16d7f
:104ea000557a4eeb9785e3ec4f9c051159fa16d0d5
:104eb00064abd92b9e34e38ec3480509e2c0cc20f5
:104ec000bc6eec96d389405782ff88ac7ea045c764
:104ed0005940227b938f1c597f3b9e19c1803848d3
:104ee0004ca6a6a1fb00b5aa101f86b7fb623952db
:104ef000e765c5a8747839e45ba42bef16dd5d2c5b
:104f00003a1791a424d4f32b5519248f81cb26bab8
:104f1000ec29cccc8ae981c19ab89bbc924da811ee
:104f2000c62d236f10e8480becf235cc484d32f01b
:104f300022e3a0497af06c7e159f790cfe15d9d436
:104f4000556744345e36e19706ef7ef8bc68e5a904
:104f5000ddd1a35c9414289845a7a8e4bcfcedc35c
:104f600074bff8bb896f4a9db793171698c9db3a8f
:104f700073263ed37f873ab867ec1e895363fae7fe
:104f8000f1e7b794ccd44e5f29fc21a0094a53b075
:104f90003af08841df13c15d2d601113e33aec1e36
:104fa000cd2c9c563f460d0c3ea3f2856cee8ac676
:104fb000a1d1d32945cfa5aefd38935b173d15127e
:104fc000b7a21662bf65117298c7d77c7ef3c1265f
:104fd000892a17b6893218fd7dd37c30c60bb207fb
:104fe0003f84c2cea0f6735b29a0d288aa5be42dd1
:104ff000daa6f2cc0b680612f956bdb2dd1e6daa18
:105000008ba63f7c18b0658fc438a5a95d4fff05fe
:10501000f1ac66e5ae87591eba50dc58f320d614c1
:1050200088ac9aebfc6b1e3777dd3bfbafe7bf4ce0
:10503000b71757da6deb5465213996eae3fd7079bd
:1050400031cba71efadac8053ff70cc8fa2b553347
:10505000c276897087a20f63e1f4adcfd0bc883ee1
:105060004ec7246a1c71a8f435426c0a5e28db2bfb
:105070005d71c00c5a7c93d63b1bc0b340d5282130
:1050800065e69adf4332b9f040bbb4a27187aa2a21
:105090006205dc51af6ebaf4d9be1ac58f7f8e950a
:1050a0003d048d777b673ecdd94afaa1c7075607e5
:1050b0006f28896443761473376e5f4a7c9c659dc4
:1050c0004ac0eaa0829a649a09a28634a7556a88df
:1050d0004a98cbe8efe53e0fda05d171a5580143b8
:1050e00043153cf2f43eb5e2e278935cc67b7e2049
:1050f000d4c8a0e3a6e17f755a952987e680b4d08d
:10510000e51303a9c7f23f41e4dcdd31f381029ee0
:1051100023279a2aefe9564ddc55d3969448dd2d86
:105120001e4aee50e28c6b27c263911b8f2296833e
:10513000a8e29b22fc9643669a551e75f2ec9c11e0
:105140000551218a86c05a64ee0112065fe0e4bb75
:10515000be6374883641b4a2bad3b8c010e6bbe7c8
:10516000f6ee4ada26fcc187e4edfbfdcd54773636
:10517000e7d95f24c8e9d0a6073cc174539e0898bc
:105180006591f7b633e9823bf0f476128923a3b335
:105190005139e44a485d85af94ecdc21a27a35614f
:1051a00094b83af59d9b585d228df5980e403d6b65
:1051b000f614fe6a4077719c12ad331e5539f333f5
:1051c0001ce8d89ea701ced0da26963d7c6f43fa24
:1051d0002a886341bfecf7bebf6634b0fd89cde4d9
:1051e000654b33a4c4e54c8643fc7926c8aff50d66
:1051f00001324a707d4de04ba03f0e00584ce8c68e
:1052000009159c9efa707472e731a6cb537e67f540
:10521000dea901e9f8cd7d937a2e4ae3d7c8999d9e
:105220001840b1a6ab361850d0316ee686fcb0fa05
:10523000925b90b1a65282f12a705d4c3282664434
:10524000365c422bcb97c9b07ba85ad75a1d300782
:10525000731e4b3baa87a51d1d091d2b933c6aa7f6
:10526000fdfe9872bbbe775f3084998dd385a831df
:10527000099bbe12dbbe808bb9de9687035be723fa
:10528000b38330441d9d308143099a97eff53d6308
:10529000f808b46a65943ec8a84ac82936f5b3e54b
:1052a00059e6dbabae198de55b45cecd96545d027c
:1052b000245d162dbb9cd35d5ef08c88bdb320763b
:1052c0001fece0cf7eedf4a4a411034f10828dfefd
:1052d0007e8c3f1621f5691711b74beaeec39e701d
:1052e00078e891c1e11a5f9672632b0733ecd0b571
:1052f00038ae4b90969b48788ee13fa8bdf051f3b5
:10530000a699728dce18cf29b08a3486eba129e8f0
:105310007fec6761018c22620489a599e495ea39e2
:10532000d0843b6d0905cff1222a72b4a550e01755
:10533000da7f04e32f067071a92064272b9657acff
:105340009c92369e80c54be6f422c87c07cf7d49ef
:10535000528cc9119432950bd974cde2eace59958d
:10536000320409963c2b258645e8fb4d0adf99c29d
:1053700061bc98091297c61f7003afda59df5c9db4
:10538000e84a43e0a256931294c068be914eb46cb2
:10539000d123afd6f2ff49d114981e0775e3fd6201
:1053a000ba80fbeb39b6c84c89f92d46fcecd8cb5a
:1053b000fafa7aef834e0fb7a195fff3fc5c4750e2
:1053c000f587ab56a47606f0896c172c78b06d94ef
:1053d00043c18337fc91d72a60558eee44b5ae00a9
:1053e00050853e6359a4f10ef3a84b6311b63356b2
:1053f000a36e5cc9c6b5a2c7c513d5ba5e0bea00d9
:10540000a75539844ed746591f7c71e164e1a072db
:1054100087732fb2ab3a4cc683b5663c6310955682
:105420001ff0078653aab2a67d99103cbe19d6de9e
:10543000e9d0e73440480fc9b8ce26bef520cb4aa4
:10544000df5c2bd5087004cc76b6a836c38f989d48
:105450007ace03edef66758090ac8bbfb230e96316
:105460002b061b2dfd442e1932aa9e70698ef9c59c
:1054700097d908e3ebaa7fc726a3f2f2fd13fa95aa
:1054800091960a33accab05bbace7127f43762e4a6
:10549000596653d6009945414ff78186c9119071dd
:1054a000f53ad0367aa4edfd0545aeb87db4bcc75b
:1054b00062cbc2f01559ba5b4b88abe89c24cb8613
:1054c0002a46903d4f40ce40d347a3509e73117b58
:1054d0005ac8e75a4b126d35906420e02343b8fe5a
:1054e000dbd44582696784ad5558ddb547466d9a72
:1054f000bb532da661b245c2b95dcf08507df1df27
:10550000d0c4bc0c9b4b85efc1ed13e73aef09aa61
:10551000da33ed6a4b75d634a054978b558c2692ae
:1055200010886a801b6f5a77baf4054409bcb2c769
:10553000edcad284c0f6504bf980d45510e7f87c00
:105540001c5463e10dc61e36db327568b9f6cc0d0e
:10555000ab3d5c60bc30449942efa7698406574379
:105560002cdc5b717e521599aa6b8bb4a78a746987
:10557000842fecb7eb6cb1b9fe0d035283fa99405e
:105580002c92327c9a7e6039329ba82ad255af9fea
:105590005c5377ab4257bd1b7d68b6c91402f9d77f
:1055a000b2f7fc36cb129b779b0a7eb19023eaf6ca
:1055b00036afb222a01fcba48694b0574787a86409
:1055c000a783a6d29fc19d4c1f97c76c7f01ce15a4
:1055d0000bcb72a1927d0174fcba133bb0f1ab50be
:1055e0003cefa82dc2ddbfb3d0e12066c4aa9795d9
:1055f000cb08e0ad68b130a7b24c2e702560264dc7
:1056000038d7067678f1b7fa11f15f25b4f3ad5ac1
:105610006597cebcd5275f0e5cf04d2bb81177a5f2
:105620003c6127e7acd2e76238be788aeaad1b2e30
:10563000248beddb614d30d41b559471acb8ec4f2d
:10564000f3d4f452f17fcb71d387e0c4dde198202d
:10565000001154e95beaaa5df9e56c65d99fbf0ebc
:105660009fa97837362aec06262cb585c03c274002
:10567000e1da9f3184604b689c066b75bf13664a04
:105680001dc3e675a1370c0b75bd1755942e3b61f4
:105690009ca2e6f475c26d4f91a6e8893e8b6b988b
:1056a0007543d76ffb32e7a37a6fdd06baa21666a1
:1056b000e1ec215b332e727f7370a8f3a6fd4b0ed5
:1056c000272ccd2b69452baceb4e46936e69fc58cd
:1056d0004beae137e0bd8214e71b3c6eda0db9748a
:1056e000d5269ee2939b7e6cc5d8fb9bb92962ddd3
:1056f000e8068a1a16fc0552c23623407ac1c473e2
:1057000076532ed87601ce308930637b7bd6d44059
:10571000c97006946d17e78729a24d07f082e7aaa2
:10572000aa7be6fa9a82d81c760f8f39c5f1570901
:10573000c308215576ddcf0fa758d94857d82ca0dc
:10574000d77403ae3c6e04bd76158e71f6dfb1a73b
:105750008f1cd490f7e27072be07779777de675799
:1057600047ef9f86694a465729339e61834a7da742
:105770002e7a5156c6f7ed6a6b060defd605da267e
:1057800083e0ce65129c7e657fe74e0568d8cafd32
:105790008fb795e905704b2c4c486a4181ad308735
:1057a0000fd07cb1fcf51278c81dbaee2e4ebadfd0
:1057b00021dcf9336fe543118c034c8c5165a086d5
:1057c0001c0c41428bc861cda20a74ccf9ad2603f2
:1057d000acac9367264ec65a09e3417e4ce232ba1e
:1057e0006cfe0f349b0bc07e42c8247223c628ef88
:1057f000d047885b494a0a52cd713d2e9e8607fdef
:105800008f597afaf98bb0aedb2f553184350535d7
:10581000e167ce015b957accf9f076972d96de554f
:10582000868b038acddfa2e1dc62edec7e77f14866
:10583000495996d2a81ed836011dd8d40f57f1ef7a
:105840009bf2d820f0ba5f9cb557364cbd1c9d70ba
:1058500064bbcdc7262b880f6ed5ade434da037355
:105860002f1688337d93c2be7bedaa98ea6fec3683
:10587000531b154e6e1cd646940e7757753e0fa9d6
:10588000d99f6e8d2857e7c0b7571e299d5fa39cef
:10589000240e3ce29e148e5851a216e1fa2dcfda66
:1058a000d3692cea47cbaa5013b2bd1634e4deca42
:1058b0005533fc76471875d8deab932dd2e2de4b1c
:1058c0009cf16897673bf0b1ea3bb3b575bbbceaa6
:1058d0008ad25876c943c18d47a35898a08cb9f98c
:1058e00072eb913d66584fa878b288bb238ddbf9e7
:1058f000cf42ef3f2ccdcf03cbbbafb51c42964f71
:10590000e1f0594a360096d8299b82a601f4de4f71
:1059100068cf516672873b740f90f4acde09f80dc6
:105920004293c103456e44e850b7ca78971df78c7f
:1059300045de835398b0d0c9b006de950768212fa5
:10594000191bfc577a13e00c2ad5f2e6586d4d2f3f
:105950004c0f213e612abbd0dd6d96aaf4eca73b2b
:10596000010b1601336c15796da67d249382a72651
:10597000a8bfbfad01bc6f300712e7c1b01e5d64a8
:105980006dd04d3f6e9585a83a143e480d212d11de
:1059900072987ae41c10834cfad6ad516e4be68fa8
:1059a000dac1391d6b6aa11d621562aa8ad0c2e5ef
:1059b000061960aacf9cee47ac6e03dbfa7c32532b
:1059c000e13a55398826e8da80dfdd530a6a3ae899
:1059d000bf890ad5cd486692ad520b565646f6227f
:1059e000fa9d414276057740ed4d97b73f554466a5
:1059f000fb5bbc7d9084c57aa4b16599f5a55f4b2e
:105a0000bf4ca1462abf9db8a17015548762824e33
:105a1000548efd5f753ecc783696189ca048462182
:105a2000e42d25768c3b31dccf26e5e8eba4df8442
:105a300025d2136f666cf93ae38a66a36fed83f3a0
:105a400087044a551895045c25367b0c881ca206f1
:105a50008c229423db73594a2d663fc88251c3ae12
:105a600005db74b544d3b8508609acec19a6f1c770
:105a7000224e3f1df39fd8b6b3086cc7e7f52857f1
:105a80004db8a5106e87b8d61383a85ec2de034357
:105a900003ecf86731bdf16b3e6d393a449fb10cb0
:105aa00084a5e547f545fedb0de381f20dd27238a2
:105ab0004d7e45d1da9737b957d6ce0ec5e74f0799
:105ac000ef14dc14d5fe86268180cbbeaaa2ae3ea2
:105ad000eae468ae245276104ecb62c16167e724d7
:105ae000c8f2a24ba86d2b7439c2927f81f53edfbc
:105af0004c3e362927cd73d705dfa9e8a5caebddd3
:105b00001d7c66a1853d8237b81e56d936a9e9604d
:105b1000c26c70806ca07de6f7b20cd8267a332474
:105b2000f6419ee95daff84eb0abec9ebdf2472565
:105b3000cff9f35cbf4bf1df6efb98a4f0be951a72
:105b40002186c23fb8bb8be2a85ca1f27a4711e67e
:105b500004c44fb86abfa711b793530d97fb8fcbff
:105b6000ab87d50cac7ee34750946405aa8e3962ae
:105b7000874a1fe6fe4c9bdc82a72e38e73c61c7b4
:105b8000d0ec6a79ede47f357bfd5f8c0f9fcae135
:105b90008b89d24dbb7ba026060cfc927b630a133b
:105ba0005fa3298923d8e53e8ac4cfb6b79bde9888
:105bb000eee49ffa0415581ed59c56868d193fa910
:105bc0005d0474abf0108075ac0445b8b9c5c7e48a
:105bd000ec587a831ba633e327b8a30c2265c47361
:105be0003659e056ba5bae6ddbd370a0fb5f5ad47a
:105bf0003d4299df65769d62c05a4aa8aa7af72f7e
:105c00001eaf339f1642f0efe4c69c6a7b29e3afd8
:105c10001d5b0ee7a175ed9c9977a70f7f92c5ecf0
:105c2000af79da02210fabedc3a61c4c2958963a86
:105c300014f915a6468b3561b57c85cbba0121e7f1
:105c4000b4624f499335a77c1019196b5cdd01d004
:105c5000e6f2953e689da4f77dec62c962f2aebba8
:105c6000d5fad8257269a20b7ce93e917a5ad524df
:105c7000e1589db08c428bb31bfde8e33ae98914ef
:105c800021ffb500179bc9577a5241a67960ff736f
:105c9000ed7e38e917e164ab58eaa63b9a1aff4a51
:105ca00029c76520ce60581ec936a87cd8562af769
:105cb0009bd9a3ec350a8311e654f40115e88c1145
:105cc000248a07282adefb02ba99f1e77c2d195da8
:105cd00007aa7cfddcfd665509350281f76e9162ed
:105ce0005da8c097fc25eaef4f618584274135c147
:105cf000353f61500e1d1c728581637236c47e91e2
:105d0000b41f238d19016fa64d3a428b40ace0566b
:105d1000e31175f28a62a94c76d6d19662de818c47
:105d2000177adea33bf792b717f0cf8d0ba975a0ba
:105d30008ab5ee8e5607d9d333806fa2d90666e4b2
:105d4000fd437548fda62c84bca465fb8da0a5c1b0
:105d50007d473898aed7d75e9ccd036f6a70046cd0
:105d6000dd0327cdb35a73f8e7bb685d0b5b68a012
:105d7000c3ecb633c198b66c70f6125a314f82a09c
:105d8000ce35920f7a8df3fcdee98ae851dfb85206
:105d90001ff32f6ab3caf82e2fb9e142df7048d043
:105da000bbceef7eb08becfcce97b6d16425a0a322
:105db0000d0ff6bd56e31a35786c30cd865db571a2
:105dc0007efba93b29ad9bef8108d9fba416881265
:105dd00050b88da27897eb7573942d935e606f0a1f
:105de0002884b60b0c972329370cde66f40e25f3b6
:105df000bdebdf8f4471af6e041374dede3f7916a6
:105e00008c69f68d13f5790306c0b04eaaa98dbe34
:105e10001a166e88f8138f08d59dbddef1a8d499a7
:105e200044569a83f6f4111e5379e31c88d72fcd7c
:105e3000dd50cdcd788bbb9b3e892f9b68377f058e
:105e4000c424f8989223d3930928afd5c30b328d7d
:105e5000621a7747940fd6f1f25646f05f3e1791db
:105e6000fdc7e0b2fa1cf05c6be741698d27640c5a
:105e700008239e36d853b30f82c6959b7ccf42d45d
:105e8000729a5d57cfb171883f7d8304e14efca4c7
:105e9000af02bc117d4e976e9960a222a702121a22
:105ea0005d536f31d0f8fed6928b0f20934c107754
:105eb000cc32653e3075a4966660b8123612ad9548
:105ec0005de09a11f16a3e4bba45d21ec2bf3d63f6
:105ed000c527be350361f7bfc0ab8c2b586bdfc441
:105ee0004a90645150076a939185c61d497e439a32
:105ef000a04c41fcd4d649e8825dfc376d3a256060
:105f000012981c5aa11f2b9cecffa1d69dce9acfb4
:105f1000332c22dd110e3003c4d64f70c45a14093d
:105f2000bb0624252ed29631e0e4cc8dff581a4ac8
:105f3000ebacac153c1c9cabe9d013a3c555c0a37e
:105f40003bfdd6b28fbbca2a968be98cd92c634f06
:105f50005041845d8da2a2fc5754401c86753c269e
:105f600075166bedaa01023541116c056d212b866a
:105f7000a538355c6da6eab1637b0be2ec321ba35e
:105f80007fe914264681d3035573e68af6c6d142cb
:105f9000053e81cd08733436077c9b946ab436b9cc
:105fa0002b0a6287f86d8e06bb5c9a382087db87e8
:105fb00080eca790558fc49138c3b50f0d65667ef0
:105fc000e1a08eb4284dde75466b2187f918185c68
:105fd000d9a93063cc60bfe63c823684961ab111f1
:105fe0009c0656d800a5eb2e5832086016e4a8f49b
:105ff000a9ac4718718b121748f9ba520ebcf58636
:10600000a5a7c8a88db491c2905ae556e728d0d765
:1060100052e43adcb22221f9d81172740a332c2ce2
:10602000093a32ab809e3c6c70dff96e654c132de3
:106030000f2c98aab25a8941c4a3874caf8cb35c89
:10604000e5ec0d6e9dcdbcb9f36c066eb3b2e267a4
:10605000e2ae5313388b68c6ac3a5323111925cbe3
:106060008113c8693d92655ed9ff6f702457996da1
:10607000d304a1cb39729ff061159b0bc655261b2b
:1060800048fd4000503762158d080c32793bef3dda
:10609000b6032600eacf6f6ee1b79d3afcb7e73949
:1060a00080be76040dd3e3a301a8ead07b13802839
:1060b000da1e3330f3dab6277ae8188412472e5bfb
:1060c0006745af04cd8adea33941ef2b33a19c870e
:1060d0005148016c1113d3bb36472f2d74fbcf7a77
:1060e0006e1ba0b71ef2e6fa76b99d617e7d19653a
:1060f00037d5d4f08e41b964fd25b1073a0a8ae755
:106100007e2f6bd63e79d46bb41b05ed68d8748caa
:10611000c7f6d82fd7509140e4cb284aa379c2d9eb
:106120007ba753966dc4254cbf775503a4a1627c11
:1061300081d46b882b9cbfe0c4c3c355f01a916f08
:10614000fc219bb779fcf57f56d4f634c24db76974
:10615000c28dc96b910d2d6c168fbcf0d67abfe93c
:10616000e39d2a05689a6c6749f4784c1c7e136994
:10617000c69485c37d29b49fe6fb24651cc7bf9fd9
:106180000f7b3dc598eb7a56bb40fc437e2378db02
:1061900091b34a2b80337b34f670859d6ce186c4c5
:1061a00023146003384e4696cf02aa297bea815f0a
:1061b000a04b26b13c164d7223c93679eeb8eb7a66
:1061c000521d30c8835cf408c5a96c067a15ecf73b
:1061d000739b181382042706274e237342911a8f4c
:1061e000a447e714dab0399810b397f05745981fd1
:1061f000c22d18394019af3230faee0d4b5a77f0f4
:1062000030b9b48f0a4e7f62d881b2aaebe7c315ca
:10621000ebc702266bf16e4e3e72cfe6b51460708e
:106220005754c0c40fed341a9c2ae2cee62c812fbd
:1062300096653bc824c277282eca997c3c9035ceff
:1062400079f5fd067344036ae56a5c296e5d45f1e4
:10625000ed671be4a244e1ea5c05c3c9955b5b837f
:1062600025ac03904da77dfbd3c2311cd7b2f9b446
:106270008aa1b4854f8510eff29c694153eacaefb9
:106280001a9be5130358e4bdba028c5b634da31e51
:106290000d2d752c79a839e3bf2b5a0e79343ebbee
:1062a00008167a31a2f6efe27c2f302b76534c079a
:1062b0005a34fd28bef808b5db53263f46bc8ef4a1
:1062c000878599052dcd3c46afe182e15c20001b1e
:1062d000e06e2e8e06be5388d350880d22662ff2b4
:1062e000c55dcf23d879434d33e18f5cbb7c6660bd
:1062f00035ebd2cf6a2242eb2ce9fffa164ee42da1
:10630000181fa73c6fc21ec93f7663eb5ca1c70490
:106310003c895fe4e8975dce3676b305e66a2ee207
:10632000b79804fd35872b50d1792028ea6d4b0ea4
:10633000805d91f907e98bbc9b9e2f733e579e9a17
:10634000dbbe3109f9642a4c256faa877ddeeaaeef
:106350009b6ebc9d2cc9849dff8e428024a0a022f0
:106360007ec61fd92872b045c7baeff47239538080
:10637000f0592bbc036e9a909c7ddf0846127e5428
:106380000935269e09504f0b84bad9c727adcdb722
:106390000bfcef0a4d9e6630c8f8bee401e0cc610c
:1063a000a8cb594346bc6871ec5cf258e54254995d
:1063b000a5460857e988f00568de8a875c7a1314d9
:1063c000fc78ecb840584ac229007d8397222b8183
:1063d000d53311c9e1e7b23f9fd18802e2806c95c5
:1063e00035adb7026e595c7bb2cfc3d46e1636d8ca
:1063f000dd3c0c6153dabe27e34e22a128ad97a104
:10640000fddae9e1b4d1a42d00122b3c3b12582d4a
:1064100070ac65e06d3e1a64a4836ccfb3e14fd7d6
:10642000063847c40cc167dcf036f85518e7485900
:10643000590916651efacc22d780e490928391e820
:106440009096225f40844b07677b611cf0f4a55c4b
:10645000c446cbd494180783f07f7c8e57585813ca
:106460004174e0d09145385b6df578a7bf210edc13
:10647000d9e69553e673cb70614280328feef053cc
:106480008f123b47aac87c47675832bbca13ac0877
:106490007ba4def4a3741714ba1555f41943e3373b
:1064a000f98898af125f3d6265e4b4fe4d8af4ec62
:1064b0004e3df88524d449af79e4a7a76c605a868d
:1064c000be024910b4232e1e4c93a1958ee116bb3b
:1064d000b8aadfc7edbc6aed78e696ac78e218f6ac
:1064e000b99803e481da9ae9c72828780e4763ff50
:1064f0009d736e3cc1654cda47732fd0155f50ce4b
:106500006ac3188ddcce038278f512574ae8e0455d
:106510005fd7818f72db77ad4b5d4e9f8a65164bdf
:106520000637a6b44e4773340da030bd3faa49f0dc
:1065300080fca00f16da5779567fc0054b7bcf6ed3
:10654000ab5f2d04d8b28d44ad8b007eefed684972
:106550005f1216216992af2d82cfc0b53179517c7f
:10656000b5ce14fc55cff6ae92fb7c5b9a5e9e5284
:1065700017883c0abee052fa1c3a9b4bd764c57c94
:10658000cb1d585b1e5d2a591510b21d14619ade91
:1065900038ff82438f60da02664f6d7c5b32185c95
:1065a00006efc726c9f42618151561fb355590a1cd
:1065b00013251be6b85cbf3521ea2aeab62f727ba9
:1065c000136dd4e4f54c3f6568a3ccff77772c8a34
:1065d000948a6ebbcafdd4592b40bd0d7b405bcc69
:1065e0009afef675d3bf11a8fd98d8ede9114d9b21
:1065f00099589f5554795b9d24f610012baedbaf63
:10660000bf563dce969194501770fd3e8a560a00b3
:106610002219108e4fd2a9059b218422c0bed666b6
:106620008ea287829c63d769ae28dd935eff3d050d
:10663000fdc0c7c5177510671298eb22b8674e8b5f
:10664000fb1992515514a2d274291b704c46e7e1f4
:1066500042d02bed88179717f94420bfe220323241
:10666000f61872df49a960f8076034ee5b0b092168
:106670009ffbe073d82239a340b36af4d6eac397ec
:1066800047d76fe8dcef77490c2abd496796c1c050
:106690009e1e883b98a2a035e742931b3466945a0d
:1066a0009a97a1237b574e49e1b4b356c2cb16ec5f
:1066b0004d78430979302ba01bcfaead9c647ee0b2
:1066c000aae10de414033f4284429dce11de6c82a8
:1066d00075006535999a207e0dd34d05ead5da47c8
:1066e0009078ddef3b98096f025b75721afd3c6193
:1066f000e3bc4943db72ee0e9cd681749b86180086
:10670000464432a817673b3fd89ca5a1e2f9f1e6c1
:10671000816be9c1ea649d78fad3eee74c960931c2
:106720008472baee0a2ae2bd509f3dec8711074df4
:106730002cba95df3ed3fb1354bf48a02bc0398140
:1067400056f06d3d8e61bea98a2a3e093a46324b0b
:10675000c4daf77c0c272e89b75903b7cb0329a0dd
:10676000c9a1bd8dd85b3c562f6aad9baf6f2b7115
:10677000fba95e959fa53d2eacde93ce6a00b05e70
:10678000e8417c10a22c262e920280ce5828b58d8e
:106790003d8789ed4a5d2ed8918742f93b695a239e
:1067a0002f4ce59dd9d003bf35a4f05eebc6b84ba6
:1067b000fa4c8b0eb3e32a48e58f028aa82acbcc89
:1067c00020526e5d9fabd93e919a86b179bb0cd2b7
:1067d0007c5a43f90414ae3e25fe7c7dd3a1c5d678
:1067e000c26fbd8ed453804cdcdd3504572da5829d
:1067f000187050d6f032710adebd34b344d15c1546
:1068000036d5c9704d7d8faa598aff0d24a33866ed
:10681000ad85fe6676b6d38ce3307d6433a0ff94fd
:10682000aa18c78b7a331cf9780ed87691f37bb906
:10683000f04bd84a58272e1293770227a2339a0397
:10684000a2dc8627f27454e7232cf1896fdccc1c80
:10685000b59337cc03343ca1c89d25c870f0bfc8a0
:10686000ef00b6e6b16fcdb9b39e154c5a46fe3a6d
:10687000571e906ce0ca048adaefc597e82688d0e4
:10688000e1c691686a759508f38774a9ada3524f64
:10689000f61d44fbe7553bfb92d271e66496fff888
:1068a000538fd0cc70f0ab26a6a906e42002a3a398
:1068b0004d5c63c9d1c3358c56cd9f69feb7772037
:1068c000e109dead190206f27117e266f0357d4589
:1068d000e00046d5b7ef38aac3ff4b4fd3004906b7
:1068e0007a4a499b538ffa02e06041a1b78cc8de17
:1068f000bfee43dbc0e377836cfaad89a67d602ae7
:10690000e5fe88ed644d3f05ba34d98083f7e90789
:1069100055720c22628eeb471f4528c5b0169a05aa
:1069200065b45b9ef7081007f96e8e415f040e5a3e
:10693000711e6fca957baf9f1462a1c3413d1a2b94
:1069400093ae9c3910dd2ecc777705e0f6031cc89a
:10695000af3189bf14852cc58da26a3cbd3df84a74
:10696000bdd8af85b40ee0a8a975ba02c7541523e7
:106970002551c277d78816aa21e251b87c5af9df8f
:10698000258cb766e27bbbe25840bcfb3cd5e645b4
:10699000c997c5dd6734573675739d158b040d3661
:1069a00051f136306c100fc19df776b17d17370c61
:1069b00012e2657b7a9b4e7566ba02baddb2b432da
:1069c00054530be6a37a3f20b3f6ffe9f53820b421
:1069d0006c6fa34b46378de4cb3e00723cc85a81a6
:1069e000c1d179469981a3a66146618cdbed7942dc
:1069f000b4cceeb3b904039de5cc0e70de02081fe3
:106a0000a90d23a4091bb28b25e47e9b4f1cf42afd
:106a1000fd2d27ef5c29b23cefdb98bb3cb2dbdb02
:106a200019b6e8af6971a876975e9c451f3ceb1ece
:106a3000ba12760b5822f26de1ae013ce176389d38
:106a400012d82d80fd3c41141fec220e6264ead165
:106a5000f8254146c76d407b5cda733e9517a5501b
:106a600070457482acf5f05f7be39404cd3dc04487
:106a7000d523b9d11ae9838e4532141b35d2653a34
:106a800034ecd933b653b203056f1459c51f7fd305
:106a9000803cff862e8e889291821f76087cf2625f
:106aa000096039cb22b8b895a9c3d8ef83b12fdce0
:106ab00095589832ff0b20a7d062003f2b3e21b2a1
:106ac000b7ee7a55ae3b5b114acf67f687d6bffd6e
:106ad0006f8f935db5a6b1f83b4b54624f24f19292
:106ae0007abc9ebeaf7c84a5e970b27f67e2256761
:106af0003093762618f21ee792bfd57a30f44ed93d
:106b000052ee36dbe1034de810956511b1845ce18e
:106b1000f0a244e10e22057261ef3d12b66ec60a84
:106b20006bf5914fccfa373557a4fde616c33d5ea1
:106b3000193d54e2376549bd317ddd2e738cdb9cf8
:106b4000dd05dcb994771e8e141969590a8df9d8c0
:106b5000cf7f8f2967d0ccc3395326bb6270ac205e
:106b6000f0f9aecf3b5a5ea65b7764c96a78ecb7a2
:106b70006a1461d502b0e2918d7dda5269d1124a70
:106b800000fd53658d2d61f0669e137de51c0dfca7
:106b900019a0057b925d40f150adcc30cdd11822cb
:106ba000f7620c5f493a333e238215b489b97fb44a
:106bb0004ce53807ca9273fda7d647b31df93d0dc2
:106bc0007e05fe619a9df435edc4978157c86442f5
:106bd000f565975e9c43966d006e72ccb0f88cd7cd
:106be0002b0c0c9e7a3d50f3e2018da32468476e76
:106bf000521d5d98d14ff0a9071acd7c2bae428a69
:106c0000d7db7b660da7ca292b7e27cc1d8056714a
:106c1000945e3df79f01dae3b2322f88dcaaa182ad
:106c2000efb5341b234a45e14a482646b63f81d397
:106c30009e7366989bfdd2990b416be701a2682574
:106c40006764dc97bb23a825609c62e443f1bd8b9d
:106c500034298247ed586465c9e2d41cab8e3229d1
:106c6000f5af0e0a53375f47942bb0fa3df5bd746c
:106c700008942abcd66d19522c4a49f77dd729832e
:106c800045153f2ce9a362c40c6026f9f10b632083
:106c9000fa2b7a1fe3bf297e61aedba1b4cb0032b1
:106ca0007dbdbfddf5154e4d52e4b229737cdfdcae
:106cb0007b2446ddf8d5a5eb70ded74eecb5b24aa5
:106cc000cc0f4a90aef0905d113d3b19f77527b897
:106cd00080f8b2ae91ffd4c02e9c317956ed1fc919
:106ce000cc6505ceabb39ea0382a7cb7af18c244a2
:106cf0000841fcac26902dab89938fb8841cdefb39
:106d00005cac57d43fb1c0dd77373c00d74c59ed70
:106d1000920b9f3bf3d7545d85338c4940098bc759
:106d20003b3e1ebfaa55bf7b0aef2cc1bb91b17a77
:106d3000bd9df0bdf4ec1ae216dc4f1c55970262c3
:106d4000c3528e6066d7881a9969fc83096ce56d19
:106d5000b3a58d9a23ee646633c235977d6c9a4e47
:106d60000228658f4d0013f4e011dd6fa3bde442ee
:106d70007c38d35ea9fca4a2bd590597710932ca1b
:106d8000c43783d0c7b7ad4e60d340052564173fe5
:106d9000de4d2d002e699bc0827e86c7f5df89b847
:106da0003aee90a879260f5563dabb72c665d91002
:106db00035fa85ab1f860d069ccb72ab48f65b6a35
:106dc000f5405b23f53bdeb40581b116e445dda05b
:106dd000d9bf128269515ff83045f01ed1ea62ddf9
:106de000d3ced8cd74f5c69dcf5673ec6927893db7
:106df0000565ac00de56fcc17d6133c83995862f30
:106e0000e6b40036ce5d038a9caef9f99b76a36c9e
:106e1000e09c766b816ff6ae72221ed1e5b139a58a
:106e2000faa1bb55b2f006cc00ba38ee2286eb844c
:106e3000f51e13103fc727c2b9ed130e04fd4da276
:106e4000d3c81af15d504d1cbd398dfeeea53de74e
:106e5000fe541f2341fab1c39eeeeb974190593285
:106e6000c77515c05e21887cf411e1b02013f707c7
:106e70008fc705d4c7528f290feffc4f095df5f876
:106e80002785f78c47cb4e0194cc1873dc322d9fad
:106e90002afbb919058c1c4632705498494d174588
:106ea000e991579d5cb3c145a9e973bfdb052a7b16
:106eb00065d58f8676e83406faa934dba0a7ee45bf
:106ec0003ed17c4b898df3369d6989acd5b85795f9
:106ed0005470ec721f67a968a093e2852c7936c0c4
:106ee00075933fecc9930f23b3554aa8eae145aa2d
:106ef000b98c092df075dc9d6c73154c079e2d6abd
:106f0000281c2005df0353bc7f79a2effade64a8ba
:106f1000c1144bc7ca5c8d0db4fc4628afc9b48df3
:106f2000c0859b7663c52c636c9a1bcbcff959f552
:106f3000fa5fb8fe1ecc0328afe68895767fd03c7a
:106f4000e30d373f56d2d4bde3a5e3366eb6fc5110
:106f5000238a61bd51add18cb832713771b17217ce
:106f600076b78ddf4831dfd721ea0d44b8da637890
:106f700002ca7c51585101d867fa3b1c87a7f70118
:106f80006af73f669a70d43b8d37b831bed9b7a83f
:106f900063389bf169565d24d3bec9301d5854ee49
:106fa000876f4227c9628d3bc26de9270b5cc7bb67
:106fb00031fa41dd869ab476fd27b2af68c087ce3c
:106fc000e46e0c11bd8f2d4fc85ba04cbc893f6c8b
:106fd000e312fd772ebba3d97fadacdf48706b12f7
:106fe0001d6cc072afb05608b96040bd32886df6f6
:106ff00027ff1ece36ba098af800cd9328e0e4dade
:1070000063a3eaa010af57e5964761c454287fd523
:107010007596460a75f0c9225ab481040a9176d849
:1070200034a57f53122589882322cd378fba61d9a1
:10703000c3d24836b18ac4f23c9439ab314e31e008
:1070400034f51ee61d7fb98c11dd7c7347618c51d0
:107050003f078c68b4f8dd4f0eb3a33453808333fd
:10706000bc972153d8da845f5d3a84d35081ed1305
:10707000085b82b9146072c253344ff86b6e2c05f2
:107080003d5a47866f7df6c8f726a96162f07b59a5
:107090003f9cc85dc4cb38d1bd2f1c4c4d1b4389d0
:1070a000b236081de2bc003110dac39b8cabb318ba
:1070b000726b80dc425fdf08312717959bb41ea9f5
:1070c0008d3c5acefebdc85ca3a527847e0080f20d
:1070d000cfee7c65e7edff237d3bfcf74eea6136a2
:1070e00040508834478b0af49c6a57b010a954e981
:1070f000d166972df21a4279bbbcfb9dd21e3d771b
:1071000014c6e179b7f9ec07575231f45bd61f7b0f
:107110001595909056ffb0f6d10e04db142783042a
:10712000d1f9b6555c805cd82d0f9fcf8a1e2b30cd
:1071300069daf29fbe07b33416aeb6ca7217e3a778
:1071400001b9b38e68a19cd7a5345aee21619be4a6
:107150005fbb74380014e0ea817d8099574f30d5c9
:107160008c55f08f057159621412d296f807398f39
:107170005b058346c639572e37916f0079dee107ec
:10718000415661fc10b8fb697ab78f863834668d3a
:10719000371b465789022b0556b3577ba2d78d1f45
:1071a000a2b1e53ab2e3950cd293c080cfee146b56
:1071b000e2928cc5a0c8176df8941f59b15b45c009
:1071c000cadfafa0bdcc54f41435c2561a50f1c278
:1071d0004ca1fd86af52af33d25e0ebf746efd4838
:1071e000ad54bbb9d332e6c89e0e63fda9075dbba3
:1071f000600a6c51adc4efc363009dd70c721fd8f9
:10720000edc9b1ba1d7dccc90937508644068462e8
:10721000e5267de5fe1a51e608b3023b511d852e99
:10722000a56df0007c84b08a9baf22d5de02b7b793
:107230001d3829ce301bb62b33883e07d82c23b1fe
:10724000297906091ac7129ce137aa044958d8f6c9
:1072500088fa7fe9e9d3b8aaece5bb13e227ab25ae
:10726000e133601a75b02b20b3f5abe0c209ea9d9b
:107270008689ea3d575f206f95b2563cfdd285e77f
:107280008aabe53dd50c15463a16334ad6cef19475
:1072900038fd8099a653e91c87d647ea1cadcb9fe1
:1072a0007ce71bd9d6ff77d668fc24611e120181ca
:1072b000516725ef630d6bb97babe44cfde4a0d4c3
:1072c0007cbac0620cbc26fc9293f57447d0b7c55b
:1072d0007d7b5e67f9707f0f35d2aa3d43e066156e
:1072e0004e1a919ca83a7081228b91460ccab2dd4d
:1072f0003fcf86179be4bd88d3232428873bfd25f9
:10730000b8531e45851f31ab386737408a765a9c83
:10731000ac8c68b10b9d6e29acc50f4729d100dd3f
:107320008c6c5179ed99fe8b168c3acb912283505f
:107330002dd801887984da4c3b0d0d38d67860451c
:10734000eac5f75fdb0777a1c0dd0a1dce76b5acd5
:1073500097fcc13e8d06c4bb1447c4993e646c546f
:10736000a60ff3ffb81ec4adb74c73fbfbf4a5f139
:1073700099fa112ac834d5ee314c4c80017b0ac1f0
:107380004c295aad4eb1dd0db9ec93f496a26e2b9b
:10739000a3c197a8db7581746e7b8a7f6c252bc592
:1073a0005cb9341f67bd0079a1bbb85557de9aa1ff
:1073b0001415418115d02928b72c0b8e7db8ac7cd3
:1073c0000b46627d1f1497eff09b3a74b857503309
:1073d0003d1125a4dd4fd470ea42307e5219036876
:1073e00075cc4b7e0c038d559fff36cf1468ac6f68
:1073f000814dc9fe418f500d5b4a4881670e17eee3
:107400000ecd8146c3549ea49b1f4c6af76e0ffba2
:10741000302879283a825296567b793cb012928b6a
:10742000ffae81f9d86a5482739ff8d115b814cc95
:10743000e8bacd1fc62966e37e07e866b9d3976828
:1074400031f9717dd0d519c1b6d01ae6717c697d4c
:10745000226e12b095572a3b464db5e5a82ad0a317
:107460004dfc6a7552590004196599b7d4a7770184
:10747000da39e711f095b0f8e94bb5f61ed82dad25
:10748000ae6118a3253dfceed1fe6702e6c078ccc4
:10749000ee9f304337806d1caf006cd08d71a4db44
:1074a000ba04b988d05f8ea3e727c01ed6a0d6fb4a
:1074b000300b2440a8277656a3ff260f0270d07009
:1074c00079e5b01e51ef332a7674ce1ec792fdebdc
:1074d0003f652a96a087e84ac1a924c846622db90b
:1074e000f849bc09addeec693af7721860373f6eb7
:1074f0000eb4bbb3f9821bd722e4c8e71665c011ee
:10750000218e081a485fc34c544e86a923cfe4aaa3
:10751000e636992cf64de9642066f13ba579d24c0c
:10752000c90f1563fdd3e8a4e8fa4a134d3f524151
:10753000ce152b2e18a01ee06cb68fc9a73c40eece
:107540007261e2065dd58cf186ba15dcb9ccbe4419
:10755000b4c68a052de91e14ba6e19a1e43929555d
:10756000faa782c86f70efbb0f81dee772790474ef
:10757000526050d710f99f9fd3bd9a7b03e9bfbfdc
:10758000d2db600689c5da78d5a197bb73ba600fe4
:10759000a1e51f647a4694343b9c5efb98fbdbfdbf
:1075a0008ce64d0ea5c22e4acc1e802dd53d966d83
:1075b000a0b074be452331ed5c52f1312b6554e827
:1075c0009835181bf1e1e08349d364c768400b3755
:1075d000b34936ae46511f82c376314789db037dfe
:1075e00074ceef2478b41b72782c3ac5e8b5964176
:1075f000e0059f9cd1bb1fb97e7928383f8478ff76
:10760000bf8921c7d0848054de9512d56268734744
:1076100045945adc6ba06b8e8f1a9cc18dce542e74
:107620009ea6e9f1a1326158a7ad023e81adb896a0
:107630006c70956f1f39dd3ceb225458584f27a0d2
:10764000a3deb24822c3926cb3b6e53f574f55c68e
:10765000bc5c92819d4067898eb7a8e60b575de4bc
:107660008fb2323d1bb509b2a23374e317318511d5
:107670007dc943f66bf78d0a434bbade3a0f3daf37
:10768000c767a0c679340ef9e4190aa77d7f29429d
:1076900083f3f404be8039d583711f0a90b2a8fa2f
:1076a0005b21b26b2cb3f574d73e897703fecc9087
:1076b0008683752ffae31d10e048f051cc586965b8
:1076c000421ccbf1303c09fa81d56dcb7dc5808d54
:1076d000e4a6ec6e575bb952f9ee72f2860adb0c47
:1076e000989afe54ef6fbebbd6ce7b8903a867d6af
:1076f0009786c10f53ae3a1fed6f805c730764af7e
:10770000e09e9452c13c5fd3d2a5ff3e5af47fc1a4
:10771000402c4d11f88a3934ee977b66a1d37369fa
:1077200084514ab1ad1aac4bb918e2fce0db4365b9
:1077300034643aca422b6971a1a8e99dfe3581598a
:1077400037d36f44383df738ba5b696fd7473acac9
:10775000c880bccd021c694b4b705ef24bb215f871
:10776000ef6be4836ca872d975beaa4acb68937b91
:107770008d8117a392c1af7552deba38b9a71fe940
:10778000b776254dc683297f823a0095af9e8ff24a
:10779000edb09c2bfaa2986ed83e22f87a7ec6668f
:1077a00059af2bd79d09a71178c686a4e2f699b1e7
:1077b00011f0e8e81ee9ef817ad5d9b45df1d9d1ad
:1077c000ec9638e4fc27ae2b0486e88fab6a9781f1
:1077d0008d6b3afee1641e78c812c36244cb597cbb
:1077e000dff6a335c9e639d9997642a0b059cda6be
:1077f000cc812543015d9352afc12ffb022cb7987a
:107800000e02b7ea6ddfaafb9b26720e25dd37e478
:107810003659dc28a8be59fa8864ad89c77c07dbd5
:1078200052f43b34818a58bd1391b8efdfbacb993b
:1078300003cec35a9c9f360c433ce0786799504571
:10784000a26ec0e15ab07b57d88302623b467fa24a
:10785000ab816819dab343aa0c0b34adae43295c93
:107860008f0b5e857c52b28e16f19180f33e06a49a
:1078700050c80d8c775b900f63c7f5540a757799e4
:10788000183742d60fa88a475d39c74bab68dd551c
:1078900048941814e3e2e5bf7393f06f4eaa9abbc5
:1078a00052937cb6accf01966fbfd59b10691a3648
:1078b00040e1b831281b8b1973bc01472ea38619f0
:1078c0001ee44f7e7d9c22352a8af323740cf751e7
:1078d0002dfca628d39e5231dc21af7f899be9dbaa
:1078e0000673f5b9c59ebe4d1d567d36b1ea50d919
:1078f000928836b365ad35837f1c7e331b6bc31511
:1079000019ae9264c979fae4117c97719cce671e16
:1079100037a57a8faa813919aac6009a1361e39113
:107920005cd5c978d500fba3f237a1b56a347e696e
:107930000c4d92db133324c45c792225b7c19871b6
:1079400059daff6edcff93ab03dd42ea63640b524e
:10795000765388db4f5938a5352250ec91485c218d
:107960005d2f3593606ff598cfce0354c5fe3abdb9
:107970005361f15c0cc9a33eb0e3e4c69daa55c7b0
:10798000d1e9d760101b1d6a641919e16e3de5024b
:10799000fa530600a10a2b5fcb95ae88e6f3895d0a
:1079a00099acb0b82ee93c853c42803ea2c5dccb08
:1079b00044074ea4bd0fb5a9b9deabeeed1e609b2a
:1079c000a1412a5e21dff17b6dd69229d5f2ba3929
:1079d0002728a992827593b6d8444838d94a3214d8
:1079e0009e9ac1d5ae1d80fc42ffff3d7db64f2063
:1079f000e94cc330de911f14d0a9ca1d194bcab877
:107a0000aecacd695da587d5c67ccfe91a53663568
:107a100018717eb2814173a27c299f159b3af39c19
:107a2000ff6aff4081c31c109399adb403b6308147
:107a30005617b5480546613cd1c7ce7fd415b91b52
:107a4000b2a2dbe73eb49d4d205249911d49da10a8
:107a50007223320012942df5393cd637f55b24acf5
:107a600015e94723fd2e8db737f6fd613daa9685b2
:107a70008c8e61fb19b0923505521568f3020df733
:107a80007da365149470ba923ee0e9415129e5095d
:107a90006b7ffc7b5a432d8b18d234274aff77a388
:107aa0001077d7f59c4f3b5c19a468cef3bf2c260a
:107ab000e1229c0a3ee8cc1b6046c768ad61957226
:107ac000689c4bb2e3d69f7cb8af105c9fd17c51d1
:107ad000f208cd9639af2e3547c5a6e87ed956fbbc
:107ae000c35b941671e73a5ce32123c347bc87cca0
:107af000916f234e5cfdeec34ac02667b5f43c0887
:107b0000939967c7c446e6cbddbdfeb60e1540cee1
:107b1000fb62ee2b799a85daef2df73c6456969549
:107b20004724937decaa0359a9666c7d47767cc3f4
:107b3000cb2ddd6d3666c1444aa0409234217a8e49
:107b400036f7dd89607a11d5e39c0e0fbc216fab4f
:107b5000aebc16e7303e5da5dc3f7b3a04e1a47c79
:107b60005bb6a561e129acae866aa5ffc8e00973e2
:107b7000698006c08739f4f57d0c26a7f6369fccc0
:107b80003629c48dea676c7978b6f923004da216c0
:107b90000d496ad04412a03f77f569f2c1f4a501fe
:107ba0002beaf4882768d074c4e5e2da235c8b4bb7
:107bb000b08e5dacae8b328c9de24bf687ad1b0a6e
:107bc000c9b5889fb2f02c621e9fa337182d0251b1
:107bd000328db57cf6d638d0a3105a1b3d4ede034d
:107be00034a51f2cdcbc6e1587a2d54d1abc74d0f1
:107bf000643e65a557753dc39a7f899c7739538b41
:107c00001fe755605ea5bc08403bf6020080881b5c
:107c100065a7fa07cc7a6adb189255ec0ec294cdb0
:107c20005525cb69c5d4ab21164aefb5c347b997e3
:107c30003e1102a2d5f17c246622c5818a6a6f1b9f
:107c400082b0e393a536cf797d82d193dbcea2febd
:107c500016cbefb78f3fa866ee14ba4a9494c50bc3
:107c600022b15dca8bcf94485050fb3c875b982f64
:107c7000be34736a368e421fb561673324fc3838d0
:107c80005b48f41238a74b3dcef4b4ba4610617d80
:107c9000071ea99541d67cc3d8b0c40aa1dbdbb0ce
:107ca0001494f4b0e8d53bf6c99916fc21db69ae13
:107cb0006842cf25dde636a64f8c60d3eb93c6d461
:107cc000d52b33cc2bf2d76e63c37e60ab8098d5b7
:107cd00076399197ff838bd1868c27dad0d28b2d82
:107ce0009b2278b1e7d1b89bca5922629d4741cf08
:107cf0005430c03658b5776ede206100925c0bf3cd
:107d00004fec8a166854d3d5d5b8a9c0df114529e0
:107d10006f2a92b0ce3f69ae5cab715ea3cce9e452
:107d200013f15672cfecb5216b1c403120646867ab
:107d3000052049133c481aa10c62d46182aefcac08
:107d4000670d5e74c0b396e01b94db476e79d84430
:107d50005f53a129040404385de8178727d44e4fe8
:107d6000ceaa6d5744e4ed5bd506d59d69ebd31bd8
:107d7000e6762e58a661e7a838fc4135d6d27a04bb
:107d8000587f2305f2be2e3a1440a4f032711a4bec
:107d90002800616f4733dbef1a41487bf14a8a378d
:107da000783fff6b58fe88fe543b1db0fbdab62ac5
:107db000c04f09c5fe4d9c67e3cfddcf949b976d07
:107dc000663979d09e46b091fc36270d531f514e2f
:107dd0007e48fb3ed544355e428d28e14b1f01882d
:107de0003684027e03943dda9268f2fc510919f25e
:107df000284fe2d8a8e9d187146a95a1ce920d59ef
:107e00005efcf392811c3a96a7665dd11bd6ab81ce
:107e10002a7219e5eaf6a02004ea24ae5feaa16f0f
:107e20009e1874ac2cb6275118512e25cdd188de62
:107e30009e7c440337a48d2daaa4b6785426de3345
:107e400045c29a8eef605159bca3472d27cf69b226
:107e50008037254872678f11e6a17748390170860f
:107e6000161d3eefff448ed3e52ba0cc8d72103b48
:107e70006f384e9390726e569fe19fd15679f0e520
:107e800059fd2e487681227343f9ffa919c902bd15
:107e9000933d38a21b58024a6138a7d0203a369b3e
:107ea000789bbd77762c9bb8349218a18faa5ef48c
:107eb000cfce0a7a158d5b22d9fb4fda71c30b65e1
:107ec00099a737f6738ce73a9714e6bf01fab334f3
:107ed000cf671095a1f33d944f60b3c6e1cfa57e67
:107ee000bdf9f252b5becf7ad235e6aff35f510d90
:107ef000351d7bf7d9e8f5920b6f7a32b55a9e5c47
:107f0000ba66906f31092d22e408647ac869f53a9f
:107f1000e6ee762e3446a7a0a17f9fde18831db71c
:107f200025a2269f5593ae3586becc8ec3beac4be4
:107f3000794fff3671e9b1f476a2b00777770b1667
:107f400003c5c4e20f4fafafff96b4b649b4b2fe5b
:107f50004b78d41244a863a002fc9f7a95428853c0
:107f600041349f537a3e537f94acf10d21bf553677
:107f70008358a2e20bd2dd61f1fc62a998aba2f4b6
:107f800027fa83740986c3b550986a4671324c57f4
:107f90008edbe99502729ff5e748d3dc9899ac1225
:107fa00000901c21d49443d78d3e3c9807ed54debd
:107fb000c823ff464a93debe236d83febbab09eaae
:107fc0004a1a0a93280aa1c0c15707aec676302bb9
:107fd000d284e7a917303ac10c7538b9de228e5623
:107fe0005dcbe49cb7a2b1a2884127754123a88e3e
:107ff000f76140b86921a88a99bc1ba56555120490
:108000001937e0cd4e3baf517a1b8c3c54297fe5ac
:1080100036074b39303de2f52dcecddc178eaa5216
:1080200021f4ca3ef928d892b9fca2dbcfd07468fb
:10803000fbe6426f470b8851a8f712d3728358a909
:1080400010295c7ac09090acbfe69262c0d10d134b
:10805000bdaf5a08a8094e91c190252caa54eed95b
:108060005b3119bdc6dfa7d3e0088ec9dad3569db0
:108070003939fa4200b42475e8b4f839f686a034e8
:10808000bd30b437ff0d7d2799aa8cc4415691aa03
:10809000acde9c7ce5bdd2b50e9e6d5764ec077dd1
:1080a000da9706a73c68e6174255bae879f06e9968
:1080b00044a755bb9cb5a49a73004b811ed2ebe537
:1080c000c4749bd9afe3c67e6cd74562c213be961b
:1080d0009643e12fbb60b36e70cee976a814f90326
:1080e000ac48123e505c2894fa990c24b6cbe47c40
:1080f000ee10271965251d641b7e7ac56187e04b4c
:108100009d19b829b91f8afac8ec6a37ae7d4d416e
:108110005aef57a2b3c6e5746cd4a492d3974086a5
:10812000c5e706649be6bbf65a5d3fddd1245a667f
:1081300012b12b7e40011ebe206a65a78a10f1a8ed
:108140009df248eb7a8ae6601e4eb96e72eba97119
:10815000aef5e4a22a252c7fa0f511d6751587beb1
:1081600087977a2f6756a568f4103061558df958b6
:10817000045a8a3960c0b5e8d0b1397e78491639d9
:1081800064f4e73038a7212b34de330c1e22b1c54e
:10819000b4f65ca41c630ddfcd44dd21f90ae4bb19
:1081a00035de31992ffa974ff3307979db63fa9006
:1081b000ffd0a852d251c0f39e8014799ed665a2fa
:1081c000a8d6adcb8bdf798cb4f9c6ee83d3ff8b09
:1081d000059c49393155073f364037303545c00a8f
:1081e0008b7e49c31da4bf1fd58c9cfe1438446ae6
:1081f000ffb837e1a113f41634e85479c195c9fcee
:10820000347d4000bdf0076d63b4da58e7f10bb878
:10821000d80ce8b2afcd98459457de54bc12a77b7a
:108220003ec18cc462c35b94748f73a85f624117b4
:10823000e3ce419163ad1fc03c8760638e9745c517
:108240008c76300be4ce50e74ece32baf1c42e021b
:108250008688ed971280f21900b3e02bfcd6b02e81
:108260001283f5c4c1508c72ca3f463372e7cfd532
:108270001518dc53e2f112812c0f878face90be16a
:108280009fdfaf8379c50195895d60cba436ae08c9
:1082900083a11fee19cd6f2fdd6a75321d3f2c2192
:1082a0000beab94b2cbea6e94266bf233461b3deac
:1082b0001372a410558ec3a4abc4496db2964f7b04
:1082c00074d0d502dc364e12490484dc2ca1f7e7c9
:1082d000c63c9d3d5ccaa8f2d6305019fb2daea518
:1082e00008dde8e145f00d1d60a30639c857a74930
:1082f0001f7673ed0ff068aa6f853d656cf0615fc6
:1083000016bdadbb845ca2282847919ea082bd1fec
:10831000c2e4d31d337a473327cc3a8ed9019e9ad3
:108320009672374015daf408bdafb7e391573510b0
:1083300087e562eea0394850e39c62d0a91123146e
:108340005ed545ed5178b6b0ffc56e0f743cebc7f6
:10835000b800d1a67ec74f2c7ea2536beb3d554c87
:108360004959b4eeee8d317b3fa2befb6ba6471f91
:10837000ea69a9f2b2f0470e1754a95725abcae330
:10838000e4ac6e19cbf1af8fe5e25224493e56962c
:108390003d19baf3d2c5b4c451f0dd81cb2d959b04
:1083a0002c9bd2fd0a71fb38a81406fcd8e41842b5
:1083b0003ad0f76528d2c9623c9705d38a3f0fdad5
:1083c000ad9e6f63da04d982ed56d81331a24bb15a
:1083d0002abf9d718aa5f1ba07ca98ea54d17fa530
:1083e00020f47f15bb782cc2d6a51b5d7f696ea8d3
:1083f00005febe504cc90f354ce9cf3cc3ca2d0712
:10840000b06dea17318c389ed7017d47efbd8e43a2
:108410000f0bb2253119c511e7036575e8984710b0
:108420003d2fedbf9e6a2f39b93e2bf918e416adea
:10843000b21d39ea98fa9481dbd245dc3153b4a8f5
:10844000adaceafafada2411fe2201f2e8237f2128
:108450005123359613a77688f8707d2f1c1f331192
:108460005151da2c7d68ccc3aece08fd45a4b4547e
:10847000505390fbfea4e0d66f22b80668fa1b5a50
:10848000a3d785724ff49bb0df83578740c03082fb
:10849000ba357112e6b73adca8090df939802e1dfc
:1084a000fb58d09a6846f6e08dc0026f1dae7cd0b6
:1084b000b9d4934459fd18afad1398a0530b8dca8e
:1084c000cce8260903acd910782d0557fea470fb23
:1084d000aa4cff84a4f46ed640b93e55cc07600484
:1084e0001716913aeb6b71e7b957cbe9f6350c39b2
:1084f000675db92f8297133a08b2da68f68643d3dc
:10850000791445a2c4aa459ef506e49d1d853b3419
:10851000f68b387296cd55f3bd4ed1937b054c61e9
:10852000ed823003cab79c5859cbae0e877b83557a
:108530007f22bc0cca5355963c056f0f74e90b2b78
:108540003ac958220b7df8066fff1075930cac47a3
:10855000ab2906641668327c19922b041726cf1ead
:10856000921fe8ad8afa083a7d4c36201ed3a7a4a4
:10857000ae79203fb2cbf3a76f3bab39496f928afc
:10858000f7bd011de8395c74f45c8f5230c577b6d5
:10859000a152c2f631b22c8869cb94985951aff7e9
:1085a0002bd0b30c86a47a8f023dc1d750415936e7
:1085b00024aaee6aeb9d98df2e09e56eaa100251ff
:1085c000baa440b0a911080d4d300576cf2f592b14
:1085d0006ad21f20795e266c516aa7c4826e212858
:1085e000a26b783d3ba8c92495384f7cb1fff1823e
:1085f000ec8380f9d780f8d1075cc63cb881769bc4
:10860000cf0b7a4c255f195d72129a134eb896b64d
:10861000c014b4e53a88da982c19320d0202c31a54
:10862000395630fdbb04d5970d7f230ca6d4e1ef5e
:108630000a284b6b1bf9217b5297fd7cbebe8144ff
:1086400061ebac58f803651a08b8f02255a0dd526a
:10865000cae3dbafdf481991969d920d47005d8616
:10866000c28d87d6866a6ccbed6a777035764457b3
:1086700076e2dda3ab57bba867468fa46457e6e458
:10868000e9148c35661e101cb88b3115d3d7804e7b
:1086900057f478e095d747a42f0e79920cd3c829c8
:1086a000c0919d3a2d88e7f56f4c319a66b7b49228
:1086b0009b49af6bd4a71af645d29eff91bb741ca1
:1086c000de116694a212fb076bee9735f27c6fa762
:1086d000a971b392a08f90b3a7a2cf0bd62e6d6dc8
:1086e00057f77aa34c3246b4b3e1d441e54bd558a1
:1086f0008ccd1fbac9831f539d4b09c11b2e4ef54c
:108700006a30c93827d7f6d96424ee70e29a0babe9
:10871000a89ae5c730bbcf67f939c2c0f275d0cf90
:108720004cf69e60804e2ae46d9dd93c214d8457c5
:108730005c0561d76a8579b277fba8146c253b5933
:10874000e9b3d2ecfe41896972d6720e8d7fa11d0c
:10875000506fbc006b699c1229a1c0c56063c8e062
:1087600083d83e28d9ca283065b9d522b6364b4ab7
:10877000a9783743f9bd3921c6c82f9aa32d10f324
:108780006895a9b81bae63715c415371d2d778b4b8
:10879000503c9f5d1284a06f7dcfd4cfae1b74d4ac
:1087a0000e5e1debf705961924c58129f1a84068d6
:1087b000f54af9cc963f51baf7d32fbe435c912cc2
:1087c0004b367b9b7e86626397fb514db68aa73ef4
:1087d0000314a227d7fd609ee501d9d64972cef9d0
:1087e0005b825d5f7e971077f09ec4dc8333cdf2b1
:1087f000661372994531ca920d7078b2662e503860
:1088000038504232d8950047271fa335a657b57f69
:10881000c04f93bb44980a8e03cfa62d967c34227a
:1088200062bd9052b2cce9c875a2b1a6123732de51
:10883000974686ca1c6425f6c15e89899dac097a73
:10884000c3ede6c18ec4c15376b40375e566fc631f
:108850008b0814ba30c78af05aae78ac7506d6b514
:10886000fc4a74b0ec9ed6505f12415b7be69a3fa7
:10887000555717ded03464dcb15de592ef1f28ee6a
:1088800033322768a1daa05b2c417a99e7118e1365
:108890007dabb3cabaac1b5e22928006c5ff8912bb
:1088a0009b102ed1ddf41a15da417e7cdcb4d1a800
:1088b00093633d977fa3ea4488b8e9ad697c363776
:1088c000a58f32354c6655ac7bd6a38cc81e7994e7
:1088d00019f9c0bdcfa59da4ea882933db73465b97
:1088e0007ab2737f143227b0542ccf307aa4abe223
:1088f00072cb6d213f1889a1c9fa072f6950f56322
:10890000dc1c5538b97e556f078ce75f774f49609f
:1089100065b18c5fdab8e8c0ed16a692bbb0a6d2fe
:108920009e0130c56a04d525f64c4220e86fde472b
:10893000c17aa41eed92301ab50ad0ac52f4ef29d8
:108940004b8bbb2ee57fbbf50d836377d5976249d3
:10895000d6ae9b92d6b9a8699a57a6ab6efb0e937a
:1089600070576943c0b231fd045e0db37c6a84cd9b
:10897000bdbb52e8d65557eb0e9898a6b313ab552e
:10898000fef72d21192feb2a3e68d6ea97679090c3
:1089900054825ea33e4b332cc871c694c9522de35a
:1089a000ebe805aea1c9f1b00f4a6cabe3444c4f04
:1089b000ebb965a35fdc91b341d67a875a91cc3786
:1089c00033cc6161ae7e693b478557aea21e7d0ff9
:1089d000a4000a4f843aa76d8974b70c9024269995
:1089e000bf141de5f2eed802592fbad90b749e5967
:1089f000d57441f16c6e19fde89e4fadecaf9aa2b3
:108a00007a8cca04fb0ab11be2b0f6a0379841f990
:108a100077122f5dbec5aa4f200477d8faeb559088
:108a2000ee48ebf4f5584dc3416773ec4db7aba17d
:108a300058e50080cea21ccd56bfd14e71a9319110
:108a4000ca2301e63b19a6d38c970d2733086f7e06
:108a5000dfb372845ca9748199848d47bf7a3455e1
:108a6000dcb40300460f69279230546403bc8f8c3a
:108a700078c555d26d92ba376933bef7f4eab9f6c4
:108a80005985265261cb44ec1252588eb65752a3e8
:108a9000b4c5394e3eb42cbc8533e4ba08fab9ea01
:108aa000ddddc3b4e27f78f8853b74c4f58ead6f2d
:108ab000c41dd03f279290ac2227db9d75064a8dbe
:108ac000b2d73f655ca47e1d46480c8cb0006f4059
:108ad00098d42b2e58c5d6bfd55c1296ff577ac3b3
:108ae000543bae995f065de303bc855b7da40563e3
:108af000d376b6978323b1d500845ae60ae997c3a3
:108b0000ddb046f9fa0543182a4bc5c216b263b266
:108b100028935d14fc7110aded2f32520d9bb2c243
:108b2000cfef6fcc9e3d0c04c1e243fd70940a84ec
:108b30006c6eaa8e0c9c6fb754278ad8990b1fb203
:108b40008063b6baaf7814c00661774561b7e15a61
:108b50001f16931f0db7a8377472230fbb947bccdd
:108b600030a1d93c76e6b0b1fb33d5c24f5597045e
:108b70008ff5dea7828c09db43b1642899b75b6c63
:108b8000167cd89497b72baf2d6d5004516ea17ff2
:108b9000dcc54cd21693e1398438ea0c6e3871abdf
:108ba000e450887a654cd6f5ee2c042f30c20afad0
:108bb00030cbe9ea7c87126859c55e311862ffff45
:108bc000391877e7bc8a3e5dd1906fdce5333eba59
:108bd000786c4a01adef1b2778e983715d20cd4a9f
:108be000d8af0c1aea2a7d7813a27fa0ec53c59760
:108bf000a3b680fabc21ec4cbabe2d51588acbce1c
:108c0000b74ddbaff9feb6a991c7bfa39868ff8d3a
:108c100044b2fde34a7bdb5465af92ee4ac4405b4d
:108c20000623fc19335029e715d44c932d051765fd
:108c300077661e6bc1978517bf7335e37d095501b4
:108c4000dffe19e118b4c2bb9f0989c3dd95167513
:108c5000abdaedb840e5e2425d55cb14621b52ed54
:108c60004e5f1ff2d8113ec4e223294fe6907f6c7d
:108c7000db44cac172f08530a184e5cf130be1ce8d
:108c8000690d26054a14fb5a93d189d919fb298a03
:108c90008c5972b489e2298a93d67309c647b918e8
:108ca0008ff9dc324d176e410e60dba0dcf10d0a4e
:108cb000fafe16d80d6488dcd951f101c680b33ba9
:108cc000e1a27d692d032d05f660ce5f7e45081873
:108cd0009af6a7182cbb808edc0ec69d4842102b3e
:108ce0005c1b358eff771b05abcb0594932380c7a8
:108cf000213ed05e5c09c041579c9ccb7da28fd5a4
:108d00003ac3cabb6029ffd8c1dfc22e2341381f36
:108d10002d29c4dc97adaa1173ceeeb8f0963a2394
:108d20009016f84cadcfc9b967725405adaf05d9ef
:108d300004f7c9e205c3a55f6bac0cfee8eede5b91
:108d4000a2a91f0a423c0c669ad02ce9847a5c26c0
:108d5000fdfea1c2eb9ff20239ad1819607ce7ec71
:108d6000fb90dcd79bd660ee0dbdb47ef37435f07e
:108d7000833cf787d7ab061bf2fd4470d8c0361d85
:108d800097b983cfdd4e662a74ff77c2ad9864dc55
:108d90004a2ce555eb680eb083be3610a00b723f2f
:108da0009aaadce85137c92184960aaba8c028ce1c
:108db000eeacbd04811985814f0ae29b442fbb8034
:108dc000ef8eff5f991cdfd52efc89cb1b46893dba
:108dd00034281d53b35d82d36fef75fc0a775f03b0
:108de00096e4f26ee6bbe1d98a89be5cc71043a760
:108df0004a1683ae6ef3ade783bf701557da226370
:108e0000d28b686edde1d0e8c0fa95cdf6147858c3
:108e10003638944c81aaf418afc89ebd9f05521aeb
:108e200003f7cfeb1e0675769b587fe4b813858a4f
:108e30001c86377dc00651360aa02d55ae1790c846
:108e400013f2826d0f72ca0e036aff40d47ec5da38
:108e50007384d4bb17de16af748d08e47e7caaed54
:108e60009ea3332b28a27eadf54e35820a3807b477
:108e7000391d1e879a3cd6d9246676a0c1714c5bf9
:108e8000e3d7c228035dcaaefb4687bd70dd49d279
:108e90004d726690c489b220e64a43e71de9695bda
:108ea00045ccad95fff7e079c3282179b41d822721
:108eb0009f5262b4d8ca8db058ec7854b882116b06
:108ec00073b43419c075fcf93f463063e709623a60
:108ed000cf4049720ed5d7604d1792974738c8a337
:108ee0005f8d6ca46545bfb7d6826c2fa345ba00d1
:108ef00017792452814bc2ab43fe85a821ff53aca6
:108f0000e255165942d764afa29cf22c6ed6cb1311
:108f100017f5bc920f21623f2ce86ee4e118ed2fab
:108f20005a48b6ec51589a56af276d5f608b8edd6c
:108f3000ad178eb99924f8a30c92ebcdab1439463a
:108f40006267967453912223a26e13515d326f793a
:108f50007610f088df95b00ab830efadc48e40b11e
:108f6000269057492bcca15dd6531826dfd01294fa
:108f70008157e2ca6235c201a8d4165893587408c2
:108f80001a978755e898879568c2845af1a0854753
:108f90007a4eeb9cf682b5d8526d3a7ba2fa20c28b
:108fa0005c37daa5f09f61a9d7bbf80260e2f666ec
:108fb000aa74d03bc3b2c7263852a3cb33bf8e1a94
:108fc0002a42d8a40ab832352645b801a57fb64151
:108fd0004a9f59d46b40fda81b63cc71a8e3d639d6
:108fe0009f8916e9ca72ccdf9c51b1131b754a895f
:108ff00090a3801b3da447c682175d51cf055cc579
:10900000640d511ee64abf64de900fee20100e562e
:109010008bf3c4478074a73deb92bb23c6ce9f3a27
:10902000873a5d4fce280c646c147f6bf6f8f330f2
:10903000a031ee752380b97ba1442e1cbf6f404840
:10904000394fb223375ae9a421ea78f6bb453bc22f
:10905000045b989e4a47967bb065e31ba8a51790d2
:1090600089534c031138e482f60f9fa6588365b3e9
:109070003525925abb5fe20f173a269c43d5b6c0fe
:10908000bc14f4c01d9f37a7b7e2bc6d460c15adec
:10909000d9ee70272feb87362ef2f6f78913a72229
:1090a0004f6a3976fde082e6ea2099c620fbdcbbf8
:1090b0008046a5405deb43a38f50702c3625f0f31e
:1090c0009d55e22ffe35cc1d9a398679f7bfef7d8d
:1090d0009ac8b3405595294b076ab1a171dfa7051e
:1090e00091beb1846abecd2f1978cc9681098dd1fd
:1090f000ff8d91cb0b1dfd1812c4400c3023c83ad4
:1091000032634f9c3f491f9e38b724a356548ee0cc
:1091100006c038f132345d4d3d9df0fe4306d377f5
:10912000dc3711221c371bfe2820b09395d69a34c9
:109130006793c6a103bba2ab26c2a91f673b8d14d0
:109140000184f5bfcaae523b4a54847f22350d5e7e
:10915000752f2c65113d005a91976e8eea6de6dff2
:109160004ae4e4ac2d11b57a2503a09766c2b19b01
:10917000ef9ea838129343354786ab6d1e46838118
:1091800064abc2fb810451e3a620d40e3fb1d0f8fa
:109190003c9feb3dd33d418f8f305ef2f030695cf8
:1091a000ddc78eb44fb6fd7bf86baa2a8064967338
:1091b0007047cf4c7a0f9d512227e24099b1373644
:1091c0005e1c2fc4420c3a2efaae0dee06b562caf2
:1091d0004777c374b1b8277cf1af0c2e4b26936947
:1091e000661429e98f842f21fa4a0a675e6a8ac0c9
:1091f000ac8b192a1af56a402ae9fdb60622457e8b
:10920000231d35be77cea2a868d3569db1e575da89
:10921000ea4639e8547350f5927e4fec78c1fce988
:10922000a6d0d2a043ba6ff1b9eae2c6866f40a1d8
:1092300006d76f52a57e25364f84ce6a4419f65a5a
:109240000cab56df31375631fd72e2b92d36053b96
:10925000dc6ed75f82be31d15211bb319b062d36f9
:109260008ba5f625997a3dcd6dddd5c869ddc9158b
:1092700054632562c6638fa01122217d09e5cc4d80
:109280005c14ed658931d05f40dae088799f6f5fcb
:109290009a71ced5e1b89e253d8b18677a98a40abd
:1092a0000c71d50a26906da689065cefb6299766e3
:1092b0004130da8e45f43567a828f71c8b1dbfb204
:1092c00009b983bfecf273f2ebc098f9aa33fe360a
:1092d000050c37c4311bd05648c919b15f150e2c87
:1092e0009e8f02022c56b620e2a9043a351b371f86
:1092f000c8b7c550a905be727488b97c7fd8705fa5
:1093000053d3c78d97db1e49d8a9279a503aedc78a
:10931000a6b9a978c87e30b1ee92dfb84b74bc24f0
:109320000ebd3df6769d16fd5449b05ccc106e81a5
:109330009e62b99edfb20c0aa7615558d865df2836
:10934000553449c0ad444d939283ae38e8b24f686e
:109350006a5d2d8400fce6e653e6f1cad2f94a4183
:1093600037f7eef7237ba82a4ec34c530f29c7a427
:109370009f489b9b10db027c79c11fa57d87060659
:1093800097e16207c76ec38f3e3754c4b8174eba11
:10939000b2dd3112860a05ecc73dfa4d6585ec79e0
:1093a0000f9e902d66ec9d17b5003f4ec68bca03ed
:1093b0009436e9d1e01caf7612242ee109b584cbb6
:1093c000f61ad7eef712400f036e132e42e6a65b95
:1093d00031cf97972a4dc4ac952ac55911489cf3b3
:1093e000a8be6de59c51bff241311a9cdb590a635e
:1093f000c6e6d17e2b643ea0468252936cbcd7d782
:10940000c816becb3f0f6e60c54bcbc747e083305d
:109410008c5ded94c5ebc97946b3db62f74a76ff04
:10942000413439fca235683d1a31b6e5b1782bf8e4
:109430003c8c7ae750bf95ab62764cc0d0a67c07d7
:10944000cb66001372e4e3b0ea7f8b80ded64f7602
:10945000bee5ad75207b730299b2c69ed4b8380cb8
:109460005b54c928998ed78d3d2e217649d2012c87
:10947000f1d4b22af86a43df98417a8d9558315277
:109480006de73fa0154cd0d819152ea30fabf09e59
:109490001692a05ad76bba36dbb760e090287937be
:1094a000ea66ac705d0f00712af0a1818ec2bbf438
:1094b000c0a3812a6fa4c66f86eff5cb5b90100a1c
:1094c000fd667df24eb32a9149ff93a0bf0203e4eb
:1094d000e80ffebcd0565799dcb1c852d4471726c6
:1094e000a2380f91f41368dd4798c384cc72fcf462
:1094f0002b1c239e840e7ae8d6bbcdcb25d2023e10
:109500001d12225d9ab91386e72e43dba5093fcdd4
:109510004b480e3a824c477b864aad596a2d191941
:10952000dbe2b68d06ecd233ecae08049731b3b86b
:10953000671e7ef9e36f51f6636707dc9497f17c51
:1095400088e75ba6d2eca1f28d6860704013b22967
:109550006b57094c683c65f21723f50754b853a0c4
:109560000bf768eb61a309ddddc40ab5606be9e2c6
:10957000589f8942068f6ae1f0ebf411463e62d2b1
:10958000de479f10491596429227caf36ba00056fa
:10959000c08a09de7804284a9693cb8b31382c4b4d
:1095a0002f1c650f771241d06bfce04c1094805f4c
:1095b00029e5befb81b21a291c1986f2455e4406d4
:1095c000a894f5f17e16cc40591eb7b3aeb5b92ab2
:1095d0003da79e9bfbbb68600d5a37bb56b8e18028
:1095e0008b91f9ee71f3ac30cbfb80fc6f7d84b9cd
:1095f000541b5a308587420a61c2e8919f1ea95bbd
:1096000031d72ae75ce139619186df7c633538b474
:109610000b1ea4fdcbce4d3c4a4adbd4e2c8809958
:109620000b0fb23470e643513c2e0ba3f695d39545
:10963000ac7518e6fe0ecb38e231d6ce4547929b8c
:10964000d62a4dd965fa183b4c99aa72dd54df6bc6
:10965000d98d73bb99225e2a2708567c4d5b8809f9
:10966000d38412adaed195c67389684b790c292b82
:10967000f1039dd909e31ded77430d794cba78f5d7
:109680000dfcf5b8070f14d291894f51c94686e2f7
:10969000127d9806461c83c10716e7822f8bb2d035
:1096a000b0fd574c382f2b14ba66215a91cc6ccf91
:1096b000e5b310729f993e2e79caa20a3b74badaba
:1096c00052092574ee968ac22fe3447ec1a7c9379a
:1096d000216aaf3518d6cd1c081ac8a7e0f8ca22ef
:1096e0009c13d630d497b8bc344c76176dedcf129e
:1096f000105383d2b5271e57b7bd75c50ed710ae10
:10970000985023fbf17cc7e11c02ea84abe7184bbd
:10971000a575cc59053e5a274afdb740adee1f4905
:10972000b38515e951671d80ef4b1ccb0c5b251ae7
:10973000ec0f9bc867c3b9c983c1e9aac42a0a123e
:109740002e582dfda8332eced843f1bace0848baf4
:10975000a710844554fecfbe6b38cd675205e5fc9b
:10976000c642de61c3ba2341ea7b2ce6875c24bd96
:109770007cfb76855577602f8ceb3036c05fffb56c
:1097800026e70c848c5b395c5abb0c5b27bda8dade
:1097900070fd9723333d4ab76f018aa66fb06348c7
:1097a0004f35b262235fdfe2ea74345b4cd3b8c951
:1097b000d6bcea5334259953f525f2d08ee8fcc285
:1097c000aaeb6b6adb91b05526892972123fd8014a
:1097d000f29a31f5b2b2ced624d14ab5fe2321e5b4
:1097e0008ddafee48d4f1cd988a5ad7a78e76059f3
:1097f000d4faf86aece36bec684c8e53fa0d7312f2
:109800003f1d7c348406ac3f5d0bc9e12ba2ac004c
:109810006bbb4492a8d7e50589eaf77e312270f642
:1098200001a1813bebc8db3fa8de989f4f17e708fb
:1098300040de9e789c9d20dec9c9fe64d21584e27c
:1098400089c3ffb87f8f3e2a1e7f18b71ca8a68148
:109850002065d0a47002adc975bdf0b2019c4894da
:10986000c44b6e89e89cc889f631a78b3c3e253ce9
:10987000f0568a6d83acac27a44dc08f646c3499cc
:109880003bb8e8ef71f477e402c6c50d773340fbcf
:1098900003e98e3b2984575660c9edbc1c3572e143
:1098a0009aa95229fc5f92d554fe6322bd552aab7a
:1098b000ee76941748089e979a5f1e48bd0edc13fb
:1098c0006474ebe255d95198a131d775a32466325f
:1098d000dd4c8b78cbd0f08a3d8d26a78c18d73df8
:1098e0006bb644e182faad2736ef874f85ed8fd70f
:1098f00067e9449a043731ced6b85d2eaac866f718
:10990000dd2bd4cef1a26191be6e90cc352f31fd0e
:10991000e75ae11e9b12d1f823c90cfba9b183f0d1
:1099200054dff4b38f0b8367018dff40c5ccf67f06
:109930001501d0c9ad107af382b7c9084bfa01be40
:1099400086974364ff03ce17b5dfa583ad3da43ee4
:109950006ed88492cabd285e74253a3036191abf73
:1099600083561eda536d0430c271add4720527eef2
:1099700077a24eea7f83a2c01143d9bf30ab1a85cc
:1099800056ea6e23393c118ddd6797f324bcc22261
:10999000f80c31e56a29b51fc50c456f748eae0110
:1099a000405520ab0b16f04970020b80377ca27f2c
:1099b000a3c7936fb53019e1aeccdf8510bc42a1cf
:1099c0008d7dbb89a18e5ebbd4e873d4455ad82e59
:1099d0004780b093d5db255bcae09bd34db6b56a13
:1099e000a77da48b73ee189b59cdc242109d08fb36
:1099f0002b116c4e0e3f5299a0d85f7a3947ffe188
:109a0000256c5a1ce67624ea1885acacab5251dfc3
:109a1000d921aa94e889de9d500d70c7c988cc85ec
:109a2000f718d598777e07690a04cf2ff81c0392a0
:109a300045fd0166daadd2cbed3f7c9758a564cbee
:109a4000804e161da1f71845ccfea62863989b856d
:109a50005e291bae9b12bfb7669959983e68e81afb
:109a6000647316e31e54dfb2e4778e8321678d5b47
:109a700035af014bda3174b960c90a45639a7d7b11
:109a8000fca99ec02324571034f27ea27d917efb58
:109a90003a3d6e2b2b2b037881b94bf0e84aa2a7f5
:109aa000229b3022bd3c37be83114050f7c13ce7ba
:109ab00095d1cdf1fb06c5461b2766afb090fa895c
:109ac0008b82454a66b8bb8930df0a7dccc6acc8fc
:109ad0003b003e35320e7563594e95f9be4178c450
:109ae0003d29858c7eb0163646132d843c64fa3ea3
:109af000e87a9bdbad4532399e56526921d48048c5
:109b00008be3bb2f26c231c168d2cd1f424921cc85
:109b1000db448eb222eabc9ced3033bdee892da22f
:109b2000b1bbc59db75fa814b5f5ad0893e4317c12
:109b300048d4ad56425b6b5f3f6c23b9454ccc5863
:109b40000d1733759d9508f7c173a652d8067d177a
:109b5000617541ee7baaf88d765930cb2c0a99e7d6
:109b6000a00b8bb299a6310edc45077c873710e03d
:109b7000a7602325913cb749b8eec3db8dfa48f3c3
:109b8000951f973b40ba2e7fa0febb5498b7f29129
:109b900096765eadcfe0c39b0d20ca02de647a8e5e
:109ba000076c84d2420892e65f75a836d9d0afa67a
:109bb00043dee9e55cfa9f220150318a31f6dca4ec
:109bc000c9599e1859e274556b44eb5f977f72b781
:109bd000496daf8b510e18380c0e89d3675273f54f
:109be000a51f2b7f1a5f0ee935c3390a1974bde131
:109bf0007b8486b8885adc25d9736f04d69f265695
:109c0000ad8ff8abd4179074422a1f91956f4e9d7b
:109c100036bd53a94a5948a23c8a6fe38a2b01e01a
:109c20004cf5849891ce157111c411639be1868f18
:109c30000da9e6eb38921689487e84843afa5a6b6d
:109c4000c548619b69e9263901dd65b660e1a6c1b9
:109c5000eefcfd575074a183aaaebb0061a5b7ef1f
:109c60001a9448909c554d6a56b1e2e0bf6fdd0ae8
:109c70007abc5a8f153f9d61184e291befef59d5bd
:109c8000b1abe565276a890fb7c9bee58c000786c9
:109c9000ef0134bfc29adf8bafd2149f8921be0f70
:109ca000392ae04c1b7d3286c3decd9de09faeb2eb
:109cb0009ae1790dc4233b1a1150d0061a3b4bf39d
:109cc000e50b6927a129a825ff5a0f360138bed810
:109cd0006bf219fc308e84251bd69c6e1afc8e9379
:109ce000db2ea57f51760afb9ff1a5b4991e7da7b7
:109cf0004650349601a0870a8a4e3ddb804d0b2fdb
:109d0000e1b11f3fa0581c555696fe1d366450da2f
:109d1000d3b207305620ddf3bb9307efcc0bcfa9ae
:109d2000a0a493d368dd081e23b620f5314dada164
:109d3000d13d298fbd4b19b4084a6e8c55be4aa837
:109d40004d3a9bacb72c962d2fd6cb48aed758fab0
:109d5000dbff4548b16029bdd4c3412243131665da
:109d6000337982b28e32e49598d1b5f6d2c910cc4f
:109d70001ea6febc1b2a08f92db138b9f0033a83a0
:109d8000323a7129487340fd655922f3c9d2a98c32
:109d9000801a93dcc41f693b745992cd68f7c5568d
:109da0009380dcdb1f89c063da10b5b712cd814424
:109db000fea79f1008dbf6b73c7ab007a75f46a165
:109dc000d4d5b15b567a867c402d9aa82f23c64bfa
:109dd000a4cdea4053358a418d730b00371f7f5b5a
:109de00015aa795aced5575734bbb767e39e070af1
:109df0004cb64012a23b8090d73fb27801f9f8fbf5
:109e0000cf82784ad476d3edec3dd86abcd609a18e
:109e10008ef2f52aba0627e75ae178a565a73462db
:109e20008584557b51c531c0f2a6bf5e589022f69d
:109e3000b2bd99c6d6da23ee34e159986b5eae8294
:109e4000bad098879db002dd355bc842b01e0d5b6d
:109e5000b8431888751adc9e50197f0ef3a802deed
:109e60002e6e7427838abebcc7d47acba4a15c7f34
:109e70007ec60349ad69a72cb6430e51c867c4d34b
:109e800045db839ada7d9a49c8d0ed51f087096b9a
:109e90001311648ceba57a21d1576b1c68ecdb4e57
:109ea0001bf5b58fbfe7dd92aebbd3615aa0afcf34
:109eb0009dd4895bc4a70c748e8caf5e75519ab823
:109ec000908ad1ade760f97d49cc88c1dfd33fc02e
:109ed00092a9ecc871f5ff9b6927e68558867946fb
:109ee000bb8f058f9bb0cb7d05bc775dda5b1863bc
:109ef000e1f88f6967ea6b2f8302586f1e6bfa06d1
:109f00009f6dc154937d9a64119916d84cfd8c7e37
:109f10006e335ab6bc12f6f150aa0bd9cf5e0b9d28
:109f2000ac4fa414ad0c853501f81dbaf29cf65463
:109f3000a36c2d829ed2a370acb1739f56ddd46307
:109f4000905adc013af1b355e72cec1277f72d7dee
:109f5000e5844ef7ff0615af7fcf6ca024cb9fd3cf
:109f60006856a49e1ed9968a223f2fdbedf70fabd1
:109f7000d2db224eccf4c824434ec0c48cba48670e
:109f8000ad44ce484b7164f49f292ee86746b40572
:109f90000de3b9e6f5735fd23bc3b9994a716f44db
:109fa00091dc435a149cf3b52d0fd156382b503900
:109fb000e3ea10b551826b5dcbfb79e83ce7c883df
:109fc000671f811ef643e0fb45f7cf8a5ac49cf613
:109fd000243ddac1e02ec0dc2ac7a7cc2cfd4a50b4
:109fe000c5da1845459a659b56362004d02d840c59
:109ff000317b9ca507db24109959be8a35ffa6bc8e
:10a000005dd33f85f4849740d0d547666522877a33
:10a0100099a778b58dcff10d16a7e935697e92b471
:10a02000f89317d3dfd580fa0784c232e8d6d16916
:10a030005589adae0243e2bb419a096915d758b9bb
:10a040005a0f029205daaf6fad3fff456ef46477a9
:10a0500031706920f6fc9c8ca93328cfae637466fe
:10a06000a164583a42a9bdc981bee019379219f8d6
:10a07000c3b14d0ee78b82cbddd7186f264006a00b
:10a08000603901e8bf25a53a29949ca2d16952d82c
:10a09000ca6d2d48e47bfea3a20db7d571e0d0dcdc
:10a0a000a5aa6324682104737f65ca396157ce313c
:10a0b00030855bb3b067375371e78b9141d43df482
:10a0c00072cebe4498ec1bc28518e6e30bbe1f831c
:10a0d000428f8900612bdbd3a40cce80c6c4d92f5c
:10a0e000a5147388a74762453f1dc732798fa8889a
:10a0f00099c399debb3bb221e78975cb8a714a2ca3
:10a100007ccd551d7ebd573fefa3efd4f90dc4792b
:10a11000f874b537fe3ec937ebbfb5b6032c2ec178
:10a12000ad14fe2ec2fca1c6dce91245af3a4f5475
:10a13000f2d4104bcf738c898f2318835b9d3152df
:10a1400090a61a9f85773ccc1e1ef7d549b38c8efe
:10a15000caaeb082ce22818390d89f88374088daf9
:10a1600026934f4e5dd61bee42db915501511f9653
:10a1700099c475ef6dbf7dc95c5835bceb6bedf5cf
:10a18000b2992f5ef754449535435e1599abf4555b
:10a1900073798c0ca6c12ef73a11e402c9f4b822e7
:10a1a000a0ad8184d1fc4db8c3d1f36e33ebdac9d5
:10a1b0007f5d5b14b36061b246389ffe73f716c6cd
:10a1c0004c457cd53a6350bde986344b4226d69f38
:10a1d000d6359d87e8efc53e7debf480d3fbc60bfb
:10a1e00010f909eb9f5735f2998d8f43bf8a45616e
:10a1f000b7fe5f1e84580ad5ece23ea96ad57ea060
:10a20000da91a4c4b032578cc7df1b05593ba316a3
:10a21000018d9fe296ccf77ae1c3ffa37cc3a3c86c
:10a22000c6c567558e68bfdfbd727d1838f0db810b
:10a23000703ddb1d1c95555a4bdd93b29e1722e1f4
:10a240009281b92aa9d3f3617af3399cd4bda63897
:10a250000df0fc1eff953dcbb2be02dac96d066162
:10a2600093541f3de1acc824b8679dabf5b29ddaad
:10a27000de12792069b27c5ad3c650d1d6c02b6d7c
:10a28000efabbe2ce94d7a2baad0e5f8f9ea5cad2c
:10a29000a3a09b38297416c9a12a39ae6b53ea00d2
:10a2a000f3a989c9920aae28a376fdc35aa36e45c5
:10a2b0008a8a99cd41ce2769eb315436fdaf7a19a0
:10a2c0009d25101c33735ddbb13cb6156f960036cf
:10a2d00058f59f34959ee7c730374dc8039df6b5b6
:10a2e0004912006275ec35fc4035948e4371666fff
:10a2f000cb4d8fc6cd06132c7a609cfb7e1e8dee57
:10a30000958dd9498c69887fa85d917431d85c5c42
:10a31000caa3711a71a531b14f669b391d16dead06
:10a32000ea5fa0ef5cd5cf4cfc23ad065db3efc375
:10a330002664a80d6ce4c8680a1d9cef69e6c35149
:10a34000abb421999a1c0ba02a0ac448258e62e955
:10a35000a70440f7b820ef1446540d637b23cc01cb
:10a3600055e0a8611d2c3b22990e92ee7e3eaf4e29
:10a370006d51eef06acbe309bb2e62314d24a1abe7
:10a38000eff9749bd3e7662a7e4dfda459db797201
:10a390001d3be2361a322911f4f31bca914336dc15
:10a3a0003318be66ea90d40fd48f172df2fc188fa5
:10a3b0008d49dbc4643eab8ca890860259c5a6e1ea
:10a3c000a52fdaad2c8219e2c0e68f9e644592007b
:10a3d0008ba132d671ccf6e1891b31fa17e5ed6f0e
:10a3e00073d8c98c4168daa982def5c0af95c2b7cf
:10a3f0003a888ad6d4bcaa8deede854d4a26c80698
:10a40000dbcbdd6a11b3a58bb1b321a49f3f945a76
:10a4100032be91c7f7d9f6d9300a08a406b9f50ead
:10a420003d93cb8714a5c8ec0073390b5cfd4b43ff
:10a43000b2a8e7344086acb933aea6cd0cb0d36b2e
:10a440000fc36b5678d49a4e6b1140ce6d4bf85ead
:10a45000fc30061924feb176756f7a6794f1481eb8
:10a46000505248895a97015fad3429372484beacd5
:10a47000825fb58133cba9a1ea780bb7532dcec942
:10a480005a94b99fbc461eab8bedbe4171ee01964e
:10a49000b11c72ebe640af3a3ac90f152539ecf51d
:10a4a000dcd5569cd941bc517ce71bcded93108582
:10a4b00080303cb17d5cf5264d51b96eadfabad015
:10a4c000fe566fd518573390396f2c445c571bac30
:10a4d0000ec0182d0703a6a3ff34bb818ff54efadb
:10a4e000c3ac53800af37585b6e902c2867cf37d5e
:10a4f00045f74728ef1c78be70ba2c2fcafdeeea4c
:10a5000065bf49789d9155901e19df88035a4d2be0
:10a510008e60868240a95e24a2f5281306565bc091
:10a52000718f4edd27664994440106645525bc8031
:10a5300085b60b65efd53339382239b6cff4bd8dea
:10a540004a0a1d9f41fc8144d5706cf1c4a5974c0b
:10a5500086d54acd5c08e7992eefa04ff00d5c51ef
:10a56000f162bdbbad5ce135aba1c8005438868358
:10a57000ab8d4e708eeadd6de5a14bf66ace4eaf27
:10a580007bf936f8142531f836e162d87fb409e753
:10a590002694597a4dc6f6d38af59cf09262054c02
:10a5a000d36ce3ff3da4e573192189ccc54b530659
:10a5b000274824ca0f909fd21d2eeb3a24476f42a2
:10a5c0006bc246e37b625697a31e91af36afcc8930
:10a5d0009478b9f069aa5ed0a8b98ac0968fb70cf2
:10a5e0006374e2c2a0804e422ea9d4cf2cba732d40
:10a5f0000ce470aa73d04734fe38c1e74fbc7d46e7
:10a60000a42fd714e269c0d210df1ee7d0674da097
:10a6100095baf96040f18680623a4d5762960c67b0
:10a62000b4dd761a9470ff882ebf9d16c68402f49e
:10a630005efd6e480d69d4f73558d27dce5069461f
:10a64000b135691782b86e46b711d005445dd35b4a
:10a650004c1c39a80dcaf1d4a19a109e8f1fb726a1
:10a660006325dc64b831a611397e3613df85f5a584
:10a670001cc2c722c8f4e161b2aa36ba9384871f0c
:10a68000d27e33f06a273a24e1fcdf69e122001a26
:10a6900066b6a8f5b370d1645b6606cc365d6941d9
:10a6a000be1c930b845c8b767ea8d3bb053dc19406
:10a6b000504d440208c8d5b35432ece396330d50e4
:10a6c0002e3dee0575b539088322ba8c08126a55fd
:10a6d0007a4760bac3f98dcf073a86f7e406045982
:10a6e000164b6e94d82fff09454e6f5f62e7f0b1ad
:10a6f00098da0991ee9559b9074b6f9f0e3da03836
:10a700002c19fce1f4fc547669e91a4dbc709f2ebb
:10a71000cae379a1fc25bab972a4eae6b845045b9c
:10a72000fd3c7abb67b54f4dd6d9c52a9a208487a0
:10a73000b174826c09e556214a675e8295d17caf7f
:10a74000179856113c5f7fe475b21749938ebd622e
:10a75000d4a742330cc142ffa44db1645ed0b7ab65
:10a76000406bc28d9fb4280204cf4f4b4a341a412c
:10a77000db12dc08233dd23342476eeed05e45a2a9
:10a78000f5a7a6d978ecf9eefda03ee3e9e4e3d025
:10a7900074020888ca133184a5614756b00f00dce3
:10a7a00079092c63c73ad0c593153858b2e80d0d16
:10a7b000b95b0c38fc182a60877ee452d5b78ff756
:10a7c000069f3b01d8f785186aa2e59a4fc7430850
:10a7d000b207b3a5e0f863215bde9981beb6b8fd90
:10a7e000077ee75754d561671b12cccb08566f1410
:10a7f000c8ae0996f95ec14022303e20d7acdf0fcb
:10a800002be89dd6e89a89fcab90403c56334b35fb
:10a81000864539e71f51580f98cf7c34e4d1ded1fb
:10a82000c2e19ab394345bc62c415afb911343673f
:10a83000695114585107c0291ff31f78a7ca1887f8
:10a84000575114687468472b59ada7aef90ce3ee65
:10a850007859492481bcd8594f1022523637db5ad7
:10a86000bf2f40124d7e6d8a99b9ac6a3902ac6136
:10a870005b62bd016c194418db756f4a327d554827
:10a880006fe5a2bf3766848d5f7195a978ce73bde1
:10a890008ce7062de13c0e50b8df07a2ca2b3347e8
:10a8a0003550e9ed2ab21577122c71cd86e067f6a6
:10a8b000b7423b6741db908522053a87a51077bdfb
:10a8c000fea08322bb7c21c2f6b98df1b22bf85ecb
:10a8d0007f9718d164c5087780b1bf0112fc346737
:10a8e0007aef86e6cdd73371001685c2a244c7ae93
:10a8f000c2a785f7b05775a5a3499733a140b422e5
:10a9000022da70f7980c4cfad4b0d24d718a861cba
:10a91000966a15ee418f9a6c56e98e76d034f5c65c
:10a92000ee77a24a825801e3e3cb9eb9ba454a5d6d
:10a93000eb5d6a860361d3acbabe22a76329e7e068
:10a940008acecb1dcb933a1ba067e8da6517d27786
:10a9500003174ffe4c115f70220072f9f07c73cc2c
:10a960009cf5ebfbb8fb58866c7db6eec0b78bd67a
:10a9700036bbfd0859f7e54080b6c2b515fae714b5
:10a98000d37b8e0b496c177d7d6cda72348d90d33e
:10a9900030cfc6bfebe6d5f44aad08c694cd8cfaed
:10a9a00087a151f97e4fdfe59428248738fe55edc5
:10a9b000c0e8ce4d06afd6e4260417e19d4a0c6ee2
:10a9c00007d185ac47738f3b04149471924c7abdc8
:10a9d000b4b90e6630a747c4b237e9bba9868f1356
:10a9e0002c7f617cac0d6dd4b86229aeb3d891f4e4
:10a9f000ab8cae1aa1c29c7946912f895dd4da58ee
:10aa00007265f35b4c10b21e790184a8be50f6ee5d
:10aa1000f9ecb80e2a6d1e46b0186f9ea28a52a796
:10aa200016d49a3fd7593a6539d7a9277f84a6ab60
:10aa300031ac68edb16df08d69520d1db796c273e2
:10aa40007d9199354a10b1ed22af9555bbd2053ca9
:10aa5000eaa89750e95b441d78f452cb9648a53f8d
:10aa6000fb47e0d24f9b75fd949dad3943f5b99df1
:10aa700081263a984885e3ff2b3402be7f219c75de
:10aa80000e8d4049b248116213723faf2230d63268
:10aa9000d8c92b1d7378cd5593b7822ccd9607510d
:10aaa000d318240229fbcb5636bbaa06571edca1bd
:10aab000d566727f2a283c08c4de299bbc5b6eab3e
:10aac00094097c34616d9da598cb5f5fb77789b59c
:10aad0005c2180fec609ceb9b8bdcfaa1f6d022881
:10aae000b09afb09ad10fba120b3b15f7e92682a3a
:10aaf000a42da5a14cbc193ccdb65f6c1aafcb47b9
:10ab0000dc4fe106f8b38158568d0b7faba31b7663
:10ab100020407c0379cc55b2756bbda84a8726626c
:10ab200026bcfa355f206ebfc2598a790027b8d299
:10ab30001330b883620c6725e1eed422af86292b4f
:10ab4000e40784eeffa715c0eb5c232fee316cfb0e
:10ab50008abda59ba469fe91cfa617c8deb9e77987
:10ab60007460c03d4c00a9be21f93d2cd4ca557873
:10ab70004d369621c68bcdabaa79327553e96079f3
:10ab80004d39b640e8b62dc68be8df2a3512e20013
:10ab9000d0cacda0eaee7b4627dc09c58aab7b662e
:10aba0009c5048599f7843e99d83476c8314920bce
:10abb0003a9774dae89d0133480134fd45e554e9dc
:10abc000f79e31984d388ab73aa0ea0e928d075217
:10abd000645199f5741d87de0cd9a52d9b1dd6dd1a
:10abe000320e003e6b4afcb8b043827dd58d5502d3
:10abf00069ade26322dcab0bf4cead066bb0af4bbc
:10ac0000fb189a1e92269d96e8fe1687ce6873d38f
:10ac100096c433901723a7637705618b4d897e60b7
:10ac2000ac97dd4f41bd4655472149f5dd83abef7c
:10ac30004046dc82dbb0e55ecd22f76d627c90b0f1
:10ac4000a7dc91661e98104720bcb2b8ebb35fee4c
:10ac5000b7f79cc90f12a03c50a672f476ba26da58
:10ac6000650e44c5975caa353d1808ccc141846780
:10ac7000a4e381dcc6c3960b753f99bf22461257e9
:10ac8000e9e5a0693baa97fcdc1c9590b09381f4a0
:10ac9000c358e986df728e2971a8278dd8171a71db
:10aca000bff9150933643d00190af517d87b0a620c
:10acb000cb8176634439d6cce70bbc102e9bd48174
:10acc000c3bd61d732e0d687bbd34e6d91db1a701e
:10acd0005b135f4048f25b660129a71c8a7d88bf31
:10ace00028db5d0c630cf90ed0255c04f7fdc9610f
:10acf000e6125bd9979d1432399390153dea778c13
:10ad00007e7a7f3c4930414a0f12346b925403558e
:10ad100039c0419ca99b6d3eb3bb9f3c2097aa19ab
:10ad2000e2e36f108ba322f0b911a59d9df5a08bd6
:10ad300075f13215b5e2f8856486cbf6947acfeddd
:10ad40009790594b8052fb984cd6f2d1d8603ca1d9
:10ad500094afd19c01c9f65fb2f88c11c204cbfa52
:10ad600067815628700a15bda2d979cdaa64fa6305
:10ad70002a6c9718b13376b050c093865f04ea13fb
:10ad80003304a9f87cad640f66d9d2044c2539246c
:10ad90007993fb0b3a73753ce455a6ac81d4385dce
:10ada00099a606e3f8e8de340b9bc5d78a2b010c85
:10adb0008ace331d81c5eb5d3040a2b6a3a28baf16
:10adc000bde6b88cc6c8cbe669b390d172034185a5
:10add000fa205cca43fb448fef2a7290910cd7b7dc
:10ade0000f689abb50fe15d233896c9c7623fbe624
:10adf00004c5f1d44d8b497a459a35645c1567dffb
:10ae000088683221974db9af885b0cd84d7b10a470
:10ae100047178a574acd4e26fcda69b31ef19cddee
:10ae20001f7ebd881ae345f6fbde290393fd39d565
:10ae3000b45bd9424a34b9148d500ae046e10d782a
:10ae400086bc0c0def71d9d97a4f55bfee19274842
:10ae5000e6dc0f45b7d388acbfc9b9045ffe1afb67
:10ae6000e438b5b5e8bd34c85a24e9a2ac719030d5
:10ae70005441867894962086e6fe3e095a68fc9ee8
:10ae8000b7b1a9e8fac21fcb04bc5764782163bbf1
:10ae90007ce21acbd2a7a1819c88e2536c2ce1ea18
:10aea0001a53f0206bfd4b9cfc79724f7df8af3d3f
:10aeb00078b47310e774839ae5660a5d62f2c53f61
:10aec000867379ee766c48247e74185d9868ed334d
:10aed0004956f36ece6b82192405f649c75d50b40e
:10aee0003d855881ce9af893f5b698636b35b6cb0d
:10aef0009e5d7dd46b8aef031b75d9618a30bf1ac2
:10af00001533a41b9069ea61a48ee2a26f171200a8
:10af1000755da157215107354e8e3ea72de615963a
:10af2000f69e54008d0a6e29f3f6fac787aabdd2a1
:10af300092746027a82a1e3f98696d6b6be46c833e
:10af40008e0cab732dbfb327a4f8f2711d8fedd11a
:10af50000e7d9ab58202ee15c395f5bd5c0b413ca2
:10af600074f02707af2559208a435c2cdec34c8f31
:10af700048bd7d770d4411a55fcff2d04a98986ff8
:10af80006e9d8f08964e4efb1b8881983aff0bc32f
:10af90005599f1dbfbca2beb5f2fa220bf8bb619b3
:10afa000adc4fc794f26c1057694a155cb0d9638da
:10afb000b7d50d1532be662edf22ecba6fb45dc771
:10afc000e57babe8f6541e5e03bcffd942557c35e9
:10afd000e1b215847ed1f54c16414f3615ec36e7bb
:10afe000708027c31789b06537ae0200c74fd57a86
:10aff0001bdc1daf4a3e89d80b0ab0c30a8e9628c7
:10b000001dba7085ad64992a444fb35bd30f07d73f
:10b01000e7b86a9a0cdc2e9bcaae797e3d26be2527
:10b020005f9a3ccb9d2dfacc95c96b479b39f8b400
:10b03000a4b44192f214c2c6cfdc8084834de11fd8
:10b040004238683cb13aeadbc406b4897465b72378
:10b05000ab55656e4153dc649b91d2faa6fe6e9ba4
:10b0600033074b1c0cb974e19786cc6170952fe6c1
:10b07000b40111052738a6e6a8205bce292d9d47ef
:10b0800043ffe5dff8f4799be6ed77c6a547d07a74
:10b09000637ab832d66d50b89a7446c8d32c20045f
:10b0a0008aa0e41112c00c26b9977abda11a53ab3d
:10b0b0008c8f5ae39f625b3d2c0767bafe400322e8
:10b0c000300b38329dfc0b12b7f1ac9c4fa5511dd3
:10b0d00073621173822efac88adcc4fa955c9a7c7a
:10b0e000e3d7db01f953746f212974238c0192f2a9
:10b0f0005f488878651f7d254917447ad5e609fea3
:10b10000f4b74e574da3c105144a165f224f367c43
:10b11000fee456eb2bdb6d4353ef014cf0fab6c463
:10b120007e290ed8e388e8176c938438488ca41dd8
:10b13000152923895bb5c0a41203d95ae021ac2a92
:10b1400012dbebb42f0f41cc00587dec8be2a2b7a1
:10b15000c14c1d159b6dd16b2f4809acf9e5109ab8
:10b160000a1f9cea09048f913e9ad5c83d1eb0176c
:10b170008b47049654c1eb1b05c9ef831262029200
:10b18000168b8ec11af51d8fc91581c01071cc4c5c
:10b190006f0c9bbd3db41a650dd162eb50c8d71c36
:10b1a000d2f1c82d24256f2830006c35208017057a
:10b1b0009934006c9a1dcdaab3e358e910c4cbe8ca
:10b1c0005874a9a01af37930d1432bec16f83e2f0e
:10b1d000201669c90dbcdda91e0636d7e86eaad3b4
:10b1e00074bb65a531811d8b6bc7140deefed6e9ce
:10b1f000e7be88298f0f22ce1f81b6ceaddb52f479
:10b200009303c950dbd0def32b0db17e1c98d144e3
:10b21000c53c2605a9fe15a16916a9aa1de46da4c1
:10b220001f508a177204379b5011c958bd394e10f0
:10b230007b9a04ec8da5aa285b352a67ee3d49b5bb
:10b240009ac77c2f6e8b48bced634d4912b298f3c0
:10b25000dab23ac73bdaf572736cd8b378554e77e9
:10b260001a2e994747d646c54052bb73e49f3120fa
:10b27000f601f5487a1b23e2f6094a03332f704d95
:10b280005273ffc73131f4e6982ff640f1a1548292
:10b290007845e9b441625ed8522f39ee038d0a4dec
:10b2a000a37a47d363380a9ca9d437858a15d30774
:10b2b0000e26d1a11677a526b136ff3acfa97e3347
:10b2c00085881144d38c1ae058650e1e1588999410
:10b2d000342da9fb7aff0e0e4ebc948e76a9d35165
:10b2e000aaf3be47ff61fd90d79ca2aa36d6591c8f
:10b2f000248808ad0fa8e8073a50236f1983239ece
:10b30000be4d45a903959a26426b79d06603869c6b
:10b3100041e52de96a85d84e8b7efc0034066e1718
:10b32000e919c2f5294811fb68aad1a1cbaea4e561
:10b33000c63243695efe161491d5f75be682073488
:10b34000ed1cb458ab20a9627c42ea2fffdb7847a2
:10b3500083dca495760b387d48d00c01e40ba84b18
:10b36000208addf4a3ea2ab6dd197df8cdd552d8be
:10b370009a1f57f368913468609bef02f2ec37a88c
:10b38000ac15973a990a6ebcbf184e51fe2fc844af
:10b39000b889800067c7956ab5e5c188c34d07685d
:10b3a000791df96437028ac4f005376b2063ff12f8
:10b3b000a06cb22da89e80b4b15196aafc5cefbae5
:10b3c000c1401abae028b0542e77fa6aa8f83c991e
:10b3d00073f1ea1d8a461443f1af56ee6e3833cb53
:10b3e0009dfbbd854f6271f0da12477837e81e3752
:10b3f0009f45e1f4daf9537b3223e31cbd9de53b25
:10b40000cc8683d184f79804eac1ffc072d6d9f8fc
:10b410002cb22fdf5890ba9f22530e0f1bdb74ee15
:10b42000dd782d00d8e96d8787b6044f61078a392a
:10b4300039a5bcd176db94afc5f46eba8139797584
:10b44000f56fa5ab3dc284240df4a05f3930815661
:10b450004a902620df2f109b071303fdbbdecc98fc
:10b460002fba102559b4d00e833ea46f20e9598419
:10b470000ad808a2623b3e59d7dde772ebf5b85116
:10b4800098b0de75b10a5d43c8dd5d097de3aa446d
:10b49000d07904fb5237b2c1d5e61f64e64c827600
:10b4a0005096a1da839afda825ce291dba9ded2dcf
:10b4b000386bc0730ecd8fdc1313b5d29c68be936e
:10b4c0008d68ff28e633bffa4fecd8c6a5845347f2
:10b4d000bdc52d6b80e0dbf4311a795752f0057b46
:10b4e000ed929276adad96ae48977bdac876ee25b2
:10b4f000439e91a25cf26122ee6a7b0cf801388acd
:10b5000032db0cca507b46a830f51dfcebc5245e2f
:10b510008474837ec2cfbb9f6e506976c8c695691e
:10b520007d723f159680725426cc0468b6769537a6
:10b53000c8fad9b5ff55fe993ff2e16f9369d494eb
:10b54000b8d514ce864e7e7f1ce0b5e2df9cf54078
:10b55000b5c19c263ba0eb41194386a5914673bc1f
:10b560002f2b150682dd74d71de58a60969b49c78f
:10b57000e9ca252a95e30752033dbf591d0687fbfb
:10b58000a57c881ac592293f6ed3782f0c2380cfd3
:10b59000d8ae3ff2a7d66f85e5b1746665d3f4e700
:10b5a0006d4cce579a909bb5157d4abb25cee7f4de
:10b5b000bbca5427fab148ec1a40106fd521067661
:10b5c0001d1d716b6e0ff590851dcbcd13b0e6b1cf
:10b5d0001ed91fc9a8ac97d010a7a8740338b549c5
:10b5e000fb4a8900bfd581c1e3c6f9e6e393f24f78
:10b5f0002a184189cfe912469a52d9273ba1eda1d9
:10b60000387405a87ab0e8c49daf63ff7a81365ece
:10b610006a0062489e8fe5f24b16aece5bda9fd28f
:10b62000db40e516e9e73a54e8ff3f591e7c1ad89b
:10b6300068becd4bf2eed372a09a5bcea434204ffd
:10b64000d457665e76977e78e929ebdf15a72c93b1
:10b6500035048b33da208bd28cd9b1edd7c1421ca3
:10b6600001aea8a06056ab8a629424c73199dbe68c
:10b67000faa46ff4469cd4ab79691844f438d72502
:10b68000fd733652ad5e9078ab1dfd668768e6842b
:10b69000ef02ce8d52be7f51efce2681e60e6309ba
:10b6a000058cb677d6e0c7621ed4f259556f89056e
:10b6b000c400cce8aed6dcdaca889f2f4d1045e82e
:10b6c0003f213b6e4554d8afd09141bfaae1f68be4
:10b6d0001049278d6b521c05b3c8055d0357b18116
:10b6e000f80e726b0c6eaca9ea46612f7194ed3bbb
:10b6f00036cd63f4aa1ba54bf71e90f66ded566e82
:10b700006335e132623efac5cb4856dd0f5c353f0a
:10b71000daea9cb60e278457ea3137e0d0f08e087b
:10b72000a53c93effd004fa60fe1c9fae99a4b2b18
:10b73000666dede830220359a793aa1025d4ff13b4
:10b74000c520408582d270da92ec253b7f88c751b4
:10b75000b0a673b568193b542aa032613b0a0c8f1e
:10b760007445fb842817ebbc3e94b32e2b5ce6c8d3
:10b77000703ef2cf6a592fd8e5e9b7b0b6b00440b1
:10b78000884bc4bd5ab0c9bbe55503893c7a9f229a
:10b79000e6df6e15005feac0b71332f7ba3504fd75
:10b7a0005611bc4170f33ef4f3c2eb580c376158ac
:10b7b000905d2de7485d481f2e52c471064b1d2f2a
:10b7c000ef1b15f2ccd0dac881b115d3cb8bf7398a
:10b7d000f1aed3e954def1d1b6fc10ef869ae93f21
:10b7e000ea46099229082795a56e2485d7686dcd6c
:10b7f000f5feb9d8b9ba39bd08e911a8048548f3ee
:10b800001db2ea7cf246427d109bcb3ab4c7560784
:10b81000ff98aaac3e3a58255e3612a72c4531c493
:10b820001df73d070cd9e2a8e1a7e28d1c09c3abc7
:10b830002b9993290bc33ca0a051ce3ca1caa17265
:10b84000751c9d03943c5c5054bb9be60c6f01db64
:10b85000dde635aa89bd3c98b86ee618762e95a926
:10b860000cf98e33b471512f21ec97768af76f491a
:10b87000799817d93eab8f9ba7aaa5c13378b10e93
:10b88000a600f63da377bf2cb36e92c5dbf345be91
:10b890008bcb979fd0107c78993eb61623e2734edf
:10b8a0001ed7b314b9f243fe4d14b6c37ab8e922d9
:10b8b0007d39404eb6e41c54f229192bdab7b43264
:10b8c00019fadd672ba94bc3010130675190b02ce9
:10b8d0006dab8b79a87998133e4dec902331f30a28
:10b8e000a53b8314f2d0ce731cd9190908872ad836
:10b8f00023adf463b3bc7269557d8f617f646f19aa
:10b9000018011b88eac7d66d02eb52ccf8c54495e6
:10b910005af667c19351fad8c9477290f4d0f61716
:10b92000336601db9625141dfd7c8e890f1dd96ab7
:10b930003c79bc88c860b53144c8b73d0d10ab51e7
:10b94000b6a3c545b13b7e0567f61836e4c3700d56
:10b950004e6cee6bca4ff3d3c26428f68c789a53c0
:10b960001ecabc19c28f9d57b035a0b405b5e727d4
:10b9700005521dfa3e3b183990cb5b1dbd0458a102
:10b980003268f080b2d62d04b92a9884e083170576
:10b990008ad17815919a5a49a156707e03978415d9
:10b9a000d22173354da8eec8408446364846222f32
:10b9b0006276efe21671174231a6de8c16d8d5e416
:10b9c0002a12a9cc4ee5c698268c0e05b5d943d0cf
:10b9d0007a8a979899cb56baab29f161ecb8891f4e
:10b9e0006d56f674eaeb19faff66ee7154993b2b2b
:10b9f000c0675035a1da5f5188a946ee7b0eaa27b1
:10ba0000546eaa91bd3f05605d00b2cc68b9785f05
:10ba1000528c9a3a9faab2012cfdc4ad184d5782a0
:10ba2000d58c4b788392caaad6c54bc56867c3df4d
:10ba3000e18bc5fa88f3401420297a9c531ba0a4fb
:10ba40003875bf967b7157260b3ae4d05c76b9de29
:10ba5000107d9e9ce25dfd9332a4b0eb751f4847bc
:10ba6000ecc85a3d54c5278fc782a2b8f5f5bc0370
:10ba7000ea2263add31a14047a2d55b5c712385192
:10ba8000006d6989ba2ecaff33821e7bce8ed2e644
:10ba900085d1231e485b9f171004658553fc514ace
:10baa000ad44f665d9ae3b00b651e46c32ac83418f
:10bab0007191d396a01305bc64102b75c543787e95
:10bac00061f239924d0849e4fdd46d23800a7487f0
:10bad000107f09dfe31eb38478059d4dce76f8a173
:10bae000d8e4642947be64d6aeed29dc4588969635
:10baf00002a0f8a8074752551d95685115d16496c4
:10bb00004a2f4433c1fbce5867973f16e7c23bc963
:10bb1000f4860f9498e766ab5cb240a1d1c73910a8
:10bb2000cef020ea9d6873f9bdeae583559d8394c4
:10bb300017d55e2071adb3277892e64149a82487d6
:10bb400049602a0a7b9e166c61281700c37e4580d7
:10bb5000f860e7ab90eb8ecbe8495f044a9cd5e5f3
:10bb6000b2fd996e1bcb58c8a75aba0a80b06b7f3a
:10bb700069829ced8ea8a5f5b428c268e33723a995
:10bb8000d1f8c0eb19a7bd882e715d9599f504ed2c
:10bb9000539dc32205be1aae089f71064635cce8f8
:10bba0005754803da7719d5be7c0dea050fab7bd3a
:10bbb0005318d052a8dbebaddfe65ba40f59778eac
:10bbc000b2fd19854b291824f3da22c175de22341f
:10bbd0005242a4699aa494ea18fa27a2f6c9bdd9d8
:10bbe0005bb8fd9fa885b9f687b85217ae318f3e76
:10bbf0002b6ae0d17ced90a484893cb52a3de58890
:10bc0000c2ff4de482969d3a6817b9468920726c4e
:10bc1000212d169506f0539520fae2e42824620ab5
:10bc200026a53a761c367a647c8196769797760cb0
:10bc300076ead80b49389288986c4ba14b3fbd7976
:10bc4000f411a9aa7130e23ebe81de1ac64e7c0d07
:10bc500034e20c0190ebc721f23069573d497a6e0e
:10bc6000d4dc53ac1c81fae155c9c7b03a8219370c
:10bc700096c8167ea242779dbea73c23906c317a6f
:10bc800042ad2a61afa519cf580c306315ab8c9d1e
:10bc90009a9ce4f7090483d19e8aa2224ceb2fe2fe
:10bca0009db399211ffdfa15ed648bca2a50a9ccca
:10bcb00091dc04d02ecf63725573d23f06e4816ebf
:10bcc0000305d0e1422d9091a8bae6eb4ee8d5b835
:10bcd0008a678c32bc124515a0b77ef7c2a652bd4a
:10bce000fd4778d974044414efbb07fc1f872d5817
:10bcf000633b66e9c7238bd178dfd1f1c661e718d2
:10bd00007972f82247e95ea4df9091aa1b0e5915bb
:10bd100085b31ba5ee3c0e3debb4c8203ba7c76c1a
:10bd2000dfbca4ed6c578622bad4c7703383f50804
:10bd30005fedeeed16013746e37164673d8e4f24eb
:10bd4000e75a9aca60a80f611aa7fa0ecb07979212
:10bd5000893dd66ad34c16cd4e132f4d1f4114b2d8
:10bd6000dbaa23c391ed6b7493cd3c6644c88da1cf
:10bd7000e0d93bb5ad8a6278876f1cc5f7ce22da71
:10bd80000df8f62dcf85447773d7e25dee78124a31
:10bd9000e5e71f5f8a142dc6a44b73379b915af5b4
:10bda000ba0c034b94708d6e7739c1f82f05743b34
:10bdb0005586ea6603bf824bd7de42bacfe37b8665
:10bdc000aa6563ab1566992c1a02167cc0ad557333
:10bdd00058719d07ba0be200103e0dcd7351bb198f
:10bde00094a4762e24dfd1bc0cbf6a646a4f032f63
:10bdf000a61c493171f02478288f122be871b04fbe
:10be0000b72ae98d769749881cc579089205986903
:10be100002df51216020a080cafc3a537049f4ac83
:10be200070cd66c7ad72b716980473eb355831e024
:10be3000487342edfd059fcab6a8bc355242f224b4
:10be4000866391fdcc0c958fb895c77ff19ec13d5f
:10be50001fac1ea3560641e04b2c9c0eaf84431b27
:10be6000d452375c8815dde194e5432521c71ad407
:10be70006b53345e2901ac05fcf274cf3670573237
:10be800024a203271262e96d7ba958f9ca9159ca05
:10be90008cb312ec04ac40cfd7d33e9a4b72dc2467
:10bea000c32fa0cdb71bcb6f2122edaa730461e590
:10beb0002bdcf3e1bef7367ef237d2f2c1eace6276
:10bec000106db65cf48cda39c7273f7d03d016c3fa
:10bed0007f2303bbbaa65ed6326ecee4044be04f9e
:10bee000aa07b7c88fcd283d4d70f532a56444bf71
:10bef0003ddfffab1de65c751fe62c350a5b4d117f
:10bf0000ed88b068229424fdd6d9699918968925c0
:10bf1000b5bf19959663a4e337ff87c1a4dcd4e2cb
:10bf2000dd4ed8b108957663fe477e1a7acff06b66
:10bf3000cb3330703ec001e2349f6f0bcb804a069a
:10bf4000ec0eb1f71617c254dad4ec6fac2f7e1c8e
:10bf500000f8286d14c79a8721b21b1e64461b89fe
:10bf6000befd22c2b733583031e6e154e5ca816bd9
:10bf700077b81923a6d7586fd97a71de09c9734be0
:10bf8000c8b131ff1977ff31319d76cf8df235c6bb
:10bf900007e2d3b85d691f2131fba0936aa849c2ab
:10bfa000a75267544ac5fe7b521078d8c6e6273d93
:10bfb0005c3d2d8fa9b8f5699b26bec62332a3ad83
:10bfc000af1a44b2c5d74021a8d571bd558bc3d493
:10bfd0000dd4e23f7c29668e56e67ca054632b6428
:10bfe000db0a9f5d8d59eb491d02d3b4001281c35a
:10bff0003b3064dc0c0a54f274643d6eafd650be24
:10c00000f1b9ca3250dc991c9014f20c956c3c8644
:10c010005418074c454dde8a44d1232281fb050785
:10c02000b0a513b13a14cc2c9d27ba5996a7e03489
:10c03000b84c62949ae689fdb76c06657b2b6c9fc1
:10c040007b4a826116b67382990fa21a656b24f03f
:10c05000277a19f8211345594f59dd3a5640ec47d4
:10c06000071b2accb0231a7e8fbf0aa27689e296dc
:10c070002e2a4a58ec77a92512ba382cb6dc245b54
:10c08000f46c7c86a462615eb1a7f3c540e6c5f797
:10c090006699ba37680d4a92086615afa957887134
:10c0a000e30dc7bfbff9bfe659aac6d268844c6f7b
:10c0b00081c674be49bcef8056c821e9dcc7220e98
:10c0c00020b7f406de1302a908b1e368a2bd36acbe
:10c0d0008208ee61d193a3d69a7a93c3ca75a8b3a6
:10c0e000c11a124378a191eb06609ce55acf1caeb1
:10c0f000d21107932104cf3dade9a518096a2c920e
:10c1000091b65ac3f1c9071ad74b8885e7c81851a9
:10c1100034d5697a1d1cc338e0e454c005b313afad
:10c12000e2e48f85b72d96c82aaaeede2ccdc51283
:10c13000333cee5553ac47fd445f6126af78a6d93a
:10c1400041a15c74e0c99bfea6ea7665fdd2f0dcf5
:10c150000be5447bef3e69b9b5a0876ee3f7b58c7c
:10c16000d49ff5407fb09c22fd38565b522135a705
:10c17000409066787fa1cb84a35943d126439793ff
:10c18000c83dbd93a9786283cf6dc5dbabcf5a3e66
:10c19000c0492e2d8d84bfcc7683c0c18f68538f4c
:10c1a0003c66c8802a565027b3eee0b1deef950e0c
:10c1b000107cc004c330322843a751503e1dcfc26b
:10c1c0008e1e23a0fb6cc2484495be3de4d4f5fd11
:10c1d0005488c23e8caf052c478f0639c4eb343ae5
:10c1e00065201282f4dcb580b50c79a2303f4ddcbd
:10c1f000df16fe6aa1e3366d4d717027837e202124
:10c200007278238ae77a48d76ff66e3cbf76d253ae
:10c2100029507276ee8251d3b6481fea932f92319d
:10c220007301e1a243ad2a0cbe4dd68e716fa62cd0
:10c23000ca5c8937f5da891bef40c8bce7a8870ad2
:10c24000fd8146b5fc0974729b453adf1e8fb1171c
:10c250005f6d875e3e1d7445ae8166878a807e8de8
:10c260001e98b48e1447e79e154cb1d103d25139b4
:10c270009d2da539eaa48b936479bf6911bfad05e3
:10c28000a7f07e4fd1e1a7236923aedd25702810ea
:10c290008e499b551fe47a30d6ea00070f09bc1d72
:10c2a0006d4e37f18a07cebb3d1ecab806df327b22
:10c2b0009f275b66685f863a91cb4b231e8b28577e
:10c2c000b04166aa4142738c2811e250d35e203df2
:10c2d000970da380b8a3a505b391eb8c4770228678
:10c2e0007a423905a618af528578cd965c38af787a
:10c2f00026bd91ed19b912dfa5634253ac120f7739
:10c30000033984037135c603afda1d7c2a8b2d7582
:10c310006fdf0cfe555745fa2d82e896340bf6beba
:10c32000c0f46fb7c514a53ba4287c6e76c455cf66
:10c33000860a79cf485bc5fa839f0e603944bb1dde
:10c340001fcafda2f1f958d9e6682aa262f9600e67
:10c35000e886bdf0e64a570e565746c176a4d01c73
:10c36000c23312b703c6552c0998ca5d3294dbe17b
:10c37000582785a59aaee2c430dbf5e92605e1a28f
:10c38000f8a809d9f8248f93195a05e208db9941d6
:10c390009bb07eb3bbf0a279a087a04a117f70c08a
:10c3a000bdbb6a4ea4cc4679961bfb360cc540ec4f
:10c3b0004f227581055cda7b1513e593a699b23b94
:10c3c000426f1ef587a958ee775ad75deb775f99d4
:10c3d000b9aa9e7704689c72da89de2974970ffbec
:10c3e0008163ca69766318d4c97d07ca85ce7bdbb1
:10c3f000df49a1e3dffa6af4a63eb8b20847555315
:10c40000d6fff93eac802369ab661c5322b926fee9
:10c41000895ae641a4cdb7cf5b94e3781ca3e1d061
:10c42000198f4717028bb6bf698292c56ef4c66535
:10c43000ba269fadb6b84c34185fbfb758528fe6d6
:10c440003981513a2107cabd56301bc94f6a6196de
:10c450000efe03448e1932d45f12ff5de0380a8e5f
:10c4600074b86e0c4af591eb4fe242bf10f3e272e2
:10c47000dd2cc99cf0c7fbeaf48340bb9d5774bb1d
:10c48000ff5d10beb7b290d29d0133490432e50979
:10c4900007eed689d75e9dc2ab86c977cfbe324440
:10c4a0001ca308220c96d3b40f19058b5e68bc8fb1
:10c4b0007167a703d2aceb838128851d6b5261cadb
:10c4c00089388eb499e9a928435ced8ff2a4ccb0e9
:10c4d00049d78f62b74e60eded36d840a49f967372
:10c4e000cdf769b5643930a6d87df25721a0dc7646
:10c4f0004b201fd7932bfc3719cbb223450b51315f
:10c5000064de4a43ff09a20af2cd1c16167a5b24a8
:10c51000a77ea24fa62a877234c33e98add9e034d5
:10c520006ed19b00ceb9f3c91a459975f15d12041d
:10c5300048f95683a4917faa4804e550cba37633eb
:10c54000cb263e2a2ce283c78b2e327e6956d359e6
:10c550004732b7006daab0a013ecf7a401315d7d9e
:10c5600046149161cc52b140c7e18d98470b869734
:10c57000934c2888e54dcfb9de828ebd28648a5160
:10c5800038719c947eb2bf179f6198bd25c3342f2c
:10c59000fab1f4e76ba6fbbf59dee00f1faf07dc73
:10c5a0000ab2696c395d2ed0e2473ef3c14dbc7ac8
:10c5b0000fd654741d648a1f9a7b72c60a2e31b737
:10c5c000d4c8398742c8670e545a8c56bd20ac2156
:10c5d00053a64d7d2541c4fb215b6a8308927db241
:10c5e0004234e2ebf69ca4e5418c7eafa46aa10a3a
:10c5f000d626db40a6409c9634e106acd19aee24c8
:10c60000ecc79bc63a6ba1dba23942f83d622a997e
:10c61000e11f25536965b8dc983eaa2e751e439b21
:10c620006c6f5bd5ef9889acc42b67793a2a329d41
:10c63000963ea79bb189f6aab0376f50bbda48bbcc
:10c64000c2596c68bd426c611278f568fdd2677e94
:10c65000c93d9c6b50324be8a74067257940cc21ff
:10c66000001e5454dde800aaf86cf50e8ab7228942
:10c670000c383a58f7c9062ccffaf9e93cd214c85d
:10c68000179f7694cea31a9fe5b5db17fa6dd6ab4c
:10c69000158d4188de2c37d87d7f8e8d4d6f3ed035
:10c6a000f08dc4f351343b361fa25868dc07734049
:10c6b0005b21f63ca4960d57d394e6144ebf0db4ff
:10c6c0000b9a83bf1c4b4aaf884e781de8a34f15c9
:10c6d000965588e2705b1bb5b0292071fa2aedc827
:10c6e000d4fb9f3c1e749e516ab643aa75dbd78a61
:10c6f000d01e7d993e8a0b8bd25facca8c069d19e9
:10c700005ac2cd542e166763ecbe0d745b4fbd123a
:10c710007f3b8a34c68a498813922f884aa3de0158
:10c720007a98b83a84776200defd555e11c40c43f6
:10c730007be426444b3fd93ff31754ab5faafcb6ca
:10c74000380d570d12d4b68616fb8e4a06aa7ba367
:10c7500076579babf44e8a47e9b0daa54f04a8851b
:10c760008976a7cfdeaf6abe83b666cfe8f33cdb3f
:10c77000d0483fb8d3d49a2557733020b56d7b0e7f
:10c780005f5f340e431473cb0d11c51515b907e265
:10c7900081b81c1d1967191de17d169c6f5de8ebc2
:10c7a000ce12aaa74c5968d20334b6eb8614da6bc2
:10c7b0006eb542d99a5dd4592213af3bded52ecb4c
:10c7c00004d09feaa2358e5de5993f2e1e8caaa962
:10c7d0004144f3d277fceb56ce1056f6db7e38d8c8
:10c7e0007fbed5bc70754bfc783cbe510dd427f193
:10c7f000020bef8636d792c14080aede308bec0f55
:10c8000070044fd478d37f11a0562c0d250d03aea4
:10c8100081e2692bc238124b4df69366c14e3274d9
:10c820004685eaa094072b392f6d67268429a1c07d
:10c8300029f6f3f38caff173a1d29481023bd87443
:10c840008678de7131f76f60669b0a7793a00c6f74
:10c850008470454be98caa832af46bb2ab0158660d
:10c860003e63fd8a67c116c81d20db273c6794ba6a
:10c87000c499572c8e239e5e59dfc9c812e4608f7d
:10c880004a603bb0253df95b6086ce5f753c7e9289
:10c8900005523655f31986f8b176e944eb0a99f555
:10c8a000844b0870545af20b716a97bae6ec17651c
:10c8b000b901ef40e7837d7ef85d9b11b43fff4ceb
:10c8c0006be7c284e5f04b54f8057988ba56ab7c27
:10c8d0000750e420b2596b161a93232c0266ddcc64
:10c8e000d06f8cbf1d321eaa945d99e8093759b7e5
:10c8f0001a382ac106f695b1ba7480af1cb91dc3a7
:10c900000ab7fcab18bf65442c7b12b0af0f24cd27
:10c91000c7b1a6d649dd3bb779288225ce00f749b5
:10c92000fada7e1d170770f24b7925888411aab5b3
:10c9300040eb19393a0e58c6c339f28916ae840d48
:10c9400070a3191605522dbf0984daa3c9652aa35d
:10c950009363db510f61cc4776336372e49462cd0d
:10c960004ff8d45ae60654f59bed2b1dc8d8a8f90c
:10c9700006fae4ef78b8b446fe179f209fcab34981
:10c98000dd1422785200cc044f60e00293133fccb8
:10c99000a6256fd424678d7635fe0c302e29ee3710
:10c9a000303515445e23679374bfebf983693fec20
:10c9b0003d38b6c625f9f4e061ba080576fea769e8
:10c9c000d06e08330a24be0331bb8ed7fd4e5b7e8a
:10c9d0002ad7447619edde12bfcc45275d446e7c24
:10c9e00020d3084165fd16e74025a3e000c0ad3027
:10c9f00012f7794671477f9596edc4813118660b21
:10ca00007b232b5113fae4445240723f48ccfb0f76
:10ca1000fa9015753431a4c14412c78d06432b9288
:10ca2000ad23dc5c21546da7492602977fd7f254d1
:10ca3000ca74d6cfdb028d39ff23c1d7e4dccbb576
:10ca4000305ec15aeb60ae2310cf9132e9c322fdb4
:10ca500017ea268e21264a3af18332bd7972d7d65b
:10ca60000227ce109eb03ac32ef3bb993049dea602
:10ca70005255c3776c5baa082265192abfcc38824d
:10ca8000c6d9709b48dc1428a940166f8a75944556
:10ca9000fc1d96c77ca66049fbd37178bc746c21e1
:10caa0002f5db5c4efcc66d2d3d12486ea2c415792
:10cab000b64b9d0821920aee14de59a9a0f629541e
:10cac000a42c3894f5e4cfa7681fea76267b9e66ef
:10cad000fc36a04e7a5a6a6aaff5621198b5cb80df
:10cae0002adf489dd3a1aa85a37d48a5f2de893b14
:10caf000ddb80d38f406960129277930fb1074a5ae
:10cb0000debc88f5b1d46f041c8b222daa77862158
:10cb10009dd521026f092a739e5e14cbe968713995
:10cb20002fda2260c4103cab54c8d1578b2c0d5c5b
:10cb3000dc44fdd7026e5400952b69d5cff84ce547
:10cb4000073d443cc5164f4a920b483f9595db8400
:10cb5000d474b1605e48bf6248deb9292049ee8cca
:10cb6000a2871f9dbcbc7dd6268a822ddcf6cc22f6
:10cb7000c81718c43798e1f50924cf774cc26779f4
:10cb80005c9ba374d943d31cf1003ae8c645974394
:10cb900089c05ccf5f95f5c31d490834d90d9e3d12
:10cba00074aebf2caa52b68c9d013d154007bf053f
:10cbb000cdb8fa2a71eddeab5e790da4a240411822
:10cbc000aabb25a10c269aee1b2ee57b3b23e96c24
:10cbd00040c1ab24613ade06084552ed5ad0a1f5ba
:10cbe0009ab43cf1cb206b09451de9f9b81e4ea162
:10cbf00090b5e10a3b2281d53f4f7ee41cc55ef132
:10cc0000815dc51fa11ca2485a85371bd6d1327c35
:10cc100049b64d6f998308cceaf963831d164fda44
:10cc2000e69a7d8da69a15ff26a6c58f309c43a84f
:10cc30002fd6673545a9f5a1856ee10d2068104d09
:10cc400051eaeb6fe03fc047814d0814caa8dcb73a
:10cc5000b7f935eafd4801b54924d62ebeda70cfc2
:10cc6000e4f7b4a08f78cd5e044391b1fb82998d37
:10cc70002f4306a66535c9ee5882d0cec27c3acc89
:10cc800003ee09a98d9025662b7f6f34bafecc7c0c
:10cc90009ada975940b4827cb977d3b3c04af8f492
:10cca00002bf686a4b21c40ca67a0bf6bb55cf4f66
:10ccb0001a00d466d12b640843d8caaa6edbe81fd9
:10ccc000855f2bd3add61456adca4ed34ffc4afd6b
:10ccd000de4b222d62c3cbdb87a15ffd132255ac57
:10cce000125bed8433d4a6702868f07bace04c7afc
:10ccf000a0ac6017eadf3529638b5918fe168e0c3d
:10cd0000374c8a88b078f6f53192703ee6f370e4dd
:10cd1000c9a7dcc3279b2555d1f2dd9fd076855767
:10cd2000c1c7dc768583f611d6ad68a8bc509e3ba2
:10cd30003cc438682b570ed3e694753119ddda916f
:10cd4000aea53b1deb8cade9d7ebbd2389aa80e5f1
:10cd5000b0c837fb7270c6c101c80a8771543d93d1
:10cd6000fdd21a226171975b9bb50a554533033892
:10cd700080dc99ddf5678b1c134ee67251a124ab64
:10cd80003880bdb633beb7d9ea3ac813968446aaee
:10cd9000689c6f48dbd0d469f156366db1983b1f63
:10cda0004a3f35cbbfbc913d280209683d515288ae
:10cdb0002ee5843bf8cd0029f0164b2a8091f69899
:10cdc0002bd2e9a69fddba509ad32fd7497ea9224c
:10cdd000cc31d1f4035135496f2ec2134cf8a5382c
:10cde00048607813f823aa253ec303f1c1b4e4d503
:10cdf000ad7df131e6cb792cf26f5c1a5235977a22
:10ce0000fa97d695bf38424a6dce23bd0d3c4c24cf
:10ce100022574de7b35e69b3b9f9d10f33e1eb1f88
:10ce2000c156795d2d09b02331e71333999739f84d
:10ce300002b661962d7b81e9ab3639d5abc08cb19a
:10ce4000e79f226c596060832d10fc31afc09bbfff
:10ce5000c906587a7963b9f93612032e530a7072eb
:10ce6000c47c744817f3082b17824bd6260f7851d1
:10ce70003d069b52bedca260ea5ac150a955b5e3fb
:10ce800017fb7354dc47752ded0d79ae82c4f22586
:10ce900010d5cba19c1378604ac459c26de8c9a2d1
:10cea000a76d805645b220c84ac4de07d568b8d001
:10ceb0005e65f4c7b467ca81fe866a65ae18621df6
:10cec000d2f30744ce18a86d723bf96bf87cb18998
:10ced00003f49c2d8dadcd8c0ea7d8ecd06b9dd1dd
:10cee000b3cf4e70803f60d0a20058f7c0fbcd5f3b
:10cef000319e67625d451a89840425d3ffcce12702
:10cf000016a1899ea4b8ad321679f05c080163bc05
:10cf100037ad0bab6409a0e58db3f2182cc3fbf160
:10cf200088f2d03085041303e6c65b6e13fe935976
:10cf3000783b99e2890e6fc7815f782eb3a256facb
:10cf4000a79b35b1adaeec13acc7f1ef0b3b28e6b8
:10cf500051a1bf7302afe7555a47e022c2f70ae476
:10cf6000168a2c3f2320afcb0a532b505650b514b2
:10cf7000faed41cf10fb9d63e9dabb998977d8546c
:10cf8000b7fb3031a9ecee31e3823d984586930141
:10cf9000c1e830ffbba6492f27891b97715860afa6
:10cfa00008e508be314d51a48c30337c2d91417b76
:10cfb00052d226a827d2e14f3e5b8b618ea5cf2ea1
:10cfc000eb99435e053ddee03b3669db37abeedfd8
:10cfd00011e952c952e1552152802e9116e1bc63ec
:10cfe000ef099a3e773d5a81febc1672db495ef42a
:10cff000ff64ff65bc41c7b02ad397988fb576e030
:10d00000cbc8881712e1f7252ecdd6c6d421f7411b
:10d01000de743401efff0d19957aea50764d60cc3d
:10d0200005635211b06a4e192d8b5ce63d1737a28d
:10d0300026d52bae2dc60acaca7f34955b331a4952
:10d040001a3294de20e4be406eb14835434189b5c2
:10d0500035337e6656eef9215a77ded39448d5f7fc
:10d060001f1976c0551684cee4a0b00fff595501a4
:10d0700084ff0437a058ceb2933d762845ad233dba
:10d080003632bdeb56e52d8f6c96b8200db8ba94ac
:10d09000ba600d113f47fab29ed0e18a001c40767b
:10d0a0003c7cde84fa0cab261dd4e298cab1b56f85
:10d0b0002ebfc6a16d5a53f87386bea4e29211c169
:10d0c000b24d11617c8b4036420c7e80f0d8ca1a7a
:10d0d000bec3c369548142e12de64e5f173a8726ed
:10d0e000b28b2b0e83f369285f7f0df82fe41e426d
:10d0f000041512a11969506149beeebf3374b6819f
:10d10000bf25f42663b55140c2ae004012573e28f9
:10d11000a6330c3a0fc1478bff180e25a41bf777d7
:10d1200032291b0f619e8198cb3fd4de9bfd50615d
:10d130009c3e84fd8c286f00e40e1ede7a88e0d4cd
:10d140001d4e78753ebcdaa4842ed1f953dbad2692
:10d15000fa9b383cf6ade335564a4d0cc286089d25
:10d160000490b4f9dc2bd4fe7766f570e991d4cb4a
:10d1700019d7e297af3eac2974c3c223c39f9dd594
:10d1800010e7378f76202c88a73f8fd54d99cc9606
:10d190000f445e0ed0a769c1d0e1d5e6d7fd9cb0a3
:10d1a00067ba7916927cb9611e9ae262b60d339c19
:10d1b000a8e0e6e1ce598c47ab171bbb7dee4109d9
:10d1c0006116af13e101295f504e76bd9ac3ba5183
:10d1d0005a238e8e12dac65325886a04e95b24a787
:10d1e0008e0ad212d068088619ad1a28b24e2d20a8
:10d1f0000143ac68c54aaeba1135cf7b2a3e8f4990
:10d200008f7df48cb73e886ec5f0075810143272cb
:10d2100044825df986784dd4ed70f6684de919cffa
:10d22000725fa0c1b681fbca9447acd43fb21575fa
:10d23000351df16a26afceb83f19653831443354f5
:10d24000245a3a690c5794ec7adf14366dc82b14c3
:10d2500079060df918e08435941301a597f6edb021
:10d260002525259b92459b17395a09e0d40badc162
:10d2700001818dd63bb04ed8628ec9828b12b389a4
:10d28000a1205552dd8c0a511827af16dd3ec8701b
:10d29000b40984152a0263a71b9da0ee1187dedb6b
:10d2a000b99be491a4556e7c6c7ff09ff6fcb7654a
:10d2b0001f4bfa722ffa88073b2fe840897c37868c
:10d2c00080c0d7c15840b57c2833cb52160d6f7e35
:10d2d000159288f13c77d20767adebe2049491e9af
:10d2e000a17529d77734bc2efbbf51fdaf3f1b4141
:10d2f0004d37c88ec0470583d9324780770186f6ff
:10d30000b8f7ad3f187113f04e9796ba817d70a5ae
:10d3100041af0c5526ba201be7bf9b226dcbc9c479
:10d3200000f44d5934093da4fb89e3f010f67f3435
:10d33000202468c964b7ed97c6ad5484b2c43d4f8c
:10d340005d20ae5e42c7d84a71de846857584d4ea4
:10d350002b6584e0776216cde8a39d403b0144cb6a
:10d3600093442551325bf2db1be851e27a1115de62
:10d37000f12bc4d0a60793690265144c7f22b41721
:10d3800060115941a3f09f4d869f38ef0be52fdccc
:10d390005419e5effb2fb5834f8694ce33f19fb838
:10d3a000e40f3858a8a6e79abaaed352c971ca3e5c
:10d3b000247799ce133d5bf3523724f67e31244710
:10d3c0002d6b825a332276cc60576ecdf2c6abac51
:10d3d00012446aac8530339a6f79d68dc7392d44a3
:10d3e000b1e445bffea262a6a089e18ab3e23c5c3b
:10d3f0002547baee2c63394cc3c8c5b2bc68e57b7f
:10d40000e9566850b10019a2283a79f405844aa077
:10d410008b2b0bbb5eddc33f80fa8e4b011dd363ac
:10d4200022b440104ca7c460e2447f102f0b92231b
:10d43000a02701a4d72a99d2830df878193bcff100
:10d44000595dd4f248b220ca63a5d6b2584b0c47f6
:10d45000d645c707a44e502f3a8e7ab6df3c35fc2e
:10d46000fa9283ce7bf09c63770255eccc64b7765e
:10d47000a33d1bafb50dd94e0132dedc183dc118fe
:10d4800016d80d970f34bcf45f5074864e11830884
:10d4900066c8f294d956f1693e3d49157c3a952902
:10d4a00020bc5199e2c218451c82e79c0cb2e77976
:10d4b00092a7a0d710ed984263045eb1e6c1be8882
:10d4c0003bf6eedce14746fb124ac90e6d9647cfac
:10d4d0007c199efb954b93bfc710eb26bb3204bd56
:10d4e0001b48eee7317cb98a8a0e24e3cfb37df581
:10d4f0004f45af75921c0cd8990a3ed31410a9124f
:10d500002aa25b6da80142850f998bf6a6f1331f05
:10d510005d097226d81194943ed0cdc5ffd3e61b89
:10d52000171b79d33b267b349c3788e2975f962b79
:10d53000a061dd1b507a1ae0196751ad4b9096fc43
:10d5400066cfbe23aa3764d5a13d1c26ca66430216
:10d55000f5971ba51d4eb1621e959bb495de02aae0
:10d560005bac9397445e5462da70042315f34e6902
:10d5700024af3197b11c203b2fe5cb992c5b4c930a
:10d580005eb688af7ea356240185952af4f9a223be
:10d59000df17bf29080a5ad6f26776846230245210
:10d5a00049d25822a9a1838c91e5ce10dd2b5fb51d
:10d5b0002e27da844239cd9705885fd52f6747b784
:10d5c0002476e3a4f0c9385362d3c61f9d362247a0
:10d5d0002691386891a85add174810c01d4c5f533a
:10d5e00084d9e183c108057931c9a130c55a2070b9
:10d5f0001ce8fef6a4b1ddf21cd4a4223eee9b95fd
:10d60000deeda4767167199bd61dbf72d4c4729edd
:10d61000efaad6c8df43192a0d77a42f03e2732a95
:10d62000138942883e16e305013003190a404a79fe
:10d63000fc6a59213aca5e199502826fa292361687
:10d640008a8bced54ce225e348943c15a917761376
:10d65000c9ebb6e7198aa0b35293f380586aa722a0
:10d6600017f4fef4835472f517bc8843dc4f9ad646
:10d6700006dd2d463d57cf216df34f3f7cd76b150f
:10d68000e45797b437298ba8a088d5d5e29af7ca72
:10d69000beb5f0d902e2803ade3262cbecc857ce9a
:10d6a000de6d778a394969bc25d80dc322c14fe7a1
:10d6b0007a5a8a2919839624d4821a3c30255b0f22
:10d6c0004cf4ab0104e9edbec1008db227582d1e0c
:10d6d000eb72fe6462473d2f90a22996a8199aa189
:10d6e00096a0ec35ff2acb43b04d1aeb1c8e9f68f9
:10d6f00027e6c4f89e3708398f6b95cc94fe5718ef
:10d70000358ec67fa1233a75f1095c76d0c4d7194e
:10d71000d1aa31522bcbd3eacfa8812832ce3c0af2
:10d72000fdcf8f79933e3e23ce5da8ee585159b57b
:10d730001c8a6dd1fdeb6981db2146f211c4a4285e
:10d7400089e03bd9b6dfc2d9f142feb038e2bc571e
:10d75000e5a45c63144a6b3a2e4b07aebad8d1f6f7
:10d76000f78cf299698d34fba52071f162df80bce2
:10d77000d4674a557c8913504b788fe386f6f63789
:10d780004091da440acf873115c68cb95087247688
:10d7900040ba74f29a388dbcbc3b488a2f34ffcc17
:10d7a0002e2940085e7d0ae765f17ed25778e9d7d9
:10d7b0005856698d661868509f10cf0bc2a3927897
:10d7c000451c73169ded58e36d863a790833182988
:10d7d00090b5e50dba9dfe830a277e5e3ace942a67
:10d7e0007ab563d9094c9bb742ed9e8b2664992b81
:10d7f000d43e063a3720b006102492d407d92cec38
:10d800000fc1b4bdf05abffbf819abdeea5b057e71
:10d8100059c937f640706a03662db7fd5f4b82a584
:10d82000daf8cf80da258271f5d7356dc9f10a941f
:10d830001fce58c20e6f1a6987bf257e399a23e121
:10d84000426bd522d66d75683b2fbc823eda508183
:10d8500004b35cceb31c4ddddab39bbfe0c1a3982b
:10d86000b47dea364e4a30f8b1fa00cb4d1f814ef6
:10d87000dd50ec2537bdb73d5c9647de254af852b2
:10d880007ef9fad9afec09203334a6b04e83119952
:10d89000579de10ec781048b7340e32a3b0e8dca6e
:10d8a000737e725c384028e1662d6b54982b0d090d
:10d8b000bc6074592c1a9a9962f0ea3afd0c6e50c9
:10d8c0005da9d2cb4784973ef16861645572fffd34
:10d8d00038e4b31ebc2442724e6c24427feef187c2
:10d8e0006891c2c6a2848ec01c60f14c2f65a1371e
:10d8f0005726c08f4ea55f8a1b385bf914974441a9
:10d900002852431f09c79483858de6680766cc7e3d
:10d91000901b2dfa59225f31f403c0d5dca0955835
:10d92000fc04ecf7ce5a562161b16a07513c034121
:10d9300092da9747dcb4a08b5c3da075b354f72313
:10d94000cc278c2dfc9e63c5a4ac06f7a698d815f1
:10d95000d296430dd8dd368aa70c2c3d2f7234aefb
:10d9600004d737a00fd8ae210b51f90831a98bcfbe
:10d97000db258a4c66ce200cfc9818d8bcbe6fb450
:10d980006487213d1f4257aae73c0cc1110bc41903
:10d99000b14da4e142f0151bc7def1ba1e841fdcb5
:10d9a00088d67ad7efdb08eb27fb45a69eec1266fc
:10d9b000237dc8f9d501583d20b3115903db44c973
:10d9c0007751cf4051cfa720922a8fd9f0040f79f9
:10d9d0003feb190823d0d11f2f4ba911d581e87334
:10d9e000917e0eadd60af6c50484bc4bf13f47f0dc
:10d9f000b60f6a6136b159080b56b2cb10aa648fc4
:10da000056571456c72cb04bd472a063dc08f93fac
:10da1000804e22628ac094af004e441f45ec8bf2c8
:10da2000892df5d43e9a91d8bbb0ae6a97b80d183f
:10da30001e836c241dc51b962b0618e2b068e8a354
:10da40009705621691cd178da49e3a7c83fb569d57
:10da500056d798153c6485d02132422e93561dbe70
:10da6000f79fae85aca8456e2fc407d6f59d54e44c
:10da7000a94b0d03317a62bd2f843884b0bb2005d9
:10da8000a7c7a523ad48348b3fcfd0ded7d81a0b1c
:10da90007486f1acb8a32f9d14d7b939c053ac0329
:10daa000ffce1c6828f795d7c70b34c0ed249182b0
:10dab0009938009ebbfa42a05d9a6dc5c86880fc8b
:10dac000c4c00f37c5b004169ffebd101a141a6be0
:10dad000b1374a3b7a559fcb9e91444044f34b90db
:10dae000b6beef211b3aeb5eccaa15246a6de209a3
:10daf00028244b97214a838c5a19a5783c9d9f6115
:10db00008652d9474aade2d936c432bba5e48b4c24
:10db10005c2327ba42f23d7cd77f2ca135025963a2
:10db20008114cce12baecb246f61fc584c0d9b8d46
:10db30000fe556fb5c7195c2d3fadc0597b87b7292
:10db4000c74f86fc414c16fa27ddc485ca491e9191
:10db500076171746a54ce791e1e48a2497eafed7a9
:10db600059f3eff73ec3c5566ed5f111a013d56c2e
:10db700076647c27a38ae56ab6f4f19c19b0e98c37
:10db80003cb237e18c6a2df7b77668a2607e8b7164
:10db90005fc91790d79d1166e60a740ed7f206b4d6
:10dba0001668bed0acc4d05b1447a3e180bb48aac2
:10dbb0000eb3e65429b39b938cffbd3a70e3071d67
:10dbc000271ad2122125502e047f44704e4bc2b624
:10dbd00099d7b024e24f02f0dd2c257f7a88a07e11
:10dbe00011166fd970e97e2014384a80ead936942c
:10dbf000f310a35b6d3a341a4b786538ff3c3287db
:10dc0000832dbb269dd9b5a41a890a6f97f4c2fb50
:10dc10000c628868e38f4f9fedbfe629f16d90633a
:10dc200031ebc6e025ddcd58d09de7bb4eb0e0cf4f
:10dc3000d95e05b8da721510e410cded0a20f3753f
:10dc4000b0104864c6caffaeaf893e0a2064fbdc50
:10dc5000e856ba64c2012d2d15ab1018e76112df2a
:10dc6000f160c1c44f4ce7fb8c6518ccd9149ab253
:10dc7000ba07022548392aae77e8a416839b31c635
:10dc8000f4c2605ff2464541b87faadf83f2b51166
:10dc900011f5d5d3f8bae891d5c4f26f5ef482429b
:10dca00005565d1c5b1570598828189c89299b3b7b
:10dcb0009312e0adf5fa610a782119464b78f51a0e
:10dcc000b8d05e5ace25b8c4c88c08bafd391a9ea1
:10dcd00025a8b884587ee76fbc3bad059e36b2835d
:10dce000d774bac6125b80c4f0b7fee77d4cc8eead
:10dcf00077be72c0bce92713acb7f8079927d9cf14
:10dd00007d2866e068069b9628b3a3239e9a820d21
:10dd1000f13539908b5e2ab50933450e5d82564147
:10dd2000b2bab4e8270a60e87da486dd90ba26e19d
:10dd300085b1471b51b6e678ad6e5840d5252ffc0e
:10dd400000c57a1d67fbbcbfadf1a196ede6eb1bec
:10dd5000856695fffb5e584411323ffe7c8bf97a55
:10dd600054bd3f6e7a09cb8ce22a502e0d8ffda751
:10dd700057c87fbd1eb9c4e7ee104dbd8c3ffacd2c
:10dd800000c1c7af9412b306100dcf0c92f4d66346
:10dd9000920a25784a5b428f3ea2356a3d177b9de9
:10dda0007e5135a89ed4fa412580663076a6d0a44f
:10ddb000e2d1b1ea166e2d94fd60e1acd687e4acf9
:10ddc000d2abdee053c834bca606fa966efc6a39c4
:10ddd0006dc2829143c36d84a893450c6eb4b87034
:10dde00039a0f5c1a7bde37f6653259c940408cafa
:10ddf000ac1ca6aecf733b9a2a31eb12875f9566b7
:10de00007bf67abdb1788911237700c8a1343bfa3b
:10de10005c91fc7b3b0677c86c58005ea1c18640d4
:10de2000f282d342a23935731e74307378632a1e8e
:10de3000d1c4489fdb48980acc3be9e78e9589b965
:10de400055883c2f69d7ec37e12d20132f17a57c7f
:10de5000bb6d7d7d9be0c8303726e81d0945a59642
:10de6000267c347e12ebc6e3e5926673e5312f79aa
:10de70009b78f792bf8cf80f1eec9ef2f2e05034c4
:10de80004c5e58697ec887d3e2aaae3bc247a5c2a2
:10de900077f137210b82a8737be5f997e469f8c421
:10dea00036b74c0b06062893563bfe978291a3ddae
:10deb000d7280168482dc43ec566f63fbe32c88fdc
:10dec0003954b6d1e4b563430c878fda93e70abac5
:10ded000adcd42674c92ad203a0bb6cfc15ebed3fa
:10dee000938eb5d315917892aafbabb650d342600e
:10def0005076a296e48373d2b834a9c41af291daa8
:10df0000c4ddc0eba761a7a8711ce58733de37a18c
:10df1000a27242a0bac90c1dac5a86f71d03a339e0
:10df2000e83bfe0504d43e89d1baf6c417a91fe622
:10df30003cd3360e4ff7ba558b954235784bc42cef
:10df4000277b105719d6f4909e997e997a95b31f26
:10df500045280306a1a68838b29ab3a48c8d6cdd3f
:10df600057c1d2ee10b105e727a6f8c489c2ac2c80
:10df7000a8fc96d239be6ef9713d9556bb50b10fd3
:10df800050bf438b5bcced9c614fd7c0664dfa7898
:10df90005c2289ae5835d1b2c577df491da62f392d
:10dfa000f24aed35dc6d52bf516ff61564fd079cea
:10dfb00089a6891e2e7dc636dd5a43b512571eb876
:10dfc000426622c136fce6c387071bea3e3a864119
:10dfd0001078c63bfbf41031a38829a0492cdafb4a
:10dfe000512f293be34ae2dddce434df1da15f254c
:10dff000f2812388e3c8c55e210359262e2d5ed405
:10e00000c561986298c12e6272ce89ca3ebd77eb17
:10e010002cf83c96ee3a46d9a623ba77883add0129
:10e020007e013a98d74197ca26fc386dc09c155698
:10e030009d15c44068cf70110cf4c57bbf78d8c75c
:10e04000c7bdeffbaf379730248b97414e5d65ea34
:10e050005525e228afe0ed30c073cae6050a76fe2a
:10e06000aa61993193f820703dc03ac14cfb5edc47
:10e070004e906e82ea27c4e879d35410ee3a9a3271
:10e080006b4ac8fe10db17ec90dbf8375a1e7da0f8
:10e09000b2851e22966bb7f2193c62137807c74c03
:10e0a000148873dd2b4ebee718b24a8bd85e4567e5
:10e0b00067e56fabcd08fa1c3a365309ace71f038e
:10e0c000a532b681b8eda124d8c11a19e7bcddcbc1
:10e0d000f0e6ed6ed8645c74e9df6b144652accdab
:10e0e000b1db5e5655ffb92816ab06f4c6b60585fa
:10e0f000320cabea4bdbfb15479634ffd0080c42e1
:10e10000cb9a2c394c09217cd8d888f5e33bb34510
:10e1100089a9dab908356f09dc6ffa74a662ea4d8d
:10e120002c798243a537beada7126816327626e950
:10e13000de166e45998109c38e7c8753ba8b89247c
:10e14000c3ccbc2c0915383e74e9abe476f52771d5
:10e150002c69a4a108a380b9a7ca5da3d9787d2d95
:10e16000ad98b9fb86f82cae05bd179c8e047e8455
:10e17000e221cfac1ffd04a1bee6b83d2964ed3716
:10e180007b27e72bda596ab9eef37aaccf0ca84ab1
:10e19000342c9364a946e33b0e25025e37dbf5077a
:10e1a000c904855cc42b01c68e57ab0e312cd9db5c
:10e1b000bc66844ea6b976231eb654aee5ed4e2756
:10e1c000d64061d2689bfdd144eb8b354f6023ee86
:10e1d0004a2355314fd93d52d35560604647fc9193
:10e1e000a5266ce73a46ceb02bd4329ca136ebc1c3
:10e1f00067f0cb938d47e719eed3ab705dce23ff6d
:10e200008b4b08ea3d1b7e50410c8c56b3d4e04c3e
:10e21000bd75c59361614395892947e50638317617
:10e22000538d4101092f878fe2c8ed882a790eb9f5
:10e23000543ccbc9e2719aca3d053e14adf01be3d4
:10e240008fdb58b7dd9a931ab5dc3d55deffddaba9
:10e2500098baa907beb2b08721cc66b25dc717e4f1
:10e260001563671b325e72beade9729db319f53c52
:10e27000b7287fe94d2020f87057c953a04a6bf7a3
:10e280001054d252e5dd1e37f9765ab105c74be777
:10e29000602b3850ee8ed23a6fd970bf267c115069
:10e2a0006b56f2ff175236d4b8749d85d51e1b7875
:10e2b0008c5a1ce938faf810156923da4057d0fd5a
:10e2c0001e299cf1d999a1a6f54967a53a6c1c03b2
:10e2d000b1d637e42544de90a653dc6039bda6876d
:10e2e000e40e8de0d9f2e86e66376cba0b540b5d24
:10e2f00083bcb42214ecf912426ee1661427356136
:10e30000dff3c711987f5ab2397dd16458ff33c00b
:10e310005f90a4c97d036f07c81cef7be74a7e822c
:10e32000055c540c6024baa7e1a40387b9e9027e16
:10e330001031a343ce97bc206be992cc168a8f2470
:10e34000d1b442c3ae0c007d46e5086593eff9be3b
:10e35000b3d11188c4bec2ef77b24ef6de9d1b4723
:10e36000fa684f10a27a525ed98626c83344055bfc
:10e3700024289e613087567087e8794bf56f7f932c
:10e380002ba0c57e098054bf111684dafdfcfef96e
:10e390008d8cd4a52e85cabc28d7db3d93d8080b1d
:10e3a000b8913038cf90855fc0467efba01347956b
:10e3b0008aa89542ca72ad48021c5c4d702ceb3e97
:10e3c00060082ca8bfc5b570ee9c1f0bb9b7bb1b6e
:10e3d0004c148617a378045802160153df5e356c7f
:10e3e0007dc027261942bb997299c4ec2096d1b5fd
:10e3f0006a76e01fef8432e326825af4a9189ebaa7
:10e40000d5395349c8296579eb1d1d86b9d4ec026d
:10e41000adaa6b8e13efcc48ce48dfcaf8c9a6c6aa
:10e42000813546664908fb9b44638256cb7d408616
:10e43000f27c4769636da7975247e2ff5aa404ef45
:10e44000130e0c624dd643e774bd0373416514fd92
:10e4500041176882dccb00f77feb07ca78c0e3285e
:10e460009438a6d6ca903fecbe1c86d82788330bba
:10e470009c8375ffabdef54bcfd9cbbc36a41e50c9
:10e48000bddf889d451bff87664cfa30d808c6cf94
:10e49000d88705a853dba30b77492093a74e2e7886
:10e4a00090be54e44056ce54c3f75a23e80603f214
:10e4b0007ed2c230d96c96a58fed2f0a176882dd07
:10e4c0003a6ffa61f4d35ed04d465c1c98e2fbdaf9
:10e4d000e7708723704e8cf8da39cb9823230d0030
:10e4e0007ec9e5f16e834ac8bc200720a4bc68b58c
:10e4f0004b946a50881a0be2740163b4c597ba77db
:10e5000046f0f81d285831530974efc08842d19164
:10e5100015a4f3412044136f6cfc8313a3b33c098f
:10e5200089846f8c094c4acff99e35b7dd951cb0b4
:10e530008486151b3bc464a9d998f6e1b554ce7ff7
:10e54000a8d42b692c4bb6e8e158a262358c82d74f
:10e550008098beb2178f01742f067b98a00284affb
:10e5600061337d6d2264dcca4175731af44feeeda0
:10e57000b0d6c0653c04774f5afaa3bab22c14b295
:10e58000ad479626c7b86da6e9e6053338f432a83c
:10e59000e57f6ebf97b04371d0888ec44f06a1ba95
:10e5a000cea38ebeac2b12cd5926bc799c824d06d3
:10e5b000bd87302c4abf6267f4c514c782c1fb2bec
:10e5c00016723adce2779ed456c30a4b324251fdb2
:10e5d000caa010aae1201f82e6834fe90d2363023f
:10e5e000046f7a9bc975b1fcf8fee8e38a0337151e
:10e5f00010efa22bb2adf1380b478b2343702fd80d
:10e60000ac8c5709c9923c90a7ab35870cef6d4194
:10e6100071f313fa6483a8e43fe7cbb17c2bdaeb08
:10e620008e80fb0c9d5001d6e72f369aaf6dea41e4
:10e6300086415e6cfba72cc8288c98c207ed7881b8
:10e64000f70cc2eced507ee883c63539f46dcdabe6
:10e650001f17808fd8a568f2749bb52a03265e5fca
:10e6600013b249107eb3773f08054dc78a3321782e
:10e6700091423f5053e8f2e0119ad9b484c74f5aff
:10e6800016821f30fe9558eb894c467b70a26b9e1c
:10e69000d1edabd3f90adfc61971b1e5e49ab6c082
:10e6a0003ac65a146843252376dc1b4f74fabd4ed4
:10e6b000888af542982da669963466b945d96ba724
:10e6c0000235fc70bcd978ae0ba6248d2d06e03740
:10e6d00026f2a1f3174189f7ba2f3df17184bd5e8f
:10e6e0007553271e455b0011fe846180947b5cc8d6
:10e6f0004e4caf2ce48638f5f5d6ded18fd2ea80c9
:10e700002f29aa83f51fd5424be443ec5df8d27361
:10e71000253248314c7092bf21ae85efab58abf635
:10e720008ebde2111e276f05e91366f12470e99191
:10e73000e58cae9ffee3dedf9e191c5e0525af1063
:10e7400007d3c7e8962b4042036d813948829f3832
:10e750008a510a550d256c8d1cf3fedce18172e6b1
:10e76000892baf05b33a18519a6cbdb9cf2b5db167
:10e77000256567fb85d797b9618c36c235391f157a
:10e780000d36ee32d1e20c26a0e4efabb81bd9cea9
:10e79000de4aae9b0ab343e065575d21b7fd5acd13
:10e7a000e92ef77c1f9439e90c0081a37c29ea97b4
:10e7b0008dadd3a1b3c7a8bda480e2625cb36cb237
:10e7c000b257addab00ee2254e2c8aac628b54ae55
:10e7d00079abf4088a7648fdc89cc50bcb7e31d452
:10e7e0009965d1bac977e011ccd1c5093135c64494
:10e7f000844deb949386c128df6e24c39f47f608af
:10e800008d2d6ca8c727d7ab51a5fc6eb8734c7b78
:10e81000830b2f0abe252636987eaa78ede6527223
:10e820002513a7c2bc7ef9678cd89d3c9e02584830
:10e83000fcff585cb1155ac70f80a6ae662f24e3c3
:10e8400038ca10062d1f05ead6e633733b63a6daf5
:10e85000c8edbe1e69d9f3453d337cababad9631f7
:10e86000f40bdd5c4536790e18d1a76226a4b5ed10
:10e870000a840e2e8b1de1b6c41da5391a336a41d8
:10e88000726294248072630ed539692527fab674b2
:10e8900095765ea40fd079f1c896f2b854db1a5978
:10e8a00075dbcf940469a51e737ef6ed6535e63af7
:10e8b0009b252d9f57a081806cf60065f9eb825a4d
:10e8c000729e9a38e83bcbc2c73667a2e3ca5e564f
:10e8d0005e8e414a55e9e1248442d6f30ef6c1ba70
:10e8e000adb16dc33b900367a7747c26437d48dac6
:10e8f000448df715dd370ddfffaf102ef3c1ce19b4
:10e900008c7ecf12815b731f3c7984aa4f9fbcb66b
:10e9100094f3d709d6491eb0da7216319c4e3926c7
:10e9200071998c080928d145e62833e5998d1dfc9d
:10e93000be25d50dade3e5f4f0e2e8b19be59e0b15
:10e94000cf5df598433f443da57d30accd6e2faef5
:10e9500038eb9f4368a1a706e77a5eb36e7629a8d5
:10e9600090264f33f0f772c6fa5c3f606212159e34
:10e97000281be385b8556fc7ea695cfcd066277c25
:10e98000b3a1fd5b5e83c1319f6772cc094866af5e
:10e99000a5eeb1ac260548f4f774cea0cbe650ee58
:10e9a0008675a3eddec2e639043dac6e9ad9965d5c
:10e9b00019babeba5cf0252b38d5cfb07caf7844fd
:10e9c000b85f27e4678ddb996a19bc1db10c89d843
:10e9d000b905dff62487dddc5c8d122314d15b6c76
:10e9e000e78f73208159b0beeb380750e157705460
:10e9f000662a809df198ed3989f85496827b2fab79
:10ea0000e9a14924cda451b69a55b61bfab3ac5727
:10ea1000b324374979e4e06d2016794f9578a52322
:10ea20004ba404548fc2474ec7a47b15f70c21ecae
:10ea30000c990f9b37a653ecf42418b131021de357
:10ea40001cfd96818d688d9ae2706c428822768ad0
:10ea5000a333b059a3c5a256f0b7f0e14779bfb8c8
:10ea6000377084ed8dd5058428e35a5f1ab4a0b7ba
:10ea70001025d821b4803ad9049b8392ee923fc8e6
:10ea80004bebdc25c68b6031d68ec6fac4ac4597fd
:10ea9000c71fa63bf159d2c721bf36abe8442be7cd
:10eaa000f083837001b2598f44d3c8b122ed78d07e
:10eab000a610a3e488ed941852c1b576f45e603eca
:10eac000cb022be8caa32ccb3151dd60cdbe6b8dc0
:10ead0007943574e61ae06bd6c0d153b5688c5fc9b
:10eae000165165ac99b74ba30e3116953441ca5ceb
:10eaf000f6ca813530ee626aa32af6d60258ec2bac
:10eb0000892137ff6c17270a2f09b38982340847f8
:10eb1000defc6a3cd87b2c0ae95f9b9cec7794acca
:10eb2000a8588d3de5986a6c8fad75cd4430a451e1
:10eb3000858f36d1dbb1cfed9de15b8a66eaade131
:10eb4000dd31daa57eba68de3117b5cc0541723dfc
:10eb5000f021f45003f1d7527362a58ccd4939519d
:10eb600019a642ca0f6087dcaac16532a23e1bf615
:10eb7000be2369f571820623841ffd4a91fc7b83c5
:10eb80003e14a68498e5e3fb66077f287243709dd8
:10eb9000a2392424a76f3c3ed9585e942244745a6b
:10eba00087f97fd011cb226d15632f9fd9f11d1ce2
:10ebb00019939b22ef57320e56432a70875d785483
:10ebc0007b1ca9f397cf34a47a4db92c5343fed9bb
:10ebd0009824f46279dd4c301e26074ae9f8d452b5
:10ebe000642e376def031201688d970a7ff183fe63
:10ebf00026c75c6dc0ffbaf3dc8f5c3662876d9b05
:10ec00009979a715f1294321a9a0bb89a842941895
:10ec1000c0205a2a86e5be48b20fbb28301d337b80
:10ec2000d0e54f3100cd5268d1fd80c54a6760fa0a
:10ec30001f8ba46138cf28e0256e24a2d947fcb1f0
:10ec4000e4a8313dd0004cf37d6c2d10c9c762188b
:10ec500010100ea9270194a84096b13eb1d92f8873
:10ec60001378370cc8f8dc95c81276c1e9f2a29384
:10ec700032789816ca66919fd7539b4ad2135f7c0d
:10ec8000168f2b9765225ded13f41c6145847bff85
:10ec9000849b6789213b212ade75d9a324b7eb5fca
:10eca000beba5d268cc0764a93b1e299636296251e
:10ecb000647d081037079d67abba7d19082cd042d8
:10ecc0003b28137068d0e771a261345d4e313e3944
:10ecd000fe3455eec14bd063079567afcd528d7da5
:10ece000a593cfdf423a151ae35cf6d3e103b21adb
:10ecf000065dc527b951f6cf938ebf1e23a3cca4c2
:10ed0000d9927e4cf27a35b6e95a89b1dc948023e7
:10ed1000cc056139e8807f115ff1026b03ca23875c
:10ed2000b09c7780b3685009b22f59ce20f7e639ee
:10ed300076c7cb2e97891350d1c5936d4ab81eee76
:10ed4000a25583610a9bae4916f5d625b90522f472
:10ed500094e7372394ac1a15199221b67be3d98234
:10ed6000124944a429c98f3ad46ec80c322e70645b
:10ed7000d3491617b33590e3014f6a24e918be3e14
:10ed80001d2ebf5fea535e456421221fe21065f02d
:10ed90004057fa24473f06c3b9733b4ef6ea0ae8e8
:10eda000aa9b54306e8c9d7c971e5f65edf0bce491
:10edb000b5ae182108a814b0796405964583fed82d
:10edc0009de8564f4ae996c1cadac2645ad935530a
:10edd0002941cf76d8a5db89962a889ee8db19db06
:10ede000def2d74815747e5d389218c1fef6ee8bc0
:10edf00018fcd1f95febd1ecb0ce15f3170a46df62
:10ee00000065da506a4b9235824d111d400ab702f7
:10ee1000cbe31964486fd9149f899e081da1f6267b
:10ee2000a6b0776f9db682f09f7fdbc1fb311d7668
:10ee3000981f753ad26ee9642b0844f55f70cf04d1
:10ee4000b37b3af37e9f5ca5819c9d14b97990ffba
:10ee50003fcbb6b3bc91aeb339e00df7b89cc8e078
:10ee6000e656ec54184ada8f49e56760bd9096c0c3
:10ee7000aaaf0c5ea4f0808ff17dfadb21487065ab
:10ee80005c2767b7f34dd52eb9ec61093bc15a74c5
:10ee9000f4fae2d4ee9d9c3b2ae90f35215db0b136
:10eea00043efed89a836c93bb8f254a70d04cfcf84
:10eeb00002e770d8a8d62d0668097db719076c1a25
:10eec00099d7d99a35a24f00219c51d2a790ecfb3b
:10eed0005ef03fe5a11d6bc332b2e5ee131a6fbec3
:10eee0006949875077710e6c4450223467d305838b
:10eef0001eaf69fb46ce6b6b3c41a22199364a0f8f
:10ef00004cbf598ffb00161a5f4e5078dd5159faed
:10ef100055ac0f68f8a891e472f87a184577d9cb08
:10ef2000301fb43169e527c90011c5921ebf580bc7
:10ef300042d522206952c9517a01bc78e971167410
:10ef400033793a5013c1ee9eeee34f4d38ed47ec66
:10ef5000d5cb040cc5b5dd974a71c0da1e966db1ec
:10ef6000067733d67bd59eeedb3568014bdd990203
:10ef7000cd58c64a0c960ed6eaf102d62a770598e5
:10ef8000f848118fe0fbabf9f8b1f66f3317b99180
:10ef90005b729226c995d3884a62d09a1ef553a611
:10efa0009e242069681a64dd27e51e85ea0439e39a
:10efb0009718b801befba21844e844b82a78e1ae1d
:10efc0004ed7b603a1f7fb03386dc7f7c43a53d445
:10efd0008d4e86895fa2b897ecd7f266adfc0a2108
:10efe0006422ce97e5bd9a0cb4d13410b23367cd0c
:10eff000e5d51077dac189f094733f110f0922a388
:10f0000009846a77fc47b11dc12b9a0b2daec42031
:10f01000d10de4833edfcbd68334477f42f1b3e7a3
:10f02000496de4424eb7cd53f57e37d074d9d74af7
:10f03000048eaae2a342905b236d2172d4ba43fef0
:10f040006bfb3029cd4f28e105c89c1b0c560c17d3
:10f05000475bc71264b05f2a21eeade652c1792446
:10f06000b095b6f6ba229d2d7e8eeafa91a0f6eb07
:10f07000041e4ba2a5c4b46b1e727959dd8b035bd1
:10f0800077c19d37e1fe8fe38993ca1e1076c68053
:10f09000c3db9cafe3f0a7cfcdc9bb73c90fc5fbe2
:10f0a00060534451364b79b57529f55074084adfe1
:10f0b000eb94b3d2bae73b4fb9816a6fe292ff9efd
:10f0c0001923c83d05d299f9404989d087e192f0ca
:10f0d000b3f085f97c4738cbee0b3c891295d2f220
:10f0e0006436f57a1f44ebe96144122303fe7a3e4d
:10f0f000da1d3c93a4ddb09b3ce2b6975d864a7076
:10f10000fc7cfba6380588c41694d6aefe5b8fcd7a
:10f11000cb2044ddb6be3cf89d223fa5469cd3af34
:10f120001b627d1596c0a9b76cdabd3b4a242084ca
:10f13000734fd49c8633b288e58b1e7c5ef5f0ff5e
:10f14000cc639a0b54fcdc9787a729087065fdf8ff
:10f15000d6cd65d84fd8d904776ad5b416aac1c020
:10f16000285a03861b34f71a25feec42b0ca77d121
:10f170005a326e816889c71dc18ea213954269ea11
:10f180004e7ae85ceb4776accdf7bbc2a68fc527bd
:10f1900006678aacda35c9c3caf483e57e4fe388d3
:10f1a00051793e2016df0657f09818bec35f738072
:10f1b000b78d8a0344f007c68b63f83203566f8914
:10f1c00070bd64e118d33c0828d335bc3c6fcd4bef
:10f1d0004b67573da14b5285134448f631a9dc19c2
:10f1e00031e2f95f5ac5ba67bce7832f2840fde1d9
:10f1f00027ec4c55cc5166fa772d672f6e0fca0f4e
:10f200003bc9ed48966c09a2b8ae7bc9c90f18f886
:10f21000e2d1c37add31bce7ec3185b0d27b685cea
:10f22000b1b87764fa35ce1617b0d5c41c3294370e
:10f23000658bed061e24861ce1ff63f17c4d41e9e0
:10f2400058026a310935592b7205c741c073aa1497
:10f2500076ce9f205e32ad2aef1254d6c6c82ba0c0
:10f260003694bec7b3e21fa662a25e483cc4a58c1a
:10f27000d97d52d02664307161cca0aea568a8edce
:10f28000c3ec7778f0cff0d42d99d36ac540eb8bdf
:10f29000df4b0c4d1cd6673e033d6541c19d308b55
:10f2a000e72859ee9cbbb130dbf9412ce5328a7777
:10f2b0006b8b266d0fbf3f41a30e20e121a1422e93
:10f2c000871ef1cbbb267c06f4e79c5e6d6a132a91
:10f2d000bbd7602e1eab9d7d28d548f57de57da171
:10f2e00088bf0203803d7ab654dbd87b1dc072aa6a
:10f2f000cc944de4f29c95eb333b1230c39b815d83
:10f30000a99e75e87f28cb12d4df0cf4301499d273
:10f31000f02d77e59486f033ac4315654b439b1c89
:10f32000b507cc15ec3ea2f6042d82e0bf3f43cfdb
:10f33000be2fda3303168baf4227922e8472270f2b
:10f34000e1136bcb4a4ec638a9673068749d0fad88
:10f35000fc6779deefbf98861c37072b63a2dae9da
:10f3600014af0af141de9efd84ff2c3728afd6137f
:10f37000573aac5ae6da261d350f5f4b7750516588
:10f38000f307acd0b23c26f5c373855e5da0e51ae9
:10f39000822c5ba0646753206402027fd499da8dcb
:10f3a000da46c1c65b194fd0336c524edefab22535
:10f3b000901b69135b6b52bdd243f5812d8f76c9cb
:10f3c00055efec7c3e31bfe3ef2d6ea1e0c5b2ef0f
:10f3d00053008f890df296ba7db546bc77ad763570
:10f3e000e81bbc5b6161f5b978e6c3f5b189b9c1c9
:10f3f00099dfdb61253879fdb03ff477b416fb5e09
:10f40000066c00dc0672ffab3bdc46f1d9df7967a6
:10f410001cca00b2e6e02a5116b6265832739b4247
:10f4200040bc6976e02341736071a6311d6e53c5ff
:10f43000571179c71107e80c2705621c7388d3851b
:10f4400010bd91149b8d416b90a344a2cf36f04325
:10f4500038fef5f4bacbc50601661e87d2233aa161
:10f46000db731f501e12ff9862a75cd2aa09455b8e
:10f47000abf287864d0bdfd4328e307e9a348b41cf
:10f480006c697e85dd711c9da97945e24d536455fb
:10f4900029084fb2652825dbe6e53521bc97778d35
:10f4a00074e1417924e111794b8219a83eb6b7a6df
:10f4b000a17b2767ddaba8fe51dffb1e9cf23af76c
:10f4c000dd7c1eeea65689624235eb05f7e0f4417d
:10f4d000089a861df4a8b567ff99ff359e7661905e
:10f4e000406808c6f9b87b5f0c866b73535730b31e
:10f4f0007b19a150c239da288637c63ec3297d5c04
:10f50000794f1709238a9fcc994eb92d9d39826e68
:10f510009301e39371272ecdb00801318dedf752a1
:10f520005419ffa93ca590ccbfde256b50f3fda775
:10f53000addbd8d75a3036b7ac06de69ecdbf4da8f
:10f54000b751fe05b2de937085d96de15727e39b75
:10f5500021515d39c89a428bf0e6cdca686889842a
:10f560003f7178253cc4dc52f1277264fa5d9e231a
:10f570005102ec5b666ebad26ea523ba5e3b73a4f1
:10f58000dde30e25035f62881305776f2dd6f63f06
:10f59000318801f512a733db49a12e5ca97116123f
:10f5a000488e3f5b48aa8712b4c8fd9af23ee584b4
:10f5b000ce2236ee960c2a7963a5d9884cda3c63c4
:10f5c00018fe474e067026ba4a7745a4960221e3f4
:10f5d00002d7a680c24c029a56bbd6feff65fa76c9
:10f5e000f0a1060189d770c6baa0e87e12d885348a
:10f5f000cdffb4ff7f8e2ea0afe8da2bfa7207ebb7
:10f60000047ba2b421f899a97bedc8aad2080522ef
:10f6100072d9a910e8e72f520ec7b4c9f3ac1c6524
:10f62000f38c64ccb726101b91bed82b7126d964fd
:10f63000e173a6ffe59874d6e02eca418ca371e76a
:10f64000fd22325843614354dc099adb14358ddfc7
:10f65000e92287e3a38710c340f8230bc0fa2b7c71
:10f660000725d8dc978ce3da91c9018b2d4f04d2a2
:10f67000bb4fb8b249b5f9959ff70e9b73a90b4cd8
:10f68000741c26c7b7b58c2e2714298f0c65c3feb2
:10f6900093f88ca6f7e86ad85ecc9fad7840c6e0b8
:10f6a0008ebd9d56214df8641d7e6809f87bb11a08
:10f6b00024484c40ba9c94317432ce2bdbfdca21d5
:10f6c0006bc3cd5482ffb455165a1317a45720bcf0
:10f6d000a265e72148d7e91c35919006383692019a
:10f6e000e62d8db39c98075b227966d6a4070f5848
:10f6f000b810be2ddaf675929e7b10a609a325ae32
:10f70000bedd55c566db613e43b2f5fe486659383d
:10f7100096e9371886a4c0bf9588e3242c51af37eb
:10f72000af3379d72bdee7221f9054548c7086fdbf
:10f73000f9ddc4e16158bd1fd58d0fbdae72340235
:10f74000fdd798f9825eb4105e1d9597c62e0c7396
:10f750001f178c6aa0d1540c7c48045a5c0fbb4024
:10f760001515ee5748e18d4ebdc214e2d9e1624154
:10f77000434b3d5c5a727de227df3d803f8ab8fbf8
:10f7800048e4fcd732feaf53aac4deec8de2fcbde8
:10f79000ed9c6d16dba491016df61bc293a4c329e9
:10f7a0008677da424bc3d460ea9d15f87e06f4dd15
:10f7b0008a6d13072faa6708dc2f5516c971ca274f
:10f7c0001c1b87885f6f80f8e8e7700ce0e319691d
:10f7d0006d6a99fe94d5b3f3f61c9bec08df82e2c8
:10f7e000b6eb7c937242452ddd562d08b8ea0ed457
:10f7f0002c88934fc8b27d4970072ebe1abcc7ae85
:10f80000061e025a78416d319caafb420e75bfd08c
:10f81000da442b4ae69eb27937d2aefad4438e0848
:10f820004f779b978acc784e02680e0105481106e7
:10f8300060b6fcb9f629017da48a0e97b604e3f5fb
:10f840005358c32553b34dd895873c4a68ccfc42e6
:10f85000c331ddfb37b00c98738774d3bafefd0457
:10f860005fd7c8a74690c72e0c7c88402837a22aad
:10f87000d903ee209da30d6ebbc485e7a21feb113b
:10f88000bff6d6c789fcb4e0dbe6f50eb7f5b4d019
:10f890002955fd7e1d3eaa61801f985cc585a64d39
:10f8a00053b8790b0cdccaeb9258b6f53ba6026252
:10f8b000ad96e41257a2fee4288959af4a7dab10f9
:10f8c0001f2be42e777b60a93955c27b64a966aff4
:10f8d000944a45a0a76ba3997f366a51f53d9a7e5d
:10f8e0004af5be9ed4b193c902ad4f20e35ce699c0
:10f8f00086041ec7de93a402bf145712789d7d991b
:10f900007b380216672f38ed90c094cbe40043e9b2
:10f9100054b1a215a6dc08d338aea681a1fc38f1fb
:10f92000a44789aad428207bd805bd2aaa2fe4821f
:10f9300077cc54e2c930475efc1c37dec3ea711e47
:10f94000b5e5cf550cfcbbf5dea51c2e088117def6
:10f95000658826629cc2002357d1a7acbad55765eb
:10f96000fda0ee00df2f480bcf2759c352097c17ab
:10f97000ae346abe52113aa50a1eb54b23c665b90c
:10f980000109d093099d7615c5677fba8191b3802f
:10f9900079a1703e4069075b5bcc121b069dce7f50
:10f9a000306125a3e970ef0a4486f42b8a04cd1553
:10f9b0008d0b7d002ac9dadd1b1ca8583061b8e127
:10f9c0005fd34bd7bacc6d756c08b0914b5ecb351d
:10f9d000a0375c03b28bebb0c77342a4aef56ec820
:10f9e00068563b7a165dc79fbf8801051ff51fc487
:10f9f0005ae9dfdc41ab3bb1caaeed7d47bf4bf707
:10fa0000448949b50e2b8c19581f2ee512aa92d69f
:10fa1000f0ed8cbbcddf5237cc95a2c74a02522203
:10fa2000a686c6ccc57d378f3a47ba8d2cdf969f08
:10fa3000edf82bf575ab7c93057ba628662660e078
:10fa4000ac9b127fd112e04d93e62f3909b1404fa4
:10fa5000ccea8a83bb52ce296ce48535f7e4b1e861
:10fa60004efa95480350460232b6a75ec9dd85922c
:10fa70001c722ecdedee9dd2f67c881015bbf7d111
:10fa800002a4f64aef8f181dfe9e37ad6b94d3aae1
:10fa90005a910553681ffab5fc401a086fa01a80e6
:10faa00086cb2d823a357f5ed53be96c2b8f45baec
:10fab000c387fc0b180a14c7c728fa8997689efced
:10fac000f6896f2fdf99f6391ff4ea818a728d2b40
:10fad000cdfbf05c6dd3fdca7e2b3922673a9a8f3d
:10fae0008a59433717ce6010f19f66682b6037251f
:10faf000bd23c541594a85973723ab1926e25811d2
:10fb0000b10157513d12e7aee981c915e14b5dd214
:10fb1000f6c43c13aef87984bcceedb252e4628bed
:10fb200060a649e45b674105f347a2a658c99b6af2
:10fb30006db39a8b993e04a5dc5b441f5d785f949e
:10fb400025e4db85ea6b29f0b162e5ad06be7d6692
:10fb5000647625c73a0e9cd364c8a34856eec66f98
:10fb600005a376cfa318ecb0f9f1b5971c7b258bd4
:10fb70001a8c40cd4f48a04a65bb2fb2b671b7a6cc
:10fb80009511ce08d2181e15075c049d816e902435
:10fb9000b15cab63ee62b2baae257efa3ca5893b9e
:10fba0003e453f7f5f6ed35c5e94ee8640ddadac3c
:10fbb000e6c5ae8de4715f59c6552b43eb392f87ef
:10fbc00088302ffc8729bb904990c0d31f42f5ccc9
:10fbd0006748e83ff7f689e4e2309d23e7af24b1b8
:10fbe00076d44e32a187378c2e48080a2ca0d31d1c
:10fbf000ecf495375df4b57117c00446a7425bb1cc
:10fc00001668ff41329cb35f1bcf5c92b7d0d855ca
:10fc100090bbbf91b06384d1817f5eb7259326efff
:10fc2000fdb7528ab1a2b809f6226eb28fb5515112
:10fc30002b992ec2e49f14546b2c21f0f30780699a
:10fc4000abc0e81afb9ea1ae86bb7665bca19daa9f
:10fc50009ff5f99d5a5110bbb9364f6635cb5d8182
:10fc6000da1265c3e3e6c75c321c2a6fc0696c9880
:10fc700026ce0af38756e5c0809d25ffac56144971
:10fc8000c381992fcb677dbcf4868792103e9a2b57
:10fc9000814bf413160d70a92fe5ea9d015c2c77ba
:10fca0009be15a7d483b493084e3e20c24c8e58b54
:10fcb00000437ca2dbba9a24dfc2367334924588b3
:10fcc000c444b86a924c4587afbddf7e18a7a0fe3a
:10fcd000c3223f5c0a469185b3b18d82a819c00b3f
:10fce0005f73216a84a5be44d377af7b1a22ac2c04
:10fcf000ee4061a1386b16b908b66c9fd4f8b0b865
:10fd0000861eb69ccf0dc987c1f796b8a693978f6c
:10fd1000121c2153bcf4f8af52b1c114bdc06635fa
:10fd2000f725c0a654c9ad5109f988cfae34e0908b
:10fd3000763c73c5de2ef35fe231bc3a86385a3723
:10fd4000a5d5921ead9a7cef9cde708d0dd0c0f3d0
:10fd5000c956aff6b275df1a8e1bfb0d50c1686c29
:10fd6000983552b3270e79d5761f91192823ebf5d4
:10fd7000d897a33b9864744b52579e78dd2d783802
:10fd8000f527ca35c1687a664631d14e920cd0ee5d
:10fd9000053aab95122bd643e0c349f2747d8790a8
:10fda0003b75d30b477602c27b2dba6a5d5e474a2c
:10fdb000564d5045659d066d29769d2a4befd9dd40
:10fdc000f7531fb2e7e8a3f4c62acfbdb500b56d5f
:10fdd000ad3b972b84172c97c2ee836a638481977f
:10fde00093d8d3f9c2bee98c88bef0d2b0d9111134
:10fdf000b4c205f54fb7f1ea231c278a1f3d12d57f
:10fe0000bb70109a7bdd2e87764bb56f8fd620881e
:10fe10004de437dcc4899b7f0ac35c86e7e1848bb1
:10fe2000a96286b6fdce4f823844e0de93942fcc93
:10fe30007aeeda258b96970f8b4c575762834e7567
:10fe4000410dceecef0c30b5ade133f5f0c001441f
:10fe5000a491fd655cf5c9657cf005dbd4c2f62b89
:10fe6000fa68f34e1c5c1b745600b3c63afe7b75f1
:10fe700007ff2e2df4896d0b1d3fd5f0114e84a781
:10fe800080c04f71991e90468925a1d240aac368af
:10fe900053c23890df6e758f5d824db30546eda479
:10fea000f92da92558d3fef227c3196769362163b6
:10feb000eecfef3af2d4aa94f22240a60ad9b8259e
:10fec0004505fc9160ec86ff52c96f5baf4c9cc648
:10fed000f7d5568a1f3f5a7b5334695574dbb11be3
:10fee0009fefb4192ead1d7c7c72f555eb73b5d424
:10fef000faf1d2f3a5aeec7a63fa6260ec88b7f25d
:10ff0000cebdcddd192b61c9d01f3645cb98944da0
:10ff10004f5e0a8ba33cbca8c3b1d4edfb706ad77b
:10ff2000695a90a25a61a950649b8f693146e44d89
:10ff30002f1885ea8d4fd594012438388d90388c50
:10ff4000bfe13e8a7a8d815528af953595dbead79a
:10ff5000ac613b5989a8275f06eb4bc27549fb3e54
:10ff600036d4f81daaee210715bf726f7cc5af719c
:10ff70001e352b76026537fa84d0d1bcf7b80e3423
:10ff80008280eba1de01102114704409731da6fad2
:10ff9000f85463128e69d17d95312bcb1585dcd950
:10ffa000dde20055a7854b7877ad44763310856a3e
:10ffb0004c425593cdae41aaad32b222ce7d0978e6
:10ffc000f4d4bde6126af627802731d08c257f3322
:10ffd000c399cb9f5421c0c9c6f22d1483f6b52016
:10ffe000af39dc9da748caba48343ad95d53678413
:10fff00014e0acb3d212e25ffe8adc11c4fac43260
:020000040007f3
:10000000740b162440604afaa1fe0c687a66cfbad7
:1000100024fba59cb3395d02334fac80fe2eca860b
:10002000611525a9e0c75ffd0dd7d482d064d172d8
:10003000a690cc5182beacb7a28d220602f2fd0c76
:100040009f837cabae63f8b9fa6bbf45fc3dc6bb82
:1000500053bf325a036b7923a6576e9bccc831b37a
:10006000320c48b714aa0157f30759497ac8bf4759
:100070003d03e50ba1aefaf7495a4e3cb7c477f100
:100080002d5a36db8ad41edc0c3bcca19fa89341b1
:1000900053027980d1e69952a72ab98ec7d13a4343
:1000a000781ac725ea8d805d3f6b0f06bc0547298e
:1000b000913aaa9b473cca732f34c7e272354e3936
:1000c0008143f40e8f563170178586a57c979a91df
:1000d000deffe4c8fcc15a6b6535cb21cae498a7a2
:1000e000bfb0c0d11a3d838feed5ecfe5b82426576
:1000f000e83f984e26b484c6441c1832eff50e5bd8
:10010000390ff6cc02e2f1786f808bf31abc50897c
:10011000997c657cb66cc55dabd639c1ac500d3fe2
:100120000b6db180c4244ed4b5d6890f6a9bb33b06
:10013000d0d1964d21fff9c6dfd8a7fa6319653ee5
:10014000608971934a85cbed655049288040272b03
:100150004089ab14f793b1cbcea63c7066abe64dad
:10016000981562b12fb0ddeb19a63d88ec0ef000ba
:10017000c58eeb2e8ccf04b163cb23b66a037d9a78
:100180004690b9320e3bea79b9ae8620edef85a7ed
:10019000d1e7807199b032f0891559a72089eb1801
:1001a0005eb2fce99d474d60f9cc905293452545e0
:1001b0001e6b640bb9a4ba6147f569717d886886c6
:1001c000f35cd88bafbd408afaa5858e7bfe3447a1
:1001d000d01704f4b566a83afcf54392062f3fc445
:1001e0009b6c8b33afda84fc7306293a7189b6c3f2
:1001f00005179800ea675d917e10023396f25d6ef6
:100200009a133d891fd7f8b4a710812ab7875c7865
:1002100080b5b7d6b76ac57f44842bdf0bd3eddc3e
:10022000886d763fada4d3181ac5cad50f44d18bbb
:100230007bfa12d99a156e95db004eb9028a767f49
:10024000cc4d4607410b748ba309ae96ae4a964f30
:10025000e44a61c0c4a7b80abd58015dacb0015ef4
:100260004c909b8b695c20c851500b6483f8e7402d
:100270002c82b8091304247f30a5f5b4f21f032e95
:1002800094c486d1a7ec714eb73b685db302965d0e
:100290008ca2ad0e5eff6f1750f52b5b3cbd5a7202
:1002a000047ad7a208edef3029da30bc4e317f9bbb
:1002b000dc750ff58d7815e97ca62196c02a24c639
:1002c000704029648e32d63e07c214425e605e6d75
:1002d000c966743661f23374b4d136d25ae5c7deda
:1002e0008305397899113d72215e3fe772d505612a
:1002f000ec019a9db1795786937af7a33fedd273bb
:10030000d0ab70bbc3bc3be865030211e9b9199fd0
:100310009f4c3535a33697b8fd0a160eacce2ae9a8
:10032000722871de0fe4334a0d0bcc2c7d51851ef3
:10033000299a2cbadcf14d36df14c8fb2508dcb352
:100340000fa45c8b9c5a9d9121727e0c58a05b245b
:10035000381c5e75886611c4fca3ba8dda88679c68
:10036000f1d99d05e3cdf21b98b539dab353db2ff4
:10037000cefaca062319981ec9e1cbb5594492fe9c
:1003800012b28ea689b3b0f769c02bc8a4eb988bc4
:10039000cc551593f6cf7c1f623a6d82b8e3683b6b
:1003a000971c34687081ba7bcbb86290c75c0186b9
:1003b0001cd7e16c9ac056adf662fd7e9dc288e7ff
:1003c000c5047dff5c524e69c997c2bbf3b7363e88
:1003d000c39fbfc7a098b6d76861eddaa90d3f6c7f
:1003e000a4ad981197d0ef634c93ef736fbf20f3d8
:1003f000bd10b2b55c3b5033c18a2f184807a287a5
:1004000065860b11cafa1a6794455b7ceb76710618
:1004100052cfab1d191aebbe4ea823f8ac11aa504f
:100420006affdd7d39dcf4893078a46bc626511c67
:1004300027d7a3b0df5b6e108ce72b5211a52531b7
:10044000a0862e479f3f2396af1429317d02894d08
:10045000667c92e73938b7c38ff7ac12bfdb725da9
:1004600082b336eb0448a98b9f9e9c6f3a1073228f
:100470009fafb566d801270ab86c646052bae6e14e
:1004800094aaced2b345471db771d9cfba5ac67c0c
:100490000a2d2e542a10ebb40351f1bc8385078535
:1004a000a1c85fdf7a7af2365baeb41aa565256b18
:1004b0009ed3a545b508407f488afdfc68ff864b62
:1004c00064016e5ce256631371365ddb01536a2c86
:1004d000d8b5db8e4660fe57459f5a7d6a703c6feb
:1004e0001b8a036c77e6de8330127b6fc2c8a25290
:1004f0001744a5fcb41ab303d58af7163d6a48a978
:1005000049a44f61d133eb0b86975c958b9c309c53
:100510007cc5fb365075a4a647c3f6dfd8946b277d
:10052000508d18a496a84210c4c3bc01cbd2e308d6
:10053000bf290204eadc310364eaf5f7b268e9385e
:10054000acf7d7a2a1d6657f9aba83e87228ee41ac
:10055000f3b14683cc3f2efd0e1a8a2002d658eb0b
:100560001b632005f227afc55054b48b01462ffe04
:10057000265e16844ba253fa7dce62b18e2767feab
:10058000e35cc6f77c5ce2457cba17adda39208eb5
:100590003e4d30c6c627181b6a3ddc9a52da41cf61
:1005a00019c906dc61167156bef04874f145a435d0
:1005b000214410a50064b53fb50948e017bf491ca8
:1005c0001e0e34216a7ea3c27ba622c60bce22b4a5
:1005d0004f7e61af576aa7dbff8aa2c2c5b1fab6e8
:1005e000ca92886a1c0798f5dd53c206a8cc8927f1
:1005f000a6c412cfe1d70f638240ed1292aae8c3de
:100600009ff0f1f578b4f53501e047b18b86f198ac
:10061000bcaaef2889e54de5d1bd7b0266e333f145
:10062000d2e4e1de24a272c7728ddbaa6f3a222cdb
:1006300045b6bc67acc57ce396a2449ae892aa573b
:10064000390da30a8c2366793c6effcd3932b6236f
:10065000f1058f316082b3f52d60a018e023595960
:100660000f531971110f39e4bc94e999803e3e5d36
:100670001d2a8f59e3cbb9cf13a80e06bf4078a12e
:10068000989c595adbf5ee0de239070425ff71f00d
:100690007dc826cc5df43b1d3c6da758c9c11263d3
:1006a000f299b2b44774762b2245e0110c260a2049
:1006b0004c3e9b2494334c4fa9701d893f12c74d6b
:1006c0000a488c8b0bdf672316af0553a48006cb3b
:1006d000b8d946cb0292cf7e8c879f968c6d82e4f0
:1006e0009f9a6a831a5e981c7fd19a4657c43b65cd
:1006f000bce8ef6a63ed43ea3c805d4d562fb7bb23
:100700008eac48f7a329fbaaf0fa8ce7423fb48fde
:100710006b210854501ffe49a96f888b968ffb2ec2
:10072000b65f30284a599853f035db2745edc708a6
:100730006ce85b89570eff3bb2096e6ab9742cc630
:100740006ab750951d315e857e478d83d4b380890d
:100750001f250516bbc87bc33cf7fe594c19cd1ba2
:100760008f78e10fb672c1a009f07de8a21c7d4f21
:1007700054228838b67c488962da23ee9973703641
:10078000a5a52e16797497d94988a1665dd4db5644
:10079000523491ee1d3525bcd9881e6f219348d463
:1007a00018d30933077320f7c9f80dda678634ffc9
:1007b000429e8e74da67bff9fda12a24cf19018ffa
:1007c0003e2e3dd82f51022812c5b502c762e3c79d
:1007d000e36a2db9787cb1f0e66d873cce47fda386
:1007e0002c6bf66ac40d86313c6cb4f119dce685dd
:1007f0000f779f8dc258b68a4d4924e36010338429
:10080000176d9a729077a68daa9ad3a7dde2dae7e0
:1008100018129fed3c53c241ad7017895ed21ed9ac
:1008200085557538833666ec6cc691278360cd425a
:10083000788c1b37216e935293c506cf269f3fe2db
:10084000b75341c4e3d86ca060bb0024a62506576b
:10085000725e87d066a3075acf284e29859375ca42
:1008600084c70a09024cb1a6b9ec1e6e954b60858f
:100870008960aea8cd1088ca4a60ee4831cb570ccb
:10088000036cc7e427bf681015c4e435c7e97626b2
:1008900013e3c8f2e167f7dd7d7db849ecf734f585
:1008a0008dc3508e7aed6e4123f97205b8f677d07c
:1008b000d3937aae7d8aec507f53180d3915d28ac6
:1008c000687cd6bd5dcd95b2383a7cd924e29603da
:1008d000b1e24c46af3336d2947a5c97d6a0280a60
:1008e0005658b639601d64b66d2846e23463d2228c
:1008f000a6ce79b4c74eb33564a47740ec1a7622fd
:1009000091fa1e0f96f089f4a4993a1d67fcf0bb8a
:100910005d6cff4cd77813dfeeeb03aab1b8749986
:10092000febe8a6d76c0aa9b6e95fa8d6e161dfc72
:10093000041b694c0b714a311aa94294d59a5e6026
:10094000086bb3975a3ac2f3936d87dcc74183a50e
:10095000bd257cf303b4462c595682097ad2b6459c
:100960008402b473e72d94efbf6ef49f6c00ce0247
:100970007d795ca6f40007c6ed47f054384aa93cdf
:10098000d675f8c977211f86e99bfeb32d784852aa
:1009900073c5b5e06706c6adac403bd8d25daf6469
:1009a0009ad8ebe020961b3c3857d8da58aeccbf2b
:1009b0009cbb1947fbdff15d226875e726be424309
:1009c000a61bcb160b24ee3c87d9b543e0fdec8982
:1009d000a836737a0283352978ee213305b9c1052b
:1009e00092654bbc601cd3b96dec48c1eb373c71d0
:1009f000c0b57461e6618e604d6f01b0a8be4e0d4a
:100a000094e720f3130ef8c63e454659ee9cb238e3
:100a1000c074f7a6b5085b06f6ff75b39e15ef78b0
:100a2000bd80722fb4a898e2c8b9c3b3e10bb794e4
:100a3000e52fb4f41a7f0ad7af1c55d7bf7a7d5380
:100a40004c91e2625703335cf5c4530e7008ca2c14
:100a5000aab6f06263ac1513ed409c6a5eb874618f
:100a600007db0126edab9157943b4a10bc280b5c89
:100a700015d0f8e3797766c9faa37bd58c05a34036
:100a80005911c011b801f3df1a32068e591e19230d
:100a9000964fd33c75875ef9d4de18ad1e2377d010
:100aa000d093faf445c0aa2aadce4f4985ab2c0ba2
:100ab000089e983362abbe796ed8f9497e0b3f240d
:100ac0000593498c7b6ed28d3a22e458aefd838e1d
:100ad0004d2fb35d496b5a752f3b7f2fb747266962
:100ae000372f2dc98f33405e428037655b0b9f3aad
:100af000fd62be486b1e5929a4291166c4979f66e2
:100b000011c57c3cd19cf284801397be3907528872
:100b1000d3a12c4621e3b4ca462d3b2418e91bb4cb
:100b20001c268e148c35e9ffb3f82fbb4710b4a8f0
:100b3000998c13365afe8cac5d552a037f8b43d4b7
:100b40008f3e4f94b65b019ff0ba2c0a0339ae0575
:100b5000894283887851994ee2cd69f86ce59a44d0
:100b6000db15ddda0775c9475662eb4dd9ab478215
:100b700041e29be77499c6c093c41d42f9f5f04a5f
:100b800025210c76990ff3c793b2447588978ea5eb
:100b9000d54e161b168fd63945a52f00455f8367a6
:100ba000c85f8362660144c70c8d1949c839c2f217
:100bb000652e3fbe92baa4af0f23ce0b90585baa0e
:100bc0005cf11fc5ae1b459a580807ae93d2b943d6
:100bd0007efaa92f316d378703b7e4bded544cc9b8
:100be000d9698c17e59d8b4129e354bac45d08117e
:100bf000e83b7c6b54fbb94f37551f1076e4bd3f83
:100c000063122dc6b5b382b8465e64d2efc702a2a6
:100c100019f849c784b6396a63d417e2eb45f6215f
:100c200043f55f48961539ad8f3b4849f3cd5a944b
:100c30004c6bc90a3c5dd5d4f4f9adf5aa7d0d33f2
:100c400020d81c75b735fdcd04bb683a0bc25ae4f9
:100c5000009f62db8ae9d92c930ea65d765aa68b9b
:100c60007a77fb0e626217d3ec92d5fbc0f8119530
:100c7000c82450c9aed2d2af6f13c346d5753b3b23
:100c80005a50bf6bb6b9906432d14cb941fe6ce09a
:100c900099888970d8f949eca167fc4685f4cfecb6
:100ca000b194dd9b8ea12b4d438e2f055e16f90d61
:100cb0009ba7f549df7ba9cb18350521f0d99622f2
:100cc0001ee8dd3c34d1cd795c0ad285cbd73756ce
:100cd000fa69b4667ba635663dbf775a29be938e06
:100ce0009c00f7723eea934944c4775436d628b53f
:100cf0007098c2ba89e9b05f89ced74aad0d530a60
:100d00007ba368b96f0da25f4a535d2c72eab831bc
:100d100066506249645b351224fc35f1a20fcfebbb
:100d20000ee052fba2bc7b7789d5527db9530f37b9
:100d30002512fed779a3e6aae0cd72eef1793ff055
:100d400040099adef3d701d5e57eeb4324e2dde4ea
:100d5000def988d8e15e30e06c1b3eaf3faf6f7ac2
:100d6000907bbcfbddddff3ef5e7ce90629329db97
:100d70003be84bcee7823286df3aa75e27d12b874e
:100d8000da175fae6cb66bc46b8979eb4076d2ea4a
:100d9000c3f2a0870b27a92d1d7a58ebbc001e7a41
:100da0001480c273e9425d211537be109555addb45
:100db000f4af9c76ecb3bd47437f7ad46c612a864e
:100dc000ecd63e427e90edd7694d841743c7c218da
:100dd000e2fc2d989ef893fe04abfdd3df70414ded
:100de000814100e4df95ac1b0bbc988746d92045b8
:100df000b3e44b78549c26053f97b3593ad8482a18
:100e0000926b319cdc04d0e7353b1e22e5de14bf3b
:100e10007d3e64aaccacb7303f2c53e4002c269323
:100e20002819bece9aba83e757a312c419c12b065c
:100e300000ee2cf2fb528acb5fca79ebd158a8f2b4
:100e40009b9b3346370d97dcc1b413b76da47ffe6f
:100e5000ec280ab5965d9b37fe37858c5aca219fd0
:100e600067383b16847d130522c87bb352f8a3d4a0
:100e70005d0712a39333db2d88e54399c1eee8307b
:100e8000307ff3b83b45f7d29bfb108746b7d106be
:100e9000ea07e5d18b914d550e58e554b2511e0f1e
:100ea0006a5dd21adf638a32e05b32952f374ff5e5
:100eb0009a8c973c258be2e703c8b574a7385c226f
:100ec000567338a8e7bac9df1b619662e3ab690fb6
:100ed00010a5986b23a65cdfcc6cb19108a82520e7
:100ee0000968182b1f3d86dcfed12b308eac6ca020
:100ef000d3c78277bfa5c70ed543fff6661ed68837
:100f0000cfca191720b801401c58d38905e370e1f6
:100f100055020834518025cbe621936f2279794818
:100f20009ec6d19c7109cdc1ec2ba79715bca38f90
:100f3000cb67dcc12445c4a9bc010fc5eba63a1f91
:100f400034ffcc9911bc3c99aed7a14df34859c0a0
:100f50002a8edcc9d1c5b6ad00fe2edda6881f0bda
:100f60000983051bf5dbd892f475cb2fb0e6e6c9f3
:100f7000dd2b9f280d6ef5c7c10b67e9a845f53c31
:100f800091fbf9cab48fc5a845127272e42eb70856
:100f9000d3eb6852d61cc29a691caaae699399bf5a
:100fa0000d788d356e8ecec0edbd804d3668dc730c
:100fb00037cda1f6ae9de8abc59b4c970bc1c04f9a
:100fc0006ae450b16a319c4578e49510a04d41d750
:100fd000dc8c781723115e708055db97648ba9d366
:100fe000ed119c92994b362253a9a3fc8b2f432fd2
:100ff000b5b69f9db684310f434248205ef4551b21
:10100000a647a3ba7375e1daa7df2aa24938f051df
:10101000980e4960b6830797f2156e5696fb5319e2
:101020007ef7e3a9eab54d86cb4df6c82095b9ac5d
:101030000b31a6abae61c5eb852629735a1a188110
:101040007d174aa0ff2581d1b7f69a2e4482994395
:10105000dedc50cefa59a79a8cbae865589a3aa5c0
:10106000ace9dff23f2d4767cc06d29e1d505f9c56
:10107000abc2773da6970bca8e5f617498b5170710
:101080005e62564c2b6e7a8e7484ec2a28ed311dec
:10109000ad5b4043dceaabfae195ba7960f8e2ed8a
:1010a00066f259a8b93532f87791b6bd738fa85c4e
:1010b000bad34af5a57de3453ec250c577bc737de2
:1010c000279739f1d4d008b8737022ea34e59daa85
:1010d000559defae3cd85c2e71ea8a64945ab7589d
:1010e000a30c02c21491d952910c181f936cb081b9
:1010f000138e1eeaf611026221158f61c1bb5b716e
:10110000fdd4961514712416705ffbdc05cb67784f
:10111000e4c5e72aa8a22ac70aea4470232193a1ba
:101120009f5cf731337c5bf42c1e4bf5616da9e5b8
:1011300047de708b918527da59e1c7e258a643cc88
:10114000339aca86304261c197ca48b12469769ff2
:10115000d941ebcc901b9a5b5c424ce417629694ad
:1011600086b046af09b9ac0d3efeb84b14d28b2306
:10117000b7e2413efbf6ac34d598d5c206349fb8f1
:101180009814f42d4dda0f87640800eb2b6ddd6a9f
:10119000ad7f070b44eea241f0806db2dad4e04e91
:1011a000d7d0aa6521c17bf441995615073dc445a6
:1011b00034b42e9dbca55a88e6d4aeb53dc2ba045f
:1011c000c46fac477e3fefc878aa4b4a7a5e872e41
:1011d00080a767e6c7fb7d92e725a6614f7bc1db51
:1011e000518ed63e0f4b56d5cf1ca522328d94d7ab
:1011f0004c62a867693c0e27ba78cb405cdf990e39
:101200003abf1b9e887ddba628854ed6982f715746
:10121000405da655cb74f8efd1888313171343e2d2
:1012200046c024db394532019588dbff50056e232b
:101230008aa7e1f2268d5e58cc39973330c7899d55
:101240000bd34d6b880d8ea0fd4e31a05db1c17edc
:10125000fc10ebea5d0587dd6c378b8ac46d90d797
:10126000b07ac9deedfd080471b9e1d8ed589742b6
:1012700026e1373ded65745459b4c44eaa95f65a2b
:1012800090d246847996f2908fc2b277caf374ad49
:10129000efe312fcd73e5edef73fd540a7fc0578b2
:1012a00085c56bd93b5557e1986f779d1fe795230f
:1012b00070463d7d64efb39bb3c57863c3cb42a05a
:1012c000a168b79f3e82c9e57b851b89efda9ce662
:1012d00016cdf8681123a9037dc8d759cd76fe9d98
:1012e00011bf77975214cca778f0e0e1e3325abbf4
:1012f000c7eb67166c9a900768cbf3dd9e5fc84c0e
:10130000eb976c174342e9ad8e478b6db2d18824c1
:101310001451c2ad4fb05fef50cba10e6f148f09c7
:10132000a811eac402418941e882104402bd81f457
:10133000d352615ce4a2052e9e6127e496b11f6e34
:10134000608ea11f2b48aec8995e221f6ef96259ac
:10135000dd0606bf6f6f17d076be785115c9652cb4
:10136000961ec7941f97a5902e8603a1c379561485
:101370008b2c88cdfa3bae966df89bb56e461574f6
:10138000a66ddc08a80c293032c583dfc1a15c4af8
:1013900061fd8db0625492a6d87087697cf4806b31
:1013a000744981a9cb06962e5d441b31458b530da4
:1013b00064e0fbc6b43db0d714813527cc69dd3578
:1013c000dba6876556cbace37eb0b02b8a7d89e681
:1013d000a52ead22b2a4c4a9f6231c2c09e0e9a5d0
:1013e0002b3cbde1b18a5a94be301fd3be889c32db
:1013f000c49d31eb5eff462ee1d6dc37244cf6ee81
:101400003c73da29734667fc5b33e6e27850694047
:10141000cbeb8aca3892134fc03efc1d9030de756c
:1014200060ee01ceb4d624c6123df3db751057c86a
:1014300096d221058f77cbdafc670a78c1735144c5
:101440005ab4fa1811284500c6aff33556c4170c24
:10145000aa703c7d9a66f08d40f197e90aa051642c
:101460002335c8158f275571e7f2842ca226f73a49
:1014700021a8ca523149a66db97a32106e727f190d
:10148000e41ecc1eb32da9b6cb723c796068b80eb1
:10149000877f9b0581389d3062253cb60036cc1b8a
:1014a000b86070d5bae1b09eb458c9e33259d2d30e
:1014b000535e823b5216a568dafa2537e2d98ac90b
:1014c000749be2930e6dc1ef73888fc31fd432a358
:1014d0005e9051a9ec27a5fa2f3e37047ff192dfe9
:1014e00000c3992c1e1d90c5d33244c23847ec1856
:1014f00009317c7bc219d9e709297b78087eff1c5a
:101500001b7ca055d6e18a8b2fa44b42860c90f110
:101510007d60b34acc22f5baaba3f6a5b73a40b486
:10152000f38eb6b0d77367fc76a8eb77c71f484831
:10153000db3749b944ffed33bf7a7e2ddde3236b02
:101540001fbb7f531d5e18c6a56e5c65a096fd5738
:1015500098f238f6e59731998336a9500b4a6435ed
:10156000693a8193df01834c0756c4b82c0dac98bf
:10157000aa586cb5294918e2bff8498b6b0d5de696
:10158000656edea760c31226d04f16f45ef4da95be
:10159000eb999a47de31d2fe4e72f4c82896b5c850
:1015a0009b30b9f0a039e0ff5813aa5460f0006cea
:1015b000e26d4ae882732fe47cfbd824dbc1e012a1
:1015c0008897581ecf5384cb631c5a0b4c8d6ff2f7
:1015d000901f3a4a98b4f5c64436408cf0e30d119a
:1015e0002e6b6d881d7b3cea89279b356e520a8ed7
:1015f000bac10c2cf0d288176696638fe1c3a82d70
:10160000dcd0b2876b29076a488b7efdde8ac9026f
:10161000a6640e8a40aff6132563ec472e4b6dd1be
:101620009736cd450e54819e7138f0f0f0a91ef822
:10163000b344b4889b28655c4ff1108ef9abec0a7b
:10164000cd358b0cc5ec1a4fea1bced9aec7c3bc47
:10165000caa4b1c81500f0ac364411a344e009a1f6
:10166000f04c80c29900468bce1d89c254f047d001
:10167000144c1d2ada9588a4ebbbb653678c5c9e8c
:101680003fd7c5202ff8a20de733946e6efc2b6474
:10169000570dd06b3bfec2c0ad786e49b49a64164c
:1016a000bd13881d442a5f5cf872610d5a3ea38801
:1016b000ad86c129cbd697beff945a773303194e16
:1016c0001f4d05907efe2d3d34150669593518ffd6
:1016d000c12c12fc757611d70e2af2225d55b3a9e2
:1016e00040646e49ee35bf2e5189002e6960138d1e
:1016f000c6bd23d4a3671271d16ca8363850d1a4cb
:10170000d45137e3fb1749a2a4a2f39681581a3ba0
:10171000a4842ce182476e4f724b717377f07b2a61
:1017200013554d6c0be8a0ac2b45e132f7dd22cd13
:10173000d74570c52bcbabf2b49879348cc8e40193
:1017400010025484d78a03ced1bbc5f02aa83adb55
:10175000ef03214910027f50850eab89747761df5a
:1017600064c92bdb73af86bc27c8ccce9888380bf6
:101770004082e4a0a011d771d560cfa5190432949e
:101780000fff4731e663a1517a995dad8a8013431b
:101790002ad6f07eb7fdac233cbea751641cc9c05d
:1017a00095d4b913fbddfeb865385852f3aba30fdf
:1017b000f00dc2db389a6fed5403770e825c13ccc8
:1017c00095fb3b97ffb45d52c8b8b33cf0a8300a14
:1017d000c45b8d56b53907113d9ab5f2250dc9fe8a
:1017e0002c6d3ae827fc8b005f15b38710d8e36daa
:1017f00016176ec0a95ed8d7555a3ca2a62959f231
:1018000008b840a46d467531208a8075a52f5bf31a
:10181000b2f4fc73cf50578fc0e55850d2f220f18c
:1018200082ed98a1e608f6af5df0e13d7f1092e011
:10183000a348f5b26f693045a0fcc070045c8b62b0
:10184000ec63565f42ab9c4aa5719750630c518d77
:101850004cb16ad3e5c38d6bea0822f38e98e5bfdd
:101860007900c787f10b9238a7381e1979242db457
:10187000bf731faf2b26cfdff43cbbd9fe4ae481f8
:10188000f41b772eb85f1c91ab93c9831a2c278c5d
:101890001307906e122ec989fec782b6a03d40bec6
:1018a0002cc460dcd89682bde5c462ae28b132e3b8
:1018b000f96629d7e153e4b2796981ffde2428fb78
:1018c00001703bb81c67def5155383d35488199714
:1018d00076c8cdd10760463b308f505a7805876a6d
:1018e0002005210ad319ed8af0ca822a23be4afaba
:1018f00043de6d93ff970d1b5342a37184760374ef
:10190000c71d5782d363dbc1bc239bc57c5b70982a
:10191000fad999365e194f3f11843b029e6eae4b49
:10192000bb56d94663c68c4d1470aae03df79407a8
:101930000787d83ecb1c5777ffe4fe13f50de08cec
:10194000b006de60257a57be65048746424aa42465
:101950002fa719cab15075108648d2df8d143f11d8
:1019600077c0bc6d354a51ccdf772a00d1ed2fbc52
:1019700000cb8b27764be7e5150da8c2189ab53e2c
:101980009f9cb023e182d997b4bfe332a03053cffc
:1019900046b6bf06153e99b535c59a77937b65adba
:1019a0007f5237dfb321161cdbcc701adad28a984b
:1019b000a49fcd3fe84ec6c178c6c9b33da798f7ee
:1019c000c1a9d724ffde8f4d37979f68365e5fd859
:1019d000c9658637a85f8f84d07a78285c4165f323
:1019e00002f2d4a7e7c20b783ae8fcbb9c95cba6e1
:1019f000349b947a927f2175963d3fc05162eacf25
:101a000019a412ce9f4abddaa1d60a569be30ca9af
:101a1000d5d8becad735d06ed9204e46b6d7ad661a
:101a2000344b7de32f81a6d498d05cbcf81e7f0e8a
:101a3000e8f67ba9512402465782b6b0e5c1d1929f
:101a400008ea247b50e46816576a9cda5bdf0e14c0
:101a500070ee33d962179f4f872d0e49543caf3c2f
:101a6000f464d61dd8210b0c5cac81a8731d55f114
:101a700069d2f6a2f07ed51a270935f9ea8212b0aa
:101a800000be3c14fe65f2011f2acacec90ee794bf
:101a9000df28bd5609cc8c701e501271b1aa43606c
:101aa0005ef4955b682cec6db113aeee85d4983e78
:101ab000da43fdd08db2db423c41bf6f4052a239c8
:101ac0007be403ec862d5ef373b775ceb8e9be17e1
:101ad0006e634a2cf283191efaf64829b5fb26e0fc
:101ae000bf08c5ee6e4d63726f3b7dc4dca69a5f86
:101af000949fa498c2c385288943997e75aeb96a1c
:101b0000702a959df5260032752e78146b5749d6ac
:101b1000bbb5d617494b7c135b1170f07ebe7e2798
:101b2000a6dae7a39e1c0d0c8ee8f182cb267f85fa
:101b3000a3f1dc165b261458d6af5a8afcfb84133b
:101b4000fcd2e5984a511205ea2f2cbe285e7cade6
:101b5000429d53219b311ad8c39e364b25918f321b
:101b6000c1e83ebc248620540ffd67fbc21d28ec53
:101b70000fbca28e091bb23edcaa4c745a4217fb62
:101b8000fe4dbe16746a4ea5dc20ed836a455e37b5
:101b90005a1f431b636041ebd5aaff82349ef07f3e
:101ba000321031357161ce2795d7119b25adb2d852
:101bb0000feeed293f9f764cb52f7395a0bad8f460
:101bc000004dc28ae7f16b640324294daf5ca32f5b
:101bd0004c730b2543cba6d53d55d8ab5d717fa289
:101be0006ccd9612c40d02607ac31e56e329a3a7da
:101bf000d16661e5bd28b98de2c98fbe2808138c76
:101c00008cab79ca28c451beae41442331dadee63a
:101c1000fae4f917301c52b9daf6dabb98925fb5dc
:101c2000b060a40d9c907e2b5d7cb499b9f8f3ff55
:101c300044aae56c2378d01bca7763c43b754eee8b
:101c4000aa15af1eb5faeda812c272b1d170cb7051
:101c5000f0d3695d949e9eea5e90dc641de840e8e6
:101c6000006731ef6bae28ed08640fb2d6e129565c
:101c7000f31b6214c23f749f7215ebbf59040264d8
:101c8000017a9f5aa32cdaf453826d75b6893426f3
:101c9000d43b1adcb208e6555398781d090e57a3b9
:101ca000b007bfb25e6609ddeabf108600a9fc0579
:101cb000b93698f3a4a90876c07923c0380533193a
:101cc0002bea7dc63e3fade7f542a61f129e3cad16
:101cd00046909d6b59f817d8a224ebf15936e4e6eb
:101ce000db3d4e1b4f06e30476277bc3a83489e017
:101cf00025ba7bcdec2de249180ecf0a771b88da86
:101d00007e222266ba2106c227adf3148d545346b3
:101d10006c179d98af58c88d080851d74cdc05ec5e
:101d200068c4fede59a4d9e3cf9e0afffbd1079f0a
:101d300068bd51331b7ef91c8a83e881ad2c1dffe1
:101d4000b307d237c9e7398e14ee33219c48051dfd
:101d5000a44d2e6e9bcc2bbfda47e07c4f54dc6742
:101d60004e502ec4612d2f8a93bd61b034b8b48417
:101d7000907bdb7b0f86396650bd8367adecee70e0
:101d80007fd047da709d985c14a222e58087fad84c
:101d9000e352f022a2ee1f7d0ea0d41a791b563812
:101da00015425391e72764f17cddafee74d6c6355a
:101db0005ed9cdddeb395507fd7371da512da15a8e
:101dc00059f900ac872eff6655d2a555a874e9d005
:101dd0004ed5bdc0ec9fc2741ce7acbb7f5d61ce2d
:101de000a0b47b033fabe5bd6ff0fd790c8de5b191
:101df000f7f5a28da7c9e533b7f3b0919cfcdd3da3
:101e0000818b766b6f77cc198621ef3375b7c13d27
:101e100082d100af833a57708311b68eaa6a0ff849
:101e20003d9666aaba6ed3ee4a60e17cbfb15e1af7
:101e3000c9f1b93338548c1eed1db6087925bb0d98
:101e400097296553c05d12290639c55ac57f4008d8
:101e5000de3dc7ceabc22873128e3e0cc7101b5a94
:101e60005541c4a5a0f1dd278dfa71ecb69e37a6c9
:101e7000899f68e4c13fa7dc110034eea8b0f2c727
:101e8000b0d317cb5e60eeae9df4efb397db3d7b36
:101e9000b7eef8dedc3ca358bdb780bd421c761b14
:101ea00044af3357e0c15d148530e7f1ea4aada392
:101eb0002889da679914e69747e93eff2f422619e9
:101ec0003d2948ffc06627a120f968330c12135141
:101ed0000c74339c0805f9e824b8ec5be22e7b65b2
:101ee00066be064d17b2d20826d2c2f98d4e19cb66
:101ef00017258ed3696444a77f59d45dcb4078dd24
:101f0000f74c046e466ceebbd564d30f761b29f5f7
:101f1000415f3af75506d6c4d104d1b3006e7e0caa
:101f2000f90d0d06eb5972ba6797b7a787f2d4e798
:101f3000baac12890b816038087ad661c5ab6350a0
:101f4000c377fbe38e01f72cba630b407450eb2789
:101f5000e4f334ae989a485b6cba56b5b008239d4a
:101f6000a8ae37f8d01ff463f369b7739663df5eea
:101f7000bf0deb3e4c61f077e2a1193eab5fa8aa22
:101f8000c1ee1507ddb80921a6d7ead51bf01ad98d
:101f9000cf1a20d6e71541da6058d92d451de5c284
:101fa00073b91f06145bc4687a11490bed86edac5a
:101fb00083bd1c128a551be17a1ec5f18707058a6d
:101fc000bb61a8ed7d18cd9d8730cce79d01ac1f8e
:101fd000a65c4480c17d1ca397ef4c1b31fa2cf406
:101fe00055822e7e94314511fe436e47e78ceb7a85
:101ff000e574d51027cd0c9aa4195504a8f7f5ec73
:10200000fd5aee8129ebce74bbeb05a08f6331093d
:1020100080e7a679d2869066071867a8073e3f4bef
:10202000c186eaee64bada8339ed96d09039c2f40b
:10203000a3d5f96d5e33773864f2b9923c0798db2b
:10204000e95304ab4775635b31516a3f84a06ba2cf
:102050005e93a15a09a8915577e46bd2aca2f752ce
:102060000c7383dfc43ac87bd8e6022e1225cb0e50
:1020700007dd0c7b5ba2499cbdfcdfda850e06f414
:102080002cc5c3257276caaf4e87c968911e983099
:102090003627128917dde98d356f8c93c5ae05267d
:1020a000001c5780e9fd97ffe0c7d46613e468e59c
:1020b0001d7ffb80c60f85f88c5ec1c3b11e41fd3c
:1020c0002ec4515d93c778ae5edc5d3a7f4341e13b
:1020d000a29b4807a37545323e61f994534e98e19f
:1020e000c0987bf00f5fbf7da3232d79d2c6ceae03
:1020f00015b136f1e130e093d524a0fa3e53609259
:102100000c60ba3e152cddccad2459cf16e3cfdde3
:10211000425bd8418ab56c6fc7bfb708cb30de1ab7
:102120007a4b54d7f5e279ffd38eb1633ebac93a00
:10213000d1777756032c99aa4e26bcc416a3dbaae6
:102140005cda32bdd12f19207371f14499e2127813
:102150009fe7aefc48f887058c61573baf61a64608
:102160005dd5ae9314111a08fbe5c2e0d2b5da369c
:102170007dd01d7fb569615ed1f35d6f60e85ebca7
:102180004f4defd49b20ba5cc794ce48238a074fab
:10219000055680b1d56837777f8ad2cff940c382a0
:1021a000889461517fd5f11563207514b7d5b9595d
:1021b0001be67418c170ca6ab20bcfec0d95d1db67
:1021c000e4a2bdf6c0e12724481ebdd5cf2e157070
:1021d0003839174f256a2f5976c8ba8d2c20389e6a
:1021e0004ce41b851db9cd964f7e0f6377fcb5f48b
:1021f000060b00017b735e092f1a2d1ca0186bb50e
:10220000deaa93f4c6f061059e7570637bba23392c
:102210001ed89a2ba05e00bfd2aad789807af12b54
:1022200025f3bd6bc4d16a992a1d6b43eaab1783b2
:1022300009254eb23e7b5401f8b8f63ad26e7dcafb
:102240003db2efb7d2493a66d382a4d8971d33b8ce
:102250005a45b3eb9cf0cd915701524691888d13ae
:1022600023ab1014152a7409b1604ae4cde6d76691
:102270006cff148c5331ba239824d057fbfa77ebb8
:10228000bc6fd944c8cbf10b777a53d1c6a087babb
:10229000777061154e3619a3b6e70f8f391f01e627
:1022a00031c7a74276432574f6278435fd9c4c9ba5
:1022b000e9da3f0331ffc7d5c3bf757708cc1b40b0
:1022c00078939de9436f753190c18801975540bf60
:1022d00096cca7b17b740a2005e8c3d4a97c9dbc29
:1022e0002b47169ff88ab548880ef73e3be897467d
:1022f000c68e9e29b8f7658509e3fcfda4e28ae451
:10230000e5d01085ffc97df6b834db9b871adb2446
:10231000ae27226af6a69ecbf03a76a0f454229d10
:10232000cec90d2516a67f2d49f817120c19767afd
:1023300009b8de8462e1ff93c0c6c1860af0642c4e
:10234000a33d0ced5127fa53019d1c4b5024badfdd
:10235000e2d5a1fffc1ef1db759e5313ff2222f391
:1023600089f0da6d3048f8da29de0bae1d3f74ebe8
:10237000eac85990a68429c58e184c06a43409cd04
:102380009ba5efad8a1c51cc10dd9becd8dcec5248
:1023900035f09b7c080c3d01e309eb3abaaddcb3a8
:1023a000c90e2b98795aff872f0f6bbb78fa9c3b8d
:1023b0007360e87e678dc35bcadbf69244bf485ffb
:1023c000fb6131eb0c4fa50330e6776ee8ba62e8ab
:1023d0005ddbb99f24973f1722f9bdaca7bec54b63
:1023e00058f0f0ef2fc3fa0ebd5b2cde9f8b3d0142
:1023f000cfb7f82fd4d46e3f58f3804b2eef73ce67
:10240000ba1495959de9f1dfa3a7d54cf720b9bb88
:102410008bc7fc49ac5aebe11918e0f6cafdfcdbae
:102420009e570a3e6be08b7f8a5af41ded26e86dbd
:102430006213635d1907cfe4de546ad62695152a28
:102440008897724b655c8a7b72c7a8cc165b6de07f
:1024500021beebafe9547e8bdf03540162a758d74e
:1024600041512277f513a816681f173f8a1932f7d2
:10247000c3706296608e8f431b922fd6c9515e4afd
:102480005bd50192eec3b4424fee1b4c13743fb0c8
:10249000dd40d55fa7261c89286c47dda0cc6bd812
:1024a0009f5cd260db356b1cc17411bfc2a5a167f4
:1024b000762df4d6fa40277ce317737903147565fb
:1024c000ff9c45789529af2928128dc69fb22d19fa
:1024d00091590f166c135172383c41da33c1a0b4d4
:1024e0000ed7bbe69844fd23be7340648b7aa56289
:1024f000dd026c1bed4e29ac31edf45e8110f81e4f
:102500000c6626b847656f306013f3f5e123be72a1
:102510004b4b70b81747f8dbe3738bc15313481c60
:102520002c022eacda209c2db8c0eb3fac9f27e8e4
:10253000f4488791b441aa74108b0fbc8ae1b809a2
:102540000bd60f6d82a026acd97f874176ecd5f0f3
:102550005950bc811d2c136d151f7138b4f0ff004c
:1025600041d5c474551a0a32ac6d4f9b36c58e43a3
:10257000799de62a4b675c19fdd0689589168b9486
:1025800066a27b967eef10782336a422bf344e429b
:102590007da8cb23aa66ea0e81668436648d026b21
:1025a0004baec2886c6f1441577e372d1c76311ba1
:1025b0004894cdf47758a94c32e44b6a008622ba8d
:1025c0009d95e4d6ce0531520185847acd0e629177
:1025d00072a8986cc3b5a692ab542c21bc6a2e8a03
:1025e000c4bebede03d83171d75b38cf1c59d99a2f
:1025f0003231e42c9b98a819026f919ab65da3af73
:10260000449b3a2ae6e6f96d3b4f809a839321d6a4
:102610001668c8ad7d7ac67a60475f165d942e91c4
:10262000a9292c3e522f5aa29f811ce3ac24d9ac7d
:1026300010e2c5e84006185b7c813357c396b31699
:10264000db0a9d200e5ffe53691f74af7b2e81d580
:102650009db8998debcba6dc2eeade95e6677bf084
:102660008171caed702290a88a9d364a025ecb1c09
:1026700095521b13a32eb7243959916da7124e37cb
:102680002c954d16fe42003adcc4bb74e62d58bfb3
:10269000babbe5eb297e626ae7972c29d39188269d
:1026a0009beb2cbff9474ca54b9066b530d6640226
:1026b000609eadf819620e72b7b876931bbf8c3569
:1026c000a27f2dbb45942cb094d99cf819cf619969
:1026d000e61002de66a1ffbe6272aa51012b718d67
:1026e000efa10f91371841f97d0d286bba4974acf1
:1026f000361b6148d4234d089b386b751d00246a36
:10270000037054b916b671fac8f94ed1f4b155b286
:1027100065e74493fba59230e78482838c20fe21f9
:10272000501e486502f69d52387074c6a35e4a2f4b
:10273000ba02342762786feb3a16a2b75f95c94e9a
:10274000517e9f34c1ebfa275e82e66ea3d900fa70
:10275000525304e696dab1aa4025698cd73a12772b
:102760006f5efacef92499b4ab38c82546e5ab02c2
:102770003f62bce809a91c1e0f0792991bcb1d469e
:10278000767530af96ccebb4b6335d7b6bfa15f053
:102790000ee4c0101884f24a31c0895412777ab717
:1027a000ef801af1341a5f502c5d8bdff831fa7923
:1027b00037ad61d0e29183850eedb8aacbc2ab9262
:1027c00022e6adb1c5f203d57528e300d4cc3db007
:1027d0002bb3ebf65d4a530a680ce88d57f21406ea
:1027e0008621472a1e2950383d5c4475122daf7250
:1027f00025c0403074e2ba2dc4cca65a4a8f33b6f5
:1028000019c15580a119eab7c26422208d4e91ae3c
:10281000d41e30fc92e3e0589a3ebbab78c858ef28
:10282000da26bf704e956e5223b3a33411297ab8bd
:1028300063ca90eb015d6553bd3e706e05416fba92
:10284000985aaa8e3c008da8d7f7da408d1c5fbb42
:10285000a6f8f9754bc81e4282f62dbb788edec6ef
:10286000a2ffa9e413c35b3a7d274a8f0d83ae9b79
:10287000e844a8d389722d2d07d947ab6feea2d3b8
:10288000e6728fc851d1073f5d2325c64adf473521
:102890009b052f55dd4be26ba6364767e471408af6
:1028a000a76e8505c439b5967e62f25367bcb8b48d
:1028b0007e184055137ec894c385b8528ee9e04116
:1028c00072aea19405a5cd77f5949fe5eab27fbce1
:1028d00062ba3a5082476ab104edabe79604692eba
:1028e0002bdae287e9268dcc90590c82efb4a14017
:1028f0006bd87945cee64cce25673927b0ce19b2d4
:1029000036574657fdd213db904acb065855ecacf0
:102910007c5242ebbbb5376ed19e45144f47a54d57
:10292000fa4c4b34c2f347cdc204aeec9a08558240
:102930000b46411ab6454a4ef15e91c38717d8043b
:10294000c0d49818d4a6d65fa8e6146e1adf8a8c75
:10295000ff92e00035d5e72040bf0e917c4fa27c6e
:1029600083f0dd471de9c107abcb0b2d7b488f9969
:10297000471e5e2d3c12f9761d8385689015e8fe92
:1029800023a9220436c347cd63ba027e5d5e00569a
:102990000de03267247e94c5bb3e021de558b9edbb
:1029a00026ac3ff52d92ffbbd8f7cbd42ec8c0caba
:1029b000e1cee9d12b2d26a22a7877c4f218db7359
:1029c000069cc3e8ef48e1e6ee8f38be798e122a06
:1029d0006c312805cf835fd3c9f09237b382c89694
:1029e0000b325e4714e0536d0a0a1b43f48caea908
:1029f0005f9bc72f825246533ef051ee88e4dd269e
:102a000049e18c41bef486f28fa51b0fa7a3ed1af6
:102a100021af92e4589e2dfeaad3df07232624136c
:102a2000fd8ae44408b02f1839dbde0d7637de036b
:102a30001d2cc478f2acdbb2744704508fb730570a
:102a40004937749ba6966d940fdd4cdc5745d6d55f
:102a5000683edd9185d42637d9772f72500cede78b
:102a6000a17a08d83d3a5244f1dd5f09a34d17b968
:102a700049f881b98d4f95a575c0c141f1bf3e0b95
:102a8000d39b919dbf6ed52eb6a0f1602aa9a91f38
:102a90000c05be77515668d49b15ec61c59ebdda16
:102aa00001f20c64144d1f1f2eb782d980276ac90a
:102ab000092426a8c2f089f4df7e670bb651c5ff52
:102ac0002c4b96409c1a9674bdb236adeda334fee5
:102ad00043f0e757768f8b96639d593a3e6a369a54
:102ae000bb67b97106688af4433f350e87f7191f33
:102af0005ccd9f06e50447a687f02f41685f2b83d6
:102b00002bfe91a1af24407af222b48a13653abf1a
:102b1000ea4142942c2137b58c65141204365b616e
:102b20006def99ba486cce056d793612d1abbc0aff
:102b30007ebab47d355b49de9a6365ca7a44ac29b6
:102b4000c62992b5dad81f9eac58c406c457d5cc56
:102b500049e9e8a378b9cb2cf45b36dfe4b395c937
:102b6000b3dae53400274de0026bec275c43e71f46
:102b70000d514c13a1c5c892dd11bf2fa1708fda82
:102b8000df792717dbdd0f52cce23706eea72b7b70
:102b9000ebc4545c7267188eb23fd3f6e7e988a99c
:102ba000ab84b1952db71f444bccd09aeed4d68dc3
:102bb0001a2f4bb5642db640d5239c7eb9a8e6aa42
:102bc000a768acb643c392dffe983c5ef0e5946123
:102bd000a26031061699993bc5df7f4a9c745f4c11
:102be00075092e9989769169fe02b2e01fcdd5470d
:102bf000722ed090d2b2d2cd127d5bd7b0fe1146ec
:102c000023247e1fc096bc341c1c6695e391723f42
:102c10007eb9d0b41ce3ea5d99ea53aa5056325b00
:102c20001107920d3891be055ecf4a4643544e338c
:102c3000ba4cfcd5992d2b50f99c3e4a40b720d474
:102c4000985e444bd0e86e323e0f9e4c4e693aa8d7
:102c500099b60458932d53e7ba6e9dbcea84f6a248
:102c6000a0148b08bdf28381b7fdda2e5f6d62e29e
:102c7000f6b05d0612dee33ec718089e98b62686bb
:102c800097bc3f7c6136e74a17048e6fc50eda5d4c
:102c9000fbd52acb67c2e9c243497d1a8a157479ec
:102ca000aed708d05e3b2466c54431c849bba15aa3
:102cb000a984927cf5e33c3c1982aee8b973b9a7cc
:102cc0009a714b8f8bec7e3e3978c5efc54211d29d
:102cd000cd234232cac717a754c0543fc4a20b6bbe
:102ce0008103b7a80495f5be1827e8d71726373f04
:102cf00017ebe07e79eea53c37831ce9ca6986b8fc
:102d000076454d2265ba11324592da26960ee111ca
:102d100041d30d6991e053d38331c4fb6ae398ec4e
:102d20001a1a0bdd2dbd620ecbe2f5f113313fb364
:102d3000356fb22b482f285c4a9f7c1ba0c9902f6f
:102d4000e10cf1ec083941a143274339c1bc68c209
:102d5000cbad03bf6d152d26ebb687b4e238ec4042
:102d60007fa77ba9959312cd20772b4cdafe0bff22
:102d70003334e25d76bebf07d9609f720dd4eab5e9
:102d8000534cfd213b7e8d314517cc625fe26735a8
:102d90006196e5697f6758ade2f5739fde88969589
:102da00026ac99df3332ecd596c4ed1981db414373
:102db0000e04ac7211b46882dfd224f2627ebcc30e
:102dc000a781adf0740cc4e6a3264fe0727c683f87
:102dd0001cf7ce058f90a51b8be2fb02bbfdae441a
:102de000efc952e635e44a67d68ab4f91d2bcb44c5
:102df0007f5c97ffa76c2c6a0cc8458e4dd96b1c65
:102e000022315eace3ffe10ae122f4ccdb718461a4
:102e1000c8de09574e8758e613cebaa8d9dfeaa70d
:102e2000b6bab94257d54d7e476d8419aada4a8899
:102e3000563815addcf370b31f7a1cb5e8c7a26a2b
:102e4000f0182e8323461c7433596b3286c89f9e1c
:102e5000571fe7c9421d6eb4354e13545f9520b11c
:102e6000de8b670b9400b0f302f2eb235870123e36
:102e70000c14981f1fab0403190df9112b949acf52
:102e8000c32aebcfea52fd2df16ee762e0b9227d55
:102e90008e8aff0897efdfdcd96ddd87de4af49a72
:102ea000983acac8a3cdfa4deb6fc623cf1ed857a8
:102eb0006ef5a10736cb8369bba2532cfb3b4fcdec
:102ec00017077c3eaf4db212bf41726284ca68548c
:102ed000232afd833d7389a0b649164b945531f8da
:102ee000d96b8263ec037f91a86af61f78abd65446
:102ef000d6d0bff4657a7b1698e2104f99984409b2
:102f0000cc590a95732ea77374a8da644a14122355
:102f1000abeb71f4d2f3845a049ca92f54c362e63c
:102f2000361694cc7f310aa0d3c1c93dc87e9bc858
:102f3000891f885f872d895402fb591ff50feb20ed
:102f400048ab371d035b8ba91e4300ed4ed5402ec9
:102f50005841490c1a16f32a24f9721b5b1f5d2491
:102f6000874d1b404a40c8a45c671f916f5cefcc43
:102f70000abc2b0637ba4f8a3a1ff092890f170afc
:102f80000bc2101ff90ad35b631b634fb51b8d1473
:102f9000bfc454b3badb1131f90c61186d40edcdeb
:102fa000a6d112943571a72cbed67ae634daeb3c62
:102fb000785e4605ac227274fedf5844174006ce98
:102fc000365ffe5e30d131a66d0d6bdfb8df54f099
:102fd000d9549e7f2684fe44fe7781da6e5b1364ab
:102fe0001be031659f930a331575fb5bb615f17cc9
:102ff00099241c35b6485af803f5aa1d9a7bc8ddfa
:103000009283dff3d053e28a5ca2e1f607ff8bce16
:10301000f152fef41eea8593161b8ba58dff10b9a5
:1030200036e88d25e3481fb41af4047cd35d23e40d
:103030009a5df95003c78e7b78a498df19ae2c6b8c
:10304000e61b6cf9ea63219f24992170aa2c2e5269
:103050004a4c0af1695f0426873415ef3d26e3f0f8
:103060008cbe47a28a3ba40d2ee6af7e2687a40421
:103070008d65a0f974546b45b5bc6285553925d171
:103080006e71122aa86a8e7013a0b69a5360081740
:10309000c5f6dc2b27b7d2c3116bfd88444bb2cced
:1030a0005b6d3ad43756fc02c0fe3e87576d808e6a
:1030b0004b880d269b4a3af835d9cc1be70ea9f46c
:1030c0004b60f8f497a42682cb98f72d044a9c1005
:1030d0002059dc83bf8b2bbd18b151efdab444ea21
:1030e000c10e0d2f50227fdd5a56253a0170e28520
:1030f0002920417e0f6bccc1190fdbea8c74690368
:1031000021336bcacce52b1b42bb4707e7a8634eb4
:1031100061d1416b3c3794418e07dac31ee584ebe5
:10312000fb685e0b7f3f329e0856d533a0b494f205
:10313000720defb06d5dff9710d74bab6cca4e6d43
:10314000036ba6c6dd3be4194e97e90a15fa4db4a8
:103150001b0f26cde4642935ca2d885c6f039b7252
:103160003caaed183f7a99f09358e8d7e01678f723
:10317000816a5c2e1fa255708ea650757ad6b4bf98
:103180009eca399cf9a872b6a0843f0fef5ebadee2
:1031900096b5f6f4cc6744ff0ac3c344215a9aadee
:1031a000bee144bbd946d84b8f188e43b1158d571d
:1031b000f2dfecc76f69883d8442a6a28163b7f352
:1031c00073d43636633ddf56ed3e22b3c62c7e49be
:1031d000a507b2b28178a05b3ba52762cdb39ae484
:1031e000c50962744cebc8617f27a8f6b4b371b10e
:1031f000b3aa21878c2ab2875510bdf3eeebbacf64
:10320000d76d107f2e023873730897f19450fe9b90
:103210009d8c09572bf159f1f33fe9f6a44f132286
:1032200015177e5209afaeadf5ce222912a71c6a42
:10323000b81b50e02c1b2090dfcfdd9df838ea5ef4
:103240002ee188e610096ce2ba22472a8f7a910da6
:103250005ad58f71c13004ed7c94688f44647d57da
:10326000f94bad57f56de20ae61002e139b0e13aeb
:103270001e84b8590d55f70dca59dc0237eb6ee0c4
:1032800019e26781d4e396960a9ef24e9fe5136099
:10329000e03b45bc1404ea7cb2ae310e8fa500ae13
:1032a000691b67e0ed3ec5405e489ed4cf73961122
:1032b0005386cfac9236b19855b0e45d496e425e0c
:1032c0005322f4d6e9f3590afbcdecd982a62de0be
:1032d000820a7d295e20a4a4f10bbd721d11b58860
:1032e0005a8b7fd55c8205af9155ca9339e2f8b706
:1032f00099b2bb237d3749528230702fb7f2b6d8ce
:1033000067907ac86831123ae6bfb42055f1166268
:10331000890c475467e551b077dd528f71e96b1d19
:103320003d99e39df3b5f7c3c4c6d507c1b16e6a35
:103330002e320a66d43a5c23f1b4a06b2abeb0b137
:10334000c27a34a3bb8263e1bea46542ed407fb87c
:10335000fb9ffe3838c767d93458fa4f7b63c39157
:10336000d0e488bbdda7b39e8730e57b00f783728e
:1033700067de840e47478a4f73c856d7955fec8d3a
:103380005fa67cb801a447a5526f5175bcd70e76d5
:1033900063a3d9d463d89d6e342fefeb77c05e4919
:1033a0005ea3086d6d549bfd50e028b85328d28071
:1033b000a0a4ca8c8ce5ec14f98e709d937c448794
:1033c000293261e9dd430ec9d78e4ed5504375eee3
:1033d0009472a5644f5fadfa50f231e804913a8dd2
:1033e000e4b8729cc0c755ae51505e80e220826a3c
:1033f00017a186998c7167e791c83d24ab4044dee4
:103400009fd7d9b93ef73ec742c6c03539e359db2d
:10341000cc439d4aff90271912343fa0136b0895a7
:10342000d1d3ade8f071710dcc172ffd57cdb1efb1
:10343000c763052c810a21521c16fd0ed56e6c2423
:10344000147ff9906ec941b250838c4e3727892c76
:10345000d997eb4c7ac0a907058d961003aa96ff61
:10346000d10aed4e5b95a97255f895ceb93641cb90
:1034700016f5f7bfb26a324c36e9784085afa7043b
:10348000c2d888b0681ac1af0053a9e323f0cd3089
:10349000e4b9e8225ac69f76284d5e6f421a376318
:1034a000fc72ff84a5f6484c1f5bb8ae704a91844d
:1034b000207d884f8f66b38f3d6a876608d0bbc07a
:1034c0008333c7144c1fb7e94c3134d9f75a8449b8
:1034d00061d4118ee96289b6fb0f53ee64832abc76
:1034e000be53e309fd8a2ee2249f95912f0e4013cf
:1034f0003051fe23e24616e86f13157d53b64d3466
:10350000e421b727816f49e6df62919b8707ffdce3
:10351000da7c668420f6aa74bdb55515dd2e4c4cb8
:103520002df163ab9e9640a2b6680254a2d1f58df0
:103530003e7bc0a2a51afeac53f01a0f6069a22b05
:1035400008ac06f980557ad1f1825e9227607ded54
:103550009125f5c7e05b44c5156d3d3a178bca59f7
:103560008f34fedc5e5907099cb9a688bbb789d6a3
:10357000eadd69f54076688c3a2a56615aa893a12b
:1035800013cf3e8772b8a58b1dc7cb0e34609490c5
:103590007972c913f4ad07fbb1f939d33db01a40c4
:1035a000e55ae07562eae8936ee85b3e28ae886310
:1035b0005897fd5557f8a8c92bc33765d22f145a11
:1035c0001da7d2f01a5eabc8523598c8b74daf5c94
:1035d000d06a31a4f961ec59377db17473783f59e1
:1035e00014db0335c26f1791a66bc8e97e1055dc5a
:1035f000f15283a5cfbde2c2831f2ce8db3b462fef
:10360000e72336b10725cfa1c864b69abea5ba355f
:10361000392dc1c8d5afd465b815261e2347a99842
:103620004b3c4c4f34a1316780e076c841fc4618d2
:1036300079a01598ced903e60bbbdc678c69ecd278
:10364000e07372c44798fdd6b43ed7f893d60c27e2
:1036500046198b4e14ce11071d2a964cc1f199883c
:10366000d6af11c41a667c867c5f88a5ec77993149
:103670001b37a5454bf55dc93488cc01f5efdb5f01
:10368000e655b917a0e5c80ad181287c8f8b291b84
:103690005f877cd18eda25d7ef1c677dc39a8a338a
:1036a000cc39364f03f03d308f3bd2a6e9ac5a9d62
:1036b0002ed154f4f872013379ef5513614ad26276
:1036c000289b9e63e8f33043c17a1c2feba9748dcd
:1036d0001ae0afcd8aaaa957f708a1fd418016ac20
:1036e000a88e08b1155f15dc3fb022588af0214a38
:1036f000965f02fca21d3a544cdc7cb7dcb5d8facc
:10370000a57c8347627b9354da47c87a8d17e871aa
:10371000edd64992a1775a988aea9ed494e110f99d
:103720005584b513c5b0721474e8b462e92f94835c
:10373000e29f14ba0e7c6706cc68be6984204fbf36
:10374000c7b3dcc79c8e88c97a0dc4d828ba702448
:10375000677d9cdbabec1406f443bc59acda9822d1
:103760009c72c392e3a0ea88484559c20c133b8976
:103770007a4d96595fe1aaf128502dc88ae8ce7f8c
:103780007736ebb2182a66e714666df482388296b3
:10379000675691de01e87b1549225fb3b754836712
:1037a000bc2cfe7a113227188999a08bd6a694b327
:1037b0006ad6e1344cddede25806b5000fe2d96f70
:1037c0006c1d6ad23a6038f8b3afdfc088ba59d1fd
:1037d0005fb81dc2e432ed501d97409735dd6a0495
:1037e0005545fbc8f4cd56a7c7770f7105174a8c0e
:1037f0005399978d9769b7c1be307e2aa31ef6678d
:1038000051682fb72c2a4cc487949f7c473bab62ee
:10381000d894f9b11b60b588fc57128d81d26a73b8
:10382000e6d2a736154e2bedba3a3e2fc8f0bd278b
:10383000a0576916fcf329f88cb53f0a25c9b002d8
:1038400053943420aa42fc9473331dd7440e096369
:10385000cfa4e7ef24696a40ea1bb5a5e3208bbb40
:10386000fbd1e1c2680c405cc794ce11841554dbd7
:10387000fb2b241bd8a51e88f8908a537990645797
:103880004defd3a200f61ee401bbaf081e67443320
:10389000596118527b8e7f1a27c6ff91ec53244d35
:1038a000b772f6d729238184df99b71a1532b66328
:1038b000bbd1bfe5df0a708521fcebe85ade31029f
:1038c000dfb2cfef4c6d7129d76a944c948b9b9be0
:1038d000dbc222735592575fbd424f52f7842f517e
:1038e00065c7a84d69848de07544621726333d1a7b
:1038f000fddffad5db822c64bd948f27af7ccfec43
:10390000109edf56489a576c49294e646e614cdf11
:103910001659f22b32ff347fe0c81126b889d14006
:1039200097d38345a7593aee1dc52d88ba55d0596e
:10393000957a44c635bc1c553bde20cef92ba8ce6b
:103940000e3a0ce395832c0e3bfc608ae7637a4cbd
:103950009dce638c0ed1002d68b27700de9b444370
:103960004c61bf57d212ab84eb1f7eb31cb172a067
:1039700063e888c4879120a36c732a83ee5ec97db7
:10398000f07f6252e229b6a54bc06ba424608c7311
:103990005a446d9beb0f7526b46e0abcf0c6efafb0
:1039a0000e3555877c1ca3d023966c15c575af8c3e
:1039b00061055c9fee69db01048ddef6121f19b212
:1039c000ffbec4a8da47ffec4115e71f7ba9b9f990
:1039d00046c144bbeb6628d19b7358df58ce2cf808
:1039e00017724750267be6d9ac75c2a7567b1ab42e
:1039f0000b307a8c348a8060d488b6da0ac239a651
:103a00005178b0e0bca5a0bfb0bb59253fb9915ad1
:103a1000bfebfe4e7d7f267627c6d4ba08d7e5ddfc
:103a20006be5d41203cc9abd67e23247e6678b6739
:103a3000f5aa84fa0c3ee2e15a9699c57b433bed28
:103a40004dfda628c2f6e154a112011c118e49c6f3
:103a500026d7cfa700f145a9c016758c6184a7ffb2
:103a6000aa1ec7a9315f406823ed5345c04ff877c0
:103a70008246663f40af0f2ca8cbd7ec394c49d8d3
:103a80005518761188b1c6289f01435ec2e31fc84e
:103a90002420893eda1ad0ba8b44a45be65dca665c
:103aa00089b576de19b1280907b267342ada3aa057
:103ab000d9c19d0c0e93a6e339df64659aaeaba71e
:103ac000d85ebf1e42374831d71aaf42744b50fa06
:103ad000d3ab16990b85defdb07f5695e89d6cfb48
:103ae000a026289061e9b8ece44c924c1fd89b5872
:103af00013364eea0988e03e5b4bb8208e9595f967
:103b0000a5c20f2f5ca749d8a27fccc111d9048ec2
:103b1000c166ea217a237ba27e87440e18b09e2cd0
:103b2000004ae45ce7f1cb6048ef4ca07f0bb3b0f8
:103b300085d4ecf77a68779bc50889b6094c604054
:103b400039a5ecddb855d86b24c05514df43252cbe
:103b5000980c91d9d34be09f01b077c411947aa10e
:103b60001f42a33591679ad365222fec1d2c5a9dd5
:103b7000d8256713a7b1dbe5bad4b6f72796634b10
:103b80006fa9f3dc8fc6db5ca1a8b1af74066a9b9a
:103b9000c613d57d5b1fd5541ffb0fbf2131f10d1f
:103ba00063e51f6fd8d4b56899c4806abd0a6d7b80
:103bb000971721d30ea142c039b4a16cb80491d19a
:103bc000f8ba57d288691a92780deae8e3570727be
:103bd000c7cf2b0f6e3b256bfef1075555faeee272
:103be000760c8eeb65b1fb612ef0af936603c3627a
:103bf000ac9dda6d6841d4f8bb2ab88dfb359f24a3
:103c0000b939593927f60662fba2ca891267e5afae
:103c1000b698e707c6822c10517d56d5d0ac066aff
:103c20006f5e9a8be78b951bbc9ac5535f8c8adcc1
:103c3000b3aea4a32dcbb6d8a21e5f646724b13166
:103c40008d576d82569cb185110c39f49ec191e659
:103c5000387ecfec96e442c371e357e53d0e6868c9
:103c600067b250f7ea060fa3b5b1530d9b819bb025
:103c7000aeefd88b9b3b0aade284cb5b517b10aca3
:103c8000b000527f65d94ad504cd5bbdfdae2d9ff6
:103c9000c15792bd275befe93fc10a7d836086ee85
:103ca000d752e918b591616213ce792d82537c20e9
:103cb0005a682a8ed8bfdf13b28267aa5073be6ccf
:103cc00050cb7ab956eeebfeb4c065b0cd2f20bb19
:103cd000ed8ce0c944a5e76247712b53fafe04ef6f
:103ce00037458602b86909fa9971862d8063c30c3d
:103cf000e871574d71c5b422b71d216de3139d6a5c
:103d00005aaf1eb48c2929b67960c97f97fb6d2202
:103d10007ea2c0af28dfdab5ba5109811efe76f166
:103d200066716abb5855a8c5d0e2e21478d89a8764
:103d30007123ac411443039676eb6ff1cd0da18a4c
:103d400055d025f69e35bad0e103fa8188d28b2d65
:103d50009c2edf2b537f12c74c02fd8e20f0e7af65
:103d6000ba81263f86bd21123e6e94bee5285d7a5b
:103d70003c60e0f61d69548cbda0033928df65c3a3
:103d800084316bbbb9ba480760677009ad4096379c
:103d9000cfca221e2321f2410e03105abab003d813
:103da00012c5a1bb73ce6365baab0d62cb86a9f316
:103db000bd5733d2fc14736b2c31d9d9eaf225b834
:103dc000469204a15a562696a987297a2936418611
:103dd000a809126a8b73fb2d278c4961eb3be283a8
:103de0002e518dade15a89d458d0442baf4e185b7b
:103df0005bd221b73dc625e4316599a86ef49408dd
:103e0000279eb82c1fa06c894de3dfe6874e0f621a
:103e1000a0c089f8a9466ee8c1c2c4e43bf4e5bf7e
