:020000024000BC
:1000000003B40148019001BDB128040000000000C4
:10001000FFFFFFFFFFFFFFFFFFFFFFFFFFFFFFFFF0
:10002000FFFFFFFFFFFFFFFFFFFFFFFFFFFFFFFFE0
:100030004150503279C63B75B3C3DCD21DB6064D74
:100040000002000000000400F02B0000000000008F
:10005000054A1368F92B10B504D8044909685C1CDB
:10006000C854146010BD00BF24D0002020D0002050
:10007000084A13687D2B10B5014609D806485C1C58
:1000800000681460054CC154208801F0DDFF208019
:1000900010BD00BF18D0002014D000201CD00020BC
:1000A000C02808B508D0DB2802D1FFF7D1FFDD203A
:1000B000BDE80840FFF7CCBFDB20FFF7C9FFDC201D
:1000C000F6E700002DE9F74F0C46054600F08AF9E7
:1000D000631EFA2B04D82F4E2F4F2C44A54202D179
:1000E00003B0BDE8F08F337815F8010B93B1DC282D
:1000F00008D0DD280CD000233B60284B4FF6FF7260
:100100001A8002E0C020FFF7B3FF00233370E5E759
:10011000DB20F8E7C02836D13B68002BDED05A1F21
:10012000772ADFF8789027D8DFF878B0B9F8002080
:10013000DBF800000192A3F1020A013B10F80A105B
:10014000C05C009361F3070860F30F281FFA88F082
:1001500001F07AFFDBF80010009BC95C01F074FF2E
:10016000019A824208D100F043F90D4B1B681BB184
:100170005146DBF80000984700233B604FF6FF73C1
:10018000A9F80030AAE7DB2801D10123BEE7FFF779
:100190006FFFA3E70CD0002018D000201CD0002057
:1001A00010D0002014D00020144B07B51A68144B4F
:1001B0009A421AD8134B1B680DF10700DB6A984767
:1001C00028B99DF807301A070FD0DB060DD402F0CE
:1001D00049FA002002F082F900F0C8F801F020FF8F
:1001E00001F02BFF03B05DF804FB00F0E1F8012003
:1001F00002F074F902F0FCF9F0E700BF08D000202B
:1002000048E801007CE3002038B5104D0C46002181
:1002100029700F4D28600F4803600F4B0498186039
:100220000E4B19600E4B1C600E4B19600E4B4FF6B7
:10023000FF7119802046114602F050F80B4802F079
:100240005DFABDE83840FFF7AFBF00BF0CD000201B
:1002500010D0002020D0002014D0002024D0002076
:1002600008D0002018D000201CD00020C5000400B9
:100270002DE9F0410E46044601F0F2FE144D002334
:100280000746C0202B60FFF7E3FE04EB0608444559
:1002900016D1F8B2FFF704FFC7F30720FFF700FFFE
:1002A000C020FFF7D5FE29688E420ED8094B18688A
:1002B00002F0F8F92B681B1A58425841BDE8F0814A
:1002C00014F8010BFFF7ECFEE1E70020BDE8F08138
:1002D00024D0002020D0002002F02EBA08B101F076
:1002E000A5BE01F0AABE000038B51D4C2378B3B9F5
:1002F0001C4D2A680AB1D3689847012001F06EFEB0
:10030000194A0123237013702B680BB11B6998479E
:10031000022002F047FABDE8384000F01BBB23780A
:10032000012B1BD10F4D2A680AB1D36898470120D1
:1003300002F0D4F802F05CF9022323702B680BB1B1
:100340001B699847022002F00FFA01F037FE01F016
:100350003DFE1020BDE8384001F040BE38BD00BF72
:1003600028D000208CE30020B5E6002010B50D4C0D
:1003700022680AB1D36898470B4B0C4800221A70C8
:1003800001F0CEFD01F01AFE01F020FE102001F078
:1003900025FE01F00BFE23681BB11B69BDE8104070
:1003A000184710BD8CE3002028D00020E90204008B
:1003B00010B50A4C22680AB1D3689847084B00224E
:1003C0001A7001F0FBFD01F001FE01F0DDFD236874
:1003D0001BB11B69BDE81040184710BD8CE300201D
:1003E00028D00020014B01221A707047B5E600208A
:1003F000014B00221A707047B5E600202DE9F84342
:10040000224F3B680BB1DB689847214C237813B926
:100410004FF0FF3514E01F4D1F4E2B681B689847A7
:100420002B6831685B69814698471C4B1A780546F2
:1004300002F0FF085AB10022194DC6F800901A7058
:100440003B680BB11B6998472846BDE8F883154BFC
:100450009842F5D92378002BDAD02378022B0ED1DD
:1004600002F000F9404602F039F800231020237012
:1004700001F0B4FD01F0AAFD01F098FDC8E7237872
:10048000012BF2D1022002F06FF9EEE78CE300209D
:1004900028D0002090E300202CD00020B5E60020DA
:1004A000A08601009F86010070B58278CB1E9A421B
:1004B00005460E4601D0002070BD002000F0C4FAB1
:1004C00004460028F7D00A4B1B685B689847002356
:1004D0006060A360E3603246294604F1100002F038
:1004E00019FA044B20461B689847012070BD00BFD5
:1004F00090E30020BCE6002007B50F4B0F491860C1
:100500000B79B3B90E4B4A79009309680D4B0E482D
:10051000FFF77AFE0D4B0E4A1A600E4A5A600E4AD9
:100520001A610E4A5A610E4A9A600E4ADA600E4A01
:100530009A6103B05DF804FBBCE60020E02B0400E8
:1005400030D00020AED00020A9040400C4E6002072
:100550008906040071020400DD020400D9020400CF
:10056000C106040035060400FD030400024B1868B0
:10057000003018BF01207047B8E60020044B9A688D
:10058000044B1B6912B9044A106800B101201847D6
:10059000F0E60020C4E60020B8E6002038B50446A6
:1005A00010B90125284638BD836800F1100503B154
:1005B0009847A17C064B28465B680331984705465F
:1005C0000028EFD0E368002BEBD020469847E9E7FE
:1005D000C4E6002038B504460078842819D1124CAE
:1005E00023681BB9114801F06FFD20602568B5B183
:1005F0000F4B1B786B7400F0A5F9E8742068FFF7C7
:10060000CDFF054658B92168084801F053FD256023
:1006100005E000F0A9FA10B1E378012BDFD0BDE8C6
:100620003840FFF7ABBF00BFB8E60020F0E600207F
:10063000C0E600202DE9F0410446007C00F094FA69
:100640000646C8B10E4F386804F11008A0B10D4D30
:10065000627C2B789A420CD1037C227C43F080038D
:100660009A4206D100F00AFA00233B602B7801334E
:100670002B704046FFF7AEFF3046BDE8F08100BF6B
:10068000B8E60020C0E6002010B50B4C23681BB96B
:100690000A4801F019FD2060206858B1FFF77EFF7D
:1006A00040B120681030FFF795FF206800F0E6F9B0
:1006B0000023236010BD00BFE0E60020FCE6002020
:1006C0007047000008B5014630B1044801F0E5FC70
:1006D000BDE80840FFF752BF08BD00BFF0E60020AC
:1006E00010B50446034801F0D6FC10B1037CA342C8
:1006F000F9D110BDF0E6002038B5214D214B002284
:100700001A602B68DB6898471F4801F0DDFC2B68F6
:100710001E4D1B69044698477CB1EB6820469847FC
:1007200038BB207C00F008FA98B1204600F0B2FCFB
:10073000F8B12146164801F0B0FC2B689847AB6928
:100740009847114B9B6813B9114B9B6803B100206C
:1007500038BD207C00F0F8F918B1204600F058FDB3
:10076000E6E7207C00F0F8F918B1204600F004FA22
:10077000DEE7AB689847204600F080F9DDE700BF70
:100780008CE30020A8D10020E4E60020C4E600208D
:10079000FCE6002037B51548154C01F077FC1548EC
:1007A00001F074FC144801F071FC00F007F91348E3
:1007B000FFF7A2FE23689B689847114B1B68042132
:1007C00005465B680DEB01009847012D05D1019BA3
:1007D000DB0702D523681B68984701F01FFAFFF773
:1007E00071FF084B00221A6003B030BDE4E6002020
:1007F00084E30020F0E60020FCE6002091090400DC
:1008000088E30020A8D100202DE9F04106463F20D2
:100810000F469046FFF764FF044680B9012000F0C0
:1008200013F901250446234642463946304601F075
:1008300011FA35B12046BDE8F041FFF743BF00256E
:10084000F1E7BDE8F08138B52220FFF749FF044603
:1008500068B9012000F0F8F801250446204601F0AF
:100860004EFA35B12046BDE83840FFF72BBF0025D2
:10087000F4E738BD37B50546012000F0E5F8044639
:1008800090B10A4B1B6801A85B699847019800F07A
:1008900025F922460146284600F03CFC2046FFF799
:1008A00011FF002003B030BD0220FBE77CE30020F5
:1008B00038B50546012000F0C7F8044650B102469D
:1008C0004FF0FF31284600F025FC2046FFF7FAFEE6
:1008D000002038BD022038BD2DE9FF470546012024
:1008E0000E4617469846DDF830A09DF8349000F08B
:1008F000ABF8044688B1504600F0F0F802948DE859
:100900000102434628463A46314600F0E7FB2046BE
:1009100004B0BDE8F047FFF7D5BE04B0BDE8F087EE
:1009200038B5054668B1012000F08EF8044640B1A4
:100930000146284601F0ABF92046BDE83840FFF7F4
:10094000C1BE38BD024B9868003018BF0120704707
:10095000F0E6002070B50B4C2368DB6898470A4B23
:1009600001221D681A6023681B69984745B92368EE
:1009700006489B6829464FF4FA52BDE87040184774
:1009800070BD00BF8CE30020A8D10020F906040050
:1009900038B5084C23680546DB6898472946064861
:1009A00001F07BFB23681B699847BDE83840FFF7DF
:1009B000D1BF00BF8CE30020E4E600202DE9F04128
:1009C0001B4D1C4C1C4A1D48DFF874801B4F641BD8
:1009D0008C26B4FBF6F606F120035B08136001F0E9
:1009E00055FB4FF48C520021154801F0B8FF224608
:1009F0000021284601F0B3FF002408EB040138462B
:100A00008C3401F057FBB4F58C5FF6D1DFF82C8005
:100A100000248C27B44207FB045103D1094B196011
:100A2000BDE8F081404601F045FB0134F2E700BF2C
:100A300008E70020F8EF0020B8D10020ACD100205A
:100A4000BCD1002000D0002038B50A4C23680546F0
:100A5000DB6898471DB1084B9B68022B08D90648F4
:100A600001F032FB054623681B699847284638BDCC
:100A70000025F8E78CE30020ACD1002070B50D4DC7
:100A80000D4C2B680646DB6898473146204601F03E
:100A900011FB2B681B699847084BA2681B689A4298
:100AA00006D3074B1B6801201B6ABDE8704018473E
:100AB00070BD00BF8CE30020ACD10020B8D1002075
:100AC0006CE30020431C04D0034B002808BF1846E9
:100AD00070476FF07F407047FEFFFF006FF07F436D
:100AE000984204D0013B984208BF002070474FF065
:100AF000FF30704700F17F430233B3F17F4F08D8D6
:100B0000054B00F10040013898428CBF00200120C5
:100B100070470120704700BFFCFFFF0010B503467F
:100B20001C1AA14201D8002010BD13F8014B9442B9
:100B3000F6D1012010BD0000024603210148FFF755
:100B4000EDBF00BF71290400024618210148FFF7DC
:100B5000E5BF00BF74290400024603210148FFF7E6
:100B6000DDBF00BF6E29040002460B210148FFF7DC
:100B7000D5BF00BF8C290400F0B5037C0E2B89B0D3
:100B8000044628D0162B00F0C6810D2B40F0E081E2
:100B9000437D827C03339A4240F0DA81B0F813300F
:100BA0005E1E162E00F26F81162B40F0248101F09C
:100BB000B5F830B94FF4807001F0BCF8002840F06F
:100BC0001D8106230022A260E2608D220120227492
:100BD000A074E37442E0837C022B40F0B981B0F84A
:100BE0001360B3B25F1E162F00F20181072B37D1BD
:100BF0004FF4004001F09EF8F0B1904BDD5D002312
:100C0000162F00F2F280DFE817F02E0042004D00B0
:100C100059007100960076007A007C0082008900FD
:100C200090009A00A600AA00BC00C000C800F00016
:100C3000D000EC00E100E600002506238E21002212
:100C400021740421A260E260A174002B40F0D180E5
:100C50006A18A274A575E374A682012009B0F0BDDC
:100C60004FF40070C6E7764B1B6804A85B69984791
:100C7000002840F0A7800498FFF730FF03902A4631
:100C800003A904F1170001F045FE002060E06C4B61
:100C90001B6805A8DB699847002840F09380059BF6
:100CA0000393ECE7664B1B680DF10B005B6A9847FA
:100CB000002840F087809DF80B30F1E7604B1B68FF
:100CC00006A8DB6A984700287CD19DF8183003F00D
:100CD0000F02022A9CBF5B49885CDA0648BF40F0DD
:100CE00010005F06CAD540F08000C7E7564B1B686E
:100CF0001B699847C2E7554B1B68DB68F9E70C2373
:100D0000CEE7534B1B685B689847000EB6E7504B25
:100D10001B685B689847C0F30740AFE74C4B1B6804
:100D20005B689847C0F30720A8E7494B1B685B68DE
:100D30009847C0B2A2E7444B1B685B69D9E7404BB8
:100D40001B68DB6B00209847002800F0038105201A
:100D5000404B1B5C72E73A4B1B685B6BF2E708A9E0
:100D6000ADF8143021F8083D354B1B6805A8DB6D44
:100D70009847BDF818309DF814201B029BB213430E
:100D80008EE7314B1B68DB6AB3E7334B1B680821E6
:100D90009B6A06A89847069B82E72F4B1B68082191
:100DA0009B6A06A89847079B7AE708A820F8083DA1
:100DB000234B1B68DB6C9847BDF818300393002861
:100DC0003FF45DAF0828C3D9012337E71C4B1B68EC
:100DD0005B6803A803E01A4B1B68DB680020984798
:100DE000EDE7174B1B685B6DF3E70220B0E70025CA
:100DF000EAE7A2752FE7172B7FF4DCAE0F4B627D7D
:100E00009B5D9A4240F085800023042A04F1160578
:100E1000069303D8294606A801F07CFD162E74D847
:100E2000DFE806F01C2429337373737373737373D1
:100E3000575C737373737360676B6F00A32904004F
:100E40007CE30020A02904006CE3002078E300206C
:100E500060E30020972904008CE300200698FFF748
:100E600031FE3D4B1B689B6998470AE03A4B1B6873
:100E70001B6A0698F8E7384B9DF818001B689B6AB8
:100E80009847082820D901239CE6069AD1B201F0A0
:100E90000F03022B05D0032B19D0012B37D10020D3
:100EA00000E00120C90648BF40F0100013062A4B9D
:100EB0001B6848BF40F040001B6B98470028E0D1FA
:100EC0000190FFF771F90198244B1B5C7AE6022030
:100ED000E8E7214B1B681B6C2846C5E71E4B1B68C7
:100EE0009B6BF9E71C4BBDF818001B681B6D9847FE
:100EF000C7E7194B1B689B6DBBE7174B1B689B68CB
:100F0000B7E7154B1B681B69E6E70220DCE7042303
:100F100058E6032356E6837C042B19D14FF4805006
:100F200000F008FF80B1D4F813200D4B9A420DD188
:100F3000094B1B681B689847031C18BF012300223C
:100F4000A260E260962241E60323F8E70223F6E777
:100F5000002083E60620FBE67CE3002097290400BE
:100F6000446F497410B5044670B1084B1B685B6848
:100F70009847237C62686060032B01BFD4F81F3060
:100F80009B1AC018C4F81F0010BD00BF90E30020DA
:100F9000F0B5044689B094F82130A27C0F330020CC
:100FA0009A4201906CD1237C0120012B14BF9F2613
:100FB000812600F0BFFE002864D0D4F81600FFF7A9
:100FC00099FD002860D0237F13F0010218BF012291
:100FD0008DF81B209A0742BF9DF81B2042F00802A3
:100FE0008DF81B2013F03C0F09D09DF81B20C3F394
:100FF000830342F004028DF81B208DF81E30E37E3F
:101000001BB1012B01D002252CE08DF81A301F4BAB
:101010001F4F1B685B6898476268D4F81D309B1AA5
:10102000184404F1220305900293D4F8160094F8B2
:1010300021300393FFF746FDE37C227D049043EAD1
:101040000223ADF81830637D8DF81C30A37E8DF837
:101050001D303B6802A8DB6998473B6805469B69E1
:1010600001A898470023A360E3600423A374B4F8A5
:101070001330A4F81330019B2674A3756575012005
:1010800009B0F0BD0A25EDE70525EBE790E3002068
:101090006CE3002038B5037C012B044603D01F2BE2
:1010A00018D0002038BD457F827C05F10B039A42A1
:1010B000F7D12A4600F11E01223001F036FC002350
:1010C00084F821500F356377A377E37784F82030D5
:1010D000A5742046BDE83840FFF75ABF30B5059CDF
:1010E00034B10025A560E560022525740E25A574A0
:1010F000E3619DF81030A082002583F0010303987E
:10110000E276E574A17584F820306560C4F81700B4
:1011100030BD000038B50546406800F11103DBB270
:1011200014462AB10022A260E26003222274A37452
:101130006B7C2376AB686361C4F81910AB7C637772
:10114000EB7C2A7C9B0002F0030203F03C03134378
:10115000A3770246296804F1240001F0DBFB084B69
:101160001B685B689847074BA360EB68C4F81F30A7
:101170000023E3746B6884F82330606038BD00BFDF
:1011800090E30020650F040000F00103810748BFD1
:1011900043F00403420748BF43F00203010748BF7E
:1011A00043F00803C20648BF43F01003810648BF5E
:1011B00043F02003020648BF43F0800318467047FF
:1011C000044B10B55B699847034B1B68BDE81040A2
:1011D0005B681847C4E6002084E30020044B1B68CA
:1011E00010B55B6804469847C4F8170010BD00BFEF
:1011F00090E3002038B5054640B1FFF7A3FB044655
:10120000FFF7B4F9002818BF0124EC7438BD0000C2
:101210002DE9F047037C1E2BA6B0044600F0838323
:1012200000F2CF80172B00F0DD823CD8062B00F0B7
:101230007F8107D8042B00F0B682052B00F0418196
:1012400000258EE10B2B00F051820C2BF8D1837C12
:10125000022BF5D1B0F813801FFA88F77D1E0C2DF4
:1012600000F23F820C2F40F0C7814FF4004000F0A5
:1012700061FD002800F0A981A54B04F117095E5D0E
:1012800000230C2D00F22B82DFE815F0BF01CF0107
:10129000E7012902EE01F201FE01FC010202160241
:1012A0001F02230225021A2B00F0FC8251D8182BB2
:1012B00000F0BA82192BC3D1837C002BC0D183608C
:1012C000C36099230374182383744FF4004000F023
:1012D00031FD0546002800F0DE828E4E33685B68E3
:1012E00098473368C4F813001B6998473368A4F81B
:1012F0001700DB689847336860765B699847336806
:10130000A0769B6998473368E076DB699847336835
:10131000E0615B6A9847336820841B6A98473368AA
:1013200084F822009B6A98477B4BC4F823001B6813
:101330005B689847C0F3076384F82730C0F307431E
:1013400084F82830C0F3072384F8293084F82A0071
:1013500007E11B2B00F0C5821C2B7FF471AF837C4F
:101360000025042B8DF8145040F0FB806B4B1B685C
:1013700005A8DB6A984705464FF4802000F0DAFCA8
:10138000002800F0CA82664B1B689B6898470028BB
:1013900040F0C5829DF814301A0740F0C282002D3B
:1013A00040F0BF825B4BD4F813001B681B6D98475D
:1013B000002814BF032300230022A260E2609C22C5
:1013C000CDE13B2B00F0D58045D8382B00F06A8367
:1013D00019D8202B00F0F082212B7FF431AF837CD1
:1013E000002B7FF42DAF4FF4800000F0A3FC002809
:1013F00000F056834A4B1B68DB6998470023A360C3
:10140000E360A1237CE0392B00F06A833A2B7FF460
:1014100017AF837C532B7FF413AF102000F08AFCAE
:10142000002800F0A4803F4BA28A1B68E17C9B6AE5
:1014300004F1160098470023A360E360BA23042850
:1014400023744FF00103A37496BF374B04231B5C36
:10145000E374012585E0422B00F07B8319D8402BF3
:1014600000F06183412B7FF4EBAE304B1B685B686F
:1014700098470023002800F06A8307280CBF012248
:101480000622A360E3600125C1232374A574E274DE
:1014900067E04F2B00F07383502B4FF0000500F0F6
:1014A00083834C2B7FF4CCAECC230374042383744E
:1014B0001E4B85601B68C5605B699847C4F81300C4
:1014C000C7E7837C012B7FF4BBAE042000F032FC25
:1014D000D8B1E07C003018BF012000F063FC002888
:1014E0007FF4AEAE0E4D2B681B68984720B12B6879
:1014F0009B689847FFF748FE0023A360E3608523BD
:1015000001252374A574E0742BE08020F4E700BF6C
:10151000D029040078E3002060E300207CE3002071
:1015200084E300206CE30020BA29040080E300205B
:10153000857C002D7FF484AE082000F0FBFBA0B179
:10154000284600F02FFC00287FF47AAE0023A36029
:10155000E360012586232374A574E07408B9984BD1
:10156000E360284626B0BDE8F0878020EEE705203E
:1015700061E7837C002B7FF463AE2020ADF814304C
:101580008DF8043000F0D6FBE8B18E4B1B6805AA3D
:101590005B6A01A904F1170098470023A360E36088
:1015A000BB2323745423A374BDF81430A4F815305E
:1015B0009DF80430237520B1022808BF012018BF10
:1015C0000220E07445E70520E7E7002606238C218A
:1015D000002221740421A260E260A174002B40F07B
:1015E00083807218082FA274A67501D1764AA26072
:1015F000E374A4F814802CE7042F01D0072F02D144
:101600004FF4001033E6802031E6704B1B689B6876
:101610009847FFF7B9FD0190042E04D8324601A97E
:10162000484601F077F9002514E026A8DFF894A1D8
:1016300040F8843DDAF800309B699847DAF80030CA
:101640005B6905469847059BC01A0190002DE3D0C1
:10165000082D47D85E4B5B5DB9E75A4B1B689B6909
:1016600001A898470546F1E7584B1B689B6AF7E7C6
:10167000584B1B6804215B680DEB01009847019BE8
:1016800003F001030193C7E7504B1B68DB68E7E7F2
:1016900026A9ADF8023021F8843D4F4B1B685B6CE6
:1016A0000DF102009847BDF81420BDF8023003EB9D
:1016B000024305460193C9E726A9ADF8023021F897
:1016C000843D454B1B681B6EEAE7404B1B685B691A
:1016D000C6E77023D6E7484600F0E2FBC2E70225E2
:1016E000B8E70026012372E7A27581E7437D827C7B
:1016F00003339A427FF4A4ADB0F813506E1E0C2E43
:101700004BD8402000F016FB002848D0334B627DB8
:101710009B5D9A4245D10023042A04F116060593E5
:10172000A5F1050500F25A82314605A801F0F2F84C
:10173000082D30D8DFE805F005172F2F212F2F2F88
:101740002900224B9DF814001B68DB6A9847082883
:1017500023D81F4B1B5C0022A260E2608B22012574
:101760002274A57487E00598012812D800F00100C2
:1017700000F018FBEBE70020F8E7174B05981B6813
:10178000010C9B6C80B29847E1E7304600F068FBA3
:10179000DDE70320DDE70220DBE70123DBE70623AB
:1017A000D9E70323D7E7837C002B7FF449ADC360DF
:1017B0008423037401250A4B85748360D1E600BF3E
:1017C000C11104006CE30020DD11040084E300205B
:1017D000BF29040088E300207CE30020D029040016
:1017E000F5110400837C052B7FF42AAD4FF40050E3
:1017F00000F0A0FAA0B16D4B1B689B68984788B1B8
:101800006B4BE17D1B68D4F813001B6C98470028D4
:1018100014BF022300230022A260E26097229EE709
:101820000423F8E70123F6E7C37D827C05339A425F
:101830007FF406AD5D4B467C1B689B68984730B3D0
:101840005B4BE17D1B68D4F813005B6C04F118025C
:1018500098470138062805D8DFE800F01B0F111360
:101860001517170000230022A260E26001259822CC
:101870002274A5746674E37473E60223F3E7042309
:10188000F1E70523EFE70623EDE70723EBE7032363
:10189000E9E70123E7E71822002104F1130001F032
:1018A0005EF8D6E5837C002B7FF4CAAC4FF4005081
:1018B00000F040FA88B13D4B1B689B68984770B1B7
:1018C0003B4B1B689B6C9847002814BF02230023E6
:1018D0000022A260E2609A2241E70323F8E7012395
:1018E000F6E7837C002B7FF4ABAC4FF4005000F0A4
:1018F00021FA70B12D4B1B689B68984758B12C4B4F
:101900001B68DB6B984700230022A260E2609B22E9
:1019100025E70223F8E70123F6E704234CE501233A
:101920004AE5022348E5837C0025072B8DF81450F7
:101930007FF417AE1F4B1B6805A8DB6A9847054666
:101940004FF4002000F0F6F928B3184B1B689B6891
:10195000984710BB9DF814301B0720D1FDB9E17DDD
:101960004B1EDBB2FD2B1CD8114B228B1B68D4F80D
:1019700013005B6D984707280DD8DFE800F0040CD2
:101980000C140C0C0A0E00230022A260E2609E22BE
:10199000E5E60323F8E70623F6E70123F4E702234D
:1019A000F2E70423F0E70523EEE700BF84E300201D
:1019B00078E300207CE30020867C002E7FF440AC9E
:1019C000A0230374692383748660C660682231464D
:1019D000143000F0C4FF4FF4001000F0ABF90546DE
:1019E00000283FF436AD894B1B6805A81B6A984751
:1019F000002852D10AAE00274FF00D08059B9F42E8
:101A000047D20D22002101A800F0A9FF56F8100CC2
:101A1000FFF764F816F8073C8DF80B3016F8083C11
:101A20008DF80A3036F80C3CADF80F3016F80A3C49
:101A30008DF8083016F8093C8DF8093016F8043C8A
:101A40008DF80E3016F8053C8DF80D3016F8063C72
:101A5000019023B1012B18BF02238DF80C3008FB35
:101A6000074301AA14330DF10C0C9646BEE803009F
:101A7000E64518605960724603F10803F5D1DEF8B7
:101A8000000018609EF804201A71082F06F1100655
:101A900001D1059BEFE60137B0E7E674FFF7D0BB55
:101AA0000220ABE4837C012B7FF4CAAB4FF00070C3
:101AB00000F040F990B1554BE07C1B685B6B984798
:101AC0000023A360E360B82323740123A3740028D8
:101AD0003FF477AD052808BF184670E50820EFE70A
:101AE000837C002B7FF4ACAB4FF080608DF814301A
:101AF00000F020F9A8B1454B1B6805A81B6B98475F
:101B00000023A360E360B92323740223A37418B1F4
:101B100005280CBF012018469DF81430E074237589
:101B200097E40820ECE73A4BD0F817101B68D0F880
:101B300013001B689847072898BF364B4FF00002E8
:101B4000A260E26094BF1B5C0623C02207E61A462F
:101B500097E400238360C3602D4DC22303740523E3
:101B600083742B689B68984701281CBF0223E37489
:101B70002B6808BFE074DB689847606169E4837C88
:101B8000032B0ED1244B818A1B68C07C5B6B98476A
:101B900001250023A360E360CF2323740123A374F2
:101BA000B1E403200025F4E7867CADF81450012E43
:101BB00012D1194BC07C1B6805A99B6B9847354611
:101BC0000023A360E360D0232374BDF81430A38204
:101BD0000323E074A374C4E40320F1E7082D3FF667
:101BE000DAAD01A353F825F043170400771704007A
:101BF00097170400971704007B1704009717040039
:101C000097170400971704008B17040084E3002043
:101C100080E30020C82904006CE3002038B50120CF
:101C2000FEF712FF044680B1072303740223837476
:101C3000074B00251B6845749B688560C56045603F
:101C40009847FFF7A1FAE5742075204638BD00BF1C
:101C500084E3002070B50E461C46BBB100259D6094
:101C6000DD603F2323745423A37404F11703A4F805
:101C7000152020755022FF2118466560657400F01C
:101C80006EFE5022314600F045FEE57470BD38B559
:101C900005460C4631B100238B60CB601D230B74CD
:101CA0001F238B7400236374E374A868FEF716FF88
:101CB0002B68A361AB8A6061A383AB7EA3772B7F84
:101CC000E377EB6884F820306B68C4F82130EB8A46
:101CD000A4F82530EB7E84F827302B69A3626B7F54
:101CE00084F82C30AB7F84F82D30EB7F84F82E30D5
:101CF00095F8203084F82F302B8B238638BD58B1CF
:101D00002222027402220023827401228360C360B3
:101D1000436043740275C3747047000008B5044BF8
:101D20001B680020DB689847B0FA80F0400908BDC6
:101D30007CE3002013B50446FFF7F0FF80B102A852
:101D40004FF0FF3340F8043D064B1B685B68984733
:101D5000019B34EA03030CBF0120002002B010BD38
:101D60000120FBE77CE30020024B03481B681F2196
:101D70001B68184788E300203CE30020064B1A78D4
:101D80003AB901221A70054B05481B681F215B6890
:101D900018470020704700BF5BE3002088E3002065
:101DA0003CE3002010B50446FFF7E8FF034B1C702E
:101DB00018B9BDE81040FFF7D7BF10BD3CE30020C5
:101DC00010B50446FFF7DAFF064A234602F11C016C
:101DD00052F8044B43F8044B8A42F9D112881A8016
:101DE00010BD00BF3DE3002010B50446FFF7C6FF5D
:101DF000084A234604F11C0153F8044B42F8044BF3
:101E00008B42F9D11B88138018B9BDE81040FFF749
:101E1000ABBF10BD3DE3002070B58AB0044602A8F8
:101E2000FFF7CEFF10B100200AB070BD0B4D014688
:101E30000AAB02AA024443F8241D16889278ADF832
:101E400004609A70019B5A1EAA4201D89C4203D09A
:101E500003301E28ECD1E6E70120E5E7FCFFFF0098
:101E600070B50E4E88B00546002405EB840304EBE4
:101E700044021868B0420DEB02010CD818889B7818
:101E80002DF8020001348B706846FFF7ADFF0A2C75
:101E9000EBD108B070BD0320FBE700BFFDFFFF00E2
:101EA000F0B58BB0044602A8FFF78AFFB0B90C4E1C
:101EB000034601460AAA02AD1D4442F8241D2F889C
:101EC000AD78ADF804709570019AB24288BF019167
:101ED0000333019A44F8042B1E2BEBD10BB0F0BD59
:101EE000FDFFFF000B4B684620F00701D3F87C2173
:101EF0008D4601B552B10022C3F87C21D3F87C2174
:101F0000054B1A60054B1B6803B19847BDE80140BB
:101F10008546704700600040B0E600205CE300208A
:101F2000154B4FF0FF3210B5C3F808230022C3F859
:101F30007C214FF0A043114CD3F8102722F44032FB
:101F4000C3F81027D3F8102742F44032C3F8102703
:101F50000B4B2268186012B1136A06209847236859
:101F600043B19C69074BA446002206210120BDE82D
:101F70001040604710BD00BF006000408CE30020AF
:101F80005CE30020E51E040010B5074C226812B186
:101F9000D36906209847236823B11B6A0620BDE851
:101FA0001040184710BD00BF8CE30020024B4FF0DB
:101FB0000042C3F80423704700600040024B4FF01A
:101FC0000042C3F80823704700600040024B002223
:101FD000C3F87C21704700BF00600040C30713D4E2
:101FE00010F0100F0CBF002003204FF0A043D3F8D7
:101FF000101721F44031C3F81017D3F8102742EA24
:102000000042C3F8102770470220EEE74FF0A043CC
:102010000222C3F830274FF48052C3F808257047D6
:102020004FF0A0430122C3F8302770474FF0A04380
:102030004FF48052C3F80C2570474FF0A0434FF483
:102040008052C3F80825704781EA1021034B33F80A
:10205000113083EA002080B2704700BFDE290400FF
:1020600010B5094C01444FF6FF73884201D1184660
:1020700010BD10F8012B82EA132234F8122082EAF4
:1020800003239BB2F1E700BFDE29040000230360B5
:102090004360836070470068704703683BB9016024
:1020A000002341600B60836801338360704743689D
:1020B0001960F5E703680B604368016003B941608C
:1020C00083680133836070470346006840B19A68B3
:1020D000013A9A6002681A6002B95A6000230360EC
:1020E00070470000444B2DE9F74F044618604FF449
:1020F000017183684148DFF85481414F414E424DA0
:10210000DFF84C91DFF84CA1DFF84CB19847A36899
:10211000C8F8000040F203213C489847A3683860A3
:1021200040F201213A489847A368306040F201210B
:1021300038489847A36828604FF40071364898479C
:10214000A368C9F8000040F2012134489847A36809
:10215000CAF800004FF4007131489847A368CBF8E3
:1021600000004FF400712F4898472F4B4FF4007137
:102170001860A3682D4898472D4B4FF400711860E4
:10218000A3682C4898472C4AA368106040F20121AC
:102190002A48019298472A4BA46818604FF40071AE
:1021A00028480093A0472849009B08600446D8F8B7
:1021B0000000E0B13868D0B13068C0B12868B0B173
:1021C000D9F8000098B1DAF8000080B1DBF800001F
:1021D00068B1174A106850B1019A106838B1124AB4
:1021E00012683AB1186810B1201C18BF012003B062
:1021F000BDE8F08F0020FAE760E3002061F1030002
:102200007CE3002084E300208CE3002076D6CE74AB
:1022100065C1F902D51BDB774DC2130015FF4E01D6
:10222000AFD6137738230F0078E30020B830B90C0D
:1022300068E300206830B90C64E300201808F2025B
:1022400080E30020493BFD0174E300206CE30020A3
:1022500090E3002070E3002088E30020684620F02F
:1022600007018D462DE9F941174BD3F840210AB3F8
:102270004FF00008C3F8408103F5805301221A642F
:10228000124CD3F840752078FFB2874212D0104D1F
:102290002B687BB187420F4E06D2C0F1FF012B683D
:1022A0003044984784F8008020782B68391A3044ED
:1022B00098472770044BD3F84021074B1A60BDE8BC
:1022C000F9418546704700BF0090004098E3002028
:1022D0009CE30020A0E30020B0E600204FF0A043E4
:1022E0002DE9F04120220224C3F81447C3F8082541
:1022F0001022C3F81047C3F808254FF40072C3F842
:102300002447C3F808254FF48062C3F82847C3F870
:102310000825614A00251560604A1570604A1560FD
:10232000604A0526C2F80C6501260427B142C2F8AE
:102330001475D6605660C2F800554FF0FF3640F075
:102340008880C3F82477C3F828770923C2F8086582
:10235000C2F81035C2F86C15534B9842514B00F03F
:10236000948000F28180B0F5E13F00F086804F4A12
:10237000904200F087804FF0FF32C3F808234FF4FB
:102380004072C3F804232022C3F80022484B494A74
:10239000012100240225C3F80455C3F80845D9607B
:1023A00059600323C2F80445C2F808350423C2F873
:1023B00010354FF48033C2F804333F4BB3FBF0F3D6
:1023C00003EB8303C2F840353C4B5160D1603821A8
:1023D000C3F800183A49C3F82815C3F82C25A2F50C
:1023E000DD42783AC3F8302502F5DE420432C3F804
:1023F000342502F6FC72C3F82029A2F5FD42783A92
:10240000C3F8382502F5FD427C32C3F83C252D4B3C
:102410001C712D4C5A1D1A60236813B11B6A284683
:10242000984723682BB19D69284B00220221012087
:10243000A847236813B11B6A0920984723684BB348
:102440009C69234BA446002209210120BDE8F041EC
:102450006047C2F80865C2F81065C2F86C55C3F849
:102460002447C3F8284777E7B0F5E12F10D0194A81
:10247000904280D14FF0805201E04FF0EB72C3F8F0
:10248000242578E74FF00072F9E74FF08062F6E715
:10249000114AF4E7BDE8F08194E300209FE40020B6
:1024A0009CE300200020004090D0030048E8010099
:1024B00000A00040009000408096980000F001408D
:1024C0004C210040A0E400208CE30020A125040062
:1024D0005D22040040420F0000705F0770B5194D87
:1024E0002B6806460BB1DB689847174C2368AEB1E2
:1024F0005BB9012000F056F94FF0A0430122C3F868
:102500001427124B0822C3F80025236801332360E7
:102510002B68ABB11B69BDE87040184713B1236845
:10252000013B23602368002BF2D1084AC2F8003532
:102530004FF0A0420120C2F8143700F015F9E7E788
:1025400070BD00BF8CE3002094E300200020004019
:10255000104B1A7870B502F0FF06CAB90E4C2279FA
:10256000B2B1012528461D70FFF7B8FF0B4B22685A
:10257000C3F844252179C3F84815C3F820619D604C
:10258000631D9A4208BF04F20513236000232371E0
:1025900070BD00BFA8E60020A0E40020002000409D
:1025A000684620F007018D4619B50E4CD4F820314D
:1025B00043B10D4A00231370C4F820310123E360B6
:1025C000FFF7C6FFD4F8243113B10023C4F8243137
:1025D000044BD3F80821054B1A60BDE81940854625
:1025E000704700BF00200040A8E60020B0E60020B1
:1025F00010B5154C23680BB1DB689847134B1A785C
:102600002AB12368FBB11B69BDE8104018470121BE
:1026100019700F480F4BC3F80821C3F81021C3F8F5
:102620004C21C0F840210C48C3F83405FF20C3F802
:1026300038050A4802700A4AD160116002F5A832D2
:1026400011601960DDE710BD8CE300209FE40020DD
:102650000090004000200040A0E3002098E300200C
:1026600000A0004010B50C4C22680AB1D36898470E
:102670000A4A01235360A2F5E832536002F5004292
:102680005360074B00221A7023681BB11B69BDE819
:102690001040184710BD00BF8CE3002000F001403F
:1026A0009FE400202DE9F041124D2B6880460C4636
:1026B0000BB1DB689847104E3079C0F58072A242AA
:1026C00007D22C6814B12369984700242046BDE83E
:1026D000F081376822464146384400F01BF93379CF
:1026E00023443371FFF734FF2B68002BEED01B69B6
:1026F0009847EBE78CE30020A0E4002070B50C4C79
:10270000226805460AB1D36898470A4B1D601A68CB
:102710004FF0A0434AB14FF44032C3F8102723686A
:102720002BB11B69BDE8704018470222F5E770BD68
:102730008CE300209CE3002082B044F62063064A2C
:10274000019313780BB1019B0BB902B07047019B49
:10275000013B0193F5E700BFA8E60020014B0022F2
:102760001A607047ACE6002070B50C4C2368054633
:102770000BB1DB6898470A4B1A6822EA05021A6017
:10278000186818B923680BB15B69984723681BB1B7
:102790001B69BDE87040184770BD00BF8CE3002086
:1027A000ACE6002070B50D4D2B68044693B1DB6894
:1027B0009847022C08D00A4B186804431C602B6809
:1027C00053B15B69012098472B682BB11B69BDE8A9
:1027D000704018470228EED170BD00BF8CE3002086
:1027E000ACE6002010B5044C23781BB9FFF7B6FF08
:1027F00001232370012010BDB4E600200B460146E2
:102800001846FEF701B8FEF71EB8FEF789B813B5F3
:102810000346C27A1C7B817A008901941C6800946B
:102820005B68FEF759F802B010BD000010B5154CFA
:10283000FFF758FCFFF7D6FFFFF7E8FBFDF7AAFF0D
:10284000236811481B689847236810485B689847BD
:1028500023680F489B68984723680E48DB689847B1
:102860000D4B0E481B685B6E98470D4B0D481B685F
:10287000DB6C98470C4B0D481B6801219B69BDE838
:10288000104018476CE3002075080400B1080400EC
:102890000F280400FD2704007CE30020191E04001B
:1028A00078E300200B28040084E3002007280400BC
:1028B00070B51C46036805469847B0F5007F12D3F3
:1028C0000E490F4B0F485B1A9B0800229A420CD10D
:1028D0000D4B0E4A002193420DD12846FFF7A6FF6B
:1028E0000B4B1B682360002070BD50F8226041F83C
:1028F00022600132EAE743F8041BECE700D0002035
:1029000008D00020E82B040008D0002008E70020B1
:1029100000D0002010B5431E0A44914200D110BDE2
:1029200011F8014B03F8014FF7E7884210B501EBAE
:10293000020303D8421E99420CD110BD9842F9D22D
:102940008118D21AD34200D110BD13F8014D01F8FD
:10295000014DF7E711F8014B02F8014FEBE7024494
:102960000346934200D1704703F8011BF9E70D0EAF
:1029700016011F3C0405060B0C1718191A1B1C1E08
:10298000202138393A3B4041424C4F50828387BF27
:102990009DA2BDBEC2C9CC0001010404040502060B
:1029A00001020304030101010101020202020210FB
:1029B00010020102020102040410000104030200DB
:1029C00001010401040102060006060506020601D3
:1029D00001010101010101040404020128000000B9
:1029E0002110422063308440A550C660E770088102
:1029F00029914AA16BB18CC1ADD1CEE1EFF1311279
:102A0000100273325222B5529442F772D662399351
:102A100018837BB35AA3BDD39CC3FFF3DEE36224C8
:102A2000433420040114E664C774A44485546AA5A1
:102A30004BB528850995EEE5CFF5ACC58DD5533658
:102A4000722611163006D776F6669556B4465BB7F1
:102A50007AA719973887DFF7FEE79DD7BCC7C44828
:102A6000E5588668A7784008611802282338CCC941
:102A7000EDD98EE9AFF9488969990AA92BB9F55AB8
:102A8000D44AB77A966A711A500A333A122AFDDB91
:102A9000DCCBBFFB9EEB799B588B3BBB1AABA66C88
:102AA000877CE44CC55C222C033C600C411CAEEDE1
:102AB0008FFDECCDCDDD2AAD0BBD688D499D977E98
:102AC000B66ED55EF44E133E322E511E700E9FFF31
:102AD000BEEFDDDFFCCF1BBF3AAF599F788F8891E7
:102AE000A981CAB1EBA10CD12DC14EF16FE18010CB
:102AF000A100C230E3200450254046706760B983CE
:102B00009893FBA3DAB33DC31CD37FE35EF3B1021A
:102B10009012F322D2323542145277625672EAB5DD
:102B2000CBA5A89589856EF54FE52CD50DC5E2346A
:102B3000C324A01481046674476424540544DBA7AD
:102B4000FAB79987B8975FE77EF71DC73CD7D326BA
:102B5000F2369106B01657667676154634564CD93D
:102B60006DC90EF92FE9C899E9898AB9ABA944580A
:102B7000654806782768C018E1088238A3287DCB0D
:102B80005CDB3FEB1EFBF98BD89BBBAB9ABB754A5A
:102B9000545A376A167AF10AD01AB32A923A2EFD9D
:102BA0000FED6CDD4DCDAABD8BADE89DC98D267CAA
:102BB000076C645C454CA23C832CE01CC10C1FEFED
:102BC0003EFF5DCF7CDF9BAFBABFD98FF89F176EFA
:102BD000367E554E745E932EB23ED10EF01E00002E
:082BE00048E8010000000000BC
:082BE80008E7002000000000D6
:0400000340000000B9
:00000001FF
